{
  "_format": "hh-sol-artifact-1",
  "contractName": "ERC1155Test",
  "sourceName": "contracts/ERC1155Test.sol",
  "abi": [
    {
      "inputs": [],
      "stateMutability": "nonpayable",
      "type": "constructor"
    },
    {
      "anonymous": false,
      "inputs": [
        {
          "indexed": true,
          "internalType": "address",
          "name": "account",
          "type": "address"
        },
        {
          "indexed": true,
          "internalType": "address",
          "name": "operator",
          "type": "address"
        },
        {
          "indexed": false,
          "internalType": "bool",
          "name": "approved",
          "type": "bool"
        }
      ],
      "name": "ApprovalForAll",
      "type": "event"
    },
    {
      "anonymous": false,
      "inputs": [
        {
          "indexed": true,
          "internalType": "address",
          "name": "previousOwner",
          "type": "address"
        },
        {
          "indexed": true,
          "internalType": "address",
          "name": "newOwner",
          "type": "address"
        }
      ],
      "name": "OwnershipTransferred",
      "type": "event"
    },
    {
      "anonymous": false,
      "inputs": [
        {
          "indexed": false,
          "internalType": "address",
          "name": "account",
          "type": "address"
        }
      ],
      "name": "Paused",
      "type": "event"
    },
    {
      "anonymous": false,
      "inputs": [
        {
          "indexed": true,
          "internalType": "address",
          "name": "operator",
          "type": "address"
        },
        {
          "indexed": true,
          "internalType": "address",
          "name": "from",
          "type": "address"
        },
        {
          "indexed": true,
          "internalType": "address",
          "name": "to",
          "type": "address"
        },
        {
          "indexed": false,
          "internalType": "uint256[]",
          "name": "ids",
          "type": "uint256[]"
        },
        {
          "indexed": false,
          "internalType": "uint256[]",
          "name": "values",
          "type": "uint256[]"
        }
      ],
      "name": "TransferBatch",
      "type": "event"
    },
    {
      "anonymous": false,
      "inputs": [
        {
          "indexed": true,
          "internalType": "address",
          "name": "operator",
          "type": "address"
        },
        {
          "indexed": true,
          "internalType": "address",
          "name": "from",
          "type": "address"
        },
        {
          "indexed": true,
          "internalType": "address",
          "name": "to",
          "type": "address"
        },
        {
          "indexed": false,
          "internalType": "uint256",
          "name": "id",
          "type": "uint256"
        },
        {
          "indexed": false,
          "internalType": "uint256",
          "name": "value",
          "type": "uint256"
        }
      ],
      "name": "TransferSingle",
      "type": "event"
    },
    {
      "anonymous": false,
      "inputs": [
        {
          "indexed": false,
          "internalType": "string",
          "name": "value",
          "type": "string"
        },
        {
          "indexed": true,
          "internalType": "uint256",
          "name": "id",
          "type": "uint256"
        }
      ],
      "name": "URI",
      "type": "event"
    },
    {
      "anonymous": false,
      "inputs": [
        {
          "indexed": false,
          "internalType": "address",
          "name": "account",
          "type": "address"
        }
      ],
      "name": "Unpaused",
      "type": "event"
    },
    {
      "inputs": [
        {
          "internalType": "address",
          "name": "account",
          "type": "address"
        },
        {
          "internalType": "uint256",
          "name": "id",
          "type": "uint256"
        }
      ],
      "name": "balanceOf",
      "outputs": [
        {
          "internalType": "uint256",
          "name": "",
          "type": "uint256"
        }
      ],
      "stateMutability": "view",
      "type": "function"
    },
    {
      "inputs": [
        {
          "internalType": "address[]",
          "name": "accounts",
          "type": "address[]"
        },
        {
          "internalType": "uint256[]",
          "name": "ids",
          "type": "uint256[]"
        }
      ],
      "name": "balanceOfBatch",
      "outputs": [
        {
          "internalType": "uint256[]",
          "name": "",
          "type": "uint256[]"
        }
      ],
      "stateMutability": "view",
      "type": "function"
    },
    {
      "inputs": [
        {
          "internalType": "address",
          "name": "account",
          "type": "address"
        },
        {
          "internalType": "address",
          "name": "operator",
          "type": "address"
        }
      ],
      "name": "isApprovedForAll",
      "outputs": [
        {
          "internalType": "bool",
          "name": "",
          "type": "bool"
        }
      ],
      "stateMutability": "view",
      "type": "function"
    },
    {
      "inputs": [
        {
          "internalType": "bytes",
          "name": "data",
          "type": "bytes"
        }
      ],
      "name": "mint",
      "outputs": [],
      "stateMutability": "nonpayable",
      "type": "function"
    },
    {
      "inputs": [
        {
          "internalType": "uint256[]",
          "name": "ids",
          "type": "uint256[]"
        },
        {
          "internalType": "uint256[]",
          "name": "amounts",
          "type": "uint256[]"
        },
        {
          "internalType": "bytes",
          "name": "data",
          "type": "bytes"
        }
      ],
      "name": "mintBatch",
      "outputs": [],
      "stateMutability": "nonpayable",
      "type": "function"
    },
    {
      "inputs": [],
      "name": "owner",
      "outputs": [
        {
          "internalType": "address",
          "name": "",
          "type": "address"
        }
      ],
      "stateMutability": "view",
      "type": "function"
    },
    {
      "inputs": [],
      "name": "pause",
      "outputs": [],
      "stateMutability": "nonpayable",
      "type": "function"
    },
    {
      "inputs": [],
      "name": "paused",
      "outputs": [
        {
          "internalType": "bool",
          "name": "",
          "type": "bool"
        }
      ],
      "stateMutability": "view",
      "type": "function"
    },
    {
      "inputs": [],
      "name": "renounceOwnership",
      "outputs": [],
      "stateMutability": "nonpayable",
      "type": "function"
    },
    {
      "inputs": [
        {
          "internalType": "address",
          "name": "from",
          "type": "address"
        },
        {
          "internalType": "address",
          "name": "to",
          "type": "address"
        },
        {
          "internalType": "uint256[]",
          "name": "ids",
          "type": "uint256[]"
        },
        {
          "internalType": "uint256[]",
          "name": "amounts",
          "type": "uint256[]"
        },
        {
          "internalType": "bytes",
          "name": "data",
          "type": "bytes"
        }
      ],
      "name": "safeBatchTransferFrom",
      "outputs": [],
      "stateMutability": "nonpayable",
      "type": "function"
    },
    {
      "inputs": [
        {
          "internalType": "address",
          "name": "from",
          "type": "address"
        },
        {
          "internalType": "address",
          "name": "to",
          "type": "address"
        },
        {
          "internalType": "uint256",
          "name": "id",
          "type": "uint256"
        },
        {
          "internalType": "uint256",
          "name": "amount",
          "type": "uint256"
        },
        {
          "internalType": "bytes",
          "name": "data",
          "type": "bytes"
        }
      ],
      "name": "safeTransferFrom",
      "outputs": [],
      "stateMutability": "nonpayable",
      "type": "function"
    },
    {
      "inputs": [
        {
          "internalType": "address",
          "name": "operator",
          "type": "address"
        },
        {
          "internalType": "bool",
          "name": "approved",
          "type": "bool"
        }
      ],
      "name": "setApprovalForAll",
      "outputs": [],
      "stateMutability": "nonpayable",
      "type": "function"
    },
    {
      "inputs": [
        {
          "internalType": "string",
          "name": "newuri",
          "type": "string"
        }
      ],
      "name": "setURI",
      "outputs": [],
      "stateMutability": "nonpayable",
      "type": "function"
    },
    {
      "inputs": [
        {
          "internalType": "bytes4",
          "name": "interfaceId",
          "type": "bytes4"
        }
      ],
      "name": "supportsInterface",
      "outputs": [
        {
          "internalType": "bool",
          "name": "",
          "type": "bool"
        }
      ],
      "stateMutability": "view",
      "type": "function"
    },
    {
      "inputs": [],
      "name": "tokenCounter",
      "outputs": [
        {
          "internalType": "uint256",
          "name": "",
          "type": "uint256"
        }
      ],
      "stateMutability": "view",
      "type": "function"
    },
    {
      "inputs": [
        {
          "internalType": "address",
          "name": "newOwner",
          "type": "address"
        }
      ],
      "name": "transferOwnership",
      "outputs": [],
      "stateMutability": "nonpayable",
      "type": "function"
    },
    {
      "inputs": [],
      "name": "unpause",
      "outputs": [],
      "stateMutability": "nonpayable",
      "type": "function"
    },
    {
      "inputs": [
        {
          "internalType": "uint256",
          "name": "",
          "type": "uint256"
        }
      ],
      "name": "uri",
      "outputs": [
        {
          "internalType": "string",
          "name": "",
          "type": "string"
        }
      ],
      "stateMutability": "view",
      "type": "function"
    }
  ],
  "bytecode": "0x60806040523480156200001157600080fd5b506040518060200160405280600081525062000033816200007560201b60201c565b5062000054620000486200009160201b60201c565b6200009960201b60201c565b6000600360146101000a81548160ff02191690831515021790555062000274565b80600290805190602001906200008d9291906200015f565b5050565b600033905090565b6000600360009054906101000a900473ffffffffffffffffffffffffffffffffffffffff16905081600360006101000a81548173ffffffffffffffffffffffffffffffffffffffff021916908373ffffffffffffffffffffffffffffffffffffffff1602179055508173ffffffffffffffffffffffffffffffffffffffff168173ffffffffffffffffffffffffffffffffffffffff167f8be0079c531659141344cd1fd0a4f28419497f9722a3daafe3b4186f6b6457e060405160405180910390a35050565b8280546200016d906200020f565b90600052602060002090601f016020900481019282620001915760008555620001dd565b82601f10620001ac57805160ff1916838001178555620001dd565b82800160010185558215620001dd579182015b82811115620001dc578251825591602001919060010190620001bf565b5b509050620001ec9190620001f0565b5090565b5b808211156200020b576000816000905550600101620001f1565b5090565b600060028204905060018216806200022857607f821691505b602082108114156200023f576200023e62000245565b5b50919050565b7f4e487b7100000000000000000000000000000000000000000000000000000000600052602260045260246000fd5b6136de80620002846000396000f3fe608060405234801561001057600080fd5b50600436106101155760003560e01c80637ba0e2e7116100a2578063bb4351e811610071578063bb4351e8146102a4578063d082e381146102c0578063e985e9c5146102de578063f242432a1461030e578063f2fde38b1461032a57610115565b80637ba0e2e7146102445780638456cb59146102605780638da5cb5b1461026a578063a22cb4651461028857610115565b80632eb2c2d6116100e95780632eb2c2d6146101c65780633f4ba83a146101e25780634e1273f4146101ec5780635c975abb1461021c578063715018a61461023a57610115565b8062fdd58e1461011a57806301ffc9a71461014a57806302fe53051461017a5780630e89341c14610196575b600080fd5b610134600480360381019061012f91906124ae565b610346565b6040516101419190612d6e565b60405180910390f35b610164600480360381019061015f91906125ed565b61040f565b6040516101719190612b51565b60405180910390f35b610194600480360381019061018f9190612680565b6104f1565b005b6101b060048036038101906101ab91906126c1565b610579565b6040516101bd9190612b6c565b60405180910390f35b6101e060048036038101906101db9190612324565b61060d565b005b6101ea6106ae565b005b610206600480360381019061020191906124ea565b610734565b6040516102139190612af8565b60405180910390f35b6102246108e5565b6040516102319190612b51565b60405180910390f35b6102426108fc565b005b61025e6004803603810190610259919061263f565b610984565b005b6102686109aa565b005b610272610a30565b60405161027f9190612a1b565b60405180910390f35b6102a2600480360381019061029d9190612472565b610a5a565b005b6102be60048036038101906102b99190612556565b610a70565b005b6102c8610a81565b6040516102d59190612d6e565b60405180910390f35b6102f860048036038101906102f391906122e8565b610a87565b6040516103059190612b51565b60405180910390f35b610328600480360381019061032391906123e3565b610b1b565b005b610344600480360381019061033f91906122bf565b610bbc565b005b60008073ffffffffffffffffffffffffffffffffffffffff168373ffffffffffffffffffffffffffffffffffffffff1614156103b7576040517f08c379a00000000000000000000000000000000000000000000000000000000081526004016103ae90612bee565b60405180910390fd5b60008083815260200190815260200160002060008473ffffffffffffffffffffffffffffffffffffffff1673ffffffffffffffffffffffffffffffffffffffff16815260200190815260200160002054905092915050565b60007fd9b67a26000000000000000000000000000000000000000000000000000000007bffffffffffffffffffffffffffffffffffffffffffffffffffffffff1916827bffffffffffffffffffffffffffffffffffffffffffffffffffffffff191614806104da57507f0e89341c000000000000000000000000000000000000000000000000000000007bffffffffffffffffffffffffffffffffffffffffffffffffffffffff1916827bffffffffffffffffffffffffffffffffffffffffffffffffffffffff1916145b806104ea57506104e982610cb4565b5b9050919050565b6104f9610d1e565b73ffffffffffffffffffffffffffffffffffffffff16610517610a30565b73ffffffffffffffffffffffffffffffffffffffff161461056d576040517f08c379a000000000000000000000000000000000000000000000000000000000815260040161056490612cce565b60405180910390fd5b61057681610d26565b50565b6060600280546105889061300e565b80601f01602080910402602001604051908101604052809291908181526020018280546105b49061300e565b80156106015780601f106105d657610100808354040283529160200191610601565b820191906000526020600020905b8154815290600101906020018083116105e457829003601f168201915b50505050509050919050565b610615610d1e565b73ffffffffffffffffffffffffffffffffffffffff168573ffffffffffffffffffffffffffffffffffffffff16148061065b575061065a85610655610d1e565b610a87565b5b61069a576040517f08c379a000000000000000000000000000000000000000000000000000000000815260040161069190612c8e565b60405180910390fd5b6106a78585858585610d40565b5050505050565b6106b6610d1e565b73ffffffffffffffffffffffffffffffffffffffff166106d4610a30565b73ffffffffffffffffffffffffffffffffffffffff161461072a576040517f08c379a000000000000000000000000000000000000000000000000000000000815260040161072190612cce565b60405180910390fd5b6107326110a0565b565b6060815183511461077a576040517f08c379a000000000000000000000000000000000000000000000000000000000815260040161077190612d0e565b60405180910390fd5b6000835167ffffffffffffffff8111156107bd577f4e487b7100000000000000000000000000000000000000000000000000000000600052604160045260246000fd5b6040519080825280602002602001820160405280156107eb5781602001602082028036833780820191505090505b50905060005b84518110156108da57610884858281518110610836577f4e487b7100000000000000000000000000000000000000000000000000000000600052603260045260246000fd5b6020026020010151858381518110610877577f4e487b7100000000000000000000000000000000000000000000000000000000600052603260045260246000fd5b6020026020010151610346565b8282815181106108bd577f4e487b7100000000000000000000000000000000000000000000000000000000600052603260045260246000fd5b602002602001018181525050806108d390613071565b90506107f1565b508091505092915050565b6000600360149054906101000a900460ff16905090565b610904610d1e565b73ffffffffffffffffffffffffffffffffffffffff16610922610a30565b73ffffffffffffffffffffffffffffffffffffffff1614610978576040517f08c379a000000000000000000000000000000000000000000000000000000000815260040161096f90612cce565b60405180910390fd5b6109826000611142565b565b6109a7336004600081548092919061099b90613071565b91905055600184611208565b50565b6109b2610d1e565b73ffffffffffffffffffffffffffffffffffffffff166109d0610a30565b73ffffffffffffffffffffffffffffffffffffffff1614610a26576040517f08c379a0000000000000000000000000000000000000000000000000000000008152600401610a1d90612cce565b60405180910390fd5b610a2e61139e565b565b6000600360009054906101000a900473ffffffffffffffffffffffffffffffffffffffff16905090565b610a6c610a65610d1e565b8383611441565b5050565b610a7c338484846115ae565b505050565b60045481565b6000600160008473ffffffffffffffffffffffffffffffffffffffff1673ffffffffffffffffffffffffffffffffffffffff16815260200190815260200160002060008373ffffffffffffffffffffffffffffffffffffffff1673ffffffffffffffffffffffffffffffffffffffff16815260200190815260200160002060009054906101000a900460ff16905092915050565b610b23610d1e565b73ffffffffffffffffffffffffffffffffffffffff168573ffffffffffffffffffffffffffffffffffffffff161480610b695750610b6885610b63610d1e565b610a87565b5b610ba8576040517f08c379a0000000000000000000000000000000000000000000000000000000008152600401610b9f90612c2e565b60405180910390fd5b610bb58585858585611818565b5050505050565b610bc4610d1e565b73ffffffffffffffffffffffffffffffffffffffff16610be2610a30565b73ffffffffffffffffffffffffffffffffffffffff1614610c38576040517f08c379a0000000000000000000000000000000000000000000000000000000008152600401610c2f90612cce565b60405180910390fd5b600073ffffffffffffffffffffffffffffffffffffffff168173ffffffffffffffffffffffffffffffffffffffff161415610ca8576040517f08c379a0000000000000000000000000000000000000000000000000000000008152600401610c9f90612c0e565b60405180910390fd5b610cb181611142565b50565b60007f01ffc9a7000000000000000000000000000000000000000000000000000000007bffffffffffffffffffffffffffffffffffffffffffffffffffffffff1916827bffffffffffffffffffffffffffffffffffffffffffffffffffffffff1916149050919050565b600033905090565b8060029080519060200190610d3c929190611fb7565b5050565b8151835114610d84576040517f08c379a0000000000000000000000000000000000000000000000000000000008152600401610d7b90612d2e565b60405180910390fd5b600073ffffffffffffffffffffffffffffffffffffffff168473ffffffffffffffffffffffffffffffffffffffff161415610df4576040517f08c379a0000000000000000000000000000000000000000000000000000000008152600401610deb90612c6e565b60405180910390fd5b6000610dfe610d1e565b9050610e0e818787878787611a9a565b60005b845181101561100b576000858281518110610e55577f4e487b7100000000000000000000000000000000000000000000000000000000600052603260045260246000fd5b602002602001015190506000858381518110610e9a577f4e487b7100000000000000000000000000000000000000000000000000000000600052603260045260246000fd5b60200260200101519050600080600084815260200190815260200160002060008b73ffffffffffffffffffffffffffffffffffffffff1673ffffffffffffffffffffffffffffffffffffffff16815260200190815260200160002054905081811015610f3b576040517f08c379a0000000000000000000000000000000000000000000000000000000008152600401610f3290612cae565b60405180910390fd5b81810360008085815260200190815260200160002060008c73ffffffffffffffffffffffffffffffffffffffff1673ffffffffffffffffffffffffffffffffffffffff168152602001908152602001600020819055508160008085815260200190815260200160002060008b73ffffffffffffffffffffffffffffffffffffffff1673ffffffffffffffffffffffffffffffffffffffff1681526020019081526020016000206000828254610ff09190612f02565b925050819055505050508061100490613071565b9050610e11565b508473ffffffffffffffffffffffffffffffffffffffff168673ffffffffffffffffffffffffffffffffffffffff168273ffffffffffffffffffffffffffffffffffffffff167f4a39dc06d4c0dbc64b70af90fd698a233a518aa5d07e595d983b8c0526c8f7fb8787604051611082929190612b1a565b60405180910390a4611098818787878787611af8565b505050505050565b6110a86108e5565b6110e7576040517f08c379a00000000000000000000000000000000000000000000000000000000081526004016110de90612bce565b60405180910390fd5b6000600360146101000a81548160ff0219169083151502179055507f5db9ee0a495bf2e6ff9c91a7834c1ba4fdd244a5e8aa4e537bd38aeae4b073aa61112b610d1e565b6040516111389190612a1b565b60405180910390a1565b6000600360009054906101000a900473ffffffffffffffffffffffffffffffffffffffff16905081600360006101000a81548173ffffffffffffffffffffffffffffffffffffffff021916908373ffffffffffffffffffffffffffffffffffffffff1602179055508173ffffffffffffffffffffffffffffffffffffffff168173ffffffffffffffffffffffffffffffffffffffff167f8be0079c531659141344cd1fd0a4f28419497f9722a3daafe3b4186f6b6457e060405160405180910390a35050565b600073ffffffffffffffffffffffffffffffffffffffff168473ffffffffffffffffffffffffffffffffffffffff161415611278576040517f08c379a000000000000000000000000000000000000000000000000000000000815260040161126f90612d4e565b60405180910390fd5b6000611282610d1e565b90506112a38160008761129488611cdf565b61129d88611cdf565b87611a9a565b8260008086815260200190815260200160002060008773ffffffffffffffffffffffffffffffffffffffff1673ffffffffffffffffffffffffffffffffffffffff16815260200190815260200160002060008282546113029190612f02565b925050819055508473ffffffffffffffffffffffffffffffffffffffff16600073ffffffffffffffffffffffffffffffffffffffff168273ffffffffffffffffffffffffffffffffffffffff167fc3d58168c5ae7397731d063d5bbf3d657854427343f4c083240f7aacaa2d0f628787604051611380929190612d89565b60405180910390a461139781600087878787611da5565b5050505050565b6113a66108e5565b156113e6576040517f08c379a00000000000000000000000000000000000000000000000000000000081526004016113dd90612c4e565b60405180910390fd5b6001600360146101000a81548160ff0219169083151502179055507f62e78cea01bee320cd4e420270b5ea74000d11b0c9f74754ebdbfc544b05a25861142a610d1e565b6040516114379190612a1b565b60405180910390a1565b8173ffffffffffffffffffffffffffffffffffffffff168373ffffffffffffffffffffffffffffffffffffffff1614156114b0576040517f08c379a00000000000000000000000000000000000000000000000000000000081526004016114a790612cee565b60405180910390fd5b80600160008573ffffffffffffffffffffffffffffffffffffffff1673ffffffffffffffffffffffffffffffffffffffff16815260200190815260200160002060008473ffffffffffffffffffffffffffffffffffffffff1673ffffffffffffffffffffffffffffffffffffffff16815260200190815260200160002060006101000a81548160ff0219169083151502179055508173ffffffffffffffffffffffffffffffffffffffff168373ffffffffffffffffffffffffffffffffffffffff167f17307eab39ab6107e8899845ad3d59bd9653f200f220920489ca2b5937696c31836040516115a19190612b51565b60405180910390a3505050565b600073ffffffffffffffffffffffffffffffffffffffff168473ffffffffffffffffffffffffffffffffffffffff16141561161e576040517f08c379a000000000000000000000000000000000000000000000000000000000815260040161161590612d4e565b60405180910390fd5b8151835114611662576040517f08c379a000000000000000000000000000000000000000000000000000000000815260040161165990612d2e565b60405180910390fd5b600061166c610d1e565b905061167d81600087878787611a9a565b60005b8451811015611782578381815181106116c2577f4e487b7100000000000000000000000000000000000000000000000000000000600052603260045260246000fd5b6020026020010151600080878481518110611706577f4e487b7100000000000000000000000000000000000000000000000000000000600052603260045260246000fd5b6020026020010151815260200190815260200160002060008873ffffffffffffffffffffffffffffffffffffffff1673ffffffffffffffffffffffffffffffffffffffff16815260200190815260200160002060008282546117689190612f02565b92505081905550808061177a90613071565b915050611680565b508473ffffffffffffffffffffffffffffffffffffffff16600073ffffffffffffffffffffffffffffffffffffffff168273ffffffffffffffffffffffffffffffffffffffff167f4a39dc06d4c0dbc64b70af90fd698a233a518aa5d07e595d983b8c0526c8f7fb87876040516117fa929190612b1a565b60405180910390a461181181600087878787611af8565b5050505050565b600073ffffffffffffffffffffffffffffffffffffffff168473ffffffffffffffffffffffffffffffffffffffff161415611888576040517f08c379a000000000000000000000000000000000000000000000000000000000815260040161187f90612c6e565b60405180910390fd5b6000611892610d1e565b90506118b28187876118a388611cdf565b6118ac88611cdf565b87611a9a565b600080600086815260200190815260200160002060008873ffffffffffffffffffffffffffffffffffffffff1673ffffffffffffffffffffffffffffffffffffffff16815260200190815260200160002054905083811015611949576040517f08c379a000000000000000000000000000000000000000000000000000000000815260040161194090612cae565b60405180910390fd5b83810360008087815260200190815260200160002060008973ffffffffffffffffffffffffffffffffffffffff1673ffffffffffffffffffffffffffffffffffffffff168152602001908152602001600020819055508360008087815260200190815260200160002060008873ffffffffffffffffffffffffffffffffffffffff1673ffffffffffffffffffffffffffffffffffffffff16815260200190815260200160002060008282546119fe9190612f02565b925050819055508573ffffffffffffffffffffffffffffffffffffffff168773ffffffffffffffffffffffffffffffffffffffff168373ffffffffffffffffffffffffffffffffffffffff167fc3d58168c5ae7397731d063d5bbf3d657854427343f4c083240f7aacaa2d0f628888604051611a7b929190612d89565b60405180910390a4611a91828888888888611da5565b50505050505050565b611aa26108e5565b15611ae2576040517f08c379a0000000000000000000000000000000000000000000000000000000008152600401611ad990612c4e565b60405180910390fd5b611af0868686868686611f8c565b505050505050565b611b178473ffffffffffffffffffffffffffffffffffffffff16611f94565b15611cd7578373ffffffffffffffffffffffffffffffffffffffff1663bc197c8187878686866040518663ffffffff1660e01b8152600401611b5d959493929190612a36565b602060405180830381600087803b158015611b7757600080fd5b505af1925050508015611ba857506040513d601f19601f82011682018060405250810190611ba59190612616565b60015b611c4e57611bb4613147565b806308c379a01415611c115750611bc96135b6565b80611bd45750611c13565b806040517f08c379a0000000000000000000000000000000000000000000000000000000008152600401611c089190612b6c565b60405180910390fd5b505b6040517f08c379a0000000000000000000000000000000000000000000000000000000008152600401611c4590612b8e565b60405180910390fd5b63bc197c8160e01b7bffffffffffffffffffffffffffffffffffffffffffffffffffffffff1916817bffffffffffffffffffffffffffffffffffffffffffffffffffffffff191614611cd5576040517f08c379a0000000000000000000000000000000000000000000000000000000008152600401611ccc90612bae565b60405180910390fd5b505b505050505050565b60606000600167ffffffffffffffff811115611d24577f4e487b7100000000000000000000000000000000000000000000000000000000600052604160045260246000fd5b604051908082528060200260200182016040528015611d525781602001602082028036833780820191505090505b5090508281600081518110611d90577f4e487b7100000000000000000000000000000000000000000000000000000000600052603260045260246000fd5b60200260200101818152505080915050919050565b611dc48473ffffffffffffffffffffffffffffffffffffffff16611f94565b15611f84578373ffffffffffffffffffffffffffffffffffffffff1663f23a6e6187878686866040518663ffffffff1660e01b8152600401611e0a959493929190612a9e565b602060405180830381600087803b158015611e2457600080fd5b505af1925050508015611e5557506040513d601f19601f82011682018060405250810190611e529190612616565b60015b611efb57611e61613147565b806308c379a01415611ebe5750611e766135b6565b80611e815750611ec0565b806040517f08c379a0000000000000000000000000000000000000000000000000000000008152600401611eb59190612b6c565b60405180910390fd5b505b6040517f08c379a0000000000000000000000000000000000000000000000000000000008152600401611ef290612b8e565b60405180910390fd5b63f23a6e6160e01b7bffffffffffffffffffffffffffffffffffffffffffffffffffffffff1916817bffffffffffffffffffffffffffffffffffffffffffffffffffffffff191614611f82576040517f08c379a0000000000000000000000000000000000000000000000000000000008152600401611f7990612bae565b60405180910390fd5b505b505050505050565b505050505050565b6000808273ffffffffffffffffffffffffffffffffffffffff163b119050919050565b828054611fc39061300e565b90600052602060002090601f016020900481019282611fe5576000855561202c565b82601f10611ffe57805160ff191683800117855561202c565b8280016001018555821561202c579182015b8281111561202b578251825591602001919060010190612010565b5b509050612039919061203d565b5090565b5b8082111561205657600081600090555060010161203e565b5090565b600061206d61206884612dd7565b612db2565b9050808382526020820190508285602086028201111561208c57600080fd5b60005b858110156120bc57816120a288826121ae565b84526020840193506020830192505060018101905061208f565b5050509392505050565b60006120d96120d484612e03565b612db2565b905080838252602082019050828560208602820111156120f857600080fd5b60005b85811015612128578161210e88826122aa565b8452602084019350602083019250506001810190506120fb565b5050509392505050565b600061214561214084612e2f565b612db2565b90508281526020810184848401111561215d57600080fd5b612168848285612fcc565b509392505050565b600061218361217e84612e60565b612db2565b90508281526020810184848401111561219b57600080fd5b6121a6848285612fcc565b509392505050565b6000813590506121bd8161364c565b92915050565b600082601f8301126121d457600080fd5b81356121e484826020860161205a565b91505092915050565b600082601f8301126121fe57600080fd5b813561220e8482602086016120c6565b91505092915050565b60008135905061222681613663565b92915050565b60008135905061223b8161367a565b92915050565b6000815190506122508161367a565b92915050565b600082601f83011261226757600080fd5b8135612277848260208601612132565b91505092915050565b600082601f83011261229157600080fd5b81356122a1848260208601612170565b91505092915050565b6000813590506122b981613691565b92915050565b6000602082840312156122d157600080fd5b60006122df848285016121ae565b91505092915050565b600080604083850312156122fb57600080fd5b6000612309858286016121ae565b925050602061231a858286016121ae565b9150509250929050565b600080600080600060a0868803121561233c57600080fd5b600061234a888289016121ae565b955050602061235b888289016121ae565b945050604086013567ffffffffffffffff81111561237857600080fd5b612384888289016121ed565b935050606086013567ffffffffffffffff8111156123a157600080fd5b6123ad888289016121ed565b925050608086013567ffffffffffffffff8111156123ca57600080fd5b6123d688828901612256565b9150509295509295909350565b600080600080600060a086880312156123fb57600080fd5b6000612409888289016121ae565b955050602061241a888289016121ae565b945050604061242b888289016122aa565b935050606061243c888289016122aa565b925050608086013567ffffffffffffffff81111561245957600080fd5b61246588828901612256565b9150509295509295909350565b6000806040838503121561248557600080fd5b6000612493858286016121ae565b92505060206124a485828601612217565b9150509250929050565b600080604083850312156124c157600080fd5b60006124cf858286016121ae565b92505060206124e0858286016122aa565b9150509250929050565b600080604083850312156124fd57600080fd5b600083013567ffffffffffffffff81111561251757600080fd5b612523858286016121c3565b925050602083013567ffffffffffffffff81111561254057600080fd5b61254c858286016121ed565b9150509250929050565b60008060006060848603121561256b57600080fd5b600084013567ffffffffffffffff81111561258557600080fd5b612591868287016121ed565b935050602084013567ffffffffffffffff8111156125ae57600080fd5b6125ba868287016121ed565b925050604084013567ffffffffffffffff8111156125d757600080fd5b6125e386828701612256565b9150509250925092565b6000602082840312156125ff57600080fd5b600061260d8482850161222c565b91505092915050565b60006020828403121561262857600080fd5b600061263684828501612241565b91505092915050565b60006020828403121561265157600080fd5b600082013567ffffffffffffffff81111561266b57600080fd5b61267784828501612256565b91505092915050565b60006020828403121561269257600080fd5b600082013567ffffffffffffffff8111156126ac57600080fd5b6126b884828501612280565b91505092915050565b6000602082840312156126d357600080fd5b60006126e1848285016122aa565b91505092915050565b60006126f683836129fd565b60208301905092915050565b61270b81612f58565b82525050565b600061271c82612ea1565b6127268185612ecf565b935061273183612e91565b8060005b8381101561276257815161274988826126ea565b975061275483612ec2565b925050600181019050612735565b5085935050505092915050565b61277881612f6a565b82525050565b600061278982612eac565b6127938185612ee0565b93506127a3818560208601612fdb565b6127ac81613169565b840191505092915050565b60006127c282612eb7565b6127cc8185612ef1565b93506127dc818560208601612fdb565b6127e581613169565b840191505092915050565b60006127fd603483612ef1565b915061280882613187565b604082019050919050565b6000612820602883612ef1565b915061282b826131d6565b604082019050919050565b6000612843601483612ef1565b915061284e82613225565b602082019050919050565b6000612866602b83612ef1565b91506128718261324e565b604082019050919050565b6000612889602683612ef1565b91506128948261329d565b604082019050919050565b60006128ac602983612ef1565b91506128b7826132ec565b604082019050919050565b60006128cf601083612ef1565b91506128da8261333b565b602082019050919050565b60006128f2602583612ef1565b91506128fd82613364565b604082019050919050565b6000612915603283612ef1565b9150612920826133b3565b604082019050919050565b6000612938602a83612ef1565b915061294382613402565b604082019050919050565b600061295b602083612ef1565b915061296682613451565b602082019050919050565b600061297e602983612ef1565b91506129898261347a565b604082019050919050565b60006129a1602983612ef1565b91506129ac826134c9565b604082019050919050565b60006129c4602883612ef1565b91506129cf82613518565b604082019050919050565b60006129e7602183612ef1565b91506129f282613567565b604082019050919050565b612a0681612fc2565b82525050565b612a1581612fc2565b82525050565b6000602082019050612a306000830184612702565b92915050565b600060a082019050612a4b6000830188612702565b612a586020830187612702565b8181036040830152612a6a8186612711565b90508181036060830152612a7e8185612711565b90508181036080830152612a92818461277e565b90509695505050505050565b600060a082019050612ab36000830188612702565b612ac06020830187612702565b612acd6040830186612a0c565b612ada6060830185612a0c565b8181036080830152612aec818461277e565b90509695505050505050565b60006020820190508181036000830152612b128184612711565b905092915050565b60006040820190508181036000830152612b348185612711565b90508181036020830152612b488184612711565b90509392505050565b6000602082019050612b66600083018461276f565b92915050565b60006020820190508181036000830152612b8681846127b7565b905092915050565b60006020820190508181036000830152612ba7816127f0565b9050919050565b60006020820190508181036000830152612bc781612813565b9050919050565b60006020820190508181036000830152612be781612836565b9050919050565b60006020820190508181036000830152612c0781612859565b9050919050565b60006020820190508181036000830152612c278161287c565b9050919050565b60006020820190508181036000830152612c478161289f565b9050919050565b60006020820190508181036000830152612c67816128c2565b9050919050565b60006020820190508181036000830152612c87816128e5565b9050919050565b60006020820190508181036000830152612ca781612908565b9050919050565b60006020820190508181036000830152612cc78161292b565b9050919050565b60006020820190508181036000830152612ce78161294e565b9050919050565b60006020820190508181036000830152612d0781612971565b9050919050565b60006020820190508181036000830152612d2781612994565b9050919050565b60006020820190508181036000830152612d47816129b7565b9050919050565b60006020820190508181036000830152612d67816129da565b9050919050565b6000602082019050612d836000830184612a0c565b92915050565b6000604082019050612d9e6000830185612a0c565b612dab6020830184612a0c565b9392505050565b6000612dbc612dcd565b9050612dc88282613040565b919050565b6000604051905090565b600067ffffffffffffffff821115612df257612df1613118565b5b602082029050602081019050919050565b600067ffffffffffffffff821115612e1e57612e1d613118565b5b602082029050602081019050919050565b600067ffffffffffffffff821115612e4a57612e49613118565b5b612e5382613169565b9050602081019050919050565b600067ffffffffffffffff821115612e7b57612e7a613118565b5b612e8482613169565b9050602081019050919050565b6000819050602082019050919050565b600081519050919050565b600081519050919050565b600081519050919050565b6000602082019050919050565b600082825260208201905092915050565b600082825260208201905092915050565b600082825260208201905092915050565b6000612f0d82612fc2565b9150612f1883612fc2565b9250827fffffffffffffffffffffffffffffffffffffffffffffffffffffffffffffffff03821115612f4d57612f4c6130ba565b5b828201905092915050565b6000612f6382612fa2565b9050919050565b60008115159050919050565b60007fffffffff0000000000000000000000000000000000000000000000000000000082169050919050565b600073ffffffffffffffffffffffffffffffffffffffff82169050919050565b6000819050919050565b82818337600083830152505050565b60005b83811015612ff9578082015181840152602081019050612fde565b83811115613008576000848401525b50505050565b6000600282049050600182168061302657607f821691505b6020821081141561303a576130396130e9565b5b50919050565b61304982613169565b810181811067ffffffffffffffff8211171561306857613067613118565b5b80604052505050565b600061307c82612fc2565b91507fffffffffffffffffffffffffffffffffffffffffffffffffffffffffffffffff8214156130af576130ae6130ba565b5b600182019050919050565b7f4e487b7100000000000000000000000000000000000000000000000000000000600052601160045260246000fd5b7f4e487b7100000000000000000000000000000000000000000000000000000000600052602260045260246000fd5b7f4e487b7100000000000000000000000000000000000000000000000000000000600052604160045260246000fd5b600060033d11156131665760046000803e61316360005161317a565b90505b90565b6000601f19601f8301169050919050565b60008160e01c9050919050565b7f455243313135353a207472616e7366657220746f206e6f6e204552433131353560008201527f526563656976657220696d706c656d656e746572000000000000000000000000602082015250565b7f455243313135353a204552433131353552656365697665722072656a6563746560008201527f6420746f6b656e73000000000000000000000000000000000000000000000000602082015250565b7f5061757361626c653a206e6f7420706175736564000000000000000000000000600082015250565b7f455243313135353a2062616c616e636520717565727920666f7220746865207a60008201527f65726f2061646472657373000000000000000000000000000000000000000000602082015250565b7f4f776e61626c653a206e6577206f776e657220697320746865207a65726f206160008201527f6464726573730000000000000000000000000000000000000000000000000000602082015250565b7f455243313135353a2063616c6c6572206973206e6f74206f776e6572206e6f7260008201527f20617070726f7665640000000000000000000000000000000000000000000000602082015250565b7f5061757361626c653a2070617573656400000000000000000000000000000000600082015250565b7f455243313135353a207472616e7366657220746f20746865207a65726f20616460008201527f6472657373000000000000000000000000000000000000000000000000000000602082015250565b7f455243313135353a207472616e736665722063616c6c6572206973206e6f742060008201527f6f776e6572206e6f7220617070726f7665640000000000000000000000000000602082015250565b7f455243313135353a20696e73756666696369656e742062616c616e636520666f60008201527f72207472616e7366657200000000000000000000000000000000000000000000602082015250565b7f4f776e61626c653a2063616c6c6572206973206e6f7420746865206f776e6572600082015250565b7f455243313135353a2073657474696e6720617070726f76616c2073746174757360008201527f20666f722073656c660000000000000000000000000000000000000000000000602082015250565b7f455243313135353a206163636f756e747320616e6420696473206c656e67746860008201527f206d69736d617463680000000000000000000000000000000000000000000000602082015250565b7f455243313135353a2069647320616e6420616d6f756e7473206c656e6774682060008201527f6d69736d61746368000000000000000000000000000000000000000000000000602082015250565b7f455243313135353a206d696e7420746f20746865207a65726f2061646472657360008201527f7300000000000000000000000000000000000000000000000000000000000000602082015250565b600060443d10156135c657613649565b6135ce612dcd565b60043d036004823e80513d602482011167ffffffffffffffff821117156135f6575050613649565b808201805167ffffffffffffffff8111156136145750505050613649565b80602083010160043d038501811115613631575050505050613649565b61364082602001850186613040565b82955050505050505b90565b61365581612f58565b811461366057600080fd5b50565b61366c81612f6a565b811461367757600080fd5b50565b61368381612f76565b811461368e57600080fd5b50565b61369a81612fc2565b81146136a557600080fd5b5056fea2646970667358221220f91a0bb662227c8f5e12889b5a93b69119d1dcfa9e0624cc92aa24f5cf1dccfb64736f6c63430008040033",
  "linkReferences": {},
  "deployedLinkReferences": {}
}