{
  "_format": "hh-sol-artifact-1",
  "contractName": "ERC721Test",
  "sourceName": "contracts/ERC721Test.sol",
  "abi": [
    {
      "inputs": [],
      "stateMutability": "nonpayable",
      "type": "constructor"
    },
    {
      "anonymous": false,
      "inputs": [
        {
          "indexed": true,
          "internalType": "address",
          "name": "owner",
          "type": "address"
        },
        {
          "indexed": true,
          "internalType": "address",
          "name": "approved",
          "type": "address"
        },
        {
          "indexed": true,
          "internalType": "uint256",
          "name": "tokenId",
          "type": "uint256"
        }
      ],
      "name": "Approval",
      "type": "event"
    },
    {
      "anonymous": false,
      "inputs": [
        {
          "indexed": true,
          "internalType": "address",
          "name": "owner",
          "type": "address"
        },
        {
          "indexed": true,
          "internalType": "address",
          "name": "operator",
          "type": "address"
        },
        {
          "indexed": false,
          "internalType": "bool",
          "name": "approved",
          "type": "bool"
        }
      ],
      "name": "ApprovalForAll",
      "type": "event"
    },
    {
      "anonymous": false,
      "inputs": [
        {
          "indexed": true,
          "internalType": "address",
          "name": "previousOwner",
          "type": "address"
        },
        {
          "indexed": true,
          "internalType": "address",
          "name": "newOwner",
          "type": "address"
        }
      ],
      "name": "OwnershipTransferred",
      "type": "event"
    },
    {
      "anonymous": false,
      "inputs": [
        {
          "indexed": false,
          "internalType": "address",
          "name": "account",
          "type": "address"
        }
      ],
      "name": "Paused",
      "type": "event"
    },
    {
      "anonymous": false,
      "inputs": [
        {
          "indexed": true,
          "internalType": "address",
          "name": "from",
          "type": "address"
        },
        {
          "indexed": true,
          "internalType": "address",
          "name": "to",
          "type": "address"
        },
        {
          "indexed": true,
          "internalType": "uint256",
          "name": "tokenId",
          "type": "uint256"
        }
      ],
      "name": "Transfer",
      "type": "event"
    },
    {
      "anonymous": false,
      "inputs": [
        {
          "indexed": false,
          "internalType": "address",
          "name": "account",
          "type": "address"
        }
      ],
      "name": "Unpaused",
      "type": "event"
    },
    {
      "inputs": [
        {
          "internalType": "address",
          "name": "to",
          "type": "address"
        },
        {
          "internalType": "uint256",
          "name": "tokenId",
          "type": "uint256"
        }
      ],
      "name": "approve",
      "outputs": [],
      "stateMutability": "nonpayable",
      "type": "function"
    },
    {
      "inputs": [
        {
          "internalType": "address",
          "name": "owner",
          "type": "address"
        }
      ],
      "name": "balanceOf",
      "outputs": [
        {
          "internalType": "uint256",
          "name": "",
          "type": "uint256"
        }
      ],
      "stateMutability": "view",
      "type": "function"
    },
    {
      "inputs": [],
      "name": "claim",
      "outputs": [],
      "stateMutability": "nonpayable",
      "type": "function"
    },
    {
      "inputs": [
        {
          "internalType": "uint256",
          "name": "tokenId",
          "type": "uint256"
        }
      ],
      "name": "getApproved",
      "outputs": [
        {
          "internalType": "address",
          "name": "",
          "type": "address"
        }
      ],
      "stateMutability": "view",
      "type": "function"
    },
    {
      "inputs": [
        {
          "internalType": "address",
          "name": "owner",
          "type": "address"
        },
        {
          "internalType": "address",
          "name": "operator",
          "type": "address"
        }
      ],
      "name": "isApprovedForAll",
      "outputs": [
        {
          "internalType": "bool",
          "name": "",
          "type": "bool"
        }
      ],
      "stateMutability": "view",
      "type": "function"
    },
    {
      "inputs": [],
      "name": "name",
      "outputs": [
        {
          "internalType": "string",
          "name": "",
          "type": "string"
        }
      ],
      "stateMutability": "view",
      "type": "function"
    },
    {
      "inputs": [],
      "name": "owner",
      "outputs": [
        {
          "internalType": "address",
          "name": "",
          "type": "address"
        }
      ],
      "stateMutability": "view",
      "type": "function"
    },
    {
      "inputs": [
        {
          "internalType": "uint256",
          "name": "tokenId",
          "type": "uint256"
        }
      ],
      "name": "ownerOf",
      "outputs": [
        {
          "internalType": "address",
          "name": "",
          "type": "address"
        }
      ],
      "stateMutability": "view",
      "type": "function"
    },
    {
      "inputs": [],
      "name": "pause",
      "outputs": [],
      "stateMutability": "nonpayable",
      "type": "function"
    },
    {
      "inputs": [],
      "name": "paused",
      "outputs": [
        {
          "internalType": "bool",
          "name": "",
          "type": "bool"
        }
      ],
      "stateMutability": "view",
      "type": "function"
    },
    {
      "inputs": [],
      "name": "renounceOwnership",
      "outputs": [],
      "stateMutability": "nonpayable",
      "type": "function"
    },
    {
      "inputs": [
        {
          "internalType": "address",
          "name": "to",
          "type": "address"
        },
        {
          "internalType": "uint256",
          "name": "tokenId",
          "type": "uint256"
        }
      ],
      "name": "safeMint",
      "outputs": [],
      "stateMutability": "nonpayable",
      "type": "function"
    },
    {
      "inputs": [
        {
          "internalType": "address",
          "name": "from",
          "type": "address"
        },
        {
          "internalType": "address",
          "name": "to",
          "type": "address"
        },
        {
          "internalType": "uint256",
          "name": "tokenId",
          "type": "uint256"
        }
      ],
      "name": "safeTransferFrom",
      "outputs": [],
      "stateMutability": "nonpayable",
      "type": "function"
    },
    {
      "inputs": [
        {
          "internalType": "address",
          "name": "from",
          "type": "address"
        },
        {
          "internalType": "address",
          "name": "to",
          "type": "address"
        },
        {
          "internalType": "uint256",
          "name": "tokenId",
          "type": "uint256"
        },
        {
          "internalType": "bytes",
          "name": "_data",
          "type": "bytes"
        }
      ],
      "name": "safeTransferFrom",
      "outputs": [],
      "stateMutability": "nonpayable",
      "type": "function"
    },
    {
      "inputs": [
        {
          "internalType": "address",
          "name": "operator",
          "type": "address"
        },
        {
          "internalType": "bool",
          "name": "approved",
          "type": "bool"
        }
      ],
      "name": "setApprovalForAll",
      "outputs": [],
      "stateMutability": "nonpayable",
      "type": "function"
    },
    {
      "inputs": [
        {
          "internalType": "bytes4",
          "name": "interfaceId",
          "type": "bytes4"
        }
      ],
      "name": "supportsInterface",
      "outputs": [
        {
          "internalType": "bool",
          "name": "",
          "type": "bool"
        }
      ],
      "stateMutability": "view",
      "type": "function"
    },
    {
      "inputs": [],
      "name": "symbol",
      "outputs": [
        {
          "internalType": "string",
          "name": "",
          "type": "string"
        }
      ],
      "stateMutability": "view",
      "type": "function"
    },
    {
      "inputs": [],
      "name": "tokenCounter",
      "outputs": [
        {
          "internalType": "uint256",
          "name": "",
          "type": "uint256"
        }
      ],
      "stateMutability": "view",
      "type": "function"
    },
    {
      "inputs": [
        {
          "internalType": "uint256",
          "name": "tokenId",
          "type": "uint256"
        }
      ],
      "name": "tokenURI",
      "outputs": [
        {
          "internalType": "string",
          "name": "",
          "type": "string"
        }
      ],
      "stateMutability": "view",
      "type": "function"
    },
    {
      "inputs": [
        {
          "internalType": "address",
          "name": "from",
          "type": "address"
        },
        {
          "internalType": "address",
          "name": "to",
          "type": "address"
        },
        {
          "internalType": "uint256",
          "name": "tokenId",
          "type": "uint256"
        }
      ],
      "name": "transferFrom",
      "outputs": [],
      "stateMutability": "nonpayable",
      "type": "function"
    },
    {
      "inputs": [
        {
          "internalType": "address",
          "name": "newOwner",
          "type": "address"
        }
      ],
      "name": "transferOwnership",
      "outputs": [],
      "stateMutability": "nonpayable",
      "type": "function"
    },
    {
      "inputs": [],
      "name": "unpause",
      "outputs": [],
      "stateMutability": "nonpayable",
      "type": "function"
    }
  ],
  "bytecode": "0x60806040523480156200001157600080fd5b506040518060400160405280600a81526020017f45524337323154657374000000000000000000000000000000000000000000008152506040518060400160405280600581526020017f4554373231000000000000000000000000000000000000000000000000000000815250816000908051906020019062000096929190620001c1565b508060019080519060200190620000af929190620001c1565b5050506000600660006101000a81548160ff021916908315150217905550620000ed620000e1620000f360201b60201c565b620000fb60201b60201c565b620002d6565b600033905090565b6000600660019054906101000a900473ffffffffffffffffffffffffffffffffffffffff16905081600660016101000a81548173ffffffffffffffffffffffffffffffffffffffff021916908373ffffffffffffffffffffffffffffffffffffffff1602179055508173ffffffffffffffffffffffffffffffffffffffff168173ffffffffffffffffffffffffffffffffffffffff167f8be0079c531659141344cd1fd0a4f28419497f9722a3daafe3b4186f6b6457e060405160405180910390a35050565b828054620001cf9062000271565b90600052602060002090601f016020900481019282620001f357600085556200023f565b82601f106200020e57805160ff19168380011785556200023f565b828001600101855582156200023f579182015b828111156200023e57825182559160200191906001019062000221565b5b5090506200024e919062000252565b5090565b5b808211156200026d57600081600090555060010162000253565b5090565b600060028204905060018216806200028a57607f821691505b60208210811415620002a157620002a0620002a7565b5b50919050565b7f4e487b7100000000000000000000000000000000000000000000000000000000600052602260045260246000fd5b612fd780620002e66000396000f3fe608060405234801561001057600080fd5b50600436106101425760003560e01c8063715018a6116100b8578063a22cb4651161007c578063a22cb46514610317578063b88d4fde14610333578063c87b56dd1461034f578063d082e3811461037f578063e985e9c51461039d578063f2fde38b146103cd57610142565b8063715018a6146102ab5780638456cb59146102b55780638da5cb5b146102bf57806395d89b41146102dd578063a1448194146102fb57610142565b80633f4ba83a1161010a5780633f4ba83a146101fd57806342842e0e146102075780634e71d92d146102235780635c975abb1461022d5780636352211e1461024b57806370a082311461027b57610142565b806301ffc9a71461014757806306fdde0314610177578063081812fc14610195578063095ea7b3146101c557806323b872dd146101e1575b600080fd5b610161600480360381019061015c9190612003565b6103e9565b60405161016e919061244f565b60405180910390f35b61017f6104cb565b60405161018c919061246a565b60405180910390f35b6101af60048036038101906101aa9190612055565b61055d565b6040516101bc91906123e8565b60405180910390f35b6101df60048036038101906101da9190611fc7565b6105e2565b005b6101fb60048036038101906101f69190611ec1565b6106fa565b005b61020561075a565b005b610221600480360381019061021c9190611ec1565b6107e0565b005b61022b610800565b005b610235610822565b604051610242919061244f565b60405180910390f35b61026560048036038101906102609190612055565b610839565b60405161027291906123e8565b60405180910390f35b61029560048036038101906102909190611e5c565b6108eb565b6040516102a291906126cc565b60405180910390f35b6102b36109a3565b005b6102bd610a2b565b005b6102c7610ab1565b6040516102d491906123e8565b60405180910390f35b6102e5610adb565b6040516102f2919061246a565b60405180910390f35b61031560048036038101906103109190611fc7565b610b6d565b005b610331600480360381019061032c9190611f8b565b610bf7565b005b61034d60048036038101906103489190611f10565b610c0d565b005b61036960048036038101906103649190612055565b610c6f565b604051610376919061246a565b60405180910390f35b610387610d16565b60405161039491906126cc565b60405180910390f35b6103b760048036038101906103b29190611e85565b610d1c565b6040516103c4919061244f565b60405180910390f35b6103e760048036038101906103e29190611e5c565b610db0565b005b60007f80ac58cd000000000000000000000000000000000000000000000000000000007bffffffffffffffffffffffffffffffffffffffffffffffffffffffff1916827bffffffffffffffffffffffffffffffffffffffffffffffffffffffff191614806104b457507f5b5e139f000000000000000000000000000000000000000000000000000000007bffffffffffffffffffffffffffffffffffffffffffffffffffffffff1916827bffffffffffffffffffffffffffffffffffffffffffffffffffffffff1916145b806104c457506104c382610ea8565b5b9050919050565b6060600080546104da906128f1565b80601f0160208091040260200160405190810160405280929190818152602001828054610506906128f1565b80156105535780601f1061052857610100808354040283529160200191610553565b820191906000526020600020905b81548152906001019060200180831161053657829003601f168201915b5050505050905090565b600061056882610f12565b6105a7576040517f08c379a000000000000000000000000000000000000000000000000000000000815260040161059e9061262c565b60405180910390fd5b6004600083815260200190815260200160002060009054906101000a900473ffffffffffffffffffffffffffffffffffffffff169050919050565b60006105ed82610839565b90508073ffffffffffffffffffffffffffffffffffffffff168373ffffffffffffffffffffffffffffffffffffffff16141561065e576040517f08c379a00000000000000000000000000000000000000000000000000000000081526004016106559061268c565b60405180910390fd5b8073ffffffffffffffffffffffffffffffffffffffff1661067d610f7e565b73ffffffffffffffffffffffffffffffffffffffff1614806106ac57506106ab816106a6610f7e565b610d1c565b5b6106eb576040517f08c379a00000000000000000000000000000000000000000000000000000000081526004016106e2906125ac565b60405180910390fd5b6106f58383610f86565b505050565b61070b610705610f7e565b8261103f565b61074a576040517f08c379a0000000000000000000000000000000000000000000000000000000008152600401610741906126ac565b60405180910390fd5b61075583838361111d565b505050565b610762610f7e565b73ffffffffffffffffffffffffffffffffffffffff16610780610ab1565b73ffffffffffffffffffffffffffffffffffffffff16146107d6576040517f08c379a00000000000000000000000000000000000000000000000000000000081526004016107cd9061264c565b60405180910390fd5b6107de611384565b565b6107fb83838360405180602001604052806000815250610c0d565b505050565b610820336007600081548092919061081790612954565b91905055611426565b565b6000600660009054906101000a900460ff16905090565b6000806002600084815260200190815260200160002060009054906101000a900473ffffffffffffffffffffffffffffffffffffffff169050600073ffffffffffffffffffffffffffffffffffffffff168173ffffffffffffffffffffffffffffffffffffffff1614156108e2576040517f08c379a00000000000000000000000000000000000000000000000000000000081526004016108d9906125ec565b60405180910390fd5b80915050919050565b60008073ffffffffffffffffffffffffffffffffffffffff168273ffffffffffffffffffffffffffffffffffffffff16141561095c576040517f08c379a0000000000000000000000000000000000000000000000000000000008152600401610953906125cc565b60405180910390fd5b600360008373ffffffffffffffffffffffffffffffffffffffff1673ffffffffffffffffffffffffffffffffffffffff168152602001908152602001600020549050919050565b6109ab610f7e565b73ffffffffffffffffffffffffffffffffffffffff166109c9610ab1565b73ffffffffffffffffffffffffffffffffffffffff1614610a1f576040517f08c379a0000000000000000000000000000000000000000000000000000000008152600401610a169061264c565b60405180910390fd5b610a296000611444565b565b610a33610f7e565b73ffffffffffffffffffffffffffffffffffffffff16610a51610ab1565b73ffffffffffffffffffffffffffffffffffffffff1614610aa7576040517f08c379a0000000000000000000000000000000000000000000000000000000008152600401610a9e9061264c565b60405180910390fd5b610aaf61150a565b565b6000600660019054906101000a900473ffffffffffffffffffffffffffffffffffffffff16905090565b606060018054610aea906128f1565b80601f0160208091040260200160405190810160405280929190818152602001828054610b16906128f1565b8015610b635780601f10610b3857610100808354040283529160200191610b63565b820191906000526020600020905b815481529060010190602001808311610b4657829003601f168201915b5050505050905090565b610b75610f7e565b73ffffffffffffffffffffffffffffffffffffffff16610b93610ab1565b73ffffffffffffffffffffffffffffffffffffffff1614610be9576040517f08c379a0000000000000000000000000000000000000000000000000000000008152600401610be09061264c565b60405180910390fd5b610bf38282611426565b5050565b610c09610c02610f7e565b83836115ad565b5050565b610c1e610c18610f7e565b8361103f565b610c5d576040517f08c379a0000000000000000000000000000000000000000000000000000000008152600401610c54906126ac565b60405180910390fd5b610c698484848461171a565b50505050565b6060610c7a82610f12565b610cb9576040517f08c379a0000000000000000000000000000000000000000000000000000000008152600401610cb09061266c565b60405180910390fd5b6000610cc3611776565b90506000815111610ce35760405180602001604052806000815250610d0e565b80610ced8461178d565b604051602001610cfe9291906123c4565b6040516020818303038152906040525b915050919050565b60075481565b6000600560008473ffffffffffffffffffffffffffffffffffffffff1673ffffffffffffffffffffffffffffffffffffffff16815260200190815260200160002060008373ffffffffffffffffffffffffffffffffffffffff1673ffffffffffffffffffffffffffffffffffffffff16815260200190815260200160002060009054906101000a900460ff16905092915050565b610db8610f7e565b73ffffffffffffffffffffffffffffffffffffffff16610dd6610ab1565b73ffffffffffffffffffffffffffffffffffffffff1614610e2c576040517f08c379a0000000000000000000000000000000000000000000000000000000008152600401610e239061264c565b60405180910390fd5b600073ffffffffffffffffffffffffffffffffffffffff168173ffffffffffffffffffffffffffffffffffffffff161415610e9c576040517f08c379a0000000000000000000000000000000000000000000000000000000008152600401610e93906124cc565b60405180910390fd5b610ea581611444565b50565b60007f01ffc9a7000000000000000000000000000000000000000000000000000000007bffffffffffffffffffffffffffffffffffffffffffffffffffffffff1916827bffffffffffffffffffffffffffffffffffffffffffffffffffffffff1916149050919050565b60008073ffffffffffffffffffffffffffffffffffffffff166002600084815260200190815260200160002060009054906101000a900473ffffffffffffffffffffffffffffffffffffffff1673ffffffffffffffffffffffffffffffffffffffff1614159050919050565b600033905090565b816004600083815260200190815260200160002060006101000a81548173ffffffffffffffffffffffffffffffffffffffff021916908373ffffffffffffffffffffffffffffffffffffffff160217905550808273ffffffffffffffffffffffffffffffffffffffff16610ff983610839565b73ffffffffffffffffffffffffffffffffffffffff167f8c5be1e5ebec7d5bd14f71427d1e84f3dd0314c0f7b2291e5b200ac8c7c3b92560405160405180910390a45050565b600061104a82610f12565b611089576040517f08c379a00000000000000000000000000000000000000000000000000000000081526004016110809061256c565b60405180910390fd5b600061109483610839565b90508073ffffffffffffffffffffffffffffffffffffffff168473ffffffffffffffffffffffffffffffffffffffff16148061110357508373ffffffffffffffffffffffffffffffffffffffff166110eb8461055d565b73ffffffffffffffffffffffffffffffffffffffff16145b8061111457506111138185610d1c565b5b91505092915050565b8273ffffffffffffffffffffffffffffffffffffffff1661113d82610839565b73ffffffffffffffffffffffffffffffffffffffff1614611193576040517f08c379a000000000000000000000000000000000000000000000000000000000815260040161118a906124ec565b60405180910390fd5b600073ffffffffffffffffffffffffffffffffffffffff168273ffffffffffffffffffffffffffffffffffffffff161415611203576040517f08c379a00000000000000000000000000000000000000000000000000000000081526004016111fa9061252c565b60405180910390fd5b61120e83838361193a565b611219600082610f86565b6001600360008573ffffffffffffffffffffffffffffffffffffffff1673ffffffffffffffffffffffffffffffffffffffff16815260200190815260200160002060008282546112699190612807565b925050819055506001600360008473ffffffffffffffffffffffffffffffffffffffff1673ffffffffffffffffffffffffffffffffffffffff16815260200190815260200160002060008282546112c09190612780565b92505081905550816002600083815260200190815260200160002060006101000a81548173ffffffffffffffffffffffffffffffffffffffff021916908373ffffffffffffffffffffffffffffffffffffffff160217905550808273ffffffffffffffffffffffffffffffffffffffff168473ffffffffffffffffffffffffffffffffffffffff167fddf252ad1be2c89b69c2b068fc378daa952ba7f163c4a11628f55a4df523b3ef60405160405180910390a461137f838383611992565b505050565b61138c610822565b6113cb576040517f08c379a00000000000000000000000000000000000000000000000000000000081526004016113c29061248c565b60405180910390fd5b6000600660006101000a81548160ff0219169083151502179055507f5db9ee0a495bf2e6ff9c91a7834c1ba4fdd244a5e8aa4e537bd38aeae4b073aa61140f610f7e565b60405161141c91906123e8565b60405180910390a1565b611440828260405180602001604052806000815250611997565b5050565b6000600660019054906101000a900473ffffffffffffffffffffffffffffffffffffffff16905081600660016101000a81548173ffffffffffffffffffffffffffffffffffffffff021916908373ffffffffffffffffffffffffffffffffffffffff1602179055508173ffffffffffffffffffffffffffffffffffffffff168173ffffffffffffffffffffffffffffffffffffffff167f8be0079c531659141344cd1fd0a4f28419497f9722a3daafe3b4186f6b6457e060405160405180910390a35050565b611512610822565b15611552576040517f08c379a00000000000000000000000000000000000000000000000000000000081526004016115499061258c565b60405180910390fd5b6001600660006101000a81548160ff0219169083151502179055507f62e78cea01bee320cd4e420270b5ea74000d11b0c9f74754ebdbfc544b05a258611596610f7e565b6040516115a391906123e8565b60405180910390a1565b8173ffffffffffffffffffffffffffffffffffffffff168373ffffffffffffffffffffffffffffffffffffffff16141561161c576040517f08c379a00000000000000000000000000000000000000000000000000000000081526004016116139061254c565b60405180910390fd5b80600560008573ffffffffffffffffffffffffffffffffffffffff1673ffffffffffffffffffffffffffffffffffffffff16815260200190815260200160002060008473ffffffffffffffffffffffffffffffffffffffff1673ffffffffffffffffffffffffffffffffffffffff16815260200190815260200160002060006101000a81548160ff0219169083151502179055508173ffffffffffffffffffffffffffffffffffffffff168373ffffffffffffffffffffffffffffffffffffffff167f17307eab39ab6107e8899845ad3d59bd9653f200f220920489ca2b5937696c318360405161170d919061244f565b60405180910390a3505050565b61172584848461111d565b611731848484846119f2565b611770576040517f08c379a0000000000000000000000000000000000000000000000000000000008152600401611767906124ac565b60405180910390fd5b50505050565b606060405180602001604052806000815250905090565b606060008214156117d5576040518060400160405280600181526020017f30000000000000000000000000000000000000000000000000000000000000008152509050611935565b600082905060005b600082146118075780806117f090612954565b915050600a8261180091906127d6565b91506117dd565b60008167ffffffffffffffff811115611849577f4e487b7100000000000000000000000000000000000000000000000000000000600052604160045260246000fd5b6040519080825280601f01601f19166020018201604052801561187b5781602001600182028036833780820191505090505b5090505b6000851461192e576001826118949190612807565b9150600a856118a3919061299d565b60306118af9190612780565b60f81b8183815181106118eb577f4e487b7100000000000000000000000000000000000000000000000000000000600052603260045260246000fd5b60200101907effffffffffffffffffffffffffffffffffffffffffffffffffffffffffffff1916908160001a905350600a8561192791906127d6565b945061187f565b8093505050505b919050565b611942610822565b15611982576040517f08c379a00000000000000000000000000000000000000000000000000000000081526004016119799061258c565b60405180910390fd5b61198d838383611b89565b505050565b505050565b6119a18383611b8e565b6119ae60008484846119f2565b6119ed576040517f08c379a00000000000000000000000000000000000000000000000000000000081526004016119e4906124ac565b60405180910390fd5b505050565b6000611a138473ffffffffffffffffffffffffffffffffffffffff16611d68565b15611b7c578373ffffffffffffffffffffffffffffffffffffffff1663150b7a02611a3c610f7e565b8786866040518563ffffffff1660e01b8152600401611a5e9493929190612403565b602060405180830381600087803b158015611a7857600080fd5b505af1925050508015611aa957506040513d601f19601f82011682018060405250810190611aa6919061202c565b60015b611b2c573d8060008114611ad9576040519150601f19603f3d011682016040523d82523d6000602084013e611ade565b606091505b50600081511415611b24576040517f08c379a0000000000000000000000000000000000000000000000000000000008152600401611b1b906124ac565b60405180910390fd5b805181602001fd5b63150b7a0260e01b7bffffffffffffffffffffffffffffffffffffffffffffffffffffffff1916817bffffffffffffffffffffffffffffffffffffffffffffffffffffffff191614915050611b81565b600190505b949350505050565b505050565b600073ffffffffffffffffffffffffffffffffffffffff168273ffffffffffffffffffffffffffffffffffffffff161415611bfe576040517f08c379a0000000000000000000000000000000000000000000000000000000008152600401611bf59061260c565b60405180910390fd5b611c0781610f12565b15611c47576040517f08c379a0000000000000000000000000000000000000000000000000000000008152600401611c3e9061250c565b60405180910390fd5b611c536000838361193a565b6001600360008473ffffffffffffffffffffffffffffffffffffffff1673ffffffffffffffffffffffffffffffffffffffff1681526020019081526020016000206000828254611ca39190612780565b92505081905550816002600083815260200190815260200160002060006101000a81548173ffffffffffffffffffffffffffffffffffffffff021916908373ffffffffffffffffffffffffffffffffffffffff160217905550808273ffffffffffffffffffffffffffffffffffffffff16600073ffffffffffffffffffffffffffffffffffffffff167fddf252ad1be2c89b69c2b068fc378daa952ba7f163c4a11628f55a4df523b3ef60405160405180910390a4611d6460008383611992565b5050565b6000808273ffffffffffffffffffffffffffffffffffffffff163b119050919050565b6000611d9e611d998461270c565b6126e7565b905082815260208101848484011115611db657600080fd5b611dc18482856128af565b509392505050565b600081359050611dd881612f45565b92915050565b600081359050611ded81612f5c565b92915050565b600081359050611e0281612f73565b92915050565b600081519050611e1781612f73565b92915050565b600082601f830112611e2e57600080fd5b8135611e3e848260208601611d8b565b91505092915050565b600081359050611e5681612f8a565b92915050565b600060208284031215611e6e57600080fd5b6000611e7c84828501611dc9565b91505092915050565b60008060408385031215611e9857600080fd5b6000611ea685828601611dc9565b9250506020611eb785828601611dc9565b9150509250929050565b600080600060608486031215611ed657600080fd5b6000611ee486828701611dc9565b9350506020611ef586828701611dc9565b9250506040611f0686828701611e47565b9150509250925092565b60008060008060808587031215611f2657600080fd5b6000611f3487828801611dc9565b9450506020611f4587828801611dc9565b9350506040611f5687828801611e47565b925050606085013567ffffffffffffffff811115611f7357600080fd5b611f7f87828801611e1d565b91505092959194509250565b60008060408385031215611f9e57600080fd5b6000611fac85828601611dc9565b9250506020611fbd85828601611dde565b9150509250929050565b60008060408385031215611fda57600080fd5b6000611fe885828601611dc9565b9250506020611ff985828601611e47565b9150509250929050565b60006020828403121561201557600080fd5b600061202384828501611df3565b91505092915050565b60006020828403121561203e57600080fd5b600061204c84828501611e08565b91505092915050565b60006020828403121561206757600080fd5b600061207584828501611e47565b91505092915050565b6120878161283b565b82525050565b6120968161284d565b82525050565b60006120a78261273d565b6120b18185612753565b93506120c18185602086016128be565b6120ca81612a8a565b840191505092915050565b60006120e082612748565b6120ea8185612764565b93506120fa8185602086016128be565b61210381612a8a565b840191505092915050565b600061211982612748565b6121238185612775565b93506121338185602086016128be565b80840191505092915050565b600061214c601483612764565b915061215782612a9b565b602082019050919050565b600061216f603283612764565b915061217a82612ac4565b604082019050919050565b6000612192602683612764565b915061219d82612b13565b604082019050919050565b60006121b5602583612764565b91506121c082612b62565b604082019050919050565b60006121d8601c83612764565b91506121e382612bb1565b602082019050919050565b60006121fb602483612764565b915061220682612bda565b604082019050919050565b600061221e601983612764565b915061222982612c29565b602082019050919050565b6000612241602c83612764565b915061224c82612c52565b604082019050919050565b6000612264601083612764565b915061226f82612ca1565b602082019050919050565b6000612287603883612764565b915061229282612cca565b604082019050919050565b60006122aa602a83612764565b91506122b582612d19565b604082019050919050565b60006122cd602983612764565b91506122d882612d68565b604082019050919050565b60006122f0602083612764565b91506122fb82612db7565b602082019050919050565b6000612313602c83612764565b915061231e82612de0565b604082019050919050565b6000612336602083612764565b915061234182612e2f565b602082019050919050565b6000612359602f83612764565b915061236482612e58565b604082019050919050565b600061237c602183612764565b915061238782612ea7565b604082019050919050565b600061239f603183612764565b91506123aa82612ef6565b604082019050919050565b6123be816128a5565b82525050565b60006123d0828561210e565b91506123dc828461210e565b91508190509392505050565b60006020820190506123fd600083018461207e565b92915050565b6000608082019050612418600083018761207e565b612425602083018661207e565b61243260408301856123b5565b8181036060830152612444818461209c565b905095945050505050565b6000602082019050612464600083018461208d565b92915050565b6000602082019050818103600083015261248481846120d5565b905092915050565b600060208201905081810360008301526124a58161213f565b9050919050565b600060208201905081810360008301526124c581612162565b9050919050565b600060208201905081810360008301526124e581612185565b9050919050565b60006020820190508181036000830152612505816121a8565b9050919050565b60006020820190508181036000830152612525816121cb565b9050919050565b60006020820190508181036000830152612545816121ee565b9050919050565b6000602082019050818103600083015261256581612211565b9050919050565b6000602082019050818103600083015261258581612234565b9050919050565b600060208201905081810360008301526125a581612257565b9050919050565b600060208201905081810360008301526125c58161227a565b9050919050565b600060208201905081810360008301526125e58161229d565b9050919050565b60006020820190508181036000830152612605816122c0565b9050919050565b60006020820190508181036000830152612625816122e3565b9050919050565b6000602082019050818103600083015261264581612306565b9050919050565b6000602082019050818103600083015261266581612329565b9050919050565b600060208201905081810360008301526126858161234c565b9050919050565b600060208201905081810360008301526126a58161236f565b9050919050565b600060208201905081810360008301526126c581612392565b9050919050565b60006020820190506126e160008301846123b5565b92915050565b60006126f1612702565b90506126fd8282612923565b919050565b6000604051905090565b600067ffffffffffffffff82111561272757612726612a5b565b5b61273082612a8a565b9050602081019050919050565b600081519050919050565b600081519050919050565b600082825260208201905092915050565b600082825260208201905092915050565b600081905092915050565b600061278b826128a5565b9150612796836128a5565b9250827fffffffffffffffffffffffffffffffffffffffffffffffffffffffffffffffff038211156127cb576127ca6129ce565b5b828201905092915050565b60006127e1826128a5565b91506127ec836128a5565b9250826127fc576127fb6129fd565b5b828204905092915050565b6000612812826128a5565b915061281d836128a5565b9250828210156128305761282f6129ce565b5b828203905092915050565b600061284682612885565b9050919050565b60008115159050919050565b60007fffffffff0000000000000000000000000000000000000000000000000000000082169050919050565b600073ffffffffffffffffffffffffffffffffffffffff82169050919050565b6000819050919050565b82818337600083830152505050565b60005b838110156128dc5780820151818401526020810190506128c1565b838111156128eb576000848401525b50505050565b6000600282049050600182168061290957607f821691505b6020821081141561291d5761291c612a2c565b5b50919050565b61292c82612a8a565b810181811067ffffffffffffffff8211171561294b5761294a612a5b565b5b80604052505050565b600061295f826128a5565b91507fffffffffffffffffffffffffffffffffffffffffffffffffffffffffffffffff821415612992576129916129ce565b5b600182019050919050565b60006129a8826128a5565b91506129b3836128a5565b9250826129c3576129c26129fd565b5b828206905092915050565b7f4e487b7100000000000000000000000000000000000000000000000000000000600052601160045260246000fd5b7f4e487b7100000000000000000000000000000000000000000000000000000000600052601260045260246000fd5b7f4e487b7100000000000000000000000000000000000000000000000000000000600052602260045260246000fd5b7f4e487b7100000000000000000000000000000000000000000000000000000000600052604160045260246000fd5b6000601f19601f8301169050919050565b7f5061757361626c653a206e6f7420706175736564000000000000000000000000600082015250565b7f4552433732313a207472616e7366657220746f206e6f6e20455243373231526560008201527f63656976657220696d706c656d656e7465720000000000000000000000000000602082015250565b7f4f776e61626c653a206e6577206f776e657220697320746865207a65726f206160008201527f6464726573730000000000000000000000000000000000000000000000000000602082015250565b7f4552433732313a207472616e736665722066726f6d20696e636f72726563742060008201527f6f776e6572000000000000000000000000000000000000000000000000000000602082015250565b7f4552433732313a20746f6b656e20616c7265616479206d696e74656400000000600082015250565b7f4552433732313a207472616e7366657220746f20746865207a65726f2061646460008201527f7265737300000000000000000000000000000000000000000000000000000000602082015250565b7f4552433732313a20617070726f766520746f2063616c6c657200000000000000600082015250565b7f4552433732313a206f70657261746f7220717565727920666f72206e6f6e657860008201527f697374656e7420746f6b656e0000000000000000000000000000000000000000602082015250565b7f5061757361626c653a2070617573656400000000000000000000000000000000600082015250565b7f4552433732313a20617070726f76652063616c6c6572206973206e6f74206f7760008201527f6e6572206e6f7220617070726f76656420666f7220616c6c0000000000000000602082015250565b7f4552433732313a2062616c616e636520717565727920666f7220746865207a6560008201527f726f206164647265737300000000000000000000000000000000000000000000602082015250565b7f4552433732313a206f776e657220717565727920666f72206e6f6e657869737460008201527f656e7420746f6b656e0000000000000000000000000000000000000000000000602082015250565b7f4552433732313a206d696e7420746f20746865207a65726f2061646472657373600082015250565b7f4552433732313a20617070726f76656420717565727920666f72206e6f6e657860008201527f697374656e7420746f6b656e0000000000000000000000000000000000000000602082015250565b7f4f776e61626c653a2063616c6c6572206973206e6f7420746865206f776e6572600082015250565b7f4552433732314d657461646174613a2055524920717565727920666f72206e6f60008201527f6e6578697374656e7420746f6b656e0000000000000000000000000000000000602082015250565b7f4552433732313a20617070726f76616c20746f2063757272656e74206f776e6560008201527f7200000000000000000000000000000000000000000000000000000000000000602082015250565b7f4552433732313a207472616e736665722063616c6c6572206973206e6f74206f60008201527f776e6572206e6f7220617070726f766564000000000000000000000000000000602082015250565b612f4e8161283b565b8114612f5957600080fd5b50565b612f658161284d565b8114612f7057600080fd5b50565b612f7c81612859565b8114612f8757600080fd5b50565b612f93816128a5565b8114612f9e57600080fd5b5056fea2646970667358221220e7f68becd7af4fa6907cdc5ff9b39c6b0f62ef82347dc39054de11ec70bebe6a64736f6c63430008040033",
  "linkReferences": {},
  "deployedLinkReferences": {}
}