{
  "_format": "hh-sol-artifact-1",
  "contractName": "Owner",
  "sourceName": "contracts/Owner.sol",
  "abi": [
    {
      "inputs": [],
      "name": "_storage",
      "outputs": [
        {
          "internalType": "contract Storage",
          "name": "",
          "type": "address"
        }
      ],
      "stateMutability": "view",
      "type": "function"
    },
    {
      "inputs": [
        {
          "internalType": "uint256",
          "name": "_amount",
          "type": "uint256"
        }
      ],
      "name": "buyX",
      "outputs": [],
      "stateMutability": "nonpayable",
      "type": "function"
    },
    {
      "inputs": [],
      "name": "getBalance",
      "outputs": [
        {
          "internalType": "uint256",
          "name": "",
          "type": "uint256"
        }
      ],
      "stateMutability": "view",
      "type": "function"
    },
    {
      "inputs": [
        {
          "internalType": "address",
          "name": "storageAddr",
          "type": "address"
        }
      ],
      "name": "setStorage",
      "outputs": [],
      "stateMutability": "nonpayable",
      "type": "function"
    }
  ],
  "bytecode": "0x608060405234801561001057600080fd5b50610492806100206000396000f3fe608060405234801561001057600080fd5b506004361061004c5760003560e01c806312065fe014610051578063719517641461006f5780639137c1a71461008b578063c3fb90d6146100a7575b600080fd5b6100596100c5565b60405161006691906103b3565b60405180910390f35b610089600480360381019061008491906102d5565b610176565b005b6100a560048036038101906100a091906102ac565b610206565b005b6100af610249565b6040516100bc9190610398565b60405180910390f35b60008060009054906101000a900473ffffffffffffffffffffffffffffffffffffffff1673ffffffffffffffffffffffffffffffffffffffff1663f8b2cb4f336040518263ffffffff1660e01b81526004016101219190610354565b60206040518083038186803b15801561013957600080fd5b505afa15801561014d573d6000803e3d6000fd5b505050506040513d601f19601f8201168201806040525081019061017191906102fe565b905090565b60008054906101000a900473ffffffffffffffffffffffffffffffffffffffff1673ffffffffffffffffffffffffffffffffffffffff1663e30443bc33836040518363ffffffff1660e01b81526004016101d192919061036f565b600060405180830381600087803b1580156101eb57600080fd5b505af11580156101ff573d6000803e3d6000fd5b5050505050565b806000806101000a81548173ffffffffffffffffffffffffffffffffffffffff021916908373ffffffffffffffffffffffffffffffffffffffff16021790555050565b60008054906101000a900473ffffffffffffffffffffffffffffffffffffffff1681565b60008135905061027c8161042e565b92915050565b60008135905061029181610445565b92915050565b6000815190506102a681610445565b92915050565b6000602082840312156102be57600080fd5b60006102cc8482850161026d565b91505092915050565b6000602082840312156102e757600080fd5b60006102f584828501610282565b91505092915050565b60006020828403121561031057600080fd5b600061031e84828501610297565b91505092915050565b610330816103ce565b82525050565b61033f8161040a565b82525050565b61034e81610400565b82525050565b60006020820190506103696000830184610327565b92915050565b60006040820190506103846000830185610327565b6103916020830184610345565b9392505050565b60006020820190506103ad6000830184610336565b92915050565b60006020820190506103c86000830184610345565b92915050565b60006103d9826103e0565b9050919050565b600073ffffffffffffffffffffffffffffffffffffffff82169050919050565b6000819050919050565b60006104158261041c565b9050919050565b6000610427826103e0565b9050919050565b610437816103ce565b811461044257600080fd5b50565b61044e81610400565b811461045957600080fd5b5056fea2646970667358221220238ec544c914c73efd0b31607429879663dffcd20d41a7952189b9f656e403e564736f6c63430008040033",
  "linkReferences": {},
  "deployedLinkReferences": {}
}