{
  "_format": "hh-sol-artifact-1",
  "contractName": "VerifySignature",
  "sourceName": "contracts/VerifySignature.sol",
  "abi": [
    {
      "inputs": [],
      "stateMutability": "nonpayable",
      "type": "constructor"
    },
    {
      "inputs": [
        {
          "internalType": "bytes32",
          "name": "_messageHash",
          "type": "bytes32"
        }
      ],
      "name": "getEthSignedMessageHash",
      "outputs": [
        {
          "internalType": "bytes32",
          "name": "",
          "type": "bytes32"
        }
      ],
      "stateMutability": "pure",
      "type": "function"
    },
    {
      "inputs": [
        {
          "internalType": "string",
          "name": "_message",
          "type": "string"
        },
        {
          "internalType": "uint256",
          "name": "_nonce",
          "type": "uint256"
        }
      ],
      "name": "getMessageHash",
      "outputs": [
        {
          "internalType": "bytes32",
          "name": "",
          "type": "bytes32"
        }
      ],
      "stateMutability": "pure",
      "type": "function"
    },
    {
      "inputs": [
        {
          "internalType": "string",
          "name": "_message",
          "type": "string"
        }
      ],
      "name": "getUnsignedHash",
      "outputs": [
        {
          "internalType": "bytes32",
          "name": "",
          "type": "bytes32"
        }
      ],
      "stateMutability": "pure",
      "type": "function"
    },
    {
      "inputs": [],
      "name": "owner",
      "outputs": [
        {
          "internalType": "address",
          "name": "",
          "type": "address"
        }
      ],
      "stateMutability": "view",
      "type": "function"
    },
    {
      "inputs": [
        {
          "internalType": "bytes32",
          "name": "_ethSignedMessageHash",
          "type": "bytes32"
        },
        {
          "internalType": "bytes",
          "name": "_signature",
          "type": "bytes"
        }
      ],
      "name": "recoverSigner",
      "outputs": [
        {
          "internalType": "address",
          "name": "",
          "type": "address"
        }
      ],
      "stateMutability": "pure",
      "type": "function"
    },
    {
      "inputs": [
        {
          "internalType": "bytes32",
          "name": "hash",
          "type": "bytes32"
        },
        {
          "internalType": "bytes",
          "name": "signature",
          "type": "bytes"
        }
      ],
      "name": "recoverWithECDSA",
      "outputs": [
        {
          "internalType": "address",
          "name": "",
          "type": "address"
        }
      ],
      "stateMutability": "pure",
      "type": "function"
    },
    {
      "inputs": [
        {
          "internalType": "bytes",
          "name": "sig",
          "type": "bytes"
        }
      ],
      "name": "splitSignature",
      "outputs": [
        {
          "internalType": "bytes32",
          "name": "r",
          "type": "bytes32"
        },
        {
          "internalType": "bytes32",
          "name": "s",
          "type": "bytes32"
        },
        {
          "internalType": "uint8",
          "name": "v",
          "type": "uint8"
        }
      ],
      "stateMutability": "pure",
      "type": "function"
    },
    {
      "inputs": [
        {
          "internalType": "address",
          "name": "_signer",
          "type": "address"
        },
        {
          "internalType": "string",
          "name": "_message",
          "type": "string"
        },
        {
          "internalType": "uint256",
          "name": "_nonce",
          "type": "uint256"
        },
        {
          "internalType": "bytes",
          "name": "signature",
          "type": "bytes"
        }
      ],
      "name": "verify",
      "outputs": [
        {
          "internalType": "bool",
          "name": "",
          "type": "bool"
        },
        {
          "internalType": "address",
          "name": "",
          "type": "address"
        },
        {
          "internalType": "address",
          "name": "",
          "type": "address"
        }
      ],
      "stateMutability": "pure",
      "type": "function"
    },
    {
      "inputs": [
        {
          "internalType": "address",
          "name": "_signer",
          "type": "address"
        },
        {
          "internalType": "bytes32",
          "name": "_ethSignedMessageHash",
          "type": "bytes32"
        },
        {
          "internalType": "bytes32",
          "name": "r",
          "type": "bytes32"
        },
        {
          "internalType": "bytes32",
          "name": "s",
          "type": "bytes32"
        },
        {
          "internalType": "uint8",
          "name": "v",
          "type": "uint8"
        }
      ],
      "name": "verifyWithRVS",
      "outputs": [
        {
          "internalType": "bool",
          "name": "",
          "type": "bool"
        },
        {
          "internalType": "address",
          "name": "",
          "type": "address"
        },
        {
          "internalType": "address",
          "name": "",
          "type": "address"
        }
      ],
      "stateMutability": "pure",
      "type": "function"
    }
  ],
  "bytecode": "0x60a060405234801561001057600080fd5b503373ffffffffffffffffffffffffffffffffffffffff1660808173ffffffffffffffffffffffffffffffffffffffff16815250506080516114bc610060600039600061037c01526114bc6000f3fe608060405234801561001057600080fd5b50600436106100935760003560e01c806397aba7f91161006657806397aba7f91461014a578063a6e5136f1461017a578063a7bb5803146101aa578063d4aa6916146101dc578063fa5408011461020c57610093565b806307546f1a14610098578063541525ca146100ca57806363c92a6d146100fa5780638da5cb5b1461012c575b600080fd5b6100b260048036038101906100ad9190610b64565b61023c565b6040516100c193929190610c2d565b60405180910390f35b6100e460048036038101906100df9190610c64565b6102ad565b6040516100f19190610cc6565b60405180910390f35b610114600480360381019061010f9190610d46565b6102e0565b60405161012393929190610c2d565b60405180910390f35b61013461037a565b6040516101419190610dc1565b60405180910390f35b610164600480360381019061015f9190610ddc565b61039e565b6040516101719190610dc1565b60405180910390f35b610194600480360381019061018f9190610ddc565b61040d565b6040516101a19190610dc1565b60405180910390f35b6101c460048036038101906101bf9190610e38565b610421565b6040516101d393929190610e90565b60405180910390f35b6101f660048036038101906101f19190610ec7565b610489565b6040516102039190610cc6565b60405180910390f35b61022660048036038101906102219190610f23565b6104ba565b6040516102339190610cc6565b60405180910390f35b60008060008061024c8787610489565b90506000610259826104ba565b90506000610267828861039e565b90508973ffffffffffffffffffffffffffffffffffffffff168173ffffffffffffffffffffffffffffffffffffffff1614818b9550955095505050509450945094915050565b60008151826040516020016102c3929190611037565b604051602081830303815290604052805190602001209050919050565b60008060008060018886898960405160008152602001604052604051610309949392919061106a565b6020604051602081039080840390855afa15801561032b573d6000803e3d6000fd5b5050506020604051035190508873ffffffffffffffffffffffffffffffffffffffff168173ffffffffffffffffffffffffffffffffffffffff1614818a93509350935050955095509592505050565b7f000000000000000000000000000000000000000000000000000000000000000081565b6000806000806103ad85610421565b925092509250600186828585604051600081526020016040526040516103d6949392919061106a565b6020604051602081039080840390855afa1580156103f8573d6000803e3d6000fd5b50505060206040510351935050505092915050565b600061041983836104ea565b905092915050565b6000806000604184511461046a576040517f08c379a00000000000000000000000000000000000000000000000000000000081526004016104619061110c565b60405180910390fd5b6020840151925060408401519150606084015160001a90509193909250565b60008260405160200161049c919061112c565b60405160208183030381529060405280519060200120905092915050565b6000816040516020016104cd91906111b0565b604051602081830303815290604052805190602001209050919050565b60008060006104f98585610511565b9150915061050681610594565b819250505092915050565b6000806041835114156105535760008060006020860151925060408601519150606086015160001a905061054787828585610769565b9450945050505061058d565b604083511415610584576000806020850151915060408501519050610579868383610876565b93509350505061058d565b60006002915091505b9250929050565b600060048111156105a8576105a76111d6565b5b8160048111156105bb576105ba6111d6565b5b14156105c657610766565b600160048111156105da576105d96111d6565b5b8160048111156105ed576105ec6111d6565b5b141561062e576040517f08c379a000000000000000000000000000000000000000000000000000000000815260040161062590611251565b60405180910390fd5b60026004811115610642576106416111d6565b5b816004811115610655576106546111d6565b5b1415610696576040517f08c379a000000000000000000000000000000000000000000000000000000000815260040161068d906112bd565b60405180910390fd5b600360048111156106aa576106a96111d6565b5b8160048111156106bd576106bc6111d6565b5b14156106fe576040517f08c379a00000000000000000000000000000000000000000000000000000000081526004016106f59061134f565b60405180910390fd5b600480811115610711576107106111d6565b5b816004811115610724576107236111d6565b5b1415610765576040517f08c379a000000000000000000000000000000000000000000000000000000000815260040161075c906113e1565b60405180910390fd5b5b50565b6000807f7fffffffffffffffffffffffffffffff5d576e7357a4501ddfe92f46681b20a08360001c11156107a457600060039150915061086d565b601b8560ff16141580156107bc5750601c8560ff1614155b156107ce57600060049150915061086d565b6000600187878787604051600081526020016040526040516107f3949392919061106a565b6020604051602081039080840390855afa158015610815573d6000803e3d6000fd5b505050602060405103519050600073ffffffffffffffffffffffffffffffffffffffff168173ffffffffffffffffffffffffffffffffffffffff1614156108645760006001925092505061086d565b80600092509250505b94509492505050565b60008060007f7fffffffffffffffffffffffffffffffffffffffffffffffffffffffffffffff60001b841690506000601b60ff8660001c901c6108b99190611430565b90506108c787828885610769565b935093505050935093915050565b6000604051905090565b600080fd5b600080fd5b600073ffffffffffffffffffffffffffffffffffffffff82169050919050565b6000610914826108e9565b9050919050565b61092481610909565b811461092f57600080fd5b50565b6000813590506109418161091b565b92915050565b600080fd5b600080fd5b6000601f19601f8301169050919050565b7f4e487b7100000000000000000000000000000000000000000000000000000000600052604160045260246000fd5b61099a82610951565b810181811067ffffffffffffffff821117156109b9576109b8610962565b5b80604052505050565b60006109cc6108d5565b90506109d88282610991565b919050565b600067ffffffffffffffff8211156109f8576109f7610962565b5b610a0182610951565b9050602081019050919050565b82818337600083830152505050565b6000610a30610a2b846109dd565b6109c2565b905082815260208101848484011115610a4c57610a4b61094c565b5b610a57848285610a0e565b509392505050565b600082601f830112610a7457610a73610947565b5b8135610a84848260208601610a1d565b91505092915050565b6000819050919050565b610aa081610a8d565b8114610aab57600080fd5b50565b600081359050610abd81610a97565b92915050565b600067ffffffffffffffff821115610ade57610add610962565b5b610ae782610951565b9050602081019050919050565b6000610b07610b0284610ac3565b6109c2565b905082815260208101848484011115610b2357610b2261094c565b5b610b2e848285610a0e565b509392505050565b600082601f830112610b4b57610b4a610947565b5b8135610b5b848260208601610af4565b91505092915050565b60008060008060808587031215610b7e57610b7d6108df565b5b6000610b8c87828801610932565b945050602085013567ffffffffffffffff811115610bad57610bac6108e4565b5b610bb987828801610a5f565b9350506040610bca87828801610aae565b925050606085013567ffffffffffffffff811115610beb57610bea6108e4565b5b610bf787828801610b36565b91505092959194509250565b60008115159050919050565b610c1881610c03565b82525050565b610c2781610909565b82525050565b6000606082019050610c426000830186610c0f565b610c4f6020830185610c1e565b610c5c6040830184610c1e565b949350505050565b600060208284031215610c7a57610c796108df565b5b600082013567ffffffffffffffff811115610c9857610c976108e4565b5b610ca484828501610a5f565b91505092915050565b6000819050919050565b610cc081610cad565b82525050565b6000602082019050610cdb6000830184610cb7565b92915050565b610cea81610cad565b8114610cf557600080fd5b50565b600081359050610d0781610ce1565b92915050565b600060ff82169050919050565b610d2381610d0d565b8114610d2e57600080fd5b50565b600081359050610d4081610d1a565b92915050565b600080600080600060a08688031215610d6257610d616108df565b5b6000610d7088828901610932565b9550506020610d8188828901610cf8565b9450506040610d9288828901610cf8565b9350506060610da388828901610cf8565b9250506080610db488828901610d31565b9150509295509295909350565b6000602082019050610dd66000830184610c1e565b92915050565b60008060408385031215610df357610df26108df565b5b6000610e0185828601610cf8565b925050602083013567ffffffffffffffff811115610e2257610e216108e4565b5b610e2e85828601610b36565b9150509250929050565b600060208284031215610e4e57610e4d6108df565b5b600082013567ffffffffffffffff811115610e6c57610e6b6108e4565b5b610e7884828501610b36565b91505092915050565b610e8a81610d0d565b82525050565b6000606082019050610ea56000830186610cb7565b610eb26020830185610cb7565b610ebf6040830184610e81565b949350505050565b60008060408385031215610ede57610edd6108df565b5b600083013567ffffffffffffffff811115610efc57610efb6108e4565b5b610f0885828601610a5f565b9250506020610f1985828601610aae565b9150509250929050565b600060208284031215610f3957610f386108df565b5b6000610f4784828501610cf8565b91505092915050565b600081905092915050565b7f19457468657265756d205369676e6564204d6573736167653a0a000000000000600082015250565b6000610f91601a83610f50565b9150610f9c82610f5b565b601a82019050919050565b6000819050919050565b610fc2610fbd82610a8d565b610fa7565b82525050565b600081519050919050565b60005b83811015610ff1578082015181840152602081019050610fd6565b83811115611000576000848401525b50505050565b600061101182610fc8565b61101b8185610f50565b935061102b818560208601610fd3565b80840191505092915050565b600061104282610f84565b915061104e8285610fb1565b60208201915061105e8284611006565b91508190509392505050565b600060808201905061107f6000830187610cb7565b61108c6020830186610e81565b6110996040830185610cb7565b6110a66060830184610cb7565b95945050505050565b600082825260208201905092915050565b7f696e76616c6964207369676e6174757265206c656e6774680000000000000000600082015250565b60006110f66018836110af565b9150611101826110c0565b602082019050919050565b60006020820190508181036000830152611125816110e9565b9050919050565b60006111388284611006565b915081905092915050565b7f19457468657265756d205369676e6564204d6573736167653a0a333200000000600082015250565b6000611179601c83610f50565b915061118482611143565b601c82019050919050565b6000819050919050565b6111aa6111a582610cad565b61118f565b82525050565b60006111bb8261116c565b91506111c78284611199565b60208201915081905092915050565b7f4e487b7100000000000000000000000000000000000000000000000000000000600052602160045260246000fd5b7f45434453413a20696e76616c6964207369676e61747572650000000000000000600082015250565b600061123b6018836110af565b915061124682611205565b602082019050919050565b6000602082019050818103600083015261126a8161122e565b9050919050565b7f45434453413a20696e76616c6964207369676e6174757265206c656e67746800600082015250565b60006112a7601f836110af565b91506112b282611271565b602082019050919050565b600060208201905081810360008301526112d68161129a565b9050919050565b7f45434453413a20696e76616c6964207369676e6174757265202773272076616c60008201527f7565000000000000000000000000000000000000000000000000000000000000602082015250565b60006113396022836110af565b9150611344826112dd565b604082019050919050565b600060208201905081810360008301526113688161132c565b9050919050565b7f45434453413a20696e76616c6964207369676e6174757265202776272076616c60008201527f7565000000000000000000000000000000000000000000000000000000000000602082015250565b60006113cb6022836110af565b91506113d68261136f565b604082019050919050565b600060208201905081810360008301526113fa816113be565b9050919050565b7f4e487b7100000000000000000000000000000000000000000000000000000000600052601160045260246000fd5b600061143b82610a8d565b915061144683610a8d565b9250827fffffffffffffffffffffffffffffffffffffffffffffffffffffffffffffffff0382111561147b5761147a611401565b5b82820190509291505056fea26469706673582212207afe30aab25b55a2c1b111338b231dcd9c1669b9faeeb0b463e3e6c175d0a58b64736f6c634300080a0033",
  "linkReferences": {},
  "deployedLinkReferences": {}
}