{
  "_format": "hh-sol-artifact-1",
  "contractName": "ERC721",
  "sourceName": "contracts/Day0Flattened.sol",
  "abi": [
    {
      "inputs": [
        {
          "internalType": "string",
          "name": "name_",
          "type": "string"
        },
        {
          "internalType": "string",
          "name": "symbol_",
          "type": "string"
        }
      ],
      "stateMutability": "nonpayable",
      "type": "constructor"
    },
    {
      "anonymous": false,
      "inputs": [
        {
          "indexed": true,
          "internalType": "address",
          "name": "owner",
          "type": "address"
        },
        {
          "indexed": true,
          "internalType": "address",
          "name": "approved",
          "type": "address"
        },
        {
          "indexed": true,
          "internalType": "uint256",
          "name": "tokenId",
          "type": "uint256"
        }
      ],
      "name": "Approval",
      "type": "event"
    },
    {
      "anonymous": false,
      "inputs": [
        {
          "indexed": true,
          "internalType": "address",
          "name": "owner",
          "type": "address"
        },
        {
          "indexed": true,
          "internalType": "address",
          "name": "operator",
          "type": "address"
        },
        {
          "indexed": false,
          "internalType": "bool",
          "name": "approved",
          "type": "bool"
        }
      ],
      "name": "ApprovalForAll",
      "type": "event"
    },
    {
      "anonymous": false,
      "inputs": [
        {
          "indexed": true,
          "internalType": "address",
          "name": "from",
          "type": "address"
        },
        {
          "indexed": true,
          "internalType": "address",
          "name": "to",
          "type": "address"
        },
        {
          "indexed": true,
          "internalType": "uint256",
          "name": "tokenId",
          "type": "uint256"
        }
      ],
      "name": "Transfer",
      "type": "event"
    },
    {
      "inputs": [
        {
          "internalType": "address",
          "name": "to",
          "type": "address"
        },
        {
          "internalType": "uint256",
          "name": "tokenId",
          "type": "uint256"
        }
      ],
      "name": "approve",
      "outputs": [],
      "stateMutability": "nonpayable",
      "type": "function"
    },
    {
      "inputs": [
        {
          "internalType": "address",
          "name": "owner",
          "type": "address"
        }
      ],
      "name": "balanceOf",
      "outputs": [
        {
          "internalType": "uint256",
          "name": "",
          "type": "uint256"
        }
      ],
      "stateMutability": "view",
      "type": "function"
    },
    {
      "inputs": [
        {
          "internalType": "uint256",
          "name": "",
          "type": "uint256"
        }
      ],
      "name": "burned",
      "outputs": [
        {
          "internalType": "bool",
          "name": "",
          "type": "bool"
        }
      ],
      "stateMutability": "view",
      "type": "function"
    },
    {
      "inputs": [
        {
          "internalType": "uint256",
          "name": "tokenId",
          "type": "uint256"
        }
      ],
      "name": "getApproved",
      "outputs": [
        {
          "internalType": "address",
          "name": "",
          "type": "address"
        }
      ],
      "stateMutability": "view",
      "type": "function"
    },
    {
      "inputs": [
        {
          "internalType": "address",
          "name": "owner",
          "type": "address"
        },
        {
          "internalType": "address",
          "name": "operator",
          "type": "address"
        }
      ],
      "name": "isApprovedForAll",
      "outputs": [
        {
          "internalType": "bool",
          "name": "",
          "type": "bool"
        }
      ],
      "stateMutability": "view",
      "type": "function"
    },
    {
      "inputs": [],
      "name": "name",
      "outputs": [
        {
          "internalType": "string",
          "name": "",
          "type": "string"
        }
      ],
      "stateMutability": "view",
      "type": "function"
    },
    {
      "inputs": [
        {
          "internalType": "uint256",
          "name": "tokenId",
          "type": "uint256"
        }
      ],
      "name": "ownerOf",
      "outputs": [
        {
          "internalType": "address",
          "name": "",
          "type": "address"
        }
      ],
      "stateMutability": "view",
      "type": "function"
    },
    {
      "inputs": [
        {
          "internalType": "address",
          "name": "from",
          "type": "address"
        },
        {
          "internalType": "address",
          "name": "to",
          "type": "address"
        },
        {
          "internalType": "uint256",
          "name": "tokenId",
          "type": "uint256"
        }
      ],
      "name": "safeTransferFrom",
      "outputs": [],
      "stateMutability": "nonpayable",
      "type": "function"
    },
    {
      "inputs": [
        {
          "internalType": "address",
          "name": "from",
          "type": "address"
        },
        {
          "internalType": "address",
          "name": "to",
          "type": "address"
        },
        {
          "internalType": "uint256",
          "name": "tokenId",
          "type": "uint256"
        },
        {
          "internalType": "bytes",
          "name": "_data",
          "type": "bytes"
        }
      ],
      "name": "safeTransferFrom",
      "outputs": [],
      "stateMutability": "nonpayable",
      "type": "function"
    },
    {
      "inputs": [
        {
          "internalType": "address",
          "name": "operator",
          "type": "address"
        },
        {
          "internalType": "bool",
          "name": "approved",
          "type": "bool"
        }
      ],
      "name": "setApprovalForAll",
      "outputs": [],
      "stateMutability": "nonpayable",
      "type": "function"
    },
    {
      "inputs": [
        {
          "internalType": "bytes4",
          "name": "interfaceId",
          "type": "bytes4"
        }
      ],
      "name": "supportsInterface",
      "outputs": [
        {
          "internalType": "bool",
          "name": "",
          "type": "bool"
        }
      ],
      "stateMutability": "view",
      "type": "function"
    },
    {
      "inputs": [],
      "name": "symbol",
      "outputs": [
        {
          "internalType": "string",
          "name": "",
          "type": "string"
        }
      ],
      "stateMutability": "view",
      "type": "function"
    },
    {
      "inputs": [
        {
          "internalType": "uint256",
          "name": "tokenId",
          "type": "uint256"
        }
      ],
      "name": "tokenURI",
      "outputs": [
        {
          "internalType": "string",
          "name": "",
          "type": "string"
        }
      ],
      "stateMutability": "view",
      "type": "function"
    },
    {
      "inputs": [
        {
          "internalType": "address",
          "name": "from",
          "type": "address"
        },
        {
          "internalType": "address",
          "name": "to",
          "type": "address"
        },
        {
          "internalType": "uint256",
          "name": "tokenId",
          "type": "uint256"
        }
      ],
      "name": "transferFrom",
      "outputs": [],
      "stateMutability": "nonpayable",
      "type": "function"
    }
  ],
  "bytecode": "0x60806040523480156200001157600080fd5b506040516200298d3803806200298d833981810160405281019062000037919062000193565b81600490805190602001906200004f92919062000071565b5080600590805190602001906200006892919062000071565b50505062000376565b8280546200007f906200029b565b90600052602060002090601f016020900481019282620000a35760008555620000ef565b82601f10620000be57805160ff1916838001178555620000ef565b82800160010185558215620000ef579182015b82811115620000ee578251825591602001919060010190620000d1565b5b509050620000fe919062000102565b5090565b5b808211156200011d57600081600090555060010162000103565b5090565b60006200013862000132846200022f565b62000206565b9050828152602081018484840111156200015157600080fd5b6200015e84828562000265565b509392505050565b600082601f8301126200017857600080fd5b81516200018a84826020860162000121565b91505092915050565b60008060408385031215620001a757600080fd5b600083015167ffffffffffffffff811115620001c257600080fd5b620001d08582860162000166565b925050602083015167ffffffffffffffff811115620001ee57600080fd5b620001fc8582860162000166565b9150509250929050565b60006200021262000225565b9050620002208282620002d1565b919050565b6000604051905090565b600067ffffffffffffffff8211156200024d576200024c62000336565b5b620002588262000365565b9050602081019050919050565b60005b838110156200028557808201518184015260208101905062000268565b8381111562000295576000848401525b50505050565b60006002820490506001821680620002b457607f821691505b60208210811415620002cb57620002ca62000307565b5b50919050565b620002dc8262000365565b810181811067ffffffffffffffff82111715620002fe57620002fd62000336565b5b80604052505050565b7f4e487b7100000000000000000000000000000000000000000000000000000000600052602260045260246000fd5b7f4e487b7100000000000000000000000000000000000000000000000000000000600052604160045260246000fd5b6000601f19601f8301169050919050565b61260780620003866000396000f3fe608060405234801561001057600080fd5b50600436106100ea5760003560e01c80636352211e1161008c578063a22cb46511610066578063a22cb4651461026f578063b88d4fde1461028b578063c87b56dd146102a7578063e985e9c5146102d7576100ea565b80636352211e146101f157806370a082311461022157806395d89b4114610251576100ea565b8063095ea7b3116100c8578063095ea7b31461016d57806323250cae1461018957806323b872dd146101b957806342842e0e146101d5576100ea565b806301ffc9a7146100ef57806306fdde031461011f578063081812fc1461013d575b600080fd5b610109600480360381019061010491906118e1565b610307565b6040516101169190611c5b565b60405180910390f35b6101276103e9565b6040516101349190611c76565b60405180910390f35b61015760048036038101906101529190611933565b61047b565b6040516101649190611bf4565b60405180910390f35b610187600480360381019061018291906118a5565b610500565b005b6101a3600480360381019061019e9190611933565b610618565b6040516101b09190611c5b565b60405180910390f35b6101d360048036038101906101ce919061179f565b610638565b005b6101ef60048036038101906101ea919061179f565b610698565b005b61020b60048036038101906102069190611933565b6106b8565b6040516102189190611bf4565b60405180910390f35b61023b6004803603810190610236919061173a565b610781565b6040516102489190611e18565b60405180910390f35b610259610839565b6040516102669190611c76565b60405180910390f35b61028960048036038101906102849190611869565b6108cb565b005b6102a560048036038101906102a091906117ee565b610a4c565b005b6102c160048036038101906102bc9190611933565b610aae565b6040516102ce9190611c76565b60405180910390f35b6102f160048036038101906102ec9190611763565b610b55565b6040516102fe9190611c5b565b60405180910390f35b60007f80ac58cd000000000000000000000000000000000000000000000000000000007bffffffffffffffffffffffffffffffffffffffffffffffffffffffff1916827bffffffffffffffffffffffffffffffffffffffffffffffffffffffff191614806103d257507f5b5e139f000000000000000000000000000000000000000000000000000000007bffffffffffffffffffffffffffffffffffffffffffffffffffffffff1916827bffffffffffffffffffffffffffffffffffffffffffffffffffffffff1916145b806103e257506103e182610be9565b5b9050919050565b6060600480546103f89061203d565b80601f01602080910402602001604051908101604052809291908181526020018280546104249061203d565b80156104715780601f1061044657610100808354040283529160200191610471565b820191906000526020600020905b81548152906001019060200180831161045457829003601f168201915b5050505050905090565b600061048682610c53565b6104c5576040517f08c379a00000000000000000000000000000000000000000000000000000000081526004016104bc90611d78565b60405180910390fd5b6007600083815260200190815260200160002060009054906101000a900473ffffffffffffffffffffffffffffffffffffffff169050919050565b600061050b826106b8565b90508073ffffffffffffffffffffffffffffffffffffffff168373ffffffffffffffffffffffffffffffffffffffff16141561057c576040517f08c379a000000000000000000000000000000000000000000000000000000000815260040161057390611dd8565b60405180910390fd5b8073ffffffffffffffffffffffffffffffffffffffff1661059b610c70565b73ffffffffffffffffffffffffffffffffffffffff1614806105ca57506105c9816105c4610c70565b610b55565b5b610609576040517f08c379a000000000000000000000000000000000000000000000000000000000815260040161060090611d18565b60405180910390fd5b6106138383610c78565b505050565b60036020528060005260406000206000915054906101000a900460ff1681565b610649610643610c70565b82610d31565b610688576040517f08c379a000000000000000000000000000000000000000000000000000000000815260040161067f90611df8565b60405180910390fd5b610693838383610e0f565b505050565b6106b383838360405180602001604052806000815250610a4c565b505050565b600080610706836040518060400160405280601281526020017f4e6f6e206578697374656e6420746f6b656e000000000000000000000000000081525060016110309092919063ffffffff16565b9050600073ffffffffffffffffffffffffffffffffffffffff168173ffffffffffffffffffffffffffffffffffffffff161415610778576040517f08c379a000000000000000000000000000000000000000000000000000000000815260040161076f90611d58565b60405180910390fd5b80915050919050565b60008073ffffffffffffffffffffffffffffffffffffffff168273ffffffffffffffffffffffffffffffffffffffff1614156107f2576040517f08c379a00000000000000000000000000000000000000000000000000000000081526004016107e990611d38565b60405180910390fd5b600660008373ffffffffffffffffffffffffffffffffffffffff1673ffffffffffffffffffffffffffffffffffffffff168152602001908152602001600020549050919050565b6060600580546108489061203d565b80601f01602080910402602001604051908101604052809291908181526020018280546108749061203d565b80156108c15780601f10610896576101008083540402835291602001916108c1565b820191906000526020600020905b8154815290600101906020018083116108a457829003601f168201915b5050505050905090565b6108d3610c70565b73ffffffffffffffffffffffffffffffffffffffff168273ffffffffffffffffffffffffffffffffffffffff161415610941576040517f08c379a000000000000000000000000000000000000000000000000000000000815260040161093890611cd8565b60405180910390fd5b806008600061094e610c70565b73ffffffffffffffffffffffffffffffffffffffff1673ffffffffffffffffffffffffffffffffffffffff16815260200190815260200160002060008473ffffffffffffffffffffffffffffffffffffffff1673ffffffffffffffffffffffffffffffffffffffff16815260200190815260200160002060006101000a81548160ff0219169083151502179055508173ffffffffffffffffffffffffffffffffffffffff166109fb610c70565b73ffffffffffffffffffffffffffffffffffffffff167f17307eab39ab6107e8899845ad3d59bd9653f200f220920489ca2b5937696c3183604051610a409190611c5b565b60405180910390a35050565b610a5d610a57610c70565b83610d31565b610a9c576040517f08c379a0000000000000000000000000000000000000000000000000000000008152600401610a9390611df8565b60405180910390fd5b610aa88484848461104f565b50505050565b6060610ab982610c53565b610af8576040517f08c379a0000000000000000000000000000000000000000000000000000000008152600401610aef90611db8565b60405180910390fd5b6000610b026110ab565b90506000815111610b225760405180602001604052806000815250610b4d565b80610b2c846110c2565b604051602001610b3d929190611bd0565b6040516020818303038152906040525b915050919050565b6000600860008473ffffffffffffffffffffffffffffffffffffffff1673ffffffffffffffffffffffffffffffffffffffff16815260200190815260200160002060008373ffffffffffffffffffffffffffffffffffffffff1673ffffffffffffffffffffffffffffffffffffffff16815260200190815260200160002060009054906101000a900460ff16905092915050565b60007f01ffc9a7000000000000000000000000000000000000000000000000000000007bffffffffffffffffffffffffffffffffffffffffffffffffffffffff1916827bffffffffffffffffffffffffffffffffffffffffffffffffffffffff1916149050919050565b6000610c6982600161126f90919063ffffffff16565b9050919050565b600033905090565b816007600083815260200190815260200160002060006101000a81548173ffffffffffffffffffffffffffffffffffffffff021916908373ffffffffffffffffffffffffffffffffffffffff160217905550808273ffffffffffffffffffffffffffffffffffffffff16610ceb836106b8565b73ffffffffffffffffffffffffffffffffffffffff167f8c5be1e5ebec7d5bd14f71427d1e84f3dd0314c0f7b2291e5b200ac8c7c3b92560405160405180910390a45050565b6000610d3c82610c53565b610d7b576040517f08c379a0000000000000000000000000000000000000000000000000000000008152600401610d7290611cf8565b60405180910390fd5b6000610d86836106b8565b90508073ffffffffffffffffffffffffffffffffffffffff168473ffffffffffffffffffffffffffffffffffffffff161480610df557508373ffffffffffffffffffffffffffffffffffffffff16610ddd8461047b565b73ffffffffffffffffffffffffffffffffffffffff16145b80610e065750610e058185610b55565b5b91505092915050565b8273ffffffffffffffffffffffffffffffffffffffff16610e2f826106b8565b73ffffffffffffffffffffffffffffffffffffffff1614610e85576040517f08c379a0000000000000000000000000000000000000000000000000000000008152600401610e7c90611d98565b60405180910390fd5b600073ffffffffffffffffffffffffffffffffffffffff168273ffffffffffffffffffffffffffffffffffffffff161415610ef5576040517f08c379a0000000000000000000000000000000000000000000000000000000008152600401610eec90611cb8565b60405180910390fd5b610f00838383611289565b610f0b600082610c78565b6001600660008573ffffffffffffffffffffffffffffffffffffffff1673ffffffffffffffffffffffffffffffffffffffff1681526020019081526020016000206000828254610f5b9190611f53565b925050819055506001600660008473ffffffffffffffffffffffffffffffffffffffff1673ffffffffffffffffffffffffffffffffffffffff1681526020019081526020016000206000828254610fb29190611ecc565b92505081905550610fcf8183600161128e9092919063ffffffff16565b50808273ffffffffffffffffffffffffffffffffffffffff168473ffffffffffffffffffffffffffffffffffffffff167fddf252ad1be2c89b69c2b068fc378daa952ba7f163c4a11628f55a4df523b3ef60405160405180910390a4505050565b6000611043846000018460001b846112c3565b60001c90509392505050565b61105a848484610e0f565b6110668484848461138a565b6110a5576040517f08c379a000000000000000000000000000000000000000000000000000000000815260040161109c90611c98565b60405180910390fd5b50505050565b606060405180602001604052806000815250905090565b6060600082141561110a576040518060400160405280600181526020017f3000000000000000000000000000000000000000000000000000000000000000815250905061126a565b600082905060005b6000821461113c578080611125906120a0565b915050600a826111359190611f22565b9150611112565b60008167ffffffffffffffff81111561117e577f4e487b7100000000000000000000000000000000000000000000000000000000600052604160045260246000fd5b6040519080825280601f01601f1916602001820160405280156111b05781602001600182028036833780820191505090505b5090505b60008514611263576001826111c99190611f53565b9150600a856111d891906120e9565b60306111e49190611ecc565b60f81b818381518110611220577f4e487b7100000000000000000000000000000000000000000000000000000000600052603260045260246000fd5b60200101907effffffffffffffffffffffffffffffffffffffffffffffffffffffffffffff1916908160001a905350600a8561125c9190611f22565b94506111b4565b8093505050505b919050565b6000611281836000018360001b611521565b905092915050565b505050565b60006112ba846000018460001b8473ffffffffffffffffffffffffffffffffffffffff1660001b611544565b90509392505050565b60008084600101600085815260200190815260200160002054905060008114158390611325576040517f08c379a000000000000000000000000000000000000000000000000000000000815260040161131c9190611c76565b60405180910390fd5b50846000016001826113379190611f53565b8154811061136e577f4e487b7100000000000000000000000000000000000000000000000000000000600052603260045260246000fd5b9060005260206000209060020201600101549150509392505050565b60006113ab8473ffffffffffffffffffffffffffffffffffffffff16611656565b15611514578373ffffffffffffffffffffffffffffffffffffffff1663150b7a026113d4610c70565b8786866040518563ffffffff1660e01b81526004016113f69493929190611c0f565b602060405180830381600087803b15801561141057600080fd5b505af192505050801561144157506040513d601f19601f8201168201806040525081019061143e919061190a565b60015b6114c4573d8060008114611471576040519150601f19603f3d011682016040523d82523d6000602084013e611476565b606091505b506000815114156114bc576040517f08c379a00000000000000000000000000000000000000000000000000000000081526004016114b390611c98565b60405180910390fd5b805181602001fd5b63150b7a0260e01b7bffffffffffffffffffffffffffffffffffffffffffffffffffffffff1916817bffffffffffffffffffffffffffffffffffffffffffffffffffffffff191614915050611519565b600190505b949350505050565b600080836001016000848152602001908152602001600020541415905092915050565b60008084600101600085815260200190815260200160002054905060008114156115eb5784600001604051806040016040528086815260200185815250908060018154018082558091505060019003906000526020600020906002020160009091909190915060008201518160000155602082015181600101555050846000018054905085600101600086815260200190815260200160002081905550600191505061164f565b82856000016001836115fd9190611f53565b81548110611634577f4e487b7100000000000000000000000000000000000000000000000000000000600052603260045260246000fd5b90600052602060002090600202016001018190555060009150505b9392505050565b600080823b905060008111915050919050565b600061167c61167784611e58565b611e33565b90508281526020810184848401111561169457600080fd5b61169f848285611ffb565b509392505050565b6000813590506116b681612575565b92915050565b6000813590506116cb8161258c565b92915050565b6000813590506116e0816125a3565b92915050565b6000815190506116f5816125a3565b92915050565b600082601f83011261170c57600080fd5b813561171c848260208601611669565b91505092915050565b600081359050611734816125ba565b92915050565b60006020828403121561174c57600080fd5b600061175a848285016116a7565b91505092915050565b6000806040838503121561177657600080fd5b6000611784858286016116a7565b9250506020611795858286016116a7565b9150509250929050565b6000806000606084860312156117b457600080fd5b60006117c2868287016116a7565b93505060206117d3868287016116a7565b92505060406117e486828701611725565b9150509250925092565b6000806000806080858703121561180457600080fd5b6000611812878288016116a7565b9450506020611823878288016116a7565b935050604061183487828801611725565b925050606085013567ffffffffffffffff81111561185157600080fd5b61185d878288016116fb565b91505092959194509250565b6000806040838503121561187c57600080fd5b600061188a858286016116a7565b925050602061189b858286016116bc565b9150509250929050565b600080604083850312156118b857600080fd5b60006118c6858286016116a7565b92505060206118d785828601611725565b9150509250929050565b6000602082840312156118f357600080fd5b6000611901848285016116d1565b91505092915050565b60006020828403121561191c57600080fd5b600061192a848285016116e6565b91505092915050565b60006020828403121561194557600080fd5b600061195384828501611725565b91505092915050565b61196581611f87565b82525050565b61197481611f99565b82525050565b600061198582611e89565b61198f8185611e9f565b935061199f81856020860161200a565b6119a8816121d6565b840191505092915050565b60006119be82611e94565b6119c88185611eb0565b93506119d881856020860161200a565b6119e1816121d6565b840191505092915050565b60006119f782611e94565b611a018185611ec1565b9350611a1181856020860161200a565b80840191505092915050565b6000611a2a603283611eb0565b9150611a35826121e7565b604082019050919050565b6000611a4d602483611eb0565b9150611a5882612236565b604082019050919050565b6000611a70601983611eb0565b9150611a7b82612285565b602082019050919050565b6000611a93602c83611eb0565b9150611a9e826122ae565b604082019050919050565b6000611ab6603883611eb0565b9150611ac1826122fd565b604082019050919050565b6000611ad9602a83611eb0565b9150611ae48261234c565b604082019050919050565b6000611afc602983611eb0565b9150611b078261239b565b604082019050919050565b6000611b1f602c83611eb0565b9150611b2a826123ea565b604082019050919050565b6000611b42602983611eb0565b9150611b4d82612439565b604082019050919050565b6000611b65602f83611eb0565b9150611b7082612488565b604082019050919050565b6000611b88602183611eb0565b9150611b93826124d7565b604082019050919050565b6000611bab603183611eb0565b9150611bb682612526565b604082019050919050565b611bca81611ff1565b82525050565b6000611bdc82856119ec565b9150611be882846119ec565b91508190509392505050565b6000602082019050611c09600083018461195c565b92915050565b6000608082019050611c24600083018761195c565b611c31602083018661195c565b611c3e6040830185611bc1565b8181036060830152611c50818461197a565b905095945050505050565b6000602082019050611c70600083018461196b565b92915050565b60006020820190508181036000830152611c9081846119b3565b905092915050565b60006020820190508181036000830152611cb181611a1d565b9050919050565b60006020820190508181036000830152611cd181611a40565b9050919050565b60006020820190508181036000830152611cf181611a63565b9050919050565b60006020820190508181036000830152611d1181611a86565b9050919050565b60006020820190508181036000830152611d3181611aa9565b9050919050565b60006020820190508181036000830152611d5181611acc565b9050919050565b60006020820190508181036000830152611d7181611aef565b9050919050565b60006020820190508181036000830152611d9181611b12565b9050919050565b60006020820190508181036000830152611db181611b35565b9050919050565b60006020820190508181036000830152611dd181611b58565b9050919050565b60006020820190508181036000830152611df181611b7b565b9050919050565b60006020820190508181036000830152611e1181611b9e565b9050919050565b6000602082019050611e2d6000830184611bc1565b92915050565b6000611e3d611e4e565b9050611e49828261206f565b919050565b6000604051905090565b600067ffffffffffffffff821115611e7357611e726121a7565b5b611e7c826121d6565b9050602081019050919050565b600081519050919050565b600081519050919050565b600082825260208201905092915050565b600082825260208201905092915050565b600081905092915050565b6000611ed782611ff1565b9150611ee283611ff1565b9250827fffffffffffffffffffffffffffffffffffffffffffffffffffffffffffffffff03821115611f1757611f1661211a565b5b828201905092915050565b6000611f2d82611ff1565b9150611f3883611ff1565b925082611f4857611f47612149565b5b828204905092915050565b6000611f5e82611ff1565b9150611f6983611ff1565b925082821015611f7c57611f7b61211a565b5b828203905092915050565b6000611f9282611fd1565b9050919050565b60008115159050919050565b60007fffffffff0000000000000000000000000000000000000000000000000000000082169050919050565b600073ffffffffffffffffffffffffffffffffffffffff82169050919050565b6000819050919050565b82818337600083830152505050565b60005b8381101561202857808201518184015260208101905061200d565b83811115612037576000848401525b50505050565b6000600282049050600182168061205557607f821691505b6020821081141561206957612068612178565b5b50919050565b612078826121d6565b810181811067ffffffffffffffff82111715612097576120966121a7565b5b80604052505050565b60006120ab82611ff1565b91507fffffffffffffffffffffffffffffffffffffffffffffffffffffffffffffffff8214156120de576120dd61211a565b5b600182019050919050565b60006120f482611ff1565b91506120ff83611ff1565b92508261210f5761210e612149565b5b828206905092915050565b7f4e487b7100000000000000000000000000000000000000000000000000000000600052601160045260246000fd5b7f4e487b7100000000000000000000000000000000000000000000000000000000600052601260045260246000fd5b7f4e487b7100000000000000000000000000000000000000000000000000000000600052602260045260246000fd5b7f4e487b7100000000000000000000000000000000000000000000000000000000600052604160045260246000fd5b6000601f19601f8301169050919050565b7f4552433732313a207472616e7366657220746f206e6f6e20455243373231526560008201527f63656976657220696d706c656d656e7465720000000000000000000000000000602082015250565b7f4552433732313a207472616e7366657220746f20746865207a65726f2061646460008201527f7265737300000000000000000000000000000000000000000000000000000000602082015250565b7f4552433732313a20617070726f766520746f2063616c6c657200000000000000600082015250565b7f4552433732313a206f70657261746f7220717565727920666f72206e6f6e657860008201527f697374656e7420746f6b656e0000000000000000000000000000000000000000602082015250565b7f4552433732313a20617070726f76652063616c6c6572206973206e6f74206f7760008201527f6e6572206e6f7220617070726f76656420666f7220616c6c0000000000000000602082015250565b7f4552433732313a2062616c616e636520717565727920666f7220746865207a6560008201527f726f206164647265737300000000000000000000000000000000000000000000602082015250565b7f4552433732313a206f776e657220717565727920666f72206e6f6e657869737460008201527f656e7420746f6b656e0000000000000000000000000000000000000000000000602082015250565b7f4552433732313a20617070726f76656420717565727920666f72206e6f6e657860008201527f697374656e7420746f6b656e0000000000000000000000000000000000000000602082015250565b7f4552433732313a207472616e73666572206f6620746f6b656e2074686174206960008201527f73206e6f74206f776e0000000000000000000000000000000000000000000000602082015250565b7f4552433732314d657461646174613a2055524920717565727920666f72206e6f60008201527f6e6578697374656e7420746f6b656e0000000000000000000000000000000000602082015250565b7f4552433732313a20617070726f76616c20746f2063757272656e74206f776e6560008201527f7200000000000000000000000000000000000000000000000000000000000000602082015250565b7f4552433732313a207472616e736665722063616c6c6572206973206e6f74206f60008201527f776e6572206e6f7220617070726f766564000000000000000000000000000000602082015250565b61257e81611f87565b811461258957600080fd5b50565b61259581611f99565b81146125a057600080fd5b50565b6125ac81611fa5565b81146125b757600080fd5b50565b6125c381611ff1565b81146125ce57600080fd5b5056fea26469706673582212202ded37bfe3f6060d1791b701bb11106ccd4066f3c892b9ef3e4aaa802bac878664736f6c63430008040033",
  "linkReferences": {},
  "deployedLinkReferences": {}
}