{
  "_format": "hh-sol-artifact-1",
  "contractName": "TimeNFT",
  "sourceName": "contracts/Day0Flattened.sol",
  "abi": [
    {
      "inputs": [
        {
          "internalType": "uint256",
          "name": "_price",
          "type": "uint256"
        }
      ],
      "stateMutability": "nonpayable",
      "type": "constructor"
    },
    {
      "anonymous": false,
      "inputs": [
        {
          "indexed": true,
          "internalType": "address",
          "name": "owner",
          "type": "address"
        },
        {
          "indexed": true,
          "internalType": "address",
          "name": "approved",
          "type": "address"
        },
        {
          "indexed": true,
          "internalType": "uint256",
          "name": "tokenId",
          "type": "uint256"
        }
      ],
      "name": "Approval",
      "type": "event"
    },
    {
      "anonymous": false,
      "inputs": [
        {
          "indexed": true,
          "internalType": "address",
          "name": "owner",
          "type": "address"
        },
        {
          "indexed": true,
          "internalType": "address",
          "name": "operator",
          "type": "address"
        },
        {
          "indexed": false,
          "internalType": "bool",
          "name": "approved",
          "type": "bool"
        }
      ],
      "name": "ApprovalForAll",
      "type": "event"
    },
    {
      "anonymous": false,
      "inputs": [
        {
          "indexed": true,
          "internalType": "address",
          "name": "previousOwner",
          "type": "address"
        },
        {
          "indexed": true,
          "internalType": "address",
          "name": "newOwner",
          "type": "address"
        }
      ],
      "name": "OwnershipTransferred",
      "type": "event"
    },
    {
      "anonymous": false,
      "inputs": [
        {
          "indexed": true,
          "internalType": "address",
          "name": "from",
          "type": "address"
        },
        {
          "indexed": true,
          "internalType": "address",
          "name": "to",
          "type": "address"
        },
        {
          "indexed": true,
          "internalType": "uint256",
          "name": "tokenId",
          "type": "uint256"
        }
      ],
      "name": "Transfer",
      "type": "event"
    },
    {
      "inputs": [
        {
          "internalType": "address",
          "name": "to",
          "type": "address"
        },
        {
          "internalType": "uint256",
          "name": "tokenId",
          "type": "uint256"
        }
      ],
      "name": "approve",
      "outputs": [],
      "stateMutability": "nonpayable",
      "type": "function"
    },
    {
      "inputs": [
        {
          "internalType": "address",
          "name": "owner",
          "type": "address"
        }
      ],
      "name": "balanceOf",
      "outputs": [
        {
          "internalType": "uint256",
          "name": "",
          "type": "uint256"
        }
      ],
      "stateMutability": "view",
      "type": "function"
    },
    {
      "inputs": [
        {
          "internalType": "uint256",
          "name": "",
          "type": "uint256"
        }
      ],
      "name": "burned",
      "outputs": [
        {
          "internalType": "bool",
          "name": "",
          "type": "bool"
        }
      ],
      "stateMutability": "view",
      "type": "function"
    },
    {
      "inputs": [],
      "name": "claim",
      "outputs": [],
      "stateMutability": "payable",
      "type": "function"
    },
    {
      "inputs": [
        {
          "internalType": "uint256",
          "name": "tokenId",
          "type": "uint256"
        }
      ],
      "name": "getApproved",
      "outputs": [
        {
          "internalType": "address",
          "name": "",
          "type": "address"
        }
      ],
      "stateMutability": "view",
      "type": "function"
    },
    {
      "inputs": [
        {
          "internalType": "address",
          "name": "owner",
          "type": "address"
        },
        {
          "internalType": "address",
          "name": "operator",
          "type": "address"
        }
      ],
      "name": "isApprovedForAll",
      "outputs": [
        {
          "internalType": "bool",
          "name": "",
          "type": "bool"
        }
      ],
      "stateMutability": "view",
      "type": "function"
    },
    {
      "inputs": [],
      "name": "name",
      "outputs": [
        {
          "internalType": "string",
          "name": "",
          "type": "string"
        }
      ],
      "stateMutability": "view",
      "type": "function"
    },
    {
      "inputs": [],
      "name": "owner",
      "outputs": [
        {
          "internalType": "address",
          "name": "",
          "type": "address"
        }
      ],
      "stateMutability": "view",
      "type": "function"
    },
    {
      "inputs": [
        {
          "internalType": "uint256",
          "name": "tokenId",
          "type": "uint256"
        }
      ],
      "name": "ownerOf",
      "outputs": [
        {
          "internalType": "address",
          "name": "",
          "type": "address"
        }
      ],
      "stateMutability": "view",
      "type": "function"
    },
    {
      "inputs": [],
      "name": "renounceOwnership",
      "outputs": [],
      "stateMutability": "nonpayable",
      "type": "function"
    },
    {
      "inputs": [
        {
          "internalType": "address",
          "name": "from",
          "type": "address"
        },
        {
          "internalType": "address",
          "name": "to",
          "type": "address"
        },
        {
          "internalType": "uint256",
          "name": "tokenId",
          "type": "uint256"
        }
      ],
      "name": "safeTransferFrom",
      "outputs": [],
      "stateMutability": "nonpayable",
      "type": "function"
    },
    {
      "inputs": [
        {
          "internalType": "address",
          "name": "from",
          "type": "address"
        },
        {
          "internalType": "address",
          "name": "to",
          "type": "address"
        },
        {
          "internalType": "uint256",
          "name": "tokenId",
          "type": "uint256"
        },
        {
          "internalType": "bytes",
          "name": "_data",
          "type": "bytes"
        }
      ],
      "name": "safeTransferFrom",
      "outputs": [],
      "stateMutability": "nonpayable",
      "type": "function"
    },
    {
      "inputs": [
        {
          "internalType": "address",
          "name": "operator",
          "type": "address"
        },
        {
          "internalType": "bool",
          "name": "approved",
          "type": "bool"
        }
      ],
      "name": "setApprovalForAll",
      "outputs": [],
      "stateMutability": "nonpayable",
      "type": "function"
    },
    {
      "inputs": [
        {
          "internalType": "bytes4",
          "name": "interfaceId",
          "type": "bytes4"
        }
      ],
      "name": "supportsInterface",
      "outputs": [
        {
          "internalType": "bool",
          "name": "",
          "type": "bool"
        }
      ],
      "stateMutability": "view",
      "type": "function"
    },
    {
      "inputs": [],
      "name": "symbol",
      "outputs": [
        {
          "internalType": "string",
          "name": "",
          "type": "string"
        }
      ],
      "stateMutability": "view",
      "type": "function"
    },
    {
      "inputs": [
        {
          "internalType": "uint256",
          "name": "index",
          "type": "uint256"
        }
      ],
      "name": "tokenByIndex",
      "outputs": [
        {
          "internalType": "uint256",
          "name": "",
          "type": "uint256"
        }
      ],
      "stateMutability": "view",
      "type": "function"
    },
    {
      "inputs": [
        {
          "internalType": "address",
          "name": "owner",
          "type": "address"
        },
        {
          "internalType": "uint256",
          "name": "index",
          "type": "uint256"
        }
      ],
      "name": "tokenOfOwnerByIndex",
      "outputs": [
        {
          "internalType": "uint256",
          "name": "",
          "type": "uint256"
        }
      ],
      "stateMutability": "view",
      "type": "function"
    },
    {
      "inputs": [
        {
          "internalType": "uint256",
          "name": "tokenId",
          "type": "uint256"
        }
      ],
      "name": "tokenURI",
      "outputs": [
        {
          "internalType": "string",
          "name": "",
          "type": "string"
        }
      ],
      "stateMutability": "pure",
      "type": "function"
    },
    {
      "inputs": [],
      "name": "totalSupply",
      "outputs": [
        {
          "internalType": "uint256",
          "name": "",
          "type": "uint256"
        }
      ],
      "stateMutability": "view",
      "type": "function"
    },
    {
      "inputs": [
        {
          "internalType": "address",
          "name": "from",
          "type": "address"
        },
        {
          "internalType": "address",
          "name": "to",
          "type": "address"
        },
        {
          "internalType": "uint256",
          "name": "tokenId",
          "type": "uint256"
        }
      ],
      "name": "transferFrom",
      "outputs": [],
      "stateMutability": "nonpayable",
      "type": "function"
    },
    {
      "inputs": [
        {
          "internalType": "address",
          "name": "newOwner",
          "type": "address"
        }
      ],
      "name": "transferOwnership",
      "outputs": [],
      "stateMutability": "nonpayable",
      "type": "function"
    },
    {
      "inputs": [],
      "name": "withdrawAll",
      "outputs": [],
      "stateMutability": "payable",
      "type": "function"
    }
  ],
  "bytecode": "0x60a06040523480156200001157600080fd5b5060405162006a5638038062006a568339818101604052810190620000379190620002a3565b6040518060400160405280600881526020017f446179205a45524f0000000000000000000000000000000000000000000000008152506040518060400160405280600481526020017f54494d45000000000000000000000000000000000000000000000000000000008152508160049080519060200190620000bb929190620001dc565b508060059080519060200190620000d4929190620001dc565b5050506001600d81905550620000ff620000f36200010e60201b60201c565b6200011660201b60201c565b80608081815250505062000358565b600033905090565b6000600e60009054906101000a900473ffffffffffffffffffffffffffffffffffffffff16905081600e60006101000a81548173ffffffffffffffffffffffffffffffffffffffff021916908373ffffffffffffffffffffffffffffffffffffffff1602179055508173ffffffffffffffffffffffffffffffffffffffff168173ffffffffffffffffffffffffffffffffffffffff167f8be0079c531659141344cd1fd0a4f28419497f9722a3daafe3b4186f6b6457e060405160405180910390a35050565b828054620001ea90620002d9565b90600052602060002090601f0160209004810192826200020e57600085556200025a565b82601f106200022957805160ff19168380011785556200025a565b828001600101855582156200025a579182015b82811115620002595782518255916020019190600101906200023c565b5b5090506200026991906200026d565b5090565b5b80821115620002885760008160009055506001016200026e565b5090565b6000815190506200029d816200033e565b92915050565b600060208284031215620002b657600080fd5b6000620002c6848285016200028c565b91505092915050565b6000819050919050565b60006002820490506001821680620002f257607f821691505b602082108114156200030957620003086200030f565b5b50919050565b7f4e487b7100000000000000000000000000000000000000000000000000000000600052602260045260246000fd5b6200034981620002cf565b81146200035557600080fd5b50565b6080516166e26200037460003960006109da01526166e26000f3fe6080604052600436106101355760003560e01c80636352211e116100ab57806395d89b411161006f57806395d89b411461040c578063a22cb46514610437578063b88d4fde14610460578063c87b56dd14610489578063e985e9c5146104c6578063f2fde38b1461050357610135565b80636352211e1461034657806370a0823114610383578063715018a6146103c0578063853828b6146103d75780638da5cb5b146103e157610135565b806323250cae116100fd57806323250cae1461023357806323b872dd146102705780632f745c591461029957806342842e0e146102d65780634e71d92d146102ff5780634f6ccce71461030957610135565b806301ffc9a71461013a57806306fdde0314610177578063081812fc146101a2578063095ea7b3146101df57806318160ddd14610208575b600080fd5b34801561014657600080fd5b50610161600480360381019061015c9190613fde565b61052c565b60405161016e919061482b565b60405180910390f35b34801561018357600080fd5b5061018c6105a6565b6040516101999190614846565b60405180910390f35b3480156101ae57600080fd5b506101c960048036038101906101c49190614030565b610638565b6040516101d691906147c4565b60405180910390f35b3480156101eb57600080fd5b5061020660048036038101906102019190613fa2565b6106bd565b005b34801561021457600080fd5b5061021d6107d5565b60405161022a9190614b08565b60405180910390f35b34801561023f57600080fd5b5061025a60048036038101906102559190614030565b6107e2565b604051610267919061482b565b60405180910390f35b34801561027c57600080fd5b5061029760048036038101906102929190613e9c565b610802565b005b3480156102a557600080fd5b506102c060048036038101906102bb9190613fa2565b610862565b6040516102cd9190614b08565b60405180910390f35b3480156102e257600080fd5b506102fd60048036038101906102f89190613e9c565b610907565b005b610307610927565b005b34801561031557600080fd5b50610330600480360381019061032b9190614030565b610a69565b60405161033d9190614b08565b60405180910390f35b34801561035257600080fd5b5061036d60048036038101906103689190614030565b610b00565b60405161037a91906147c4565b60405180910390f35b34801561038f57600080fd5b506103aa60048036038101906103a59190613e37565b610bc9565b6040516103b79190614b08565b60405180910390f35b3480156103cc57600080fd5b506103d5610c81565b005b6103df610d09565b005b3480156103ed57600080fd5b506103f6610e3b565b60405161040391906147c4565b60405180910390f35b34801561041857600080fd5b50610421610e65565b60405161042e9190614846565b60405180910390f35b34801561044357600080fd5b5061045e60048036038101906104599190613f66565b610ef7565b005b34801561046c57600080fd5b5061048760048036038101906104829190613eeb565b611078565b005b34801561049557600080fd5b506104b060048036038101906104ab9190614030565b6110da565b6040516104bd9190614846565b60405180910390f35b3480156104d257600080fd5b506104ed60048036038101906104e89190613e60565b611149565b6040516104fa919061482b565b60405180910390f35b34801561050f57600080fd5b5061052a60048036038101906105259190613e37565b6111dd565b005b60007f780e9d63000000000000000000000000000000000000000000000000000000007bffffffffffffffffffffffffffffffffffffffffffffffffffffffff1916827bffffffffffffffffffffffffffffffffffffffffffffffffffffffff1916148061059f575061059e826112d5565b5b9050919050565b6060600480546105b590614dd0565b80601f01602080910402602001604051908101604052809291908181526020018280546105e190614dd0565b801561062e5780601f106106035761010080835404028352916020019161062e565b820191906000526020600020905b81548152906001019060200180831161061157829003601f168201915b5050505050905090565b6000610643826113b7565b610682576040517f08c379a0000000000000000000000000000000000000000000000000000000008152600401610679906149e8565b60405180910390fd5b6007600083815260200190815260200160002060009054906101000a900473ffffffffffffffffffffffffffffffffffffffff169050919050565b60006106c882610b00565b90508073ffffffffffffffffffffffffffffffffffffffff168373ffffffffffffffffffffffffffffffffffffffff161415610739576040517f08c379a000000000000000000000000000000000000000000000000000000000815260040161073090614a68565b60405180910390fd5b8073ffffffffffffffffffffffffffffffffffffffff166107586113d4565b73ffffffffffffffffffffffffffffffffffffffff1614806107875750610786816107816113d4565b611149565b5b6107c6576040517f08c379a00000000000000000000000000000000000000000000000000000000081526004016107bd90614968565b60405180910390fd5b6107d083836113dc565b505050565b6000600b80549050905090565b60036020528060005260406000206000915054906101000a900460ff1681565b61081361080d6113d4565b82611495565b610852576040517f08c379a000000000000000000000000000000000000000000000000000000000815260040161084990614a88565b60405180910390fd5b61085d838383611573565b505050565b600061086d83610bc9565b82106108ae576040517f08c379a00000000000000000000000000000000000000000000000000000000081526004016108a590614868565b60405180910390fd5b600960008473ffffffffffffffffffffffffffffffffffffffff1673ffffffffffffffffffffffffffffffffffffffff168152602001908152602001600020600083815260200190815260200160002054905092915050565b61092283838360405180602001604052806000815250611078565b505050565b6002600d54141561096d576040517f08c379a000000000000000000000000000000000000000000000000000000000815260040161096490614ae8565b60405180910390fd5b6002600d819055506000610981600f611794565b1015801561099957506105a0610997600f611794565b105b6109d8576040517f08c379a00000000000000000000000000000000000000000000000000000000081526004016109cf90614a28565b60405180910390fd5b7f0000000000000000000000000000000000000000000000000000000000000000341015610a3b576040517f08c379a0000000000000000000000000000000000000000000000000000000008152600401610a3290614908565b60405180910390fd5b610a55610a466113d4565b610a50600f611794565b6117a2565b610a5f600f6117c0565b6001600d81905550565b6000610a736107d5565b8210610ab4576040517f08c379a0000000000000000000000000000000000000000000000000000000008152600401610aab90614aa8565b60405180910390fd5b600b8281548110610aee577f4e487b7100000000000000000000000000000000000000000000000000000000600052603260045260246000fd5b90600052602060002001549050919050565b600080610b4e836040518060400160405280601281526020017f4e6f6e206578697374656e6420746f6b656e000000000000000000000000000081525060016117d69092919063ffffffff16565b9050600073ffffffffffffffffffffffffffffffffffffffff168173ffffffffffffffffffffffffffffffffffffffff161415610bc0576040517f08c379a0000000000000000000000000000000000000000000000000000000008152600401610bb7906149a8565b60405180910390fd5b80915050919050565b60008073ffffffffffffffffffffffffffffffffffffffff168273ffffffffffffffffffffffffffffffffffffffff161415610c3a576040517f08c379a0000000000000000000000000000000000000000000000000000000008152600401610c3190614988565b60405180910390fd5b600660008373ffffffffffffffffffffffffffffffffffffffff1673ffffffffffffffffffffffffffffffffffffffff168152602001908152602001600020549050919050565b610c896113d4565b73ffffffffffffffffffffffffffffffffffffffff16610ca7610e3b565b73ffffffffffffffffffffffffffffffffffffffff1614610cfd576040517f08c379a0000000000000000000000000000000000000000000000000000000008152600401610cf490614a08565b60405180910390fd5b610d0760006117f5565b565b610d116113d4565b73ffffffffffffffffffffffffffffffffffffffff16610d2f610e3b565b73ffffffffffffffffffffffffffffffffffffffff1614610d85576040517f08c379a0000000000000000000000000000000000000000000000000000000008152600401610d7c90614a08565b60405180910390fd5b6000610d8f6113d4565b73ffffffffffffffffffffffffffffffffffffffff1647604051610db290614777565b60006040518083038185875af1925050503d8060008114610def576040519150601f19603f3d011682016040523d82523d6000602084013e610df4565b606091505b5050905080610e38576040517f08c379a0000000000000000000000000000000000000000000000000000000008152600401610e2f90614ac8565b60405180910390fd5b50565b6000600e60009054906101000a900473ffffffffffffffffffffffffffffffffffffffff16905090565b606060058054610e7490614dd0565b80601f0160208091040260200160405190810160405280929190818152602001828054610ea090614dd0565b8015610eed5780601f10610ec257610100808354040283529160200191610eed565b820191906000526020600020905b815481529060010190602001808311610ed057829003601f168201915b5050505050905090565b610eff6113d4565b73ffffffffffffffffffffffffffffffffffffffff168273ffffffffffffffffffffffffffffffffffffffff161415610f6d576040517f08c379a0000000000000000000000000000000000000000000000000000000008152600401610f6490614928565b60405180910390fd5b8060086000610f7a6113d4565b73ffffffffffffffffffffffffffffffffffffffff1673ffffffffffffffffffffffffffffffffffffffff16815260200190815260200160002060008473ffffffffffffffffffffffffffffffffffffffff1673ffffffffffffffffffffffffffffffffffffffff16815260200190815260200160002060006101000a81548160ff0219169083151502179055508173ffffffffffffffffffffffffffffffffffffffff166110276113d4565b73ffffffffffffffffffffffffffffffffffffffff167f17307eab39ab6107e8899845ad3d59bd9653f200f220920489ca2b5937696c318360405161106c919061482b565b60405180910390a35050565b6110896110836113d4565b83611495565b6110c8576040517f08c379a00000000000000000000000000000000000000000000000000000000081526004016110bf90614a88565b60405180910390fd5b6110d4848484846118bb565b50505050565b606060006110e783611917565b9050600061111b6110f783611b96565b604051602001611107919061478c565b604051602081830303815290604052611b96565b90508060405160200161112e9190614755565b60405160208183030381529060405291508192505050919050565b6000600860008473ffffffffffffffffffffffffffffffffffffffff1673ffffffffffffffffffffffffffffffffffffffff16815260200190815260200160002060008373ffffffffffffffffffffffffffffffffffffffff1673ffffffffffffffffffffffffffffffffffffffff16815260200190815260200160002060009054906101000a900460ff16905092915050565b6111e56113d4565b73ffffffffffffffffffffffffffffffffffffffff16611203610e3b565b73ffffffffffffffffffffffffffffffffffffffff1614611259576040517f08c379a000000000000000000000000000000000000000000000000000000000815260040161125090614a08565b60405180910390fd5b600073ffffffffffffffffffffffffffffffffffffffff168173ffffffffffffffffffffffffffffffffffffffff1614156112c9576040517f08c379a00000000000000000000000000000000000000000000000000000000081526004016112c0906148a8565b60405180910390fd5b6112d2816117f5565b50565b60007f80ac58cd000000000000000000000000000000000000000000000000000000007bffffffffffffffffffffffffffffffffffffffffffffffffffffffff1916827bffffffffffffffffffffffffffffffffffffffffffffffffffffffff191614806113a057507f5b5e139f000000000000000000000000000000000000000000000000000000007bffffffffffffffffffffffffffffffffffffffffffffffffffffffff1916827bffffffffffffffffffffffffffffffffffffffffffffffffffffffff1916145b806113b057506113af82611d54565b5b9050919050565b60006113cd826001611dbe90919063ffffffff16565b9050919050565b600033905090565b816007600083815260200190815260200160002060006101000a81548173ffffffffffffffffffffffffffffffffffffffff021916908373ffffffffffffffffffffffffffffffffffffffff160217905550808273ffffffffffffffffffffffffffffffffffffffff1661144f83610b00565b73ffffffffffffffffffffffffffffffffffffffff167f8c5be1e5ebec7d5bd14f71427d1e84f3dd0314c0f7b2291e5b200ac8c7c3b92560405160405180910390a45050565b60006114a0826113b7565b6114df576040517f08c379a00000000000000000000000000000000000000000000000000000000081526004016114d690614948565b60405180910390fd5b60006114ea83610b00565b90508073ffffffffffffffffffffffffffffffffffffffff168473ffffffffffffffffffffffffffffffffffffffff16148061155957508373ffffffffffffffffffffffffffffffffffffffff1661154184610638565b73ffffffffffffffffffffffffffffffffffffffff16145b8061156a57506115698185611149565b5b91505092915050565b8273ffffffffffffffffffffffffffffffffffffffff1661159382610b00565b73ffffffffffffffffffffffffffffffffffffffff16146115e9576040517f08c379a00000000000000000000000000000000000000000000000000000000081526004016115e090614a48565b60405180910390fd5b600073ffffffffffffffffffffffffffffffffffffffff168273ffffffffffffffffffffffffffffffffffffffff161415611659576040517f08c379a0000000000000000000000000000000000000000000000000000000008152600401611650906148e8565b60405180910390fd5b611664838383611dd8565b61166f6000826113dc565b6001600660008573ffffffffffffffffffffffffffffffffffffffff1673ffffffffffffffffffffffffffffffffffffffff16815260200190815260200160002060008282546116bf9190614cd9565b925050819055506001600660008473ffffffffffffffffffffffffffffffffffffffff1673ffffffffffffffffffffffffffffffffffffffff16815260200190815260200160002060008282546117169190614bc7565b9250508190555061173381836001611eec9092919063ffffffff16565b50808273ffffffffffffffffffffffffffffffffffffffff168473ffffffffffffffffffffffffffffffffffffffff167fddf252ad1be2c89b69c2b068fc378daa952ba7f163c4a11628f55a4df523b3ef60405160405180910390a4505050565b600081600001549050919050565b6117bc828260405180602001604052806000815250611f21565b5050565b6001816000016000828254019250508190555050565b60006117e9846000018460001b84611f7c565b60001c90509392505050565b6000600e60009054906101000a900473ffffffffffffffffffffffffffffffffffffffff16905081600e60006101000a81548173ffffffffffffffffffffffffffffffffffffffff021916908373ffffffffffffffffffffffffffffffffffffffff1602179055508173ffffffffffffffffffffffffffffffffffffffff168173ffffffffffffffffffffffffffffffffffffffff167f8be0079c531659141344cd1fd0a4f28419497f9722a3daafe3b4186f6b6457e060405160405180910390a35050565b6118c6848484611573565b6118d284848484612043565b611911576040517f08c379a000000000000000000000000000000000000000000000000000000000815260040161190890614888565b60405180910390fd5b50505050565b6060611921613d44565b61192a836121da565b90506000604051806080016040528061198084600060048110611976577f4e487b7100000000000000000000000000000000000000000000000000000000600052603260045260246000fd5b60200201516124cc565b81526020016119cc846001600481106119c2577f4e487b7100000000000000000000000000000000000000000000000000000000600052603260045260246000fd5b60200201516125c5565b8152602001611a1884600260048110611a0e577f4e487b7100000000000000000000000000000000000000000000000000000000600052603260045260246000fd5b60200201516126be565b8152602001611a6484600360048110611a5a577f4e487b7100000000000000000000000000000000000000000000000000000000600052603260045260246000fd5b60200201516127b7565b8152509050600081600360048110611aa5577f4e487b7100000000000000000000000000000000000000000000000000000000600052603260045260246000fd5b602002015182600260048110611ae4577f4e487b7100000000000000000000000000000000000000000000000000000000600052603260045260246000fd5b602002015183600160048110611b23577f4e487b7100000000000000000000000000000000000000000000000000000000600052603260045260246000fd5b602002015184600060048110611b62577f4e487b7100000000000000000000000000000000000000000000000000000000600052603260045260246000fd5b6020020151604051602001611b7a94939291906146e0565b6040516020818303038152906040529050809350505050919050565b60606000825190506000811415611bbf5760405180602001604052806000815250915050611d4f565b60006003600283611bd09190614bc7565b611bda9190614c1d565b6004611be69190614c7f565b90506000602082611bf79190614bc7565b67ffffffffffffffff811115611c36577f4e487b7100000000000000000000000000000000000000000000000000000000600052604160045260246000fd5b6040519080825280601f01601f191660200182016040528015611c685781602001600182028036833780820191505090505b5090506000604051806060016040528060408152602001615f65604091399050600181016020830160005b86811015611d0c5760038101905062ffffff818a015116603f8160121c168401518060081b905060ff603f83600c1c1686015116810190508060081b905060ff603f8360061c1686015116810190508060081b905060ff603f831686015116810190508060e01b90508084526004840193505050611c93565b506003860660018114611d265760028114611d3657611d41565b613d3d60f01b6002830352611d41565b603d60f81b60018303525b508484525050819450505050505b919050565b60007f01ffc9a7000000000000000000000000000000000000000000000000000000007bffffffffffffffffffffffffffffffffffffffffffffffffffffffff1916827bffffffffffffffffffffffffffffffffffffffffffffffffffffffff1916149050919050565b6000611dd0836000018360001b6128b0565b905092915050565b611de38383836128d3565b600073ffffffffffffffffffffffffffffffffffffffff168373ffffffffffffffffffffffffffffffffffffffff161415611e2657611e21816128d8565b611e65565b8173ffffffffffffffffffffffffffffffffffffffff168373ffffffffffffffffffffffffffffffffffffffff1614611e6457611e638382612921565b5b5b600073ffffffffffffffffffffffffffffffffffffffff168273ffffffffffffffffffffffffffffffffffffffff161415611ea857611ea381612a8e565b611ee7565b8273ffffffffffffffffffffffffffffffffffffffff168273ffffffffffffffffffffffffffffffffffffffff1614611ee657611ee58282612bd1565b5b5b505050565b6000611f18846000018460001b8473ffffffffffffffffffffffffffffffffffffffff1660001b612c50565b90509392505050565b611f2b8383612d62565b611f386000848484612043565b611f77576040517f08c379a0000000000000000000000000000000000000000000000000000000008152600401611f6e90614888565b60405180910390fd5b505050565b60008084600101600085815260200190815260200160002054905060008114158390611fde576040517f08c379a0000000000000000000000000000000000000000000000000000000008152600401611fd59190614846565b60405180910390fd5b5084600001600182611ff09190614cd9565b81548110612027577f4e487b7100000000000000000000000000000000000000000000000000000000600052603260045260246000fd5b9060005260206000209060020201600101549150509392505050565b60006120648473ffffffffffffffffffffffffffffffffffffffff16612ef5565b156121cd578373ffffffffffffffffffffffffffffffffffffffff1663150b7a0261208d6113d4565b8786866040518563ffffffff1660e01b81526004016120af94939291906147df565b602060405180830381600087803b1580156120c957600080fd5b505af19250505080156120fa57506040513d601f19601f820116820180604052508101906120f79190614007565b60015b61217d573d806000811461212a576040519150601f19603f3d011682016040523d82523d6000602084013e61212f565b606091505b50600081511415612175576040517f08c379a000000000000000000000000000000000000000000000000000000000815260040161216c90614888565b60405180910390fd5b805181602001fd5b63150b7a0260e01b7bffffffffffffffffffffffffffffffffffffffffffffffffffffffff1916817bffffffffffffffffffffffffffffffffffffffffffffffffffffffff1916149150506121d2565b600190505b949350505050565b6121e2613d44565b6000806121ed613d44565b603c856121fa9190614c1d565b9250600a8360ff1610156122a657600081600060048110612244577f4e487b7100000000000000000000000000000000000000000000000000000000600052603260045260246000fd5b602002019060ff16908160ff16815250508281600160048110612290577f4e487b7100000000000000000000000000000000000000000000000000000000600052603260045260246000fd5b602002019060ff16908160ff1681525050612357565b600a836122b39190614c4e565b816000600481106122ed577f4e487b7100000000000000000000000000000000000000000000000000000000600052603260045260246000fd5b602002019060ff16908160ff1681525050600a8361230b9190614e64565b81600160048110612345577f4e487b7100000000000000000000000000000000000000000000000000000000600052603260045260246000fd5b602002019060ff16908160ff16815250505b603c856123649190614e33565b9150600a8260ff161015612410576000816002600481106123ae577f4e487b7100000000000000000000000000000000000000000000000000000000600052603260045260246000fd5b602002019060ff16908160ff168152505081816003600481106123fa577f4e487b7100000000000000000000000000000000000000000000000000000000600052603260045260246000fd5b602002019060ff16908160ff16815250506124c1565b600a8261241d9190614c4e565b81600260048110612457577f4e487b7100000000000000000000000000000000000000000000000000000000600052603260045260246000fd5b602002019060ff16908160ff1681525050600a826124759190614e64565b816003600481106124af577f4e487b7100000000000000000000000000000000000000000000000000000000600052603260045260246000fd5b602002019060ff16908160ff16815250505b809350505050919050565b606060006040518060e001604052806040518060a00160405280607581526020016164ce6075913981526020016040518060a00160405280607681526020016166376076913981526020016040518060a00160405280607a81526020016159ca607a913981526020016040518060a00160405280606f8152602001615b33606f913981526020016040518060a0016040528060768152602001615d0f6076913981526020016040518060a00160405280607a8152602001615c1c607a913981526020016040518060a0016040528060758152602001615a4460759139815250905060606125b98285612f08565b90508092505050919050565b606060006040518060e001604052806040518060a00160405280607981526020016160176079913981526020016040518060a00160405280607a8152602001615950607a913981526020016040518060a00160405280607a8152602001615ba2607a913981526020016040518060a0016040528060728152602001615fa56072913981526020016040518060a00160405280607a8152602001616369607a913981526020016040518060a00160405280607a8152602001615ab9607a913981526020016040518060a001604052806079815260200161610a60799139815250905060606126b28285612f08565b90508092505050919050565b606060006040518060e001604052806040518060a0016040528060798152602001615c966079913981526020016040518060a00160405280607a8152602001615e79607a913981526020016040518060a00160405280607a8152602001615d85607a913981526020016040518060a001604052806072815260200161645c6072913981526020016040518060a00160405280607a81526020016161fc607a913981526020016040518060a00160405280607a8152602001616276607a913981526020016040518060a00160405280607981526020016163e360799139815250905060606127ab8285612f08565b90508092505050919050565b606060006040518060e001604052806040518060a00160405280607981526020016162f06079913981526020016040518060a00160405280607a81526020016165bd607a913981526020016040518060a00160405280607a8152602001616090607a913981526020016040518060a0016040528060728152602001615ef36072913981526020016040518060a00160405280607a8152602001615dff607a913981526020016040518060a00160405280607a8152602001616543607a913981526020016040518060a001604052806079815260200161618360799139815250905060606128a48285612f08565b90508092505050919050565b600080836001016000848152602001908152602001600020541415905092915050565b505050565b600b80549050600c600083815260200190815260200160002081905550600b81908060018154018082558091505060019003906000526020600020016000909190919091505550565b6000600161292e84610bc9565b6129389190614cd9565b90506000600a6000848152602001908152602001600020549050818114612a1d576000600960008673ffffffffffffffffffffffffffffffffffffffff1673ffffffffffffffffffffffffffffffffffffffff168152602001908152602001600020600084815260200190815260200160002054905080600960008773ffffffffffffffffffffffffffffffffffffffff1673ffffffffffffffffffffffffffffffffffffffff16815260200190815260200160002060008481526020019081526020016000208190555081600a600083815260200190815260200160002081905550505b600a600084815260200190815260200160002060009055600960008573ffffffffffffffffffffffffffffffffffffffff1673ffffffffffffffffffffffffffffffffffffffff16815260200190815260200160002060008381526020019081526020016000206000905550505050565b60006001600b80549050612aa29190614cd9565b90506000600c60008481526020019081526020016000205490506000600b8381548110612af8577f4e487b7100000000000000000000000000000000000000000000000000000000600052603260045260246000fd5b9060005260206000200154905080600b8381548110612b40577f4e487b7100000000000000000000000000000000000000000000000000000000600052603260045260246000fd5b906000526020600020018190555081600c600083815260200190815260200160002081905550600c600085815260200190815260200160002060009055600b805480612bb5577f4e487b7100000000000000000000000000000000000000000000000000000000600052603160045260246000fd5b6001900381819060005260206000200160009055905550505050565b6000612bdc83610bc9565b905081600960008573ffffffffffffffffffffffffffffffffffffffff1673ffffffffffffffffffffffffffffffffffffffff16815260200190815260200160002060008381526020019081526020016000208190555080600a600084815260200190815260200160002081905550505050565b6000808460010160008581526020019081526020016000205490506000811415612cf757846000016040518060400160405280868152602001858152509080600181540180825580915050600190039060005260206000209060020201600090919091909150600082015181600001556020820151816001015550508460000180549050856001016000868152602001908152602001600020819055506001915050612d5b565b8285600001600183612d099190614cd9565b81548110612d40577f4e487b7100000000000000000000000000000000000000000000000000000000600052603260045260246000fd5b90600052602060002090600202016001018190555060009150505b9392505050565b600073ffffffffffffffffffffffffffffffffffffffff168273ffffffffffffffffffffffffffffffffffffffff161415612dd2576040517f08c379a0000000000000000000000000000000000000000000000000000000008152600401612dc9906149c8565b60405180910390fd5b612ddb816113b7565b15612e1b576040517f08c379a0000000000000000000000000000000000000000000000000000000008152600401612e12906148c8565b60405180910390fd5b612e2760008383611dd8565b6001600660008473ffffffffffffffffffffffffffffffffffffffff1673ffffffffffffffffffffffffffffffffffffffff1681526020019081526020016000206000828254612e779190614bc7565b92505081905550612e9481836001611eec9092919063ffffffff16565b50808273ffffffffffffffffffffffffffffffffffffffff16600073ffffffffffffffffffffffffffffffffffffffff167fddf252ad1be2c89b69c2b068fc378daa952ba7f163c4a11628f55a4df523b3ef60405160405180910390a45050565b600080823b905060008111915050919050565b60608060008360ff1614156130bc5783600060078110612f51577f4e487b7100000000000000000000000000000000000000000000000000000000600052603260045260246000fd5b602002015184600160078110612f90577f4e487b7100000000000000000000000000000000000000000000000000000000600052603260045260246000fd5b602002015185600260078110612fcf577f4e487b7100000000000000000000000000000000000000000000000000000000600052603260045260246000fd5b60200201518660046007811061300e577f4e487b7100000000000000000000000000000000000000000000000000000000600052603260045260246000fd5b60200201518760056007811061304d577f4e487b7100000000000000000000000000000000000000000000000000000000600052603260045260246000fd5b60200201518860066007811061308c577f4e487b7100000000000000000000000000000000000000000000000000000000600052603260045260246000fd5b60200201516040516020016130a696959493929190614623565b6040516020818303038152906040529050613d3a565b60018360ff16141561316d5783600260078110613102577f4e487b7100000000000000000000000000000000000000000000000000000000600052603260045260246000fd5b602002015184600560078110613141577f4e487b7100000000000000000000000000000000000000000000000000000000600052603260045260246000fd5b6020020151604051602001613157929190614545565b6040516020818303038152906040529050613d39565b60028360ff1614156132de57836000600781106131b3577f4e487b7100000000000000000000000000000000000000000000000000000000600052603260045260246000fd5b6020020151846002600781106131f2577f4e487b7100000000000000000000000000000000000000000000000000000000600052603260045260246000fd5b602002015185600360078110613231577f4e487b7100000000000000000000000000000000000000000000000000000000600052603260045260246000fd5b602002015186600460078110613270577f4e487b7100000000000000000000000000000000000000000000000000000000600052603260045260246000fd5b6020020151876006600781106132af577f4e487b7100000000000000000000000000000000000000000000000000000000600052603260045260246000fd5b60200201516040516020016132c89594939291906145d8565b6040516020818303038152906040529050613d38565b60038360ff16141561344f5783600060078110613324577f4e487b7100000000000000000000000000000000000000000000000000000000600052603260045260246000fd5b602002015184600260078110613363577f4e487b7100000000000000000000000000000000000000000000000000000000600052603260045260246000fd5b6020020151856003600781106133a2577f4e487b7100000000000000000000000000000000000000000000000000000000600052603260045260246000fd5b6020020151866005600781106133e1577f4e487b7100000000000000000000000000000000000000000000000000000000600052603260045260246000fd5b602002015187600660078110613420577f4e487b7100000000000000000000000000000000000000000000000000000000600052603260045260246000fd5b60200201516040516020016134399594939291906145d8565b6040516020818303038152906040529050613d37565b60048360ff1614156135805783600160078110613495577f4e487b7100000000000000000000000000000000000000000000000000000000600052603260045260246000fd5b6020020151846002600781106134d4577f4e487b7100000000000000000000000000000000000000000000000000000000600052603260045260246000fd5b602002015185600360078110613513577f4e487b7100000000000000000000000000000000000000000000000000000000600052603260045260246000fd5b602002015186600560078110613552577f4e487b7100000000000000000000000000000000000000000000000000000000600052603260045260246000fd5b602002015160405160200161356a949392919061459a565b6040516020818303038152906040529050613d36565b60058360ff1614156136f157836000600781106135c6577f4e487b7100000000000000000000000000000000000000000000000000000000600052603260045260246000fd5b602002015184600160078110613605577f4e487b7100000000000000000000000000000000000000000000000000000000600052603260045260246000fd5b602002015185600360078110613644577f4e487b7100000000000000000000000000000000000000000000000000000000600052603260045260246000fd5b602002015186600560078110613683577f4e487b7100000000000000000000000000000000000000000000000000000000600052603260045260246000fd5b6020020151876006600781106136c2577f4e487b7100000000000000000000000000000000000000000000000000000000600052603260045260246000fd5b60200201516040516020016136db9594939291906145d8565b6040516020818303038152906040529050613d35565b60068360ff1614156138a25783600060078110613737577f4e487b7100000000000000000000000000000000000000000000000000000000600052603260045260246000fd5b602002015184600160078110613776577f4e487b7100000000000000000000000000000000000000000000000000000000600052603260045260246000fd5b6020020151856003600781106137b5577f4e487b7100000000000000000000000000000000000000000000000000000000600052603260045260246000fd5b6020020151866004600781106137f4577f4e487b7100000000000000000000000000000000000000000000000000000000600052603260045260246000fd5b602002015187600560078110613833577f4e487b7100000000000000000000000000000000000000000000000000000000600052603260045260246000fd5b602002015188600660078110613872577f4e487b7100000000000000000000000000000000000000000000000000000000600052603260045260246000fd5b602002015160405160200161388c96959493929190614623565b6040516020818303038152906040529050613d34565b60078360ff16141561399357836000600781106138e8577f4e487b7100000000000000000000000000000000000000000000000000000000600052603260045260246000fd5b602002015184600260078110613927577f4e487b7100000000000000000000000000000000000000000000000000000000600052603260045260246000fd5b602002015185600560078110613966577f4e487b7100000000000000000000000000000000000000000000000000000000600052603260045260246000fd5b602002015160405160200161397d93929190614569565b6040516020818303038152906040529050613d33565b60088360ff161415613b8457836000600781106139d9577f4e487b7100000000000000000000000000000000000000000000000000000000600052603260045260246000fd5b602002015184600160078110613a18577f4e487b7100000000000000000000000000000000000000000000000000000000600052603260045260246000fd5b602002015185600260078110613a57577f4e487b7100000000000000000000000000000000000000000000000000000000600052603260045260246000fd5b602002015186600360078110613a96577f4e487b7100000000000000000000000000000000000000000000000000000000600052603260045260246000fd5b602002015187600460078110613ad5577f4e487b7100000000000000000000000000000000000000000000000000000000600052603260045260246000fd5b602002015188600560078110613b14577f4e487b7100000000000000000000000000000000000000000000000000000000600052603260045260246000fd5b602002015189600660078110613b53577f4e487b7100000000000000000000000000000000000000000000000000000000600052603260045260246000fd5b6020020151604051602001613b6e979695949392919061467b565b6040516020818303038152906040529050613d32565b60098360ff161415613d315783600060078110613bca577f4e487b7100000000000000000000000000000000000000000000000000000000600052603260045260246000fd5b602002015184600160078110613c09577f4e487b7100000000000000000000000000000000000000000000000000000000600052603260045260246000fd5b602002015185600260078110613c48577f4e487b7100000000000000000000000000000000000000000000000000000000600052603260045260246000fd5b602002015186600360078110613c87577f4e487b7100000000000000000000000000000000000000000000000000000000600052603260045260246000fd5b602002015187600560078110613cc6577f4e487b7100000000000000000000000000000000000000000000000000000000600052603260045260246000fd5b602002015188600660078110613d05577f4e487b7100000000000000000000000000000000000000000000000000000000600052603260045260246000fd5b6020020151604051602001613d1f96959493929190614623565b60405160208183030381529060405290505b5b5b5b5b5b5b5b5b5b8091505092915050565b6040518060800160405280600490602082028036833780820191505090505090565b6000613d79613d7484614b48565b614b23565b905082815260208101848484011115613d9157600080fd5b613d9c848285614d8e565b509392505050565b600081359050613db3816158f3565b92915050565b600081359050613dc88161590a565b92915050565b600081359050613ddd81615921565b92915050565b600081519050613df281615921565b92915050565b600082601f830112613e0957600080fd5b8135613e19848260208601613d66565b91505092915050565b600081359050613e3181615938565b92915050565b600060208284031215613e4957600080fd5b6000613e5784828501613da4565b91505092915050565b60008060408385031215613e7357600080fd5b6000613e8185828601613da4565b9250506020613e9285828601613da4565b9150509250929050565b600080600060608486031215613eb157600080fd5b6000613ebf86828701613da4565b9350506020613ed086828701613da4565b9250506040613ee186828701613e22565b9150509250925092565b60008060008060808587031215613f0157600080fd5b6000613f0f87828801613da4565b9450506020613f2087828801613da4565b9350506040613f3187828801613e22565b925050606085013567ffffffffffffffff811115613f4e57600080fd5b613f5a87828801613df8565b91505092959194509250565b60008060408385031215613f7957600080fd5b6000613f8785828601613da4565b9250506020613f9885828601613db9565b9150509250929050565b60008060408385031215613fb557600080fd5b6000613fc385828601613da4565b9250506020613fd485828601613e22565b9150509250929050565b600060208284031215613ff057600080fd5b6000613ffe84828501613dce565b91505092915050565b60006020828403121561401957600080fd5b600061402784828501613de3565b91505092915050565b60006020828403121561404257600080fd5b600061405084828501613e22565b91505092915050565b61406281614d0d565b82525050565b61407181614d1f565b82525050565b600061408282614b79565b61408c8185614b8f565b935061409c818560208601614d9d565b6140a581614f51565b840191505092915050565b60006140bb82614b84565b6140c58185614bab565b93506140d5818560208601614d9d565b6140de81614f51565b840191505092915050565b60006140f482614b84565b6140fe8185614bbc565b935061410e818560208601614d9d565b80840191505092915050565b600061412760d783614bbc565b915061413282614f62565b60d782019050919050565b600061414a602b83614bab565b91506141558261506f565b604082019050919050565b600061416d603283614bab565b9150614178826150be565b604082019050919050565b6000614190602683614bab565b915061419b8261510d565b604082019050919050565b60006141b3601c83614bab565b91506141be8261515c565b602082019050919050565b60006141d6602483614bab565b91506141e182615185565b604082019050919050565b60006141f9600f83614bab565b9150614204826151d4565b602082019050919050565b600061421c601983614bab565b9150614227826151fd565b602082019050919050565b600061423f602c83614bab565b915061424a82615226565b604082019050919050565b6000614262603883614bab565b915061426d82615275565b604082019050919050565b6000614285602a83614bab565b9150614290826152c4565b604082019050919050565b60006142a8602983614bab565b91506142b382615313565b604082019050919050565b60006142cb600783614bbc565b91506142d682615362565b600782019050919050565b60006142ee600283614bbc565b91506142f98261538b565b600282019050919050565b6000614311602083614bab565b915061431c826153b4565b602082019050919050565b6000614334602c83614bab565b915061433f826153dd565b604082019050919050565b6000614357606283614bbc565b91506143628261542c565b606282019050919050565b600061437a602083614bab565b9150614385826154c7565b602082019050919050565b600061439d601083614bab565b91506143a8826154f0565b602082019050919050565b60006143c0602983614bab565b91506143cb82615519565b604082019050919050565b60006143e3602183614bab565b91506143ee82615568565b604082019050919050565b6000614406601d83614bbc565b9150614411826155b7565b601d82019050919050565b6000614429601b83614bbc565b9150614434826155e0565b601b82019050919050565b600061444c600083614ba0565b915061445782615609565b600082019050919050565b600061446f603183614bab565b915061447a8261560c565b604082019050919050565b6000614492602c83614bab565b915061449d8261565b565b604082019050919050565b60006144b5601983614bab565b91506144c0826156aa565b602082019050919050565b60006144d8603283614bbc565b91506144e3826156d3565b603282019050919050565b60006144fb601f83614bab565b915061450682615722565b602082019050919050565b600061451f61015383614bbc565b915061452a8261574b565b61015382019050919050565b61453f81614d77565b82525050565b600061455182856140e9565b915061455d82846140e9565b91508190509392505050565b600061457582866140e9565b915061458182856140e9565b915061458d82846140e9565b9150819050949350505050565b60006145a682876140e9565b91506145b282866140e9565b91506145be82856140e9565b91506145ca82846140e9565b915081905095945050505050565b60006145e482886140e9565b91506145f082876140e9565b91506145fc82866140e9565b915061460882856140e9565b915061461482846140e9565b91508190509695505050505050565b600061462f82896140e9565b915061463b82886140e9565b915061464782876140e9565b915061465382866140e9565b915061465f82856140e9565b915061466b82846140e9565b9150819050979650505050505050565b6000614687828a6140e9565b915061469382896140e9565b915061469f82886140e9565b91506146ab82876140e9565b91506146b782866140e9565b91506146c382856140e9565b91506146cf82846140e9565b915081905098975050505050505050565b60006146eb8261411a565b91506146f782876140e9565b9150614702826142be565b915061470e82866140e9565b91506147198261441c565b915061472582856140e9565b9150614730826142be565b915061473c82846140e9565b915061474782614511565b915081905095945050505050565b6000614760826143f9565b915061476c82846140e9565b915081905092915050565b60006147828261443f565b9150819050919050565b6000614797826144cb565b91506147a28261434a565b91506147ae82846140e9565b91506147b9826142e1565b915081905092915050565b60006020820190506147d96000830184614059565b92915050565b60006080820190506147f46000830187614059565b6148016020830186614059565b61480e6040830185614536565b81810360608301526148208184614077565b905095945050505050565b60006020820190506148406000830184614068565b92915050565b6000602082019050818103600083015261486081846140b0565b905092915050565b600060208201905081810360008301526148818161413d565b9050919050565b600060208201905081810360008301526148a181614160565b9050919050565b600060208201905081810360008301526148c181614183565b9050919050565b600060208201905081810360008301526148e1816141a6565b9050919050565b60006020820190508181036000830152614901816141c9565b9050919050565b60006020820190508181036000830152614921816141ec565b9050919050565b600060208201905081810360008301526149418161420f565b9050919050565b6000602082019050818103600083015261496181614232565b9050919050565b6000602082019050818103600083015261498181614255565b9050919050565b600060208201905081810360008301526149a181614278565b9050919050565b600060208201905081810360008301526149c18161429b565b9050919050565b600060208201905081810360008301526149e181614304565b9050919050565b60006020820190508181036000830152614a0181614327565b9050919050565b60006020820190508181036000830152614a218161436d565b9050919050565b60006020820190508181036000830152614a4181614390565b9050919050565b60006020820190508181036000830152614a61816143b3565b9050919050565b60006020820190508181036000830152614a81816143d6565b9050919050565b60006020820190508181036000830152614aa181614462565b9050919050565b60006020820190508181036000830152614ac181614485565b9050919050565b60006020820190508181036000830152614ae1816144a8565b9050919050565b60006020820190508181036000830152614b01816144ee565b9050919050565b6000602082019050614b1d6000830184614536565b92915050565b6000614b2d614b3e565b9050614b398282614e02565b919050565b6000604051905090565b600067ffffffffffffffff821115614b6357614b62614f22565b5b614b6c82614f51565b9050602081019050919050565b600081519050919050565b600081519050919050565b600082825260208201905092915050565b600081905092915050565b600082825260208201905092915050565b600081905092915050565b6000614bd282614d77565b9150614bdd83614d77565b9250827fffffffffffffffffffffffffffffffffffffffffffffffffffffffffffffffff03821115614c1257614c11614e95565b5b828201905092915050565b6000614c2882614d77565b9150614c3383614d77565b925082614c4357614c42614ec4565b5b828204905092915050565b6000614c5982614d81565b9150614c6483614d81565b925082614c7457614c73614ec4565b5b828204905092915050565b6000614c8a82614d77565b9150614c9583614d77565b9250817fffffffffffffffffffffffffffffffffffffffffffffffffffffffffffffffff0483118215151615614cce57614ccd614e95565b5b828202905092915050565b6000614ce482614d77565b9150614cef83614d77565b925082821015614d0257614d01614e95565b5b828203905092915050565b6000614d1882614d57565b9050919050565b60008115159050919050565b60007fffffffff0000000000000000000000000000000000000000000000000000000082169050919050565b600073ffffffffffffffffffffffffffffffffffffffff82169050919050565b6000819050919050565b600060ff82169050919050565b82818337600083830152505050565b60005b83811015614dbb578082015181840152602081019050614da0565b83811115614dca576000848401525b50505050565b60006002820490506001821680614de857607f821691505b60208210811415614dfc57614dfb614ef3565b5b50919050565b614e0b82614f51565b810181811067ffffffffffffffff82111715614e2a57614e29614f22565b5b80604052505050565b6000614e3e82614d77565b9150614e4983614d77565b925082614e5957614e58614ec4565b5b828206905092915050565b6000614e6f82614d81565b9150614e7a83614d81565b925082614e8a57614e89614ec4565b5b828206905092915050565b7f4e487b7100000000000000000000000000000000000000000000000000000000600052601160045260246000fd5b7f4e487b7100000000000000000000000000000000000000000000000000000000600052601260045260246000fd5b7f4e487b7100000000000000000000000000000000000000000000000000000000600052602260045260246000fd5b7f4e487b7100000000000000000000000000000000000000000000000000000000600052604160045260246000fd5b6000601f19601f8301169050919050565b7f3c7376672076696577426f783d2730203020353030203530302720786d6c6e7360008201527f3d27687474703a2f2f7777772e77332e6f72672f323030302f7376672720786d60208201527f6c6e733a62783d2768747470733a2f2f626f78792d7376672e636f6d273e3c6760408201527f207374726f6b653d2723666666666666272066696c6c3d27236666666666272060608201527f7472616e73666f726d3d276d617472697828342e3833373038322c20302c203060808201527f2c20352e3331303937322c2035392e3231393436372c202d34352e343737313560a08201527f2927203e3c672069643d276d696e75746573273e3c673e00000000000000000060c082015250565b7f455243373231456e756d657261626c653a206f776e657220696e646578206f7560008201527f74206f6620626f756e6473000000000000000000000000000000000000000000602082015250565b7f4552433732313a207472616e7366657220746f206e6f6e20455243373231526560008201527f63656976657220696d706c656d656e7465720000000000000000000000000000602082015250565b7f4f776e61626c653a206e6577206f776e657220697320746865207a65726f206160008201527f6464726573730000000000000000000000000000000000000000000000000000602082015250565b7f4552433732313a20746f6b656e20616c7265616479206d696e74656400000000600082015250565b7f4552433732313a207472616e7366657220746f20746865207a65726f2061646460008201527f7265737300000000000000000000000000000000000000000000000000000000602082015250565b7f4e6f7420656e6f7567682066756e640000000000000000000000000000000000600082015250565b7f4552433732313a20617070726f766520746f2063616c6c657200000000000000600082015250565b7f4552433732313a206f70657261746f7220717565727920666f72206e6f6e657860008201527f697374656e7420746f6b656e0000000000000000000000000000000000000000602082015250565b7f4552433732313a20617070726f76652063616c6c6572206973206e6f74206f7760008201527f6e6572206e6f7220617070726f76656420666f7220616c6c0000000000000000602082015250565b7f4552433732313a2062616c616e636520717565727920666f7220746865207a6560008201527f726f206164647265737300000000000000000000000000000000000000000000602082015250565b7f4552433732313a206f776e657220717565727920666f72206e6f6e657869737460008201527f656e7420746f6b656e0000000000000000000000000000000000000000000000602082015250565b7f3c2f673e3c673e00000000000000000000000000000000000000000000000000600082015250565b7f227d000000000000000000000000000000000000000000000000000000000000600082015250565b7f4552433732313a206d696e7420746f20746865207a65726f2061646472657373600082015250565b7f4552433732313a20617070726f76656420717565727920666f72206e6f6e657860008201527f697374656e7420746f6b656e0000000000000000000000000000000000000000602082015250565b7f226465736372697074696f6e223a2022546865206d6f73742076616c7561626c60008201527f65207468696e6720696e2074686520656e7469726520776f726c64222c20226960208201527f6d616765223a2022646174613a696d6167652f7376672b786d6c3b626173653660408201527f342c000000000000000000000000000000000000000000000000000000000000606082015250565b7f4f776e61626c653a2063616c6c6572206973206e6f7420746865206f776e6572600082015250565b7f546f6b656e20494420696e76616c696400000000000000000000000000000000600082015250565b7f4552433732313a207472616e73666572206f6620746f6b656e2074686174206960008201527f73206e6f74206f776e0000000000000000000000000000000000000000000000602082015250565b7f4552433732313a20617070726f76616c20746f2063757272656e74206f776e6560008201527f7200000000000000000000000000000000000000000000000000000000000000602082015250565b7f646174613a6170706c69636174696f6e2f6a736f6e3b6261736536342c000000600082015250565b7f203c2f673e3c2f673e3c672069643d27686f75727327203e3c673e0000000000600082015250565b50565b7f4552433732313a207472616e736665722063616c6c6572206973206e6f74206f60008201527f776e6572206e6f7220617070726f766564000000000000000000000000000000602082015250565b7f455243373231456e756d657261626c653a20676c6f62616c20696e646578206f60008201527f7574206f6620626f756e64730000000000000000000000000000000000000000602082015250565b7f436f756c64206e6f74207472616e7366657220616d6f756e7400000000000000600082015250565b7f7b226e616d65223a202254696d652023222c207469636b546f636b2e6375727260008201527f656e7428292e746f537472696e672829202c0000000000000000000000000000602082015250565b7f5265656e7472616e637947756172643a207265656e7472616e742063616c6c00600082015250565b7f203c2f673e3c2f673e3c672069643d27646f7473273e3c673e3c636972636c6560008201527f2063783d273430272063793d2735302720723d273227207374796c653d27706160208201527f696e742d6f726465723a207374726f6b653b207374726f6b653a20726762283060408201527f2c20302c2030293b272f3e203c636972636c652063783d273430272063793d2760608201527f35382720723d273227207374796c653d277061696e742d6f726465723a20737460808201527f726f6b653b207374726f6b653a2072676228302c20302c2030293b272f3e3c2f60a08201527f673e3c2f673e3c2f673e3c74657874207374796c653d2766696c6c3a2072676260c08201527f2835312c2035312c203531293b20666f6e742d66616d696c793a20496d70616360e08201527f743b20666f6e742d73697a653a2033322e3270783b2077686974652d737061636101008201527f653a207072653b2720783d273431392e3439312720793d273439312e313533276101208201527f3e44415920303c2f746578743e3c2f7376673e0000000000000000000000000061014082015250565b6158fc81614d0d565b811461590757600080fd5b50565b61591381614d1f565b811461591e57600080fd5b50565b61592a81614d2b565b811461593557600080fd5b50565b61594181614d77565b811461594c57600080fd5b5056fe3c706174682069643d2762322720643d274d32312c34306c332c3376386c2d332c3263302c302d312d312d312d33762d374332302c34312c32312c34302c32312c34307a27207374796c653d277061696e742d6f726465723a207374726f6b653b207374726f6b653a2072676228302c20302c2030293b272f3e3c706174682069643d2761332720643d274d31372c34306c2d332c3376386c332c3263302c302c312d312c312d33762d374331382c34312c31372c34302c31372c34307a27207374796c653d277061696e742d6f726465723a207374726f6b653b207374726f6b653a2072676228302c20302c2030293b272f3e3c706174682069643d2761372720643d274d342c36396c332d3368366c332c3363302c302d312c312d332c31682d3643352c37302c342c36392c342c36397a27207374796c653d277061696e742d6f726465723a207374726f6b653b207374726f6b653a2072676228302c20302c2030293b272f3e3c706174682069643d2762362720643d274d33352c35356c2d332c3276386c332c3363302c302c312d312c312d33762d374333362c35362c33352c35352c33352c35357a27207374796c653d277061696e742d6f726465723a207374726f6b653b207374726f6b653a2072676228302c20302c2030293b272f3e3c706f6c79676f6e2069643d2761342720706f696e74733d27372c35322031332c35322031362c35342031332c353620372c353620342c353427207374796c653d277061696e742d6f726465723a207374726f6b653b207374726f6b653a2072676228302c20302c2030293b272f3e3c706174682069643d2762332720643d274d33352c34306c2d332c3376386c332c3263302c302c312d312c312d33762d374333362c34312c33352c34302c33352c34307a27207374796c653d277061696e742d6f726465723a207374726f6b653b207374726f6b653a2072676228302c20302c2030293b272f3e3c706174682069643d2761362720643d274d31372c35356c2d332c3276386c332c3363302c302c312d312c312d33762d374331382c35362c31372c35352c31372c35357a27207374796c653d277061696e742d6f726465723a207374726f6b653b207374726f6b653a2072676228302c20302c2030293b272f3e3c706174682069643d2763312720643d274d34362c33396c332c3368366c332d3363302c302d312d312d332d31682d364334372c33382c34362c33392c34362c33397a27207374796c653d277061696e742d6f726465723a207374726f6b653b207374726f6b653a2072676228302c20302c2030293b272f3e3c706174682069643d2761352720643d274d332c35356c332c3276386c2d332c3363302c302d312d312d312d33762d3743322c35362c332c35352c332c35357a27207374796c653d277061696e742d6f726465723a207374726f6b653b207374726f6b653a2072676228302c20302c2030293b272f3e3c706174682069643d2763332720643d274d35392c34306c2d332c3376386c332c3263302c302c312d312c312d33762d374336302c34312c35392c34302c35392c34307a27207374796c653d277061696e742d6f726465723a207374726f6b653b207374726f6b653a2072676228302c20302c2030293b272f3e3c706174682069643d2764352720643d274d36332c35356c332c3276386c2d332c3363302c302d312d312d312d33762d374336322c35362c36332c35352c36332c35357a27207374796c653d277061696e742d6f726465723a207374726f6b653b207374726f6b653a2072676228302c20302c2030293b272f3e3c706174682069643d2763322720643d274d34352c34306c332c3376386c2d332c3263302c302d312d312d312d33762d374334342c34312c34352c34302c34352c34307a27207374796c653d277061696e742d6f726465723a207374726f6b653b207374726f6b653a2072676228302c20302c2030293b272f3e3c706f6c79676f6e2069643d2764342720706f696e74733d2736372c35322037332c35322037362c35342037332c35362036372c35362036342c353427207374796c653d277061696e742d6f726465723a207374726f6b653b207374726f6b653a2072676228302c20302c2030293b272f3e4142434445464748494a4b4c4d4e4f505152535455565758595a6162636465666768696a6b6c6d6e6f707172737475767778797a303132333435363738392b2f3c706f6c79676f6e2069643d2762342720706f696e74733d2732352c35322033312c35322033342c35342033312c35362032352c35362032322c353427207374796c653d277061696e742d6f726465723a207374726f6b653b207374726f6b653a2072676228302c20302c2030293b272f3e3c706174682069643d2762312720643d274d32322c33396c332c3368366c332d3363302c302d312d312d332d31682d364332332c33382c32322c33392c32322c33397a27207374796c653d277061696e742d6f726465723a207374726f6b653b207374726f6b653a2072676228302c20302c2030293b272f3e3c706174682069643d2764332720643d274d37372c34306c2d332c3376386c332c3263302c302c312d312c312d33762d374337382c34312c37372c34302c37372c34307a27207374796c653d277061696e742d6f726465723a207374726f6b653b207374726f6b653a2072676228302c20302c2030293b272f3e3c706174682069643d2762372720643d274d32322c36396c332d3368366c332c3363302c302d312c312d332c31682d364332332c37302c32322c36392c32322c36397a27207374796c653d277061696e742d6f726465723a207374726f6b653b207374726f6b653a2072676228302c20302c2030293b272f3e3c706174682069643d2764372720643d274d36342c36396c332d3368366c332c3363302c302d312c312d332c31682d364336352c37302c36342c36392c36342c36397a27207374796c653d277061696e742d6f726465723a207374726f6b653b207374726f6b653a2072676228302c20302c2030293b272f3e3c706174682069643d2763352720643d274d34352c35356c332c3276386c2d332c3363302c302d312d312d312d33762d374334342c35362c34352c35352c34352c35357a27207374796c653d277061696e742d6f726465723a207374726f6b653b207374726f6b653a2072676228302c20302c2030293b272f3e3c706174682069643d2763362720643d274d35392c35356c2d332c3276386c332c3363302c302c312d312c312d33762d374336302c35362c35392c35352c35392c35357a27207374796c653d277061696e742d6f726465723a207374726f6b653b207374726f6b653a2072676228302c20302c2030293b272f3e3c706174682069643d2764312720643d274d36342c33396c332c3368366c332d3363302c302d312d312d332d31682d364336352c33382c36342c33392c36342c33397a27207374796c653d277061696e742d6f726465723a207374726f6b653b207374726f6b653a2072676228302c20302c2030293b272f3e3c706174682069643d2762352720643d274d32312c35356c332c3276386c2d332c3363302c302d312d312d312d33762d374332302c35362c32312c35352c32312c35357a27207374796c653d277061696e742d6f726465723a207374726f6b653b207374726f6b653a2072676228302c20302c2030293b272f3e3c706174682069643d2763372720643d274d34362c36396c332d3368366c332c3363302c302d312c312d332c31682d364334372c37302c34362c36392c34362c36397a27207374796c653d277061696e742d6f726465723a207374726f6b653b207374726f6b653a2072676228302c20302c2030293b272f3e3c706f6c79676f6e2069643d2763342720706f696e74733d2734392c35322035352c35322035382c35342035352c35362034392c35362034362c353427207374796c653d277061696e742d6f726465723a207374726f6b653b207374726f6b653a2072676228302c20302c2030293b272f3e3c706174682069643d2761312720643d274d342c33396c332c3368366c332d3363302c302d312d312d332d31682d3643352c33382c342c33392c342c33397a27207374796c653d277061696e742d6f726465723a207374726f6b653b207374726f6b653a2072676228302c20302c2030293b272f3e3c706174682069643d2764362720643d274d37372c35356c2d332c3276386c332c3363302c302c312d312c312d33762d374337382c35362c37372c35352c37372c35357a27207374796c653d277061696e742d6f726465723a207374726f6b653b207374726f6b653a2072676228302c20302c2030293b272f3e3c706174682069643d2764322720643d274d36332c34306c332c3376386c2d332c3263302c302d312d312d312d33762d374336322c34312c36332c34302c36332c34307a27207374796c653d277061696e742d6f726465723a207374726f6b653b207374726f6b653a2072676228302c20302c2030293b272f3e3c706174682069643d2761322720643d274d332c34306c332c3376386c2d332c3263302c302d312d312d312d33762d3743322c34312c332c34302c332c34307a27207374796c653d277061696e742d6f726465723a207374726f6b653b207374726f6b653a2072676228302c20302c2030293b272f3ea2646970667358221220ef62f9863657de30ec473fdabb9d7e1d95d9aec67829d9d2f70e17fac1baaa9e64736f6c63430008040033",
  "linkReferences": {},
  "deployedLinkReferences": {}
}