{
  "_format": "hh-sol-artifact-1",
  "contractName": "CryptoFund",
  "sourceName": "contracts/CryptoFund.sol",
  "abi": [
    {
      "inputs": [],
      "stateMutability": "nonpayable",
      "type": "constructor"
    },
    {
      "inputs": [],
      "name": "claimInvestor",
      "outputs": [],
      "stateMutability": "payable",
      "type": "function"
    },
    {
      "inputs": [],
      "name": "claimStartupFund",
      "outputs": [],
      "stateMutability": "payable",
      "type": "function"
    },
    {
      "inputs": [],
      "name": "endDate",
      "outputs": [
        {
          "internalType": "uint256",
          "name": "",
          "type": "uint256"
        }
      ],
      "stateMutability": "view",
      "type": "function"
    },
    {
      "inputs": [
        {
          "internalType": "address",
          "name": "_startup",
          "type": "address"
        }
      ],
      "name": "getAmountOfProposal",
      "outputs": [
        {
          "internalType": "uint256",
          "name": "",
          "type": "uint256"
        }
      ],
      "stateMutability": "view",
      "type": "function"
    },
    {
      "inputs": [
        {
          "internalType": "uint256",
          "name": "index",
          "type": "uint256"
        }
      ],
      "name": "getUsersSelectedInvestment",
      "outputs": [
        {
          "internalType": "address",
          "name": "",
          "type": "address"
        },
        {
          "internalType": "uint256",
          "name": "",
          "type": "uint256"
        }
      ],
      "stateMutability": "view",
      "type": "function"
    },
    {
      "inputs": [
        {
          "internalType": "address",
          "name": "_startup",
          "type": "address"
        },
        {
          "internalType": "uint256",
          "name": "_amount",
          "type": "uint256"
        }
      ],
      "name": "investWithAddress",
      "outputs": [],
      "stateMutability": "nonpayable",
      "type": "function"
    },
    {
      "inputs": [
        {
          "internalType": "address",
          "name": "",
          "type": "address"
        }
      ],
      "name": "investors",
      "outputs": [
        {
          "internalType": "uint256",
          "name": "totalRegisterAmount",
          "type": "uint256"
        },
        {
          "internalType": "uint256",
          "name": "voteRightLeft",
          "type": "uint256"
        }
      ],
      "stateMutability": "view",
      "type": "function"
    },
    {
      "inputs": [],
      "name": "owner",
      "outputs": [
        {
          "internalType": "address",
          "name": "",
          "type": "address"
        }
      ],
      "stateMutability": "view",
      "type": "function"
    },
    {
      "inputs": [
        {
          "internalType": "uint256",
          "name": "proposalAmount",
          "type": "uint256"
        }
      ],
      "name": "registerStartup",
      "outputs": [],
      "stateMutability": "nonpayable",
      "type": "function"
    },
    {
      "inputs": [],
      "name": "registerUser",
      "outputs": [],
      "stateMutability": "payable",
      "type": "function"
    },
    {
      "inputs": [
        {
          "internalType": "enum CryptoFund.State",
          "name": "_st",
          "type": "uint8"
        }
      ],
      "name": "setActiveState",
      "outputs": [],
      "stateMutability": "nonpayable",
      "type": "function"
    },
    {
      "inputs": [
        {
          "internalType": "uint256",
          "name": "_endTime",
          "type": "uint256"
        }
      ],
      "name": "setEndTime",
      "outputs": [],
      "stateMutability": "nonpayable",
      "type": "function"
    },
    {
      "inputs": [
        {
          "internalType": "address",
          "name": "",
          "type": "address"
        }
      ],
      "name": "startups",
      "outputs": [
        {
          "internalType": "uint256",
          "name": "requestedAmount",
          "type": "uint256"
        },
        {
          "internalType": "uint256",
          "name": "totalFunded",
          "type": "uint256"
        }
      ],
      "stateMutability": "view",
      "type": "function"
    },
    {
      "inputs": [],
      "name": "winner",
      "outputs": [
        {
          "internalType": "address",
          "name": "",
          "type": "address"
        }
      ],
      "stateMutability": "view",
      "type": "function"
    },
    {
      "inputs": [],
      "name": "winnerRequestedAmount",
      "outputs": [
        {
          "internalType": "uint256",
          "name": "",
          "type": "uint256"
        }
      ],
      "stateMutability": "view",
      "type": "function"
    }
  ],
  "bytecode": "0x608060405234801561001057600080fd5b5033600460006101000a81548173ffffffffffffffffffffffffffffffffffffffff021916908373ffffffffffffffffffffffffffffffffffffffff1602179055506123ca806100616000396000f3fe6080604052600436106100e85760003560e01c80638a237ac51161008a578063c24a0f8b11610059578063c24a0f8b146102c9578063ccb98ffc146102f4578063dfbf53ae1461031d578063dfc28c6b14610348576100e8565b80638a237ac51461022d5780638da5cb5b1461023757806394f3fa9e14610262578063b82e412c1461028b576100e8565b80634d3820eb116100c65780634d3820eb1461017c5780635657da34146101865780636f7bc9be146101c457806374c95f3a14610202576100e8565b806310cdde21146100ed5780634512d0ad146101165780634904aa8a14610153575b600080fd5b3480156100f957600080fd5b50610114600480360381019061010f919061189b565b610352565b005b34801561012257600080fd5b5061013d60048036038101906101389190611872565b6107ce565b60405161014a9190611dbb565b60405180910390f35b34801561015f57600080fd5b5061017a600480360381019061017591906118d7565b610862565b005b610184610945565b005b34801561019257600080fd5b506101ad60048036038101906101a89190611900565b610ada565b6040516101bb929190611b92565b60405180910390f35b3480156101d057600080fd5b506101eb60048036038101906101e69190611872565b610b3d565b6040516101f9929190611dd6565b60405180910390f35b34801561020e57600080fd5b50610217610b61565b6040516102249190611dbb565b60405180910390f35b610235610b67565b005b34801561024357600080fd5b5061024c610ef3565b6040516102599190611b77565b60405180910390f35b34801561026e57600080fd5b5061028960048036038101906102849190611900565b610f19565b005b34801561029757600080fd5b506102b260048036038101906102ad9190611872565b611093565b6040516102c0929190611dd6565b60405180910390f35b3480156102d557600080fd5b506102de6110b7565b6040516102eb9190611dbb565b60405180910390f35b34801561030057600080fd5b5061031b60048036038101906103169190611900565b6110bd565b005b34801561032957600080fd5b506103326111f6565b60405161033f9190611b77565b60405180910390f35b61035061121c565b005b6001600381111561038c577f4e487b7100000000000000000000000000000000000000000000000000000000600052602160045260246000fd5b600260009054906101000a900460ff1660038111156103d4577f4e487b7100000000000000000000000000000000000000000000000000000000600052602160045260246000fd5b14610414576040517f08c379a000000000000000000000000000000000000000000000000000000000815260040161040b90611c7b565b60405180910390fd5b4260005411610458576040517f08c379a000000000000000000000000000000000000000000000000000000000815260040161044f90611d5b565b60405180910390fd5b61046182611470565b6104a0576040517f08c379a000000000000000000000000000000000000000000000000000000000815260040161049790611c3b565b60405180910390fd5b600660003373ffffffffffffffffffffffffffffffffffffffff1673ffffffffffffffffffffffffffffffffffffffff16815260200190815260200160002060010154811115610525576040517f08c379a000000000000000000000000000000000000000000000000000000000815260040161051c90611c1b565b60405180910390fd5b80600660003373ffffffffffffffffffffffffffffffffffffffff1673ffffffffffffffffffffffffffffffffffffffff16815260200190815260200160002060010160008282546105779190611ef1565b925050819055506000600760003373ffffffffffffffffffffffffffffffffffffffff1673ffffffffffffffffffffffffffffffffffffffff16815260200190815260200160002090506000806105d7858461150690919063ffffffff16565b915091506105fb8585836105eb9190611e10565b856115489092919063ffffffff16565b5083600360008773ffffffffffffffffffffffffffffffffffffffff1673ffffffffffffffffffffffffffffffffffffffff168152602001908152602001600020600101600082825461064e9190611e10565b92505081905550600073ffffffffffffffffffffffffffffffffffffffff16600560009054906101000a900473ffffffffffffffffffffffffffffffffffffffff1673ffffffffffffffffffffffffffffffffffffffff161480156107375750600360008673ffffffffffffffffffffffffffffffffffffffff1673ffffffffffffffffffffffffffffffffffffffff16815260200190815260200160002060000154600360008773ffffffffffffffffffffffffffffffffffffffff1673ffffffffffffffffffffffffffffffffffffffff1681526020019081526020016000206001015410155b156107c75784600560006101000a81548173ffffffffffffffffffffffffffffffffffffffff021916908373ffffffffffffffffffffffffffffffffffffffff160217905550600360008673ffffffffffffffffffffffffffffffffffffffff1673ffffffffffffffffffffffffffffffffffffffff168152602001908152602001600020600001546001819055505b5050505050565b60006107d982611470565b610818576040517f08c379a000000000000000000000000000000000000000000000000000000000815260040161080f90611d3b565b60405180910390fd5b600360008373ffffffffffffffffffffffffffffffffffffffff1673ffffffffffffffffffffffffffffffffffffffff168152602001908152602001600020600001549050919050565b600460009054906101000a900473ffffffffffffffffffffffffffffffffffffffff1673ffffffffffffffffffffffffffffffffffffffff163373ffffffffffffffffffffffffffffffffffffffff16146108f2576040517f08c379a00000000000000000000000000000000000000000000000000000000081526004016108e990611d9b565b60405180910390fd5b80600260006101000a81548160ff0219169083600381111561093d577f4e487b7100000000000000000000000000000000000000000000000000000000600052602160045260246000fd5b021790555050565b60038081111561097e577f4e487b7100000000000000000000000000000000000000000000000000000000600052602160045260246000fd5b600260009054906101000a900460ff1660038111156109c6577f4e487b7100000000000000000000000000000000000000000000000000000000600052602160045260246000fd5b1415610a07576040517f08c379a00000000000000000000000000000000000000000000000000000000081526004016109fe90611cfb565b60405180910390fd5b60003411610a4a576040517f08c379a0000000000000000000000000000000000000000000000000000000008152600401610a4190611d1b565b60405180910390fd5b34600660003373ffffffffffffffffffffffffffffffffffffffff1673ffffffffffffffffffffffffffffffffffffffff1681526020019081526020016000206000018190555034600660003373ffffffffffffffffffffffffffffffffffffffff1673ffffffffffffffffffffffffffffffffffffffff16815260200190815260200160002060010181905550565b6000806000600760003373ffffffffffffffffffffffffffffffffffffffff1673ffffffffffffffffffffffffffffffffffffffff1681526020019081526020016000209050610b33848261157d90919063ffffffff16565b9250925050915091565b60066020528060005260406000206000915090508060000154908060010154905082565b60015481565b6000600660003373ffffffffffffffffffffffffffffffffffffffff1673ffffffffffffffffffffffffffffffffffffffff1681526020019081526020016000206000015411610bec576040517f08c379a0000000000000000000000000000000000000000000000000000000008152600401610be390611cbb565b60405180910390fd5b6000600760003373ffffffffffffffffffffffffffffffffffffffff1673ffffffffffffffffffffffffffffffffffffffff16815260200190815260200160002090506000544211610c73576040517f08c379a0000000000000000000000000000000000000000000000000000000008152600401610c6a90611c9b565b60405180910390fd5b6000600660003373ffffffffffffffffffffffffffffffffffffffff1673ffffffffffffffffffffffffffffffffffffffff1681526020019081526020016000206001015481610cc39190611e10565b905060005b610cd1836115a9565b811015610e0b57600080610cee838661157d90919063ffffffff16565b91509150600560009054906101000a900473ffffffffffffffffffffffffffffffffffffffff1673ffffffffffffffffffffffffffffffffffffffff168273ffffffffffffffffffffffffffffffffffffffff1614610d5a578084610d539190611e10565b9350610df6565b600060036000600560009054906101000a900473ffffffffffffffffffffffffffffffffffffffff1673ffffffffffffffffffffffffffffffffffffffff1673ffffffffffffffffffffffffffffffffffffffff1681526020019081526020016000206001015490508082600154610dd29190611e97565b610ddc9190611e66565b82610de79190611ef1565b85610df29190611e10565b9450505b50508080610e0390611f61565b915050610cc8565b506000600660003373ffffffffffffffffffffffffffffffffffffffff1673ffffffffffffffffffffffffffffffffffffffff168152602001908152602001600020600001819055506000600660003373ffffffffffffffffffffffffffffffffffffffff1673ffffffffffffffffffffffffffffffffffffffff168152602001908152602001600020600101819055503373ffffffffffffffffffffffffffffffffffffffff166108fc600183610ec39190611ef1565b9081150290604051600060405180830381858888f19350505050158015610eee573d6000803e3d6000fd5b505050565b600460009054906101000a900473ffffffffffffffffffffffffffffffffffffffff1681565b60008111610f5c576040517f08c379a0000000000000000000000000000000000000000000000000000000008152600401610f5390611bdb565b60405180910390fd5b60006003811115610f96577f4e487b7100000000000000000000000000000000000000000000000000000000600052602160045260246000fd5b600260009054906101000a900460ff166003811115610fde577f4e487b7100000000000000000000000000000000000000000000000000000000600052602160045260246000fd5b1461101e576040517f08c379a000000000000000000000000000000000000000000000000000000000815260040161101590611bfb565b60405180910390fd5b600060405180604001604052808381526020016000815250905080600360003373ffffffffffffffffffffffffffffffffffffffff1673ffffffffffffffffffffffffffffffffffffffff16815260200190815260200160002060008201518160000155602082015181600101559050505050565b60036020528060005260406000206000915090508060000154908060010154905082565b60005481565b600460009054906101000a900473ffffffffffffffffffffffffffffffffffffffff1673ffffffffffffffffffffffffffffffffffffffff163373ffffffffffffffffffffffffffffffffffffffff161461114d576040517f08c379a000000000000000000000000000000000000000000000000000000000815260040161114490611d9b565b60405180910390fd5b600f8111611190576040517f08c379a000000000000000000000000000000000000000000000000000000000815260040161118790611d7b565b60405180910390fd5b804261119c9190611e10565b6000819055506001600260006101000a81548160ff021916908360038111156111ee577f4e487b7100000000000000000000000000000000000000000000000000000000600052602160045260246000fd5b021790555050565b600560009054906101000a900473ffffffffffffffffffffffffffffffffffffffff1681565b6000544211611260576040517f08c379a000000000000000000000000000000000000000000000000000000000815260040161125790611c9b565b60405180910390fd5b600560009054906101000a900473ffffffffffffffffffffffffffffffffffffffff1673ffffffffffffffffffffffffffffffffffffffff163373ffffffffffffffffffffffffffffffffffffffff16146112f0576040517f08c379a00000000000000000000000000000000000000000000000000000000081526004016112e790611c5b565b60405180910390fd5b6000600360003373ffffffffffffffffffffffffffffffffffffffff1673ffffffffffffffffffffffffffffffffffffffff1681526020019081526020016000206000015411611375576040517f08c379a000000000000000000000000000000000000000000000000000000000815260040161136c90611bbb565b60405180910390fd5b6000600360003373ffffffffffffffffffffffffffffffffffffffff1673ffffffffffffffffffffffffffffffffffffffff1681526020019081526020016000206000015490506000600360003373ffffffffffffffffffffffffffffffffffffffff1673ffffffffffffffffffffffffffffffffffffffff16815260200190815260200160002060000181905550600560009054906101000a900473ffffffffffffffffffffffffffffffffffffffff1673ffffffffffffffffffffffffffffffffffffffff166108fc829081150290604051600060405180830381858888f1935050505015801561146c573d6000803e3d6000fd5b5050565b60008073ffffffffffffffffffffffffffffffffffffffff168273ffffffffffffffffffffffffffffffffffffffff1614806114ee57506000600360003373ffffffffffffffffffffffffffffffffffffffff1673ffffffffffffffffffffffffffffffffffffffff16815260200190815260200160002060000154115b156114fc5760009050611501565b600190505b919050565b600080600080611532866000018673ffffffffffffffffffffffffffffffffffffffff1660001b6115be565b91509150818160001c9350935050509250929050565b6000611574846000018473ffffffffffffffffffffffffffffffffffffffff1660001b8460001b611660565b90509392505050565b6000806000806115908660000186611772565b915091508160001c8160001c9350935050509250929050565b60006115b782600001611822565b9050919050565b600080600084600101600085815260200190815260200160002054905060008114156115f7576000808060001b90509250925050611659565b60018560000160018361160a9190611ef1565b81548110611641577f4e487b7100000000000000000000000000000000000000000000000000000000600052603260045260246000fd5b90600052602060002090600202016001015492509250505b9250929050565b60008084600101600085815260200190815260200160002054905060008114156117075784600001604051806040016040528086815260200185815250908060018154018082558091505060019003906000526020600020906002020160009091909190915060008201518160000155602082015181600101555050846000018054905085600101600086815260200190815260200160002081905550600191505061176b565b82856000016001836117199190611ef1565b81548110611750577f4e487b7100000000000000000000000000000000000000000000000000000000600052603260045260246000fd5b90600052602060002090600202016001018190555060009150505b9392505050565b600080828460000180549050116117be576040517f08c379a00000000000000000000000000000000000000000000000000000000081526004016117b590611cdb565b60405180910390fd5b60008460000184815481106117fc577f4e487b7100000000000000000000000000000000000000000000000000000000600052603260045260246000fd5b906000526020600020906002020190508060000154816001015492509250509250929050565b600081600001805490509050919050565b60008135905061184281612356565b92915050565b6000813590506118578161236d565b92915050565b60008135905061186c8161237d565b92915050565b60006020828403121561188457600080fd5b600061189284828501611833565b91505092915050565b600080604083850312156118ae57600080fd5b60006118bc85828601611833565b92505060206118cd8582860161185d565b9150509250929050565b6000602082840312156118e957600080fd5b60006118f784828501611848565b91505092915050565b60006020828403121561191257600080fd5b60006119208482850161185d565b91505092915050565b61193281611f25565b82525050565b6000611945601b83611dff565b915061195082612008565b602082019050919050565b6000611968601983611dff565b915061197382612031565b602082019050919050565b600061198b601483611dff565b91506119968261205a565b602082019050919050565b60006119ae601483611dff565b91506119b982612083565b602082019050919050565b60006119d1601483611dff565b91506119dc826120ac565b602082019050919050565b60006119f4602d83611dff565b91506119ff826120d5565b604082019050919050565b6000611a17601983611dff565b9150611a2282612124565b602082019050919050565b6000611a3a601883611dff565b9150611a458261214d565b602082019050919050565b6000611a5d601183611dff565b9150611a6882612176565b602082019050919050565b6000611a80602283611dff565b9150611a8b8261219f565b604082019050919050565b6000611aa3601183611dff565b9150611aae826121ee565b602082019050919050565b6000611ac6603783611dff565b9150611ad182612217565b604082019050919050565b6000611ae9601c83611dff565b9150611af482612266565b602082019050919050565b6000611b0c600f83611dff565b9150611b178261228f565b602082019050919050565b6000611b2f603383611dff565b9150611b3a826122b8565b604082019050919050565b6000611b52602583611dff565b9150611b5d82612307565b604082019050919050565b611b7181611f57565b82525050565b6000602082019050611b8c6000830184611929565b92915050565b6000604082019050611ba76000830185611929565b611bb46020830184611b68565b9392505050565b60006020820190508181036000830152611bd481611938565b9050919050565b60006020820190508181036000830152611bf48161195b565b9050919050565b60006020820190508181036000830152611c148161197e565b9050919050565b60006020820190508181036000830152611c34816119a1565b9050919050565b60006020820190508181036000830152611c54816119c4565b9050919050565b60006020820190508181036000830152611c74816119e7565b9050919050565b60006020820190508181036000830152611c9481611a0a565b9050919050565b60006020820190508181036000830152611cb481611a2d565b9050919050565b60006020820190508181036000830152611cd481611a50565b9050919050565b60006020820190508181036000830152611cf481611a73565b9050919050565b60006020820190508181036000830152611d1481611a96565b9050919050565b60006020820190508181036000830152611d3481611ab9565b9050919050565b60006020820190508181036000830152611d5481611adc565b9050919050565b60006020820190508181036000830152611d7481611aff565b9050919050565b60006020820190508181036000830152611d9481611b22565b9050919050565b60006020820190508181036000830152611db481611b45565b9050919050565b6000602082019050611dd06000830184611b68565b92915050565b6000604082019050611deb6000830185611b68565b611df86020830184611b68565b9392505050565b600082825260208201905092915050565b6000611e1b82611f57565b9150611e2683611f57565b9250827fffffffffffffffffffffffffffffffffffffffffffffffffffffffffffffffff03821115611e5b57611e5a611faa565b5b828201905092915050565b6000611e7182611f57565b9150611e7c83611f57565b925082611e8c57611e8b611fd9565b5b828204905092915050565b6000611ea282611f57565b9150611ead83611f57565b9250817fffffffffffffffffffffffffffffffffffffffffffffffffffffffffffffffff0483118215151615611ee657611ee5611faa565b5b828202905092915050565b6000611efc82611f57565b9150611f0783611f57565b925082821015611f1a57611f19611faa565b5b828203905092915050565b6000611f3082611f37565b9050919050565b600073ffffffffffffffffffffffffffffffffffffffff82169050919050565b6000819050919050565b6000611f6c82611f57565b91507fffffffffffffffffffffffffffffffffffffffffffffffffffffffffffffffff821415611f9f57611f9e611faa565b5b600182019050919050565b7f4e487b7100000000000000000000000000000000000000000000000000000000600052601160045260246000fd5b7f4e487b7100000000000000000000000000000000000000000000000000000000600052601260045260246000fd5b7f596f7520617265206e6f7420612076616c696420737461727475700000000000600082015250565b7f4d696e696d756d20616d6f756e742063616e2774206265203000000000000000600082015250565b7f416363657074616e636520636f6d706c65746564000000000000000000000000600082015250565b7f496e73756666696369656e742062616c616e6365000000000000000000000000600082015250565b7f53746172747570206973206e6f742076616c6964000000000000000000000000600082015250565b7f596f752063616e277420726563656976652066756e647320696620796f75206160008201527f7265206e6f742077696e6e657200000000000000000000000000000000000000602082015250565b7f46756e64696e67206973206e6f74206163746976652079657400000000000000600082015250565b7f46756e64696e67206973206e6f7420636f6d706c657465640000000000000000600082015250565b7f55736572206973206e6f742076616c6964000000000000000000000000000000600082015250565b7f456e756d657261626c654d61703a20696e646578206f7574206f6620626f756e60008201527f6473000000000000000000000000000000000000000000000000000000000000602082015250565b7f46756e64696e6720697320706175736564000000000000000000000000000000600082015250565b7f596f75206e65656420746f2073656e64206174206c656173742031207765692060008201527f746f20726567697374657220617320696e766573746f72000000000000000000602082015250565b7f537461727475702061646472657373206973206e6f742076616c696400000000600082015250565b7f456e642064617465207061737365640000000000000000000000000000000000600082015250565b7f456e642074696d652073686f756c6420626520626967676572207468656e203160008201527f35207365636f6e64206f662063757272656e7400000000000000000000000000602082015250565b7f4f6e6c79206f776e65722063616e20706572666f726d2074686973206f70657260008201527f6174696f6e000000000000000000000000000000000000000000000000000000602082015250565b61235f81611f25565b811461236a57600080fd5b50565b6004811061237a57600080fd5b50565b61238681611f57565b811461239157600080fd5b5056fea26469706673582212203ef10cfa58c4dffc359fa0949a262aa34ea71a134c01a08ab578159207e27edc64736f6c63430008040033",
  "linkReferences": {},
  "deployedLinkReferences": {}
}