{
  "_format": "hh-sol-artifact-1",
  "contractName": "CryptoFund",
  "sourceName": "contracts/CryptoFund.sol",
  "abi": [
    {
      "inputs": [],
      "stateMutability": "nonpayable",
      "type": "constructor"
    },
    {
      "inputs": [],
      "name": "claimInvestor",
      "outputs": [],
      "stateMutability": "payable",
      "type": "function"
    },
    {
      "inputs": [],
      "name": "claimStartupFund",
      "outputs": [],
      "stateMutability": "payable",
      "type": "function"
    },
    {
      "inputs": [],
      "name": "endDate",
      "outputs": [
        {
          "internalType": "uint256",
          "name": "",
          "type": "uint256"
        }
      ],
      "stateMutability": "view",
      "type": "function"
    },
    {
      "inputs": [
        {
          "internalType": "address",
          "name": "_startup",
          "type": "address"
        }
      ],
      "name": "getAmountOfProposal",
      "outputs": [
        {
          "internalType": "uint256",
          "name": "",
          "type": "uint256"
        }
      ],
      "stateMutability": "view",
      "type": "function"
    },
    {
      "inputs": [
        {
          "internalType": "uint256",
          "name": "index",
          "type": "uint256"
        }
      ],
      "name": "getUsersSelectedInvestment",
      "outputs": [
        {
          "internalType": "address",
          "name": "",
          "type": "address"
        },
        {
          "internalType": "uint256",
          "name": "",
          "type": "uint256"
        }
      ],
      "stateMutability": "view",
      "type": "function"
    },
    {
      "inputs": [
        {
          "internalType": "address",
          "name": "_startup",
          "type": "address"
        },
        {
          "internalType": "uint256",
          "name": "_amount",
          "type": "uint256"
        }
      ],
      "name": "investWithAddress",
      "outputs": [],
      "stateMutability": "nonpayable",
      "type": "function"
    },
    {
      "inputs": [
        {
          "internalType": "address",
          "name": "",
          "type": "address"
        }
      ],
      "name": "investors",
      "outputs": [
        {
          "internalType": "uint256",
          "name": "totalRegisterAmount",
          "type": "uint256"
        },
        {
          "internalType": "uint256",
          "name": "voteRightLeft",
          "type": "uint256"
        }
      ],
      "stateMutability": "view",
      "type": "function"
    },
    {
      "inputs": [],
      "name": "owner",
      "outputs": [
        {
          "internalType": "address",
          "name": "",
          "type": "address"
        }
      ],
      "stateMutability": "view",
      "type": "function"
    },
    {
      "inputs": [
        {
          "internalType": "uint256",
          "name": "proposalAmount",
          "type": "uint256"
        }
      ],
      "name": "registerStartup",
      "outputs": [],
      "stateMutability": "nonpayable",
      "type": "function"
    },
    {
      "inputs": [],
      "name": "registerUser",
      "outputs": [],
      "stateMutability": "payable",
      "type": "function"
    },
    {
      "inputs": [
        {
          "internalType": "enum CryptoFund.State",
          "name": "_st",
          "type": "uint8"
        }
      ],
      "name": "setActiveState",
      "outputs": [],
      "stateMutability": "nonpayable",
      "type": "function"
    },
    {
      "inputs": [
        {
          "internalType": "uint256",
          "name": "_endTime",
          "type": "uint256"
        }
      ],
      "name": "setEndTime",
      "outputs": [],
      "stateMutability": "nonpayable",
      "type": "function"
    },
    {
      "inputs": [
        {
          "internalType": "address",
          "name": "",
          "type": "address"
        }
      ],
      "name": "startups",
      "outputs": [
        {
          "internalType": "uint256",
          "name": "requestedAmount",
          "type": "uint256"
        },
        {
          "internalType": "uint256",
          "name": "totalFunded",
          "type": "uint256"
        }
      ],
      "stateMutability": "view",
      "type": "function"
    },
    {
      "inputs": [],
      "name": "winner",
      "outputs": [
        {
          "internalType": "address",
          "name": "",
          "type": "address"
        }
      ],
      "stateMutability": "view",
      "type": "function"
    }
  ],
  "bytecode": "0x608060405234801561001057600080fd5b5033600360006101000a81548173ffffffffffffffffffffffffffffffffffffffff021916908373ffffffffffffffffffffffffffffffffffffffff1602179055506123b2806100616000396000f3fe6080604052600436106100dd5760003560e01c80638da5cb5b1161007f578063c24a0f8b11610059578063c24a0f8b14610293578063ccb98ffc146102be578063dfbf53ae146102e7578063dfc28c6b14610312576100dd565b80638da5cb5b1461020157806394f3fa9e1461022c578063b82e412c14610255576100dd565b80634d3820eb116100bb5780634d3820eb146101715780635657da341461017b5780636f7bc9be146101b95780638a237ac5146101f7576100dd565b806310cdde21146100e25780634512d0ad1461010b5780634904aa8a14610148575b600080fd5b3480156100ee57600080fd5b5061010960048036038101906101049190611883565b61031c565b005b34801561011757600080fd5b50610132600480360381019061012d919061185a565b61074f565b60405161013f9190611da3565b60405180910390f35b34801561015457600080fd5b5061016f600480360381019061016a91906118bf565b6107e3565b005b6101796108c6565b005b34801561018757600080fd5b506101a2600480360381019061019d91906118e8565b610a5b565b6040516101b0929190611b7a565b60405180910390f35b3480156101c557600080fd5b506101e060048036038101906101db919061185a565b610abe565b6040516101ee929190611dbe565b60405180910390f35b6101ff610ae2565b005b34801561020d57600080fd5b50610216610ec0565b6040516102239190611b5f565b60405180910390f35b34801561023857600080fd5b50610253600480360381019061024e91906118e8565b610ee6565b005b34801561026157600080fd5b5061027c6004803603810190610277919061185a565b611060565b60405161028a929190611dbe565b60405180910390f35b34801561029f57600080fd5b506102a8611084565b6040516102b59190611da3565b60405180910390f35b3480156102ca57600080fd5b506102e560048036038101906102e091906118e8565b61108a565b005b3480156102f357600080fd5b506102fc6111c2565b6040516103099190611b5f565b60405180910390f35b61031a6111e8565b005b60016003811115610356577f4e487b7100000000000000000000000000000000000000000000000000000000600052602160045260246000fd5b600160009054906101000a900460ff16600381111561039e577f4e487b7100000000000000000000000000000000000000000000000000000000600052602160045260246000fd5b146103de576040517f08c379a00000000000000000000000000000000000000000000000000000000081526004016103d590611c63565b60405180910390fd5b4260005411610422576040517f08c379a000000000000000000000000000000000000000000000000000000000815260040161041990611d43565b60405180910390fd5b61042b82611458565b61046a576040517f08c379a000000000000000000000000000000000000000000000000000000000815260040161046190611c23565b60405180910390fd5b600560003373ffffffffffffffffffffffffffffffffffffffff1673ffffffffffffffffffffffffffffffffffffffff168152602001908152602001600020600101548111156104ef576040517f08c379a00000000000000000000000000000000000000000000000000000000081526004016104e690611c03565b60405180910390fd5b80600560003373ffffffffffffffffffffffffffffffffffffffff1673ffffffffffffffffffffffffffffffffffffffff16815260200190815260200160002060010160008282546105419190611ed9565b925050819055506000600660003373ffffffffffffffffffffffffffffffffffffffff1673ffffffffffffffffffffffffffffffffffffffff16815260200190815260200160002090506000806105a185846114ee90919063ffffffff16565b915091506105c58585836105b59190611df8565b856115309092919063ffffffff16565b5083600260008773ffffffffffffffffffffffffffffffffffffffff1673ffffffffffffffffffffffffffffffffffffffff16815260200190815260200160002060010160008282546106189190611df8565b92505081905550600073ffffffffffffffffffffffffffffffffffffffff16600460009054906101000a900473ffffffffffffffffffffffffffffffffffffffff1673ffffffffffffffffffffffffffffffffffffffff161480156107015750600260008673ffffffffffffffffffffffffffffffffffffffff1673ffffffffffffffffffffffffffffffffffffffff16815260200190815260200160002060000154600260008773ffffffffffffffffffffffffffffffffffffffff1673ffffffffffffffffffffffffffffffffffffffff1681526020019081526020016000206001015410155b156107485784600460006101000a81548173ffffffffffffffffffffffffffffffffffffffff021916908373ffffffffffffffffffffffffffffffffffffffff1602179055505b5050505050565b600061075a82611458565b610799576040517f08c379a000000000000000000000000000000000000000000000000000000000815260040161079090611d23565b60405180910390fd5b600260008373ffffffffffffffffffffffffffffffffffffffff1673ffffffffffffffffffffffffffffffffffffffff168152602001908152602001600020600001549050919050565b600360009054906101000a900473ffffffffffffffffffffffffffffffffffffffff1673ffffffffffffffffffffffffffffffffffffffff163373ffffffffffffffffffffffffffffffffffffffff1614610873576040517f08c379a000000000000000000000000000000000000000000000000000000000815260040161086a90611d83565b60405180910390fd5b80600160006101000a81548160ff021916908360038111156108be577f4e487b7100000000000000000000000000000000000000000000000000000000600052602160045260246000fd5b021790555050565b6003808111156108ff577f4e487b7100000000000000000000000000000000000000000000000000000000600052602160045260246000fd5b600160009054906101000a900460ff166003811115610947577f4e487b7100000000000000000000000000000000000000000000000000000000600052602160045260246000fd5b1415610988576040517f08c379a000000000000000000000000000000000000000000000000000000000815260040161097f90611ce3565b60405180910390fd5b600034116109cb576040517f08c379a00000000000000000000000000000000000000000000000000000000081526004016109c290611d03565b60405180910390fd5b34600560003373ffffffffffffffffffffffffffffffffffffffff1673ffffffffffffffffffffffffffffffffffffffff1681526020019081526020016000206000018190555034600560003373ffffffffffffffffffffffffffffffffffffffff1673ffffffffffffffffffffffffffffffffffffffff16815260200190815260200160002060010181905550565b6000806000600660003373ffffffffffffffffffffffffffffffffffffffff1673ffffffffffffffffffffffffffffffffffffffff1681526020019081526020016000209050610ab4848261156590919063ffffffff16565b9250925050915091565b60056020528060005260406000206000915090508060000154908060010154905082565b6000600660003373ffffffffffffffffffffffffffffffffffffffff1673ffffffffffffffffffffffffffffffffffffffff16815260200190815260200160002090506000600560003373ffffffffffffffffffffffffffffffffffffffff1673ffffffffffffffffffffffffffffffffffffffff1681526020019081526020016000206000015411610baa576040517f08c379a0000000000000000000000000000000000000000000000000000000008152600401610ba190611ca3565b60405180910390fd5b6000544211610bee576040517f08c379a0000000000000000000000000000000000000000000000000000000008152600401610be590611c83565b60405180910390fd5b6000600560003373ffffffffffffffffffffffffffffffffffffffff1673ffffffffffffffffffffffffffffffffffffffff1681526020019081526020016000206001015481610c3e9190611df8565b905060005b610c4c83611591565b811015610de457600080610c69838661156590919063ffffffff16565b91509150600460009054906101000a900473ffffffffffffffffffffffffffffffffffffffff1673ffffffffffffffffffffffffffffffffffffffff168273ffffffffffffffffffffffffffffffffffffffff161415610cd6578084610ccf9190611df8565b9350610dcf565b600060026000600460009054906101000a900473ffffffffffffffffffffffffffffffffffffffff1673ffffffffffffffffffffffffffffffffffffffff1673ffffffffffffffffffffffffffffffffffffffff16815260200190815260200160002060010154905060008183610d4d9190611e4e565b90508060026000600460009054906101000a900473ffffffffffffffffffffffffffffffffffffffff1673ffffffffffffffffffffffffffffffffffffffff1673ffffffffffffffffffffffffffffffffffffffff16815260200190815260200160002060000154610dbf9190611e7f565b86610dca9190611df8565b955050505b50508080610ddc90611f49565b915050610c43565b506000600560003373ffffffffffffffffffffffffffffffffffffffff1673ffffffffffffffffffffffffffffffffffffffff168152602001908152602001600020600001819055506000600560003373ffffffffffffffffffffffffffffffffffffffff1673ffffffffffffffffffffffffffffffffffffffff168152602001908152602001600020600101819055503373ffffffffffffffffffffffffffffffffffffffff166108fc829081150290604051600060405180830381858888f19350505050158015610ebb573d6000803e3d6000fd5b505050565b600360009054906101000a900473ffffffffffffffffffffffffffffffffffffffff1681565b60008111610f29576040517f08c379a0000000000000000000000000000000000000000000000000000000008152600401610f2090611ba3565b60405180910390fd5b60006003811115610f63577f4e487b7100000000000000000000000000000000000000000000000000000000600052602160045260246000fd5b600160009054906101000a900460ff166003811115610fab577f4e487b7100000000000000000000000000000000000000000000000000000000600052602160045260246000fd5b14610feb576040517f08c379a0000000000000000000000000000000000000000000000000000000008152600401610fe290611bc3565b60405180910390fd5b600060405180604001604052808381526020016000815250905080600260003373ffffffffffffffffffffffffffffffffffffffff1673ffffffffffffffffffffffffffffffffffffffff16815260200190815260200160002060008201518160000155602082015181600101559050505050565b60026020528060005260406000206000915090508060000154908060010154905082565b60005481565b600360009054906101000a900473ffffffffffffffffffffffffffffffffffffffff1673ffffffffffffffffffffffffffffffffffffffff163373ffffffffffffffffffffffffffffffffffffffff161461111a576040517f08c379a000000000000000000000000000000000000000000000000000000000815260040161111190611d83565b60405180910390fd5b600f811161115d576040517f08c379a000000000000000000000000000000000000000000000000000000000815260040161115490611d63565b60405180910390fd5b80426111699190611df8565b60008190555060018060006101000a81548160ff021916908360038111156111ba577f4e487b7100000000000000000000000000000000000000000000000000000000600052602160045260246000fd5b021790555050565b600460009054906101000a900473ffffffffffffffffffffffffffffffffffffffff1681565b600054421161122c576040517f08c379a000000000000000000000000000000000000000000000000000000000815260040161122390611c83565b60405180910390fd5b600460009054906101000a900473ffffffffffffffffffffffffffffffffffffffff1673ffffffffffffffffffffffffffffffffffffffff163373ffffffffffffffffffffffffffffffffffffffff16146112bc576040517f08c379a00000000000000000000000000000000000000000000000000000000081526004016112b390611c43565b60405180910390fd5b6000600260003373ffffffffffffffffffffffffffffffffffffffff1673ffffffffffffffffffffffffffffffffffffffff1681526020019081526020016000206000015411611341576040517f08c379a000000000000000000000000000000000000000000000000000000000815260040161133890611be3565b60405180910390fd5b6000600260003373ffffffffffffffffffffffffffffffffffffffff1673ffffffffffffffffffffffffffffffffffffffff16815260200190815260200160002060000181905550600460009054906101000a900473ffffffffffffffffffffffffffffffffffffffff1673ffffffffffffffffffffffffffffffffffffffff166108fc60026000600460009054906101000a900473ffffffffffffffffffffffffffffffffffffffff1673ffffffffffffffffffffffffffffffffffffffff1673ffffffffffffffffffffffffffffffffffffffff168152602001908152602001600020600001549081150290604051600060405180830381858888f19350505050158015611455573d6000803e3d6000fd5b50565b60008073ffffffffffffffffffffffffffffffffffffffff168273ffffffffffffffffffffffffffffffffffffffff1614806114d657506000600260003373ffffffffffffffffffffffffffffffffffffffff1673ffffffffffffffffffffffffffffffffffffffff16815260200190815260200160002060000154115b156114e457600090506114e9565b600190505b919050565b60008060008061151a866000018673ffffffffffffffffffffffffffffffffffffffff1660001b6115a6565b91509150818160001c9350935050509250929050565b600061155c846000018473ffffffffffffffffffffffffffffffffffffffff1660001b8460001b611648565b90509392505050565b600080600080611578866000018661175a565b915091508160001c8160001c9350935050509250929050565b600061159f8260000161180a565b9050919050565b600080600084600101600085815260200190815260200160002054905060008114156115df576000808060001b90509250925050611641565b6001856000016001836115f29190611ed9565b81548110611629577f4e487b7100000000000000000000000000000000000000000000000000000000600052603260045260246000fd5b90600052602060002090600202016001015492509250505b9250929050565b60008084600101600085815260200190815260200160002054905060008114156116ef57846000016040518060400160405280868152602001858152509080600181540180825580915050600190039060005260206000209060020201600090919091909150600082015181600001556020820151816001015550508460000180549050856001016000868152602001908152602001600020819055506001915050611753565b82856000016001836117019190611ed9565b81548110611738577f4e487b7100000000000000000000000000000000000000000000000000000000600052603260045260246000fd5b90600052602060002090600202016001018190555060009150505b9392505050565b600080828460000180549050116117a6576040517f08c379a000000000000000000000000000000000000000000000000000000000815260040161179d90611cc3565b60405180910390fd5b60008460000184815481106117e4577f4e487b7100000000000000000000000000000000000000000000000000000000600052603260045260246000fd5b906000526020600020906002020190508060000154816001015492509250509250929050565b600081600001805490509050919050565b60008135905061182a8161233e565b92915050565b60008135905061183f81612355565b92915050565b60008135905061185481612365565b92915050565b60006020828403121561186c57600080fd5b600061187a8482850161181b565b91505092915050565b6000806040838503121561189657600080fd5b60006118a48582860161181b565b92505060206118b585828601611845565b9150509250929050565b6000602082840312156118d157600080fd5b60006118df84828501611830565b91505092915050565b6000602082840312156118fa57600080fd5b600061190884828501611845565b91505092915050565b61191a81611f0d565b82525050565b600061192d601983611de7565b915061193882611ff0565b602082019050919050565b6000611950601483611de7565b915061195b82612019565b602082019050919050565b6000611973601f83611de7565b915061197e82612042565b602082019050919050565b6000611996601483611de7565b91506119a18261206b565b602082019050919050565b60006119b9601483611de7565b91506119c482612094565b602082019050919050565b60006119dc602d83611de7565b91506119e7826120bd565b604082019050919050565b60006119ff601983611de7565b9150611a0a8261210c565b602082019050919050565b6000611a22601883611de7565b9150611a2d82612135565b602082019050919050565b6000611a45601183611de7565b9150611a508261215e565b602082019050919050565b6000611a68602283611de7565b9150611a7382612187565b604082019050919050565b6000611a8b601183611de7565b9150611a96826121d6565b602082019050919050565b6000611aae603783611de7565b9150611ab9826121ff565b604082019050919050565b6000611ad1601c83611de7565b9150611adc8261224e565b602082019050919050565b6000611af4600f83611de7565b9150611aff82612277565b602082019050919050565b6000611b17603383611de7565b9150611b22826122a0565b604082019050919050565b6000611b3a602583611de7565b9150611b45826122ef565b604082019050919050565b611b5981611f3f565b82525050565b6000602082019050611b746000830184611911565b92915050565b6000604082019050611b8f6000830185611911565b611b9c6020830184611b50565b9392505050565b60006020820190508181036000830152611bbc81611920565b9050919050565b60006020820190508181036000830152611bdc81611943565b9050919050565b60006020820190508181036000830152611bfc81611966565b9050919050565b60006020820190508181036000830152611c1c81611989565b9050919050565b60006020820190508181036000830152611c3c816119ac565b9050919050565b60006020820190508181036000830152611c5c816119cf565b9050919050565b60006020820190508181036000830152611c7c816119f2565b9050919050565b60006020820190508181036000830152611c9c81611a15565b9050919050565b60006020820190508181036000830152611cbc81611a38565b9050919050565b60006020820190508181036000830152611cdc81611a5b565b9050919050565b60006020820190508181036000830152611cfc81611a7e565b9050919050565b60006020820190508181036000830152611d1c81611aa1565b9050919050565b60006020820190508181036000830152611d3c81611ac4565b9050919050565b60006020820190508181036000830152611d5c81611ae7565b9050919050565b60006020820190508181036000830152611d7c81611b0a565b9050919050565b60006020820190508181036000830152611d9c81611b2d565b9050919050565b6000602082019050611db86000830184611b50565b92915050565b6000604082019050611dd36000830185611b50565b611de06020830184611b50565b9392505050565b600082825260208201905092915050565b6000611e0382611f3f565b9150611e0e83611f3f565b9250827fffffffffffffffffffffffffffffffffffffffffffffffffffffffffffffffff03821115611e4357611e42611f92565b5b828201905092915050565b6000611e5982611f3f565b9150611e6483611f3f565b925082611e7457611e73611fc1565b5b828204905092915050565b6000611e8a82611f3f565b9150611e9583611f3f565b9250817fffffffffffffffffffffffffffffffffffffffffffffffffffffffffffffffff0483118215151615611ece57611ecd611f92565b5b828202905092915050565b6000611ee482611f3f565b9150611eef83611f3f565b925082821015611f0257611f01611f92565b5b828203905092915050565b6000611f1882611f1f565b9050919050565b600073ffffffffffffffffffffffffffffffffffffffff82169050919050565b6000819050919050565b6000611f5482611f3f565b91507fffffffffffffffffffffffffffffffffffffffffffffffffffffffffffffffff821415611f8757611f86611f92565b5b600182019050919050565b7f4e487b7100000000000000000000000000000000000000000000000000000000600052601160045260246000fd5b7f4e487b7100000000000000000000000000000000000000000000000000000000600052601260045260246000fd5b7f4d696e696d756d20616d6f756e742063616e2774206265203000000000000000600082015250565b7f416363657074616e636520636f6d706c65746564000000000000000000000000600082015250565b7f57696e6e657220616c72656164792077697468647261776564207072697a6500600082015250565b7f496e73756666696369656e742062616c616e6365000000000000000000000000600082015250565b7f53746172747570206973206e6f742076616c6964000000000000000000000000600082015250565b7f596f752063616e277420726563656976652066756e647320696620796f75206160008201527f7265206e6f742077696e6e657200000000000000000000000000000000000000602082015250565b7f46756e64696e67206973206e6f74206163746976652079657400000000000000600082015250565b7f46756e64696e67206973206e6f7420636f6d706c657465640000000000000000600082015250565b7f55736572206973206e6f742076616c6964000000000000000000000000000000600082015250565b7f456e756d657261626c654d61703a20696e646578206f7574206f6620626f756e60008201527f6473000000000000000000000000000000000000000000000000000000000000602082015250565b7f46756e64696e6720697320706175736564000000000000000000000000000000600082015250565b7f596f75206e65656420746f2073656e64206174206c656173742031207765692060008201527f746f20726567697374657220617320696e766573746f72000000000000000000602082015250565b7f537461727475702061646472657373206973206e6f742076616c696400000000600082015250565b7f456e642064617465207061737365640000000000000000000000000000000000600082015250565b7f456e642074696d652073686f756c6420626520626967676572207468656e203160008201527f35207365636f6e64206f662063757272656e7400000000000000000000000000602082015250565b7f4f6e6c79206f776e65722063616e20706572666f726d2074686973206f70657260008201527f6174696f6e000000000000000000000000000000000000000000000000000000602082015250565b61234781611f0d565b811461235257600080fd5b50565b6004811061236257600080fd5b50565b61236e81611f3f565b811461237957600080fd5b5056fea2646970667358221220df166c913d0d95d7ee685840c8adc4cd9df506eecb4de51a773702aac910a23364736f6c63430008040033",
  "linkReferences": {},
  "deployedLinkReferences": {}
}