{
  "_format": "hh-sol-artifact-1",
  "contractName": "ConversionTest",
  "sourceName": "contracts/learn/ConversionTests.sol",
  "abi": [
    {
      "inputs": [
        {
          "internalType": "address",
          "name": "test",
          "type": "address"
        }
      ],
      "name": "abiEncode",
      "outputs": [
        {
          "internalType": "bytes32",
          "name": "",
          "type": "bytes32"
        }
      ],
      "stateMutability": "pure",
      "type": "function"
    },
    {
      "inputs": [
        {
          "internalType": "bytes32",
          "name": "addr",
          "type": "bytes32"
        }
      ],
      "name": "bytesToAddr",
      "outputs": [
        {
          "internalType": "address",
          "name": "",
          "type": "address"
        }
      ],
      "stateMutability": "pure",
      "type": "function"
    },
    {
      "inputs": [],
      "name": "callTest",
      "outputs": [
        {
          "internalType": "uint256",
          "name": "",
          "type": "uint256"
        }
      ],
      "stateMutability": "view",
      "type": "function"
    },
    {
      "inputs": [
        {
          "internalType": "address",
          "name": "test",
          "type": "address"
        }
      ],
      "name": "getAddrToInt",
      "outputs": [
        {
          "internalType": "bytes32",
          "name": "",
          "type": "bytes32"
        }
      ],
      "stateMutability": "pure",
      "type": "function"
    },
    {
      "inputs": [
        {
          "internalType": "uint256",
          "name": "test",
          "type": "uint256"
        }
      ],
      "name": "getIntToBytes",
      "outputs": [
        {
          "internalType": "bytes32",
          "name": "",
          "type": "bytes32"
        }
      ],
      "stateMutability": "pure",
      "type": "function"
    },
    {
      "inputs": [
        {
          "internalType": "uint256",
          "name": "",
          "type": "uint256"
        }
      ],
      "name": "values",
      "outputs": [
        {
          "internalType": "uint256",
          "name": "b",
          "type": "uint256"
        },
        {
          "internalType": "uint256",
          "name": "c",
          "type": "uint256"
        }
      ],
      "stateMutability": "view",
      "type": "function"
    }
  ],
  "bytecode": "0x608060405234801561001057600080fd5b50610467806100206000396000f3fe608060405234801561001057600080fd5b50600436106100625760003560e01c806321615e9c146100675780635e383d21146100855780636be56f60146100b657806383eb93b0146100e65780638ebf7b3914610116578063d42fa12814610146575b600080fd5b61006f610176565b60405161007c9190610362565b60405180910390f35b61009f600480360381019061009a91906102d6565b6101b1565b6040516100ad92919061037d565b60405180910390f35b6100d060048036038101906100cb91906102d6565b6101e5565b6040516100dd9190610347565b60405180910390f35b61010060048036038101906100fb9190610284565b6101f2565b60405161010d9190610347565b60405180910390f35b610130600480360381019061012b91906102ad565b610215565b60405161013d919061032c565b60405180910390f35b610160600480360381019061015b9190610284565b610222565b60405161016d9190610347565b60405180910390f35b6000600160007f48656c6c6f576f726c6400000000000000000000000000000000000000000000815260200190815260200160002054905090565b600081815481106101c157600080fd5b90600052602060002090600202016000915090508060000154908060010154905082565b60008160001b9050919050565b60008173ffffffffffffffffffffffffffffffffffffffff1660001b9050919050565b60008160001c9050919050565b60008173ffffffffffffffffffffffffffffffffffffffff1660001b9050919050565b600081359050610254816103ec565b92915050565b60008135905061026981610403565b92915050565b60008135905061027e8161041a565b92915050565b60006020828403121561029657600080fd5b60006102a484828501610245565b91505092915050565b6000602082840312156102bf57600080fd5b60006102cd8482850161025a565b91505092915050565b6000602082840312156102e857600080fd5b60006102f68482850161026f565b91505092915050565b610308816103a6565b82525050565b610317816103b8565b82525050565b610326816103e2565b82525050565b600060208201905061034160008301846102ff565b92915050565b600060208201905061035c600083018461030e565b92915050565b6000602082019050610377600083018461031d565b92915050565b6000604082019050610392600083018561031d565b61039f602083018461031d565b9392505050565b60006103b1826103c2565b9050919050565b6000819050919050565b600073ffffffffffffffffffffffffffffffffffffffff82169050919050565b6000819050919050565b6103f5816103a6565b811461040057600080fd5b50565b61040c816103b8565b811461041757600080fd5b50565b610423816103e2565b811461042e57600080fd5b5056fea264697066735822122098bc38186f54bada3062a4a036fbf651d794b5b58328580c84c879b2c6854b2264736f6c63430008040033",
  "linkReferences": {},
  "deployedLinkReferences": {}
}