{
  "_format": "hh-sol-artifact-1",
  "contractName": "Storage",
  "sourceName": "contracts/Storage.sol",
  "abi": [
    {
      "inputs": [],
      "stateMutability": "nonpayable",
      "type": "constructor"
    },
    {
      "inputs": [
        {
          "internalType": "address",
          "name": "_user",
          "type": "address"
        }
      ],
      "name": "getBalance",
      "outputs": [
        {
          "internalType": "uint256",
          "name": "",
          "type": "uint256"
        }
      ],
      "stateMutability": "view",
      "type": "function"
    },
    {
      "inputs": [
        {
          "internalType": "address",
          "name": "_to",
          "type": "address"
        },
        {
          "internalType": "uint256",
          "name": "_amount",
          "type": "uint256"
        }
      ],
      "name": "setBalance",
      "outputs": [],
      "stateMutability": "nonpayable",
      "type": "function"
    },
    {
      "inputs": [
        {
          "internalType": "address",
          "name": "_newOwner",
          "type": "address"
        }
      ],
      "name": "setOwner",
      "outputs": [],
      "stateMutability": "nonpayable",
      "type": "function"
    }
  ],
  "bytecode": "0x608060405234801561001057600080fd5b5033600260006101000a81548173ffffffffffffffffffffffffffffffffffffffff021916908373ffffffffffffffffffffffffffffffffffffffff1602179055506105ad806100616000396000f3fe608060405234801561001057600080fd5b50600436106100415760003560e01c806313af403514610046578063e30443bc14610062578063f8b2cb4f1461007e575b600080fd5b610060600480360381019061005b9190610395565b6100ae565b005b61007c600480360381019061007791906103be565b610182565b005b61009860048036038101906100939190610395565b610293565b6040516100a5919061048f565b60405180910390f35b600260009054906101000a900473ffffffffffffffffffffffffffffffffffffffff1673ffffffffffffffffffffffffffffffffffffffff163373ffffffffffffffffffffffffffffffffffffffff161461013e576040517f08c379a00000000000000000000000000000000000000000000000000000000081526004016101359061044f565b60405180910390fd5b80600260006101000a81548173ffffffffffffffffffffffffffffffffffffffff021916908373ffffffffffffffffffffffffffffffffffffffff16021790555050565b600160009054906101000a900473ffffffffffffffffffffffffffffffffffffffff1673ffffffffffffffffffffffffffffffffffffffff163373ffffffffffffffffffffffffffffffffffffffff1614610212576040517f08c379a00000000000000000000000000000000000000000000000000000000081526004016102099061046f565b60405180910390fd5b600073ffffffffffffffffffffffffffffffffffffffff168273ffffffffffffffffffffffffffffffffffffffff16141561024c57600080fd5b806000808473ffffffffffffffffffffffffffffffffffffffff1673ffffffffffffffffffffffffffffffffffffffff168152602001908152602001600020819055505050565b6000600160009054906101000a900473ffffffffffffffffffffffffffffffffffffffff1673ffffffffffffffffffffffffffffffffffffffff163373ffffffffffffffffffffffffffffffffffffffff1614610325576040517f08c379a000000000000000000000000000000000000000000000000000000000815260040161031c9061046f565b60405180910390fd5b6000808373ffffffffffffffffffffffffffffffffffffffff1673ffffffffffffffffffffffffffffffffffffffff168152602001908152602001600020549050919050565b60008135905061037a81610549565b92915050565b60008135905061038f81610560565b92915050565b6000602082840312156103a757600080fd5b60006103b58482850161036b565b91505092915050565b600080604083850312156103d157600080fd5b60006103df8582860161036b565b92505060206103f085828601610380565b9150509250929050565b60006104076011836104aa565b9150610412826104f7565b602082019050919050565b600061042a6011836104aa565b915061043582610520565b602082019050919050565b610449816104ed565b82525050565b60006020820190508181036000830152610468816103fa565b9050919050565b600060208201905081810360008301526104888161041d565b9050919050565b60006020820190506104a46000830184610440565b92915050565b600082825260208201905092915050565b60006104c6826104cd565b9050919050565b600073ffffffffffffffffffffffffffffffffffffffff82169050919050565b6000819050919050565b7f596f7520617265206e6f742061646d696e000000000000000000000000000000600082015250565b7f596f7520617265206e6f74206f776e6572000000000000000000000000000000600082015250565b610552816104bb565b811461055d57600080fd5b50565b610569816104ed565b811461057457600080fd5b5056fea26469706673582212200f07cc89acf4128f6bad855ed304e558e54d510a313e789e7e183621a9bddd8c64736f6c63430008040033",
  "linkReferences": {},
  "deployedLinkReferences": {}
}