{
  "_format": "hh-sol-artifact-1",
  "contractName": "TimeDay0",
  "sourceName": "contracts/TimeDay0.sol",
  "abi": [
    {
      "inputs": [
        {
          "internalType": "uint256",
          "name": "_salesPrice",
          "type": "uint256"
        }
      ],
      "stateMutability": "nonpayable",
      "type": "constructor"
    },
    {
      "anonymous": false,
      "inputs": [
        {
          "indexed": true,
          "internalType": "address",
          "name": "owner",
          "type": "address"
        },
        {
          "indexed": true,
          "internalType": "address",
          "name": "approved",
          "type": "address"
        },
        {
          "indexed": true,
          "internalType": "uint256",
          "name": "tokenId",
          "type": "uint256"
        }
      ],
      "name": "Approval",
      "type": "event"
    },
    {
      "anonymous": false,
      "inputs": [
        {
          "indexed": true,
          "internalType": "address",
          "name": "owner",
          "type": "address"
        },
        {
          "indexed": true,
          "internalType": "address",
          "name": "operator",
          "type": "address"
        },
        {
          "indexed": false,
          "internalType": "bool",
          "name": "approved",
          "type": "bool"
        }
      ],
      "name": "ApprovalForAll",
      "type": "event"
    },
    {
      "anonymous": false,
      "inputs": [
        {
          "indexed": true,
          "internalType": "address",
          "name": "previousOwner",
          "type": "address"
        },
        {
          "indexed": true,
          "internalType": "address",
          "name": "newOwner",
          "type": "address"
        }
      ],
      "name": "OwnershipTransferred",
      "type": "event"
    },
    {
      "anonymous": false,
      "inputs": [
        {
          "indexed": false,
          "internalType": "address",
          "name": "account",
          "type": "address"
        }
      ],
      "name": "Paused",
      "type": "event"
    },
    {
      "anonymous": false,
      "inputs": [
        {
          "indexed": true,
          "internalType": "address",
          "name": "from",
          "type": "address"
        },
        {
          "indexed": true,
          "internalType": "address",
          "name": "to",
          "type": "address"
        },
        {
          "indexed": true,
          "internalType": "uint256",
          "name": "tokenId",
          "type": "uint256"
        }
      ],
      "name": "Transfer",
      "type": "event"
    },
    {
      "anonymous": false,
      "inputs": [
        {
          "indexed": false,
          "internalType": "address",
          "name": "account",
          "type": "address"
        }
      ],
      "name": "Unpaused",
      "type": "event"
    },
    {
      "inputs": [
        {
          "internalType": "address",
          "name": "to",
          "type": "address"
        },
        {
          "internalType": "uint256",
          "name": "tokenId",
          "type": "uint256"
        }
      ],
      "name": "approve",
      "outputs": [],
      "stateMutability": "nonpayable",
      "type": "function"
    },
    {
      "inputs": [
        {
          "internalType": "address",
          "name": "owner",
          "type": "address"
        }
      ],
      "name": "balanceOf",
      "outputs": [
        {
          "internalType": "uint256",
          "name": "",
          "type": "uint256"
        }
      ],
      "stateMutability": "view",
      "type": "function"
    },
    {
      "inputs": [
        {
          "internalType": "uint256",
          "name": "_tokenId",
          "type": "uint256"
        }
      ],
      "name": "burnNotOwned",
      "outputs": [],
      "stateMutability": "nonpayable",
      "type": "function"
    },
    {
      "inputs": [
        {
          "internalType": "uint256",
          "name": "",
          "type": "uint256"
        }
      ],
      "name": "burned",
      "outputs": [
        {
          "internalType": "bool",
          "name": "",
          "type": "bool"
        }
      ],
      "stateMutability": "view",
      "type": "function"
    },
    {
      "inputs": [
        {
          "internalType": "uint256",
          "name": "_id",
          "type": "uint256"
        }
      ],
      "name": "claim",
      "outputs": [],
      "stateMutability": "payable",
      "type": "function"
    },
    {
      "inputs": [
        {
          "internalType": "uint256",
          "name": "tokenId",
          "type": "uint256"
        }
      ],
      "name": "getApproved",
      "outputs": [
        {
          "internalType": "address",
          "name": "",
          "type": "address"
        }
      ],
      "stateMutability": "view",
      "type": "function"
    },
    {
      "inputs": [
        {
          "internalType": "address",
          "name": "owner",
          "type": "address"
        },
        {
          "internalType": "address",
          "name": "operator",
          "type": "address"
        }
      ],
      "name": "isApprovedForAll",
      "outputs": [
        {
          "internalType": "bool",
          "name": "",
          "type": "bool"
        }
      ],
      "stateMutability": "view",
      "type": "function"
    },
    {
      "inputs": [],
      "name": "name",
      "outputs": [
        {
          "internalType": "string",
          "name": "",
          "type": "string"
        }
      ],
      "stateMutability": "view",
      "type": "function"
    },
    {
      "inputs": [],
      "name": "owner",
      "outputs": [
        {
          "internalType": "address",
          "name": "",
          "type": "address"
        }
      ],
      "stateMutability": "view",
      "type": "function"
    },
    {
      "inputs": [
        {
          "internalType": "uint256",
          "name": "_tokenId",
          "type": "uint256"
        }
      ],
      "name": "ownerMint",
      "outputs": [],
      "stateMutability": "nonpayable",
      "type": "function"
    },
    {
      "inputs": [
        {
          "internalType": "uint256",
          "name": "tokenId",
          "type": "uint256"
        }
      ],
      "name": "ownerOf",
      "outputs": [
        {
          "internalType": "address",
          "name": "",
          "type": "address"
        }
      ],
      "stateMutability": "view",
      "type": "function"
    },
    {
      "inputs": [],
      "name": "pause",
      "outputs": [],
      "stateMutability": "nonpayable",
      "type": "function"
    },
    {
      "inputs": [],
      "name": "paused",
      "outputs": [
        {
          "internalType": "bool",
          "name": "",
          "type": "bool"
        }
      ],
      "stateMutability": "view",
      "type": "function"
    },
    {
      "inputs": [],
      "name": "renounceOwnership",
      "outputs": [],
      "stateMutability": "nonpayable",
      "type": "function"
    },
    {
      "inputs": [
        {
          "internalType": "address",
          "name": "from",
          "type": "address"
        },
        {
          "internalType": "address",
          "name": "to",
          "type": "address"
        },
        {
          "internalType": "uint256",
          "name": "tokenId",
          "type": "uint256"
        }
      ],
      "name": "safeTransferFrom",
      "outputs": [],
      "stateMutability": "nonpayable",
      "type": "function"
    },
    {
      "inputs": [
        {
          "internalType": "address",
          "name": "from",
          "type": "address"
        },
        {
          "internalType": "address",
          "name": "to",
          "type": "address"
        },
        {
          "internalType": "uint256",
          "name": "tokenId",
          "type": "uint256"
        },
        {
          "internalType": "bytes",
          "name": "_data",
          "type": "bytes"
        }
      ],
      "name": "safeTransferFrom",
      "outputs": [],
      "stateMutability": "nonpayable",
      "type": "function"
    },
    {
      "inputs": [],
      "name": "salesPrice",
      "outputs": [
        {
          "internalType": "uint256",
          "name": "",
          "type": "uint256"
        }
      ],
      "stateMutability": "view",
      "type": "function"
    },
    {
      "inputs": [
        {
          "internalType": "address",
          "name": "operator",
          "type": "address"
        },
        {
          "internalType": "bool",
          "name": "approved",
          "type": "bool"
        }
      ],
      "name": "setApprovalForAll",
      "outputs": [],
      "stateMutability": "nonpayable",
      "type": "function"
    },
    {
      "inputs": [
        {
          "internalType": "bytes4",
          "name": "interfaceId",
          "type": "bytes4"
        }
      ],
      "name": "supportsInterface",
      "outputs": [
        {
          "internalType": "bool",
          "name": "",
          "type": "bool"
        }
      ],
      "stateMutability": "view",
      "type": "function"
    },
    {
      "inputs": [],
      "name": "symbol",
      "outputs": [
        {
          "internalType": "string",
          "name": "",
          "type": "string"
        }
      ],
      "stateMutability": "view",
      "type": "function"
    },
    {
      "inputs": [
        {
          "internalType": "uint256",
          "name": "tokenId",
          "type": "uint256"
        }
      ],
      "name": "tokenURI",
      "outputs": [
        {
          "internalType": "string",
          "name": "",
          "type": "string"
        }
      ],
      "stateMutability": "pure",
      "type": "function"
    },
    {
      "inputs": [],
      "name": "totalSupply",
      "outputs": [
        {
          "internalType": "uint256",
          "name": "",
          "type": "uint256"
        }
      ],
      "stateMutability": "view",
      "type": "function"
    },
    {
      "inputs": [
        {
          "internalType": "address",
          "name": "from",
          "type": "address"
        },
        {
          "internalType": "address",
          "name": "to",
          "type": "address"
        },
        {
          "internalType": "uint256",
          "name": "tokenId",
          "type": "uint256"
        }
      ],
      "name": "transferFrom",
      "outputs": [],
      "stateMutability": "nonpayable",
      "type": "function"
    },
    {
      "inputs": [
        {
          "internalType": "address",
          "name": "newOwner",
          "type": "address"
        }
      ],
      "name": "transferOwnership",
      "outputs": [],
      "stateMutability": "nonpayable",
      "type": "function"
    },
    {
      "inputs": [],
      "name": "unpause",
      "outputs": [],
      "stateMutability": "nonpayable",
      "type": "function"
    },
    {
      "inputs": [
        {
          "internalType": "uint256",
          "name": "_newPrice",
          "type": "uint256"
        }
      ],
      "name": "updatePrice",
      "outputs": [],
      "stateMutability": "nonpayable",
      "type": "function"
    }
  ],
  "bytecode": "0x60806040523480156200001157600080fd5b50604051620069e8380380620069e88339818101604052810190620000379190620002bd565b6040518060400160405280600881526020017f446179205a45524f0000000000000000000000000000000000000000000000008152506040518060400160405280600481526020017f54494d45000000000000000000000000000000000000000000000000000000008152508160049080519060200190620000bb929190620001f6565b508060059080519060200190620000d4929190620001f6565b505050620000f7620000eb6200012860201b60201c565b6200013060201b60201c565b6000600960146101000a81548160ff0219169083151502179055506001600a8190555080600b819055505062000372565b600033905090565b6000600960009054906101000a900473ffffffffffffffffffffffffffffffffffffffff16905081600960006101000a81548173ffffffffffffffffffffffffffffffffffffffff021916908373ffffffffffffffffffffffffffffffffffffffff1602179055508173ffffffffffffffffffffffffffffffffffffffff168173ffffffffffffffffffffffffffffffffffffffff167f8be0079c531659141344cd1fd0a4f28419497f9722a3daafe3b4186f6b6457e060405160405180910390a35050565b8280546200020490620002f3565b90600052602060002090601f01602090048101928262000228576000855562000274565b82601f106200024357805160ff191683800117855562000274565b8280016001018555821562000274579182015b828111156200027357825182559160200191906001019062000256565b5b50905062000283919062000287565b5090565b5b80821115620002a257600081600090555060010162000288565b5090565b600081519050620002b78162000358565b92915050565b600060208284031215620002d057600080fd5b6000620002e084828501620002a6565b91505092915050565b6000819050919050565b600060028204905060018216806200030c57607f821691505b6020821081141562000323576200032262000329565b5b50919050565b7f4e487b7100000000000000000000000000000000000000000000000000000000600052602260045260246000fd5b6200036381620002e9565b81146200036f57600080fd5b50565b61666680620003826000396000f3fe6080604052600436106101815760003560e01c8063715018a6116100d15780639d284ce91161008a578063c87b56dd11610064578063c87b56dd14610539578063e985e9c514610576578063f19e75d4146105b3578063f2fde38b146105dc57610181565b80639d284ce9146104bc578063a22cb465146104e7578063b88d4fde1461051057610181565b8063715018a6146103e657806373bf8d23146103fd5780638456cb59146104265780638d6cc56d1461043d5780638da5cb5b1461046657806395d89b411461049157610181565b806323b872dd1161013e57806342842e0e1161011857806342842e0e146103185780635c975abb146103415780636352211e1461036c57806370a08231146103a957610181565b806323b872dd146102bc578063379607f5146102e55780633f4ba83a1461030157610181565b806301ffc9a71461018657806306fdde03146101c3578063081812fc146101ee578063095ea7b31461022b57806318160ddd1461025457806323250cae1461027f575b600080fd5b34801561019257600080fd5b506101ad60048036038101906101a891906140cc565b610605565b6040516101ba919061489b565b60405180910390f35b3480156101cf57600080fd5b506101d86106e7565b6040516101e591906148b6565b60405180910390f35b3480156101fa57600080fd5b506102156004803603810190610210919061411e565b610779565b6040516102229190614834565b60405180910390f35b34801561023757600080fd5b50610252600480360381019061024d9190614090565b6107fe565b005b34801561026057600080fd5b50610269610916565b6040516102769190614b38565b60405180910390f35b34801561028b57600080fd5b506102a660048036038101906102a1919061411e565b61091c565b6040516102b3919061489b565b60405180910390f35b3480156102c857600080fd5b506102e360048036038101906102de9190613f8a565b61093c565b005b6102ff60048036038101906102fa919061411e565b61099c565b005b34801561030d57600080fd5b50610316610ad2565b005b34801561032457600080fd5b5061033f600480360381019061033a9190613f8a565b610b58565b005b34801561034d57600080fd5b50610356610b78565b604051610363919061489b565b60405180910390f35b34801561037857600080fd5b50610393600480360381019061038e919061411e565b610b8f565b6040516103a09190614834565b60405180910390f35b3480156103b557600080fd5b506103d060048036038101906103cb9190613f25565b610c58565b6040516103dd9190614b38565b60405180910390f35b3480156103f257600080fd5b506103fb610d10565b005b34801561040957600080fd5b50610424600480360381019061041f919061411e565b610d98565b005b34801561043257600080fd5b5061043b610e8c565b005b34801561044957600080fd5b50610464600480360381019061045f919061411e565b610f12565b005b34801561047257600080fd5b5061047b610f98565b6040516104889190614834565b60405180910390f35b34801561049d57600080fd5b506104a6610fc2565b6040516104b391906148b6565b60405180910390f35b3480156104c857600080fd5b506104d1611054565b6040516104de9190614b38565b60405180910390f35b3480156104f357600080fd5b5061050e60048036038101906105099190614054565b61105a565b005b34801561051c57600080fd5b5061053760048036038101906105329190613fd9565b6111db565b005b34801561054557600080fd5b50610560600480360381019061055b919061411e565b61123d565b60405161056d91906148b6565b60405180910390f35b34801561058257600080fd5b5061059d60048036038101906105989190613f4e565b6112ac565b6040516105aa919061489b565b60405180910390f35b3480156105bf57600080fd5b506105da60048036038101906105d5919061411e565b611340565b005b3480156105e857600080fd5b5061060360048036038101906105fe9190613f25565b6113bf565b005b60007f80ac58cd000000000000000000000000000000000000000000000000000000007bffffffffffffffffffffffffffffffffffffffffffffffffffffffff1916827bffffffffffffffffffffffffffffffffffffffffffffffffffffffff191614806106d057507f5b5e139f000000000000000000000000000000000000000000000000000000007bffffffffffffffffffffffffffffffffffffffffffffffffffffffff1916827bffffffffffffffffffffffffffffffffffffffffffffffffffffffff1916145b806106e057506106df826114b7565b5b9050919050565b6060600480546106f690614df5565b80601f016020809104026020016040519081016040528092919081815260200182805461072290614df5565b801561076f5780601f106107445761010080835404028352916020019161076f565b820191906000526020600020905b81548152906001019060200180831161075257829003601f168201915b5050505050905090565b600061078482611521565b6107c3576040517f08c379a00000000000000000000000000000000000000000000000000000000081526004016107ba90614a78565b60405180910390fd5b6007600083815260200190815260200160002060009054906101000a900473ffffffffffffffffffffffffffffffffffffffff169050919050565b600061080982610b8f565b90508073ffffffffffffffffffffffffffffffffffffffff168373ffffffffffffffffffffffffffffffffffffffff16141561087a576040517f08c379a000000000000000000000000000000000000000000000000000000000815260040161087190614ad8565b60405180910390fd5b8073ffffffffffffffffffffffffffffffffffffffff1661089961153e565b73ffffffffffffffffffffffffffffffffffffffff1614806108c857506108c7816108c261153e565b6112ac565b5b610907576040517f08c379a00000000000000000000000000000000000000000000000000000000081526004016108fe906149f8565b60405180910390fd5b6109118383611546565b505050565b6105a081565b60036020528060005260406000206000915054906101000a900460ff1681565b61094d61094761153e565b826115ff565b61098c576040517f08c379a000000000000000000000000000000000000000000000000000000000815260040161098390614af8565b60405180910390fd5b6109978383836116dd565b505050565b6002600a5414156109e2576040517f08c379a00000000000000000000000000000000000000000000000000000000081526004016109d990614b18565b60405180910390fd5b6002600a819055506000811015806109fc57506105a08111155b610a0557600080fd5b6003600082815260200190815260200160002060009054906101000a900460ff1615610a3057600080fd5b600073ffffffffffffffffffffffffffffffffffffffff16610a5182610b8f565b73ffffffffffffffffffffffffffffffffffffffff1614610a7157600080fd5b600b54341015610ab6576040517f08c379a0000000000000000000000000000000000000000000000000000000008152600401610aad90614978565b60405180910390fd5b610ac7610ac161153e565b826118fe565b6001600a8190555050565b610ada61153e565b73ffffffffffffffffffffffffffffffffffffffff16610af8610f98565b73ffffffffffffffffffffffffffffffffffffffff1614610b4e576040517f08c379a0000000000000000000000000000000000000000000000000000000008152600401610b4590614a98565b60405180910390fd5b610b5661191c565b565b610b73838383604051806020016040528060008152506111db565b505050565b6000600960149054906101000a900460ff16905090565b600080610bdd836040518060400160405280601281526020017f4e6f6e206578697374656e6420746f6b656e000000000000000000000000000081525060016119be9092919063ffffffff16565b9050600073ffffffffffffffffffffffffffffffffffffffff168173ffffffffffffffffffffffffffffffffffffffff161415610c4f576040517f08c379a0000000000000000000000000000000000000000000000000000000008152600401610c4690614a38565b60405180910390fd5b80915050919050565b60008073ffffffffffffffffffffffffffffffffffffffff168273ffffffffffffffffffffffffffffffffffffffff161415610cc9576040517f08c379a0000000000000000000000000000000000000000000000000000000008152600401610cc090614a18565b60405180910390fd5b600660008373ffffffffffffffffffffffffffffffffffffffff1673ffffffffffffffffffffffffffffffffffffffff168152602001908152602001600020549050919050565b610d1861153e565b73ffffffffffffffffffffffffffffffffffffffff16610d36610f98565b73ffffffffffffffffffffffffffffffffffffffff1614610d8c576040517f08c379a0000000000000000000000000000000000000000000000000000000008152600401610d8390614a98565b60405180910390fd5b610d9660006119dd565b565b610da061153e565b73ffffffffffffffffffffffffffffffffffffffff16610dbe610f98565b73ffffffffffffffffffffffffffffffffffffffff1614610e14576040517f08c379a0000000000000000000000000000000000000000000000000000000008152600401610e0b90614a98565b60405180910390fd5b600073ffffffffffffffffffffffffffffffffffffffff16610e3582610b8f565b73ffffffffffffffffffffffffffffffffffffffff1614610e5557600080fd5b6003600082815260200190815260200160002060009054906101000a900460ff1615610e8057600080fd5b610e8981611aa3565b50565b610e9461153e565b73ffffffffffffffffffffffffffffffffffffffff16610eb2610f98565b73ffffffffffffffffffffffffffffffffffffffff1614610f08576040517f08c379a0000000000000000000000000000000000000000000000000000000008152600401610eff90614a98565b60405180910390fd5b610f10611bbf565b565b610f1a61153e565b73ffffffffffffffffffffffffffffffffffffffff16610f38610f98565b73ffffffffffffffffffffffffffffffffffffffff1614610f8e576040517f08c379a0000000000000000000000000000000000000000000000000000000008152600401610f8590614a98565b60405180910390fd5b80600b8190555050565b6000600960009054906101000a900473ffffffffffffffffffffffffffffffffffffffff16905090565b606060058054610fd190614df5565b80601f0160208091040260200160405190810160405280929190818152602001828054610ffd90614df5565b801561104a5780601f1061101f5761010080835404028352916020019161104a565b820191906000526020600020905b81548152906001019060200180831161102d57829003601f168201915b5050505050905090565b600b5481565b61106261153e565b73ffffffffffffffffffffffffffffffffffffffff168273ffffffffffffffffffffffffffffffffffffffff1614156110d0576040517f08c379a00000000000000000000000000000000000000000000000000000000081526004016110c790614998565b60405180910390fd5b80600860006110dd61153e565b73ffffffffffffffffffffffffffffffffffffffff1673ffffffffffffffffffffffffffffffffffffffff16815260200190815260200160002060008473ffffffffffffffffffffffffffffffffffffffff1673ffffffffffffffffffffffffffffffffffffffff16815260200190815260200160002060006101000a81548160ff0219169083151502179055508173ffffffffffffffffffffffffffffffffffffffff1661118a61153e565b73ffffffffffffffffffffffffffffffffffffffff167f17307eab39ab6107e8899845ad3d59bd9653f200f220920489ca2b5937696c31836040516111cf919061489b565b60405180910390a35050565b6111ec6111e661153e565b836115ff565b61122b576040517f08c379a000000000000000000000000000000000000000000000000000000000815260040161122290614af8565b60405180910390fd5b61123784848484611c62565b50505050565b6060600061124a83611cbe565b9050600061127e61125a83611f3d565b60405160200161126a91906147fc565b604051602081830303815290604052611f3d565b90508060405160200161129191906147da565b60405160208183030381529060405291508192505050919050565b6000600860008473ffffffffffffffffffffffffffffffffffffffff1673ffffffffffffffffffffffffffffffffffffffff16815260200190815260200160002060008373ffffffffffffffffffffffffffffffffffffffff1673ffffffffffffffffffffffffffffffffffffffff16815260200190815260200160002060009054906101000a900460ff16905092915050565b61134861153e565b73ffffffffffffffffffffffffffffffffffffffff16611366610f98565b73ffffffffffffffffffffffffffffffffffffffff16146113bc576040517f08c379a00000000000000000000000000000000000000000000000000000000081526004016113b390614a98565b60405180910390fd5b50565b6113c761153e565b73ffffffffffffffffffffffffffffffffffffffff166113e5610f98565b73ffffffffffffffffffffffffffffffffffffffff161461143b576040517f08c379a000000000000000000000000000000000000000000000000000000000815260040161143290614a98565b60405180910390fd5b600073ffffffffffffffffffffffffffffffffffffffff168173ffffffffffffffffffffffffffffffffffffffff1614156114ab576040517f08c379a00000000000000000000000000000000000000000000000000000000081526004016114a290614918565b60405180910390fd5b6114b4816119dd565b50565b60007f01ffc9a7000000000000000000000000000000000000000000000000000000007bffffffffffffffffffffffffffffffffffffffffffffffffffffffff1916827bffffffffffffffffffffffffffffffffffffffffffffffffffffffff1916149050919050565b60006115378260016120fb90919063ffffffff16565b9050919050565b600033905090565b816007600083815260200190815260200160002060006101000a81548173ffffffffffffffffffffffffffffffffffffffff021916908373ffffffffffffffffffffffffffffffffffffffff160217905550808273ffffffffffffffffffffffffffffffffffffffff166115b983610b8f565b73ffffffffffffffffffffffffffffffffffffffff167f8c5be1e5ebec7d5bd14f71427d1e84f3dd0314c0f7b2291e5b200ac8c7c3b92560405160405180910390a45050565b600061160a82611521565b611649576040517f08c379a0000000000000000000000000000000000000000000000000000000008152600401611640906149b8565b60405180910390fd5b600061165483610b8f565b90508073ffffffffffffffffffffffffffffffffffffffff168473ffffffffffffffffffffffffffffffffffffffff1614806116c357508373ffffffffffffffffffffffffffffffffffffffff166116ab84610779565b73ffffffffffffffffffffffffffffffffffffffff16145b806116d457506116d381856112ac565b5b91505092915050565b8273ffffffffffffffffffffffffffffffffffffffff166116fd82610b8f565b73ffffffffffffffffffffffffffffffffffffffff1614611753576040517f08c379a000000000000000000000000000000000000000000000000000000000815260040161174a90614ab8565b60405180910390fd5b600073ffffffffffffffffffffffffffffffffffffffff168273ffffffffffffffffffffffffffffffffffffffff1614156117c3576040517f08c379a00000000000000000000000000000000000000000000000000000000081526004016117ba90614958565b60405180910390fd5b6117ce838383612115565b6117d9600082611546565b6001600660008573ffffffffffffffffffffffffffffffffffffffff1673ffffffffffffffffffffffffffffffffffffffff16815260200190815260200160002060008282546118299190614cfe565b925050819055506001600660008473ffffffffffffffffffffffffffffffffffffffff1673ffffffffffffffffffffffffffffffffffffffff16815260200190815260200160002060008282546118809190614bec565b9250508190555061189d8183600161216d9092919063ffffffff16565b50808273ffffffffffffffffffffffffffffffffffffffff168473ffffffffffffffffffffffffffffffffffffffff167fddf252ad1be2c89b69c2b068fc378daa952ba7f163c4a11628f55a4df523b3ef60405160405180910390a4505050565b6119188282604051806020016040528060008152506121a2565b5050565b611924610b78565b611963576040517f08c379a000000000000000000000000000000000000000000000000000000000815260040161195a906148d8565b60405180910390fd5b6000600960146101000a81548160ff0219169083151502179055507f5db9ee0a495bf2e6ff9c91a7834c1ba4fdd244a5e8aa4e537bd38aeae4b073aa6119a761153e565b6040516119b49190614834565b60405180910390a1565b60006119d1846000018460001b846121fd565b60001c90509392505050565b6000600960009054906101000a900473ffffffffffffffffffffffffffffffffffffffff16905081600960006101000a81548173ffffffffffffffffffffffffffffffffffffffff021916908373ffffffffffffffffffffffffffffffffffffffff1602179055508173ffffffffffffffffffffffffffffffffffffffff168173ffffffffffffffffffffffffffffffffffffffff167f8be0079c531659141344cd1fd0a4f28419497f9722a3daafe3b4186f6b6457e060405160405180910390a35050565b6000611aae82610b8f565b9050611abc81600084612115565b611ac7600083611546565b6001600660008373ffffffffffffffffffffffffffffffffffffffff1673ffffffffffffffffffffffffffffffffffffffff1681526020019081526020016000206000828254611b179190614cfe565b92505081905550611b328260016122c490919063ffffffff16565b5060016003600084815260200190815260200160002060006101000a81548160ff02191690831515021790555081600073ffffffffffffffffffffffffffffffffffffffff168273ffffffffffffffffffffffffffffffffffffffff167fddf252ad1be2c89b69c2b068fc378daa952ba7f163c4a11628f55a4df523b3ef60405160405180910390a45050565b611bc7610b78565b15611c07576040517f08c379a0000000000000000000000000000000000000000000000000000000008152600401611bfe906149d8565b60405180910390fd5b6001600960146101000a81548160ff0219169083151502179055507f62e78cea01bee320cd4e420270b5ea74000d11b0c9f74754ebdbfc544b05a258611c4b61153e565b604051611c589190614834565b60405180910390a1565b611c6d8484846116dd565b611c79848484846122de565b611cb8576040517f08c379a0000000000000000000000000000000000000000000000000000000008152600401611caf906148f8565b60405180910390fd5b50505050565b6060611cc8613e32565b611cd183612475565b905060006040518060800160405280611d2784600060048110611d1d577f4e487b7100000000000000000000000000000000000000000000000000000000600052603260045260246000fd5b6020020151612767565b8152602001611d7384600160048110611d69577f4e487b7100000000000000000000000000000000000000000000000000000000600052603260045260246000fd5b6020020151612860565b8152602001611dbf84600260048110611db5577f4e487b7100000000000000000000000000000000000000000000000000000000600052603260045260246000fd5b6020020151612959565b8152602001611e0b84600360048110611e01577f4e487b7100000000000000000000000000000000000000000000000000000000600052603260045260246000fd5b6020020151612a52565b8152509050600081600360048110611e4c577f4e487b7100000000000000000000000000000000000000000000000000000000600052603260045260246000fd5b602002015182600260048110611e8b577f4e487b7100000000000000000000000000000000000000000000000000000000600052603260045260246000fd5b602002015183600160048110611eca577f4e487b7100000000000000000000000000000000000000000000000000000000600052603260045260246000fd5b602002015184600060048110611f09577f4e487b7100000000000000000000000000000000000000000000000000000000600052603260045260246000fd5b6020020151604051602001611f219493929190614765565b6040516020818303038152906040529050809350505050919050565b60606000825190506000811415611f6657604051806020016040528060008152509150506120f6565b60006003600283611f779190614bec565b611f819190614c42565b6004611f8d9190614ca4565b90506000602082611f9e9190614bec565b67ffffffffffffffff811115611fdd577f4e487b7100000000000000000000000000000000000000000000000000000000600052604160045260246000fd5b6040519080825280601f01601f19166020018201604052801561200f5781602001600182028036833780820191505090505b5090506000604051806060016040528060408152602001615ee9604091399050600181016020830160005b868110156120b35760038101905062ffffff818a015116603f8160121c168401518060081b905060ff603f83600c1c1686015116810190508060081b905060ff603f8360061c1686015116810190508060081b905060ff603f831686015116810190508060e01b9050808452600484019350505061203a565b5060038606600181146120cd57600281146120dd576120e8565b613d3d60f01b60028303526120e8565b603d60f81b60018303525b508484525050819450505050505b919050565b600061210d836000018360001b612b4b565b905092915050565b61211d610b78565b1561215d576040517f08c379a0000000000000000000000000000000000000000000000000000000008152600401612154906149d8565b60405180910390fd5b612168838383612b6e565b505050565b6000612199846000018460001b8473ffffffffffffffffffffffffffffffffffffffff1660001b612b73565b90509392505050565b6121ac8383612c85565b6121b960008484846122de565b6121f8576040517f08c379a00000000000000000000000000000000000000000000000000000000081526004016121ef906148f8565b60405180910390fd5b505050565b6000808460010160008581526020019081526020016000205490506000811415839061225f576040517f08c379a000000000000000000000000000000000000000000000000000000000815260040161225691906148b6565b60405180910390fd5b50846000016001826122719190614cfe565b815481106122a8577f4e487b7100000000000000000000000000000000000000000000000000000000600052603260045260246000fd5b9060005260206000209060020201600101549150509392505050565b60006122d6836000018360001b612e18565b905092915050565b60006122ff8473ffffffffffffffffffffffffffffffffffffffff16612fd3565b15612468578373ffffffffffffffffffffffffffffffffffffffff1663150b7a0261232861153e565b8786866040518563ffffffff1660e01b815260040161234a949392919061484f565b602060405180830381600087803b15801561236457600080fd5b505af192505050801561239557506040513d601f19601f8201168201806040525081019061239291906140f5565b60015b612418573d80600081146123c5576040519150601f19603f3d011682016040523d82523d6000602084013e6123ca565b606091505b50600081511415612410576040517f08c379a0000000000000000000000000000000000000000000000000000000008152600401612407906148f8565b60405180910390fd5b805181602001fd5b63150b7a0260e01b7bffffffffffffffffffffffffffffffffffffffffffffffffffffffff1916817bffffffffffffffffffffffffffffffffffffffffffffffffffffffff19161491505061246d565b600190505b949350505050565b61247d613e32565b600080612488613e32565b603c856124959190614c42565b9250600a8360ff161015612541576000816000600481106124df577f4e487b7100000000000000000000000000000000000000000000000000000000600052603260045260246000fd5b602002019060ff16908160ff1681525050828160016004811061252b577f4e487b7100000000000000000000000000000000000000000000000000000000600052603260045260246000fd5b602002019060ff16908160ff16815250506125f2565b600a8361254e9190614c73565b81600060048110612588577f4e487b7100000000000000000000000000000000000000000000000000000000600052603260045260246000fd5b602002019060ff16908160ff1681525050600a836125a69190614e89565b816001600481106125e0577f4e487b7100000000000000000000000000000000000000000000000000000000600052603260045260246000fd5b602002019060ff16908160ff16815250505b603c856125ff9190614e58565b9150600a8260ff1610156126ab57600081600260048110612649577f4e487b7100000000000000000000000000000000000000000000000000000000600052603260045260246000fd5b602002019060ff16908160ff16815250508181600360048110612695577f4e487b7100000000000000000000000000000000000000000000000000000000600052603260045260246000fd5b602002019060ff16908160ff168152505061275c565b600a826126b89190614c73565b816002600481106126f2577f4e487b7100000000000000000000000000000000000000000000000000000000600052603260045260246000fd5b602002019060ff16908160ff1681525050600a826127109190614e89565b8160036004811061274a577f4e487b7100000000000000000000000000000000000000000000000000000000600052603260045260246000fd5b602002019060ff16908160ff16815250505b809350505050919050565b606060006040518060e001604052806040518060a00160405280607581526020016164526075913981526020016040518060a00160405280607681526020016165bb6076913981526020016040518060a00160405280607a815260200161594e607a913981526020016040518060a00160405280606f8152602001615ab7606f913981526020016040518060a0016040528060768152602001615c936076913981526020016040518060a00160405280607a8152602001615ba0607a913981526020016040518060a00160405280607581526020016159c860759139815250905060606128548285612ff6565b90508092505050919050565b606060006040518060e001604052806040518060a0016040528060798152602001615f9b6079913981526020016040518060a00160405280607a81526020016158d4607a913981526020016040518060a00160405280607a8152602001615b26607a913981526020016040518060a0016040528060728152602001615f296072913981526020016040518060a00160405280607a81526020016162ed607a913981526020016040518060a00160405280607a8152602001615a3d607a913981526020016040518060a001604052806079815260200161608e607991398152509050606061294d8285612ff6565b90508092505050919050565b606060006040518060e001604052806040518060a0016040528060798152602001615c1a6079913981526020016040518060a00160405280607a8152602001615dfd607a913981526020016040518060a00160405280607a8152602001615d09607a913981526020016040518060a00160405280607281526020016163e06072913981526020016040518060a00160405280607a8152602001616180607a913981526020016040518060a00160405280607a81526020016161fa607a913981526020016040518060a00160405280607981526020016163676079913981525090506060612a468285612ff6565b90508092505050919050565b606060006040518060e001604052806040518060a00160405280607981526020016162746079913981526020016040518060a00160405280607a8152602001616541607a913981526020016040518060a00160405280607a8152602001616014607a913981526020016040518060a0016040528060728152602001615e776072913981526020016040518060a00160405280607a8152602001615d83607a913981526020016040518060a00160405280607a81526020016164c7607a913981526020016040518060a00160405280607981526020016161076079913981525090506060612b3f8285612ff6565b90508092505050919050565b600080836001016000848152602001908152602001600020541415905092915050565b505050565b6000808460010160008581526020019081526020016000205490506000811415612c1a57846000016040518060400160405280868152602001858152509080600181540180825580915050600190039060005260206000209060020201600090919091909150600082015181600001556020820151816001015550508460000180549050856001016000868152602001908152602001600020819055506001915050612c7e565b8285600001600183612c2c9190614cfe565b81548110612c63577f4e487b7100000000000000000000000000000000000000000000000000000000600052603260045260246000fd5b90600052602060002090600202016001018190555060009150505b9392505050565b600073ffffffffffffffffffffffffffffffffffffffff168273ffffffffffffffffffffffffffffffffffffffff161415612cf5576040517f08c379a0000000000000000000000000000000000000000000000000000000008152600401612cec90614a58565b60405180910390fd5b612cfe81611521565b15612d3e576040517f08c379a0000000000000000000000000000000000000000000000000000000008152600401612d3590614938565b60405180910390fd5b612d4a60008383612115565b6001600660008473ffffffffffffffffffffffffffffffffffffffff1673ffffffffffffffffffffffffffffffffffffffff1681526020019081526020016000206000828254612d9a9190614bec565b92505081905550612db78183600161216d9092919063ffffffff16565b50808273ffffffffffffffffffffffffffffffffffffffff16600073ffffffffffffffffffffffffffffffffffffffff167fddf252ad1be2c89b69c2b068fc378daa952ba7f163c4a11628f55a4df523b3ef60405160405180910390a45050565b60008083600101600084815260200190815260200160002054905060008114612fc7576000600182612e4a9190614cfe565b9050600060018660000180549050612e629190614cfe565b90506000866000018281548110612ea2577f4e487b7100000000000000000000000000000000000000000000000000000000600052603260045260246000fd5b9060005260206000209060020201905080876000018481548110612eef577f4e487b7100000000000000000000000000000000000000000000000000000000600052603260045260246000fd5b90600052602060002090600202016000820154816000015560018201548160010155905050600183612f219190614bec565b876001016000836000015481526020019081526020016000208190555086600001805480612f78577f4e487b7100000000000000000000000000000000000000000000000000000000600052603160045260246000fd5b6001900381819060005260206000209060020201600080820160009055600182016000905550509055866001016000878152602001908152602001600020600090556001945050505050612fcd565b60009150505b92915050565b6000808273ffffffffffffffffffffffffffffffffffffffff163b119050919050565b60608060008360ff1614156131aa578360006007811061303f577f4e487b7100000000000000000000000000000000000000000000000000000000600052603260045260246000fd5b60200201518460016007811061307e577f4e487b7100000000000000000000000000000000000000000000000000000000600052603260045260246000fd5b6020020151856002600781106130bd577f4e487b7100000000000000000000000000000000000000000000000000000000600052603260045260246000fd5b6020020151866004600781106130fc577f4e487b7100000000000000000000000000000000000000000000000000000000600052603260045260246000fd5b60200201518760056007811061313b577f4e487b7100000000000000000000000000000000000000000000000000000000600052603260045260246000fd5b60200201518860066007811061317a577f4e487b7100000000000000000000000000000000000000000000000000000000600052603260045260246000fd5b6020020151604051602001613194969594939291906146a8565b6040516020818303038152906040529050613e28565b60018360ff16141561325b57836002600781106131f0577f4e487b7100000000000000000000000000000000000000000000000000000000600052603260045260246000fd5b60200201518460056007811061322f577f4e487b7100000000000000000000000000000000000000000000000000000000600052603260045260246000fd5b60200201516040516020016132459291906145ca565b6040516020818303038152906040529050613e27565b60028360ff1614156133cc57836000600781106132a1577f4e487b7100000000000000000000000000000000000000000000000000000000600052603260045260246000fd5b6020020151846002600781106132e0577f4e487b7100000000000000000000000000000000000000000000000000000000600052603260045260246000fd5b60200201518560036007811061331f577f4e487b7100000000000000000000000000000000000000000000000000000000600052603260045260246000fd5b60200201518660046007811061335e577f4e487b7100000000000000000000000000000000000000000000000000000000600052603260045260246000fd5b60200201518760066007811061339d577f4e487b7100000000000000000000000000000000000000000000000000000000600052603260045260246000fd5b60200201516040516020016133b695949392919061465d565b6040516020818303038152906040529050613e26565b60038360ff16141561353d5783600060078110613412577f4e487b7100000000000000000000000000000000000000000000000000000000600052603260045260246000fd5b602002015184600260078110613451577f4e487b7100000000000000000000000000000000000000000000000000000000600052603260045260246000fd5b602002015185600360078110613490577f4e487b7100000000000000000000000000000000000000000000000000000000600052603260045260246000fd5b6020020151866005600781106134cf577f4e487b7100000000000000000000000000000000000000000000000000000000600052603260045260246000fd5b60200201518760066007811061350e577f4e487b7100000000000000000000000000000000000000000000000000000000600052603260045260246000fd5b602002015160405160200161352795949392919061465d565b6040516020818303038152906040529050613e25565b60048360ff16141561366e5783600160078110613583577f4e487b7100000000000000000000000000000000000000000000000000000000600052603260045260246000fd5b6020020151846002600781106135c2577f4e487b7100000000000000000000000000000000000000000000000000000000600052603260045260246000fd5b602002015185600360078110613601577f4e487b7100000000000000000000000000000000000000000000000000000000600052603260045260246000fd5b602002015186600560078110613640577f4e487b7100000000000000000000000000000000000000000000000000000000600052603260045260246000fd5b6020020151604051602001613658949392919061461f565b6040516020818303038152906040529050613e24565b60058360ff1614156137df57836000600781106136b4577f4e487b7100000000000000000000000000000000000000000000000000000000600052603260045260246000fd5b6020020151846001600781106136f3577f4e487b7100000000000000000000000000000000000000000000000000000000600052603260045260246000fd5b602002015185600360078110613732577f4e487b7100000000000000000000000000000000000000000000000000000000600052603260045260246000fd5b602002015186600560078110613771577f4e487b7100000000000000000000000000000000000000000000000000000000600052603260045260246000fd5b6020020151876006600781106137b0577f4e487b7100000000000000000000000000000000000000000000000000000000600052603260045260246000fd5b60200201516040516020016137c995949392919061465d565b6040516020818303038152906040529050613e23565b60068360ff1614156139905783600060078110613825577f4e487b7100000000000000000000000000000000000000000000000000000000600052603260045260246000fd5b602002015184600160078110613864577f4e487b7100000000000000000000000000000000000000000000000000000000600052603260045260246000fd5b6020020151856003600781106138a3577f4e487b7100000000000000000000000000000000000000000000000000000000600052603260045260246000fd5b6020020151866004600781106138e2577f4e487b7100000000000000000000000000000000000000000000000000000000600052603260045260246000fd5b602002015187600560078110613921577f4e487b7100000000000000000000000000000000000000000000000000000000600052603260045260246000fd5b602002015188600660078110613960577f4e487b7100000000000000000000000000000000000000000000000000000000600052603260045260246000fd5b602002015160405160200161397a969594939291906146a8565b6040516020818303038152906040529050613e22565b60078360ff161415613a8157836000600781106139d6577f4e487b7100000000000000000000000000000000000000000000000000000000600052603260045260246000fd5b602002015184600260078110613a15577f4e487b7100000000000000000000000000000000000000000000000000000000600052603260045260246000fd5b602002015185600560078110613a54577f4e487b7100000000000000000000000000000000000000000000000000000000600052603260045260246000fd5b6020020151604051602001613a6b939291906145ee565b6040516020818303038152906040529050613e21565b60088360ff161415613c725783600060078110613ac7577f4e487b7100000000000000000000000000000000000000000000000000000000600052603260045260246000fd5b602002015184600160078110613b06577f4e487b7100000000000000000000000000000000000000000000000000000000600052603260045260246000fd5b602002015185600260078110613b45577f4e487b7100000000000000000000000000000000000000000000000000000000600052603260045260246000fd5b602002015186600360078110613b84577f4e487b7100000000000000000000000000000000000000000000000000000000600052603260045260246000fd5b602002015187600460078110613bc3577f4e487b7100000000000000000000000000000000000000000000000000000000600052603260045260246000fd5b602002015188600560078110613c02577f4e487b7100000000000000000000000000000000000000000000000000000000600052603260045260246000fd5b602002015189600660078110613c41577f4e487b7100000000000000000000000000000000000000000000000000000000600052603260045260246000fd5b6020020151604051602001613c5c9796959493929190614700565b6040516020818303038152906040529050613e20565b60098360ff161415613e1f5783600060078110613cb8577f4e487b7100000000000000000000000000000000000000000000000000000000600052603260045260246000fd5b602002015184600160078110613cf7577f4e487b7100000000000000000000000000000000000000000000000000000000600052603260045260246000fd5b602002015185600260078110613d36577f4e487b7100000000000000000000000000000000000000000000000000000000600052603260045260246000fd5b602002015186600360078110613d75577f4e487b7100000000000000000000000000000000000000000000000000000000600052603260045260246000fd5b602002015187600560078110613db4577f4e487b7100000000000000000000000000000000000000000000000000000000600052603260045260246000fd5b602002015188600660078110613df3577f4e487b7100000000000000000000000000000000000000000000000000000000600052603260045260246000fd5b6020020151604051602001613e0d969594939291906146a8565b60405160208183030381529060405290505b5b5b5b5b5b5b5b5b5b8091505092915050565b6040518060800160405280600490602082028036833780820191505090505090565b6000613e67613e6284614b78565b614b53565b905082815260208101848484011115613e7f57600080fd5b613e8a848285614db3565b509392505050565b600081359050613ea181615877565b92915050565b600081359050613eb68161588e565b92915050565b600081359050613ecb816158a5565b92915050565b600081519050613ee0816158a5565b92915050565b600082601f830112613ef757600080fd5b8135613f07848260208601613e54565b91505092915050565b600081359050613f1f816158bc565b92915050565b600060208284031215613f3757600080fd5b6000613f4584828501613e92565b91505092915050565b60008060408385031215613f6157600080fd5b6000613f6f85828601613e92565b9250506020613f8085828601613e92565b9150509250929050565b600080600060608486031215613f9f57600080fd5b6000613fad86828701613e92565b9350506020613fbe86828701613e92565b9250506040613fcf86828701613f10565b9150509250925092565b60008060008060808587031215613fef57600080fd5b6000613ffd87828801613e92565b945050602061400e87828801613e92565b935050604061401f87828801613f10565b925050606085013567ffffffffffffffff81111561403c57600080fd5b61404887828801613ee6565b91505092959194509250565b6000806040838503121561406757600080fd5b600061407585828601613e92565b925050602061408685828601613ea7565b9150509250929050565b600080604083850312156140a357600080fd5b60006140b185828601613e92565b92505060206140c285828601613f10565b9150509250929050565b6000602082840312156140de57600080fd5b60006140ec84828501613ebc565b91505092915050565b60006020828403121561410757600080fd5b600061411584828501613ed1565b91505092915050565b60006020828403121561413057600080fd5b600061413e84828501613f10565b91505092915050565b61415081614d32565b82525050565b61415f81614d44565b82525050565b600061417082614ba9565b61417a8185614bbf565b935061418a818560208601614dc2565b61419381614f76565b840191505092915050565b60006141a982614bb4565b6141b38185614bd0565b93506141c3818560208601614dc2565b6141cc81614f76565b840191505092915050565b60006141e282614bb4565b6141ec8185614be1565b93506141fc818560208601614dc2565b80840191505092915050565b600061421560d783614be1565b915061422082614f87565b60d782019050919050565b6000614238601483614bd0565b915061424382615094565b602082019050919050565b600061425b603283614bd0565b9150614266826150bd565b604082019050919050565b600061427e602683614bd0565b91506142898261510c565b604082019050919050565b60006142a1601c83614bd0565b91506142ac8261515b565b602082019050919050565b60006142c4602483614bd0565b91506142cf82615184565b604082019050919050565b60006142e7600f83614bd0565b91506142f2826151d3565b602082019050919050565b600061430a601983614bd0565b9150614315826151fc565b602082019050919050565b600061432d602c83614bd0565b915061433882615225565b604082019050919050565b6000614350601083614bd0565b915061435b82615274565b602082019050919050565b6000614373603883614bd0565b915061437e8261529d565b604082019050919050565b6000614396602a83614bd0565b91506143a1826152ec565b604082019050919050565b60006143b9602983614bd0565b91506143c48261533b565b604082019050919050565b60006143dc600783614be1565b91506143e78261538a565b600782019050919050565b60006143ff600283614be1565b915061440a826153b3565b600282019050919050565b6000614422602083614bd0565b915061442d826153dc565b602082019050919050565b6000614445602c83614bd0565b915061445082615405565b604082019050919050565b6000614468606283614be1565b915061447382615454565b606282019050919050565b600061448b602083614bd0565b9150614496826154ef565b602082019050919050565b60006144ae602983614bd0565b91506144b982615518565b604082019050919050565b60006144d1602183614bd0565b91506144dc82615567565b604082019050919050565b60006144f4601d83614be1565b91506144ff826155b6565b601d82019050919050565b6000614517601b83614be1565b9150614522826155df565b601b82019050919050565b600061453a603183614bd0565b915061454582615608565b604082019050919050565b600061455d603283614be1565b915061456882615657565b603282019050919050565b6000614580601f83614bd0565b915061458b826156a6565b602082019050919050565b60006145a461015383614be1565b91506145af826156cf565b61015382019050919050565b6145c481614d9c565b82525050565b60006145d682856141d7565b91506145e282846141d7565b91508190509392505050565b60006145fa82866141d7565b915061460682856141d7565b915061461282846141d7565b9150819050949350505050565b600061462b82876141d7565b915061463782866141d7565b915061464382856141d7565b915061464f82846141d7565b915081905095945050505050565b600061466982886141d7565b915061467582876141d7565b915061468182866141d7565b915061468d82856141d7565b915061469982846141d7565b91508190509695505050505050565b60006146b482896141d7565b91506146c082886141d7565b91506146cc82876141d7565b91506146d882866141d7565b91506146e482856141d7565b91506146f082846141d7565b9150819050979650505050505050565b600061470c828a6141d7565b915061471882896141d7565b915061472482886141d7565b915061473082876141d7565b915061473c82866141d7565b915061474882856141d7565b915061475482846141d7565b915081905098975050505050505050565b600061477082614208565b915061477c82876141d7565b9150614787826143cf565b915061479382866141d7565b915061479e8261450a565b91506147aa82856141d7565b91506147b5826143cf565b91506147c182846141d7565b91506147cc82614596565b915081905095945050505050565b60006147e5826144e7565b91506147f182846141d7565b915081905092915050565b600061480782614550565b91506148128261445b565b915061481e82846141d7565b9150614829826143f2565b915081905092915050565b60006020820190506148496000830184614147565b92915050565b60006080820190506148646000830187614147565b6148716020830186614147565b61487e60408301856145bb565b81810360608301526148908184614165565b905095945050505050565b60006020820190506148b06000830184614156565b92915050565b600060208201905081810360008301526148d0818461419e565b905092915050565b600060208201905081810360008301526148f18161422b565b9050919050565b600060208201905081810360008301526149118161424e565b9050919050565b6000602082019050818103600083015261493181614271565b9050919050565b6000602082019050818103600083015261495181614294565b9050919050565b60006020820190508181036000830152614971816142b7565b9050919050565b60006020820190508181036000830152614991816142da565b9050919050565b600060208201905081810360008301526149b1816142fd565b9050919050565b600060208201905081810360008301526149d181614320565b9050919050565b600060208201905081810360008301526149f181614343565b9050919050565b60006020820190508181036000830152614a1181614366565b9050919050565b60006020820190508181036000830152614a3181614389565b9050919050565b60006020820190508181036000830152614a51816143ac565b9050919050565b60006020820190508181036000830152614a7181614415565b9050919050565b60006020820190508181036000830152614a9181614438565b9050919050565b60006020820190508181036000830152614ab18161447e565b9050919050565b60006020820190508181036000830152614ad1816144a1565b9050919050565b60006020820190508181036000830152614af1816144c4565b9050919050565b60006020820190508181036000830152614b118161452d565b9050919050565b60006020820190508181036000830152614b3181614573565b9050919050565b6000602082019050614b4d60008301846145bb565b92915050565b6000614b5d614b6e565b9050614b698282614e27565b919050565b6000604051905090565b600067ffffffffffffffff821115614b9357614b92614f47565b5b614b9c82614f76565b9050602081019050919050565b600081519050919050565b600081519050919050565b600082825260208201905092915050565b600082825260208201905092915050565b600081905092915050565b6000614bf782614d9c565b9150614c0283614d9c565b9250827fffffffffffffffffffffffffffffffffffffffffffffffffffffffffffffffff03821115614c3757614c36614eba565b5b828201905092915050565b6000614c4d82614d9c565b9150614c5883614d9c565b925082614c6857614c67614ee9565b5b828204905092915050565b6000614c7e82614da6565b9150614c8983614da6565b925082614c9957614c98614ee9565b5b828204905092915050565b6000614caf82614d9c565b9150614cba83614d9c565b9250817fffffffffffffffffffffffffffffffffffffffffffffffffffffffffffffffff0483118215151615614cf357614cf2614eba565b5b828202905092915050565b6000614d0982614d9c565b9150614d1483614d9c565b925082821015614d2757614d26614eba565b5b828203905092915050565b6000614d3d82614d7c565b9050919050565b60008115159050919050565b60007fffffffff0000000000000000000000000000000000000000000000000000000082169050919050565b600073ffffffffffffffffffffffffffffffffffffffff82169050919050565b6000819050919050565b600060ff82169050919050565b82818337600083830152505050565b60005b83811015614de0578082015181840152602081019050614dc5565b83811115614def576000848401525b50505050565b60006002820490506001821680614e0d57607f821691505b60208210811415614e2157614e20614f18565b5b50919050565b614e3082614f76565b810181811067ffffffffffffffff82111715614e4f57614e4e614f47565b5b80604052505050565b6000614e6382614d9c565b9150614e6e83614d9c565b925082614e7e57614e7d614ee9565b5b828206905092915050565b6000614e9482614da6565b9150614e9f83614da6565b925082614eaf57614eae614ee9565b5b828206905092915050565b7f4e487b7100000000000000000000000000000000000000000000000000000000600052601160045260246000fd5b7f4e487b7100000000000000000000000000000000000000000000000000000000600052601260045260246000fd5b7f4e487b7100000000000000000000000000000000000000000000000000000000600052602260045260246000fd5b7f4e487b7100000000000000000000000000000000000000000000000000000000600052604160045260246000fd5b6000601f19601f8301169050919050565b7f3c7376672076696577426f783d2730203020353030203530302720786d6c6e7360008201527f3d27687474703a2f2f7777772e77332e6f72672f323030302f7376672720786d60208201527f6c6e733a62783d2768747470733a2f2f626f78792d7376672e636f6d273e3c6760408201527f207374726f6b653d2723666666666666272066696c6c3d27236666666666272060608201527f7472616e73666f726d3d276d617472697828342e3833373038322c20302c203060808201527f2c20352e3331303937322c2035392e3231393436372c202d34352e343737313560a08201527f2927203e3c672069643d276d696e75746573273e3c673e00000000000000000060c082015250565b7f5061757361626c653a206e6f7420706175736564000000000000000000000000600082015250565b7f4552433732313a207472616e7366657220746f206e6f6e20455243373231526560008201527f63656976657220696d706c656d656e7465720000000000000000000000000000602082015250565b7f4f776e61626c653a206e6577206f776e657220697320746865207a65726f206160008201527f6464726573730000000000000000000000000000000000000000000000000000602082015250565b7f4552433732313a20746f6b656e20616c7265616479206d696e74656400000000600082015250565b7f4552433732313a207472616e7366657220746f20746865207a65726f2061646460008201527f7265737300000000000000000000000000000000000000000000000000000000602082015250565b7f4e6f7420656e6f7567682066756e640000000000000000000000000000000000600082015250565b7f4552433732313a20617070726f766520746f2063616c6c657200000000000000600082015250565b7f4552433732313a206f70657261746f7220717565727920666f72206e6f6e657860008201527f697374656e7420746f6b656e0000000000000000000000000000000000000000602082015250565b7f5061757361626c653a2070617573656400000000000000000000000000000000600082015250565b7f4552433732313a20617070726f76652063616c6c6572206973206e6f74206f7760008201527f6e6572206e6f7220617070726f76656420666f7220616c6c0000000000000000602082015250565b7f4552433732313a2062616c616e636520717565727920666f7220746865207a6560008201527f726f206164647265737300000000000000000000000000000000000000000000602082015250565b7f4552433732313a206f776e657220717565727920666f72206e6f6e657869737460008201527f656e7420746f6b656e0000000000000000000000000000000000000000000000602082015250565b7f3c2f673e3c673e00000000000000000000000000000000000000000000000000600082015250565b7f227d000000000000000000000000000000000000000000000000000000000000600082015250565b7f4552433732313a206d696e7420746f20746865207a65726f2061646472657373600082015250565b7f4552433732313a20617070726f76656420717565727920666f72206e6f6e657860008201527f697374656e7420746f6b656e0000000000000000000000000000000000000000602082015250565b7f226465736372697074696f6e223a2022546865206d6f73742076616c7561626c60008201527f65207468696e6720696e2074686520656e7469726520776f726c64222c20226960208201527f6d616765223a2022646174613a696d6167652f7376672b786d6c3b626173653660408201527f342c000000000000000000000000000000000000000000000000000000000000606082015250565b7f4f776e61626c653a2063616c6c6572206973206e6f7420746865206f776e6572600082015250565b7f4552433732313a207472616e73666572206f6620746f6b656e2074686174206960008201527f73206e6f74206f776e0000000000000000000000000000000000000000000000602082015250565b7f4552433732313a20617070726f76616c20746f2063757272656e74206f776e6560008201527f7200000000000000000000000000000000000000000000000000000000000000602082015250565b7f646174613a6170706c69636174696f6e2f6a736f6e3b6261736536342c000000600082015250565b7f203c2f673e3c2f673e3c672069643d27686f75727327203e3c673e0000000000600082015250565b7f4552433732313a207472616e736665722063616c6c6572206973206e6f74206f60008201527f776e6572206e6f7220617070726f766564000000000000000000000000000000602082015250565b7f7b226e616d65223a202254696d652023222c207469636b546f636b2e6375727260008201527f656e7428292e746f537472696e672829202c0000000000000000000000000000602082015250565b7f5265656e7472616e637947756172643a207265656e7472616e742063616c6c00600082015250565b7f203c2f673e3c2f673e3c672069643d27646f7473273e3c673e3c636972636c6560008201527f2063783d273430272063793d2735302720723d273227207374796c653d27706160208201527f696e742d6f726465723a207374726f6b653b207374726f6b653a20726762283060408201527f2c20302c2030293b272f3e203c636972636c652063783d273430272063793d2760608201527f35382720723d273227207374796c653d277061696e742d6f726465723a20737460808201527f726f6b653b207374726f6b653a2072676228302c20302c2030293b272f3e3c2f60a08201527f673e3c2f673e3c2f673e3c74657874207374796c653d2766696c6c3a2072676260c08201527f2835312c2035312c203531293b20666f6e742d66616d696c793a20496d70616360e08201527f743b20666f6e742d73697a653a2033322e3270783b2077686974652d737061636101008201527f653a207072653b2720783d273431392e3439312720793d273439312e313533276101208201527f3e44415920303c2f746578743e3c2f7376673e0000000000000000000000000061014082015250565b61588081614d32565b811461588b57600080fd5b50565b61589781614d44565b81146158a257600080fd5b50565b6158ae81614d50565b81146158b957600080fd5b50565b6158c581614d9c565b81146158d057600080fd5b5056fe3c706174682069643d2762322720643d274d32312c34306c332c3376386c2d332c3263302c302d312d312d312d33762d374332302c34312c32312c34302c32312c34307a27207374796c653d277061696e742d6f726465723a207374726f6b653b207374726f6b653a2072676228302c20302c2030293b272f3e3c706174682069643d2761332720643d274d31372c34306c2d332c3376386c332c3263302c302c312d312c312d33762d374331382c34312c31372c34302c31372c34307a27207374796c653d277061696e742d6f726465723a207374726f6b653b207374726f6b653a2072676228302c20302c2030293b272f3e3c706174682069643d2761372720643d274d342c36396c332d3368366c332c3363302c302d312c312d332c31682d3643352c37302c342c36392c342c36397a27207374796c653d277061696e742d6f726465723a207374726f6b653b207374726f6b653a2072676228302c20302c2030293b272f3e3c706174682069643d2762362720643d274d33352c35356c2d332c3276386c332c3363302c302c312d312c312d33762d374333362c35362c33352c35352c33352c35357a27207374796c653d277061696e742d6f726465723a207374726f6b653b207374726f6b653a2072676228302c20302c2030293b272f3e3c706f6c79676f6e2069643d2761342720706f696e74733d27372c35322031332c35322031362c35342031332c353620372c353620342c353427207374796c653d277061696e742d6f726465723a207374726f6b653b207374726f6b653a2072676228302c20302c2030293b272f3e3c706174682069643d2762332720643d274d33352c34306c2d332c3376386c332c3263302c302c312d312c312d33762d374333362c34312c33352c34302c33352c34307a27207374796c653d277061696e742d6f726465723a207374726f6b653b207374726f6b653a2072676228302c20302c2030293b272f3e3c706174682069643d2761362720643d274d31372c35356c2d332c3276386c332c3363302c302c312d312c312d33762d374331382c35362c31372c35352c31372c35357a27207374796c653d277061696e742d6f726465723a207374726f6b653b207374726f6b653a2072676228302c20302c2030293b272f3e3c706174682069643d2763312720643d274d34362c33396c332c3368366c332d3363302c302d312d312d332d31682d364334372c33382c34362c33392c34362c33397a27207374796c653d277061696e742d6f726465723a207374726f6b653b207374726f6b653a2072676228302c20302c2030293b272f3e3c706174682069643d2761352720643d274d332c35356c332c3276386c2d332c3363302c302d312d312d312d33762d3743322c35362c332c35352c332c35357a27207374796c653d277061696e742d6f726465723a207374726f6b653b207374726f6b653a2072676228302c20302c2030293b272f3e3c706174682069643d2763332720643d274d35392c34306c2d332c3376386c332c3263302c302c312d312c312d33762d374336302c34312c35392c34302c35392c34307a27207374796c653d277061696e742d6f726465723a207374726f6b653b207374726f6b653a2072676228302c20302c2030293b272f3e3c706174682069643d2764352720643d274d36332c35356c332c3276386c2d332c3363302c302d312d312d312d33762d374336322c35362c36332c35352c36332c35357a27207374796c653d277061696e742d6f726465723a207374726f6b653b207374726f6b653a2072676228302c20302c2030293b272f3e3c706174682069643d2763322720643d274d34352c34306c332c3376386c2d332c3263302c302d312d312d312d33762d374334342c34312c34352c34302c34352c34307a27207374796c653d277061696e742d6f726465723a207374726f6b653b207374726f6b653a2072676228302c20302c2030293b272f3e3c706f6c79676f6e2069643d2764342720706f696e74733d2736372c35322037332c35322037362c35342037332c35362036372c35362036342c353427207374796c653d277061696e742d6f726465723a207374726f6b653b207374726f6b653a2072676228302c20302c2030293b272f3e4142434445464748494a4b4c4d4e4f505152535455565758595a6162636465666768696a6b6c6d6e6f707172737475767778797a303132333435363738392b2f3c706f6c79676f6e2069643d2762342720706f696e74733d2732352c35322033312c35322033342c35342033312c35362032352c35362032322c353427207374796c653d277061696e742d6f726465723a207374726f6b653b207374726f6b653a2072676228302c20302c2030293b272f3e3c706174682069643d2762312720643d274d32322c33396c332c3368366c332d3363302c302d312d312d332d31682d364332332c33382c32322c33392c32322c33397a27207374796c653d277061696e742d6f726465723a207374726f6b653b207374726f6b653a2072676228302c20302c2030293b272f3e3c706174682069643d2764332720643d274d37372c34306c2d332c3376386c332c3263302c302c312d312c312d33762d374337382c34312c37372c34302c37372c34307a27207374796c653d277061696e742d6f726465723a207374726f6b653b207374726f6b653a2072676228302c20302c2030293b272f3e3c706174682069643d2762372720643d274d32322c36396c332d3368366c332c3363302c302d312c312d332c31682d364332332c37302c32322c36392c32322c36397a27207374796c653d277061696e742d6f726465723a207374726f6b653b207374726f6b653a2072676228302c20302c2030293b272f3e3c706174682069643d2764372720643d274d36342c36396c332d3368366c332c3363302c302d312c312d332c31682d364336352c37302c36342c36392c36342c36397a27207374796c653d277061696e742d6f726465723a207374726f6b653b207374726f6b653a2072676228302c20302c2030293b272f3e3c706174682069643d2763352720643d274d34352c35356c332c3276386c2d332c3363302c302d312d312d312d33762d374334342c35362c34352c35352c34352c35357a27207374796c653d277061696e742d6f726465723a207374726f6b653b207374726f6b653a2072676228302c20302c2030293b272f3e3c706174682069643d2763362720643d274d35392c35356c2d332c3276386c332c3363302c302c312d312c312d33762d374336302c35362c35392c35352c35392c35357a27207374796c653d277061696e742d6f726465723a207374726f6b653b207374726f6b653a2072676228302c20302c2030293b272f3e3c706174682069643d2764312720643d274d36342c33396c332c3368366c332d3363302c302d312d312d332d31682d364336352c33382c36342c33392c36342c33397a27207374796c653d277061696e742d6f726465723a207374726f6b653b207374726f6b653a2072676228302c20302c2030293b272f3e3c706174682069643d2762352720643d274d32312c35356c332c3276386c2d332c3363302c302d312d312d312d33762d374332302c35362c32312c35352c32312c35357a27207374796c653d277061696e742d6f726465723a207374726f6b653b207374726f6b653a2072676228302c20302c2030293b272f3e3c706174682069643d2763372720643d274d34362c36396c332d3368366c332c3363302c302d312c312d332c31682d364334372c37302c34362c36392c34362c36397a27207374796c653d277061696e742d6f726465723a207374726f6b653b207374726f6b653a2072676228302c20302c2030293b272f3e3c706f6c79676f6e2069643d2763342720706f696e74733d2734392c35322035352c35322035382c35342035352c35362034392c35362034362c353427207374796c653d277061696e742d6f726465723a207374726f6b653b207374726f6b653a2072676228302c20302c2030293b272f3e3c706174682069643d2761312720643d274d342c33396c332c3368366c332d3363302c302d312d312d332d31682d3643352c33382c342c33392c342c33397a27207374796c653d277061696e742d6f726465723a207374726f6b653b207374726f6b653a2072676228302c20302c2030293b272f3e3c706174682069643d2764362720643d274d37372c35356c2d332c3276386c332c3363302c302c312d312c312d33762d374337382c35362c37372c35352c37372c35357a27207374796c653d277061696e742d6f726465723a207374726f6b653b207374726f6b653a2072676228302c20302c2030293b272f3e3c706174682069643d2764322720643d274d36332c34306c332c3376386c2d332c3263302c302d312d312d312d33762d374336322c34312c36332c34302c36332c34307a27207374796c653d277061696e742d6f726465723a207374726f6b653b207374726f6b653a2072676228302c20302c2030293b272f3e3c706174682069643d2761322720643d274d332c34306c332c3376386c2d332c3263302c302d312d312d312d33762d3743322c34312c332c34302c332c34307a27207374796c653d277061696e742d6f726465723a207374726f6b653b207374726f6b653a2072676228302c20302c2030293b272f3ea2646970667358221220def51728fd78fe65ff003bc10a6317848ee154756f9955b94b1312053381ed2b64736f6c63430008040033",
  "linkReferences": {},
  "deployedLinkReferences": {}
}