{
  "_format": "hh-sol-artifact-1",
  "contractName": "ERC721ATest",
  "sourceName": "contracts/ERC721ATest.sol",
  "abi": [
    {
      "inputs": [],
      "stateMutability": "nonpayable",
      "type": "constructor"
    },
    {
      "inputs": [],
      "name": "ApprovalCallerNotOwnerNorApproved",
      "type": "error"
    },
    {
      "inputs": [],
      "name": "ApprovalQueryForNonexistentToken",
      "type": "error"
    },
    {
      "inputs": [],
      "name": "ApprovalToCurrentOwner",
      "type": "error"
    },
    {
      "inputs": [],
      "name": "ApproveToCaller",
      "type": "error"
    },
    {
      "inputs": [],
      "name": "BalanceQueryForZeroAddress",
      "type": "error"
    },
    {
      "inputs": [],
      "name": "MintToZeroAddress",
      "type": "error"
    },
    {
      "inputs": [],
      "name": "MintZeroQuantity",
      "type": "error"
    },
    {
      "inputs": [],
      "name": "OwnerQueryForNonexistentToken",
      "type": "error"
    },
    {
      "inputs": [],
      "name": "TransferCallerNotOwnerNorApproved",
      "type": "error"
    },
    {
      "inputs": [],
      "name": "TransferFromIncorrectOwner",
      "type": "error"
    },
    {
      "inputs": [],
      "name": "TransferToNonERC721ReceiverImplementer",
      "type": "error"
    },
    {
      "inputs": [],
      "name": "TransferToZeroAddress",
      "type": "error"
    },
    {
      "inputs": [],
      "name": "URIQueryForNonexistentToken",
      "type": "error"
    },
    {
      "anonymous": false,
      "inputs": [
        {
          "indexed": true,
          "internalType": "address",
          "name": "owner",
          "type": "address"
        },
        {
          "indexed": true,
          "internalType": "address",
          "name": "approved",
          "type": "address"
        },
        {
          "indexed": true,
          "internalType": "uint256",
          "name": "tokenId",
          "type": "uint256"
        }
      ],
      "name": "Approval",
      "type": "event"
    },
    {
      "anonymous": false,
      "inputs": [
        {
          "indexed": true,
          "internalType": "address",
          "name": "owner",
          "type": "address"
        },
        {
          "indexed": true,
          "internalType": "address",
          "name": "operator",
          "type": "address"
        },
        {
          "indexed": false,
          "internalType": "bool",
          "name": "approved",
          "type": "bool"
        }
      ],
      "name": "ApprovalForAll",
      "type": "event"
    },
    {
      "anonymous": false,
      "inputs": [
        {
          "indexed": true,
          "internalType": "address",
          "name": "from",
          "type": "address"
        },
        {
          "indexed": true,
          "internalType": "address",
          "name": "to",
          "type": "address"
        },
        {
          "indexed": true,
          "internalType": "uint256",
          "name": "tokenId",
          "type": "uint256"
        }
      ],
      "name": "Transfer",
      "type": "event"
    },
    {
      "inputs": [
        {
          "internalType": "address",
          "name": "to",
          "type": "address"
        },
        {
          "internalType": "uint256",
          "name": "tokenId",
          "type": "uint256"
        }
      ],
      "name": "approve",
      "outputs": [],
      "stateMutability": "nonpayable",
      "type": "function"
    },
    {
      "inputs": [
        {
          "internalType": "address",
          "name": "owner",
          "type": "address"
        }
      ],
      "name": "balanceOf",
      "outputs": [
        {
          "internalType": "uint256",
          "name": "",
          "type": "uint256"
        }
      ],
      "stateMutability": "view",
      "type": "function"
    },
    {
      "inputs": [],
      "name": "claim",
      "outputs": [],
      "stateMutability": "nonpayable",
      "type": "function"
    },
    {
      "inputs": [
        {
          "internalType": "uint256",
          "name": "tokenId",
          "type": "uint256"
        }
      ],
      "name": "getApproved",
      "outputs": [
        {
          "internalType": "address",
          "name": "",
          "type": "address"
        }
      ],
      "stateMutability": "view",
      "type": "function"
    },
    {
      "inputs": [
        {
          "internalType": "address",
          "name": "owner",
          "type": "address"
        },
        {
          "internalType": "address",
          "name": "operator",
          "type": "address"
        }
      ],
      "name": "isApprovedForAll",
      "outputs": [
        {
          "internalType": "bool",
          "name": "",
          "type": "bool"
        }
      ],
      "stateMutability": "view",
      "type": "function"
    },
    {
      "inputs": [],
      "name": "name",
      "outputs": [
        {
          "internalType": "string",
          "name": "",
          "type": "string"
        }
      ],
      "stateMutability": "view",
      "type": "function"
    },
    {
      "inputs": [
        {
          "internalType": "uint256",
          "name": "tokenId",
          "type": "uint256"
        }
      ],
      "name": "ownerOf",
      "outputs": [
        {
          "internalType": "address",
          "name": "",
          "type": "address"
        }
      ],
      "stateMutability": "view",
      "type": "function"
    },
    {
      "inputs": [
        {
          "internalType": "address",
          "name": "from",
          "type": "address"
        },
        {
          "internalType": "address",
          "name": "to",
          "type": "address"
        },
        {
          "internalType": "uint256",
          "name": "tokenId",
          "type": "uint256"
        }
      ],
      "name": "safeTransferFrom",
      "outputs": [],
      "stateMutability": "nonpayable",
      "type": "function"
    },
    {
      "inputs": [
        {
          "internalType": "address",
          "name": "from",
          "type": "address"
        },
        {
          "internalType": "address",
          "name": "to",
          "type": "address"
        },
        {
          "internalType": "uint256",
          "name": "tokenId",
          "type": "uint256"
        },
        {
          "internalType": "bytes",
          "name": "_data",
          "type": "bytes"
        }
      ],
      "name": "safeTransferFrom",
      "outputs": [],
      "stateMutability": "nonpayable",
      "type": "function"
    },
    {
      "inputs": [
        {
          "internalType": "address",
          "name": "operator",
          "type": "address"
        },
        {
          "internalType": "bool",
          "name": "approved",
          "type": "bool"
        }
      ],
      "name": "setApprovalForAll",
      "outputs": [],
      "stateMutability": "nonpayable",
      "type": "function"
    },
    {
      "inputs": [
        {
          "internalType": "bytes4",
          "name": "interfaceId",
          "type": "bytes4"
        }
      ],
      "name": "supportsInterface",
      "outputs": [
        {
          "internalType": "bool",
          "name": "",
          "type": "bool"
        }
      ],
      "stateMutability": "view",
      "type": "function"
    },
    {
      "inputs": [],
      "name": "symbol",
      "outputs": [
        {
          "internalType": "string",
          "name": "",
          "type": "string"
        }
      ],
      "stateMutability": "view",
      "type": "function"
    },
    {
      "inputs": [
        {
          "internalType": "uint256",
          "name": "tokenId",
          "type": "uint256"
        }
      ],
      "name": "tokenURI",
      "outputs": [
        {
          "internalType": "string",
          "name": "",
          "type": "string"
        }
      ],
      "stateMutability": "view",
      "type": "function"
    },
    {
      "inputs": [],
      "name": "totalSupply",
      "outputs": [
        {
          "internalType": "uint256",
          "name": "",
          "type": "uint256"
        }
      ],
      "stateMutability": "view",
      "type": "function"
    },
    {
      "inputs": [
        {
          "internalType": "address",
          "name": "from",
          "type": "address"
        },
        {
          "internalType": "address",
          "name": "to",
          "type": "address"
        },
        {
          "internalType": "uint256",
          "name": "tokenId",
          "type": "uint256"
        }
      ],
      "name": "transferFrom",
      "outputs": [],
      "stateMutability": "nonpayable",
      "type": "function"
    }
  ],
  "bytecode": "0x60806040523480156200001157600080fd5b506040518060400160405280600a81526020017f45524337323154657374000000000000000000000000000000000000000000008152506040518060400160405280600581526020017f4554373231000000000000000000000000000000000000000000000000000000815250816002908051906020019062000096929190620000d3565b508060039080519060200190620000af929190620000d3565b50620000c0620000ce60201b60201c565b6000819055505050620001e8565b600090565b828054620000e19062000183565b90600052602060002090601f01602090048101928262000105576000855562000151565b82601f106200012057805160ff191683800117855562000151565b8280016001018555821562000151579182015b828111156200015057825182559160200191906001019062000133565b5b50905062000160919062000164565b5090565b5b808211156200017f57600081600090555060010162000165565b5090565b600060028204905060018216806200019c57607f821691505b60208210811415620001b357620001b2620001b9565b5b50919050565b7f4e487b7100000000000000000000000000000000000000000000000000000000600052602260045260246000fd5b61246f80620001f86000396000f3fe608060405234801561001057600080fd5b50600436106100f55760003560e01c80634e71d92d11610097578063a22cb46511610066578063a22cb46514610272578063b88d4fde1461028e578063c87b56dd146102aa578063e985e9c5146102da576100f5565b80634e71d92d146101ea5780636352211e146101f457806370a082311461022457806395d89b4114610254576100f5565b8063095ea7b3116100d3578063095ea7b31461017857806318160ddd1461019457806323b872dd146101b257806342842e0e146101ce576100f5565b806301ffc9a7146100fa57806306fdde031461012a578063081812fc14610148575b600080fd5b610114600480360381019061010f9190611dfb565b61030a565b6040516101219190611fd1565b60405180910390f35b6101326103ec565b60405161013f9190611fec565b60405180910390f35b610162600480360381019061015d9190611e4d565b61047e565b60405161016f9190611f6a565b60405180910390f35b610192600480360381019061018d9190611dbf565b6104fa565b005b61019c610605565b6040516101a9919061200e565b60405180910390f35b6101cc60048036038101906101c79190611cb9565b61061c565b005b6101e860048036038101906101e39190611cb9565b61062c565b005b6101f261064c565b005b61020e60048036038101906102099190611e4d565b610659565b60405161021b9190611f6a565b60405180910390f35b61023e60048036038101906102399190611c54565b61066f565b60405161024b919061200e565b60405180910390f35b61025c61073f565b6040516102699190611fec565b60405180910390f35b61028c60048036038101906102879190611d83565b6107d1565b005b6102a860048036038101906102a39190611d08565b610949565b005b6102c460048036038101906102bf9190611e4d565b6109c5565b6040516102d19190611fec565b60405180910390f35b6102f460048036038101906102ef9190611c7d565b610a64565b6040516103019190611fd1565b60405180910390f35b60007f80ac58cd000000000000000000000000000000000000000000000000000000007bffffffffffffffffffffffffffffffffffffffffffffffffffffffff1916827bffffffffffffffffffffffffffffffffffffffffffffffffffffffff191614806103d557507f5b5e139f000000000000000000000000000000000000000000000000000000007bffffffffffffffffffffffffffffffffffffffffffffffffffffffff1916827bffffffffffffffffffffffffffffffffffffffffffffffffffffffff1916145b806103e557506103e482610af8565b5b9050919050565b6060600280546103fb90612233565b80601f016020809104026020016040519081016040528092919081815260200182805461042790612233565b80156104745780601f1061044957610100808354040283529160200191610474565b820191906000526020600020905b81548152906001019060200180831161045757829003601f168201915b5050505050905090565b600061048982610b62565b6104bf576040517fcf4700e400000000000000000000000000000000000000000000000000000000815260040160405180910390fd5b6006600083815260200190815260200160002060009054906101000a900473ffffffffffffffffffffffffffffffffffffffff169050919050565b600061050582610659565b90508073ffffffffffffffffffffffffffffffffffffffff168373ffffffffffffffffffffffffffffffffffffffff16141561056d576040517f943f7b8c00000000000000000000000000000000000000000000000000000000815260040160405180910390fd5b8073ffffffffffffffffffffffffffffffffffffffff1661058c610bb0565b73ffffffffffffffffffffffffffffffffffffffff16141580156105be57506105bc816105b7610bb0565b610a64565b155b156105f5576040517fcfb3b94200000000000000000000000000000000000000000000000000000000815260040160405180910390fd5b610600838383610bb8565b505050565b600061060f610c6a565b6001546000540303905090565b610627838383610c6f565b505050565b61064783838360405180602001604052806000815250610949565b505050565b610657336001611160565b565b60006106648261117e565b600001519050919050565b60008073ffffffffffffffffffffffffffffffffffffffff168273ffffffffffffffffffffffffffffffffffffffff1614156106d7576040517f8f4eb60400000000000000000000000000000000000000000000000000000000815260040160405180910390fd5b600560008373ffffffffffffffffffffffffffffffffffffffff1673ffffffffffffffffffffffffffffffffffffffff16815260200190815260200160002060000160009054906101000a900467ffffffffffffffff1667ffffffffffffffff169050919050565b60606003805461074e90612233565b80601f016020809104026020016040519081016040528092919081815260200182805461077a90612233565b80156107c75780601f1061079c576101008083540402835291602001916107c7565b820191906000526020600020905b8154815290600101906020018083116107aa57829003601f168201915b5050505050905090565b6107d9610bb0565b73ffffffffffffffffffffffffffffffffffffffff168273ffffffffffffffffffffffffffffffffffffffff16141561083e576040517fb06307db00000000000000000000000000000000000000000000000000000000815260040160405180910390fd5b806007600061084b610bb0565b73ffffffffffffffffffffffffffffffffffffffff1673ffffffffffffffffffffffffffffffffffffffff16815260200190815260200160002060008473ffffffffffffffffffffffffffffffffffffffff1673ffffffffffffffffffffffffffffffffffffffff16815260200190815260200160002060006101000a81548160ff0219169083151502179055508173ffffffffffffffffffffffffffffffffffffffff166108f8610bb0565b73ffffffffffffffffffffffffffffffffffffffff167f17307eab39ab6107e8899845ad3d59bd9653f200f220920489ca2b5937696c318360405161093d9190611fd1565b60405180910390a35050565b610954848484610c6f565b6109738373ffffffffffffffffffffffffffffffffffffffff1661140d565b8015610988575061098684848484611430565b155b156109bf576040517fd1a57ed600000000000000000000000000000000000000000000000000000000815260040160405180910390fd5b50505050565b60606109d082610b62565b610a06576040517fa14c4b5000000000000000000000000000000000000000000000000000000000815260040160405180910390fd5b6000610a10611590565b9050600081511415610a315760405180602001604052806000815250610a5c565b80610a3b846115a7565b604051602001610a4c929190611f46565b6040516020818303038152906040525b915050919050565b6000600760008473ffffffffffffffffffffffffffffffffffffffff1673ffffffffffffffffffffffffffffffffffffffff16815260200190815260200160002060008373ffffffffffffffffffffffffffffffffffffffff1673ffffffffffffffffffffffffffffffffffffffff16815260200190815260200160002060009054906101000a900460ff16905092915050565b60007f01ffc9a7000000000000000000000000000000000000000000000000000000007bffffffffffffffffffffffffffffffffffffffffffffffffffffffff1916827bffffffffffffffffffffffffffffffffffffffffffffffffffffffff1916149050919050565b600081610b6d610c6a565b11158015610b7c575060005482105b8015610ba9575060046000838152602001908152602001600020600001601c9054906101000a900460ff16155b9050919050565b600033905090565b826006600084815260200190815260200160002060006101000a81548173ffffffffffffffffffffffffffffffffffffffff021916908373ffffffffffffffffffffffffffffffffffffffff160217905550818373ffffffffffffffffffffffffffffffffffffffff168273ffffffffffffffffffffffffffffffffffffffff167f8c5be1e5ebec7d5bd14f71427d1e84f3dd0314c0f7b2291e5b200ac8c7c3b92560405160405180910390a4505050565b600090565b6000610c7a8261117e565b90506000816000015173ffffffffffffffffffffffffffffffffffffffff16610ca1610bb0565b73ffffffffffffffffffffffffffffffffffffffff161480610cd45750610cd38260000151610cce610bb0565b610a64565b5b80610d195750610ce2610bb0565b73ffffffffffffffffffffffffffffffffffffffff16610d018461047e565b73ffffffffffffffffffffffffffffffffffffffff16145b905080610d52576040517f59c896be00000000000000000000000000000000000000000000000000000000815260040160405180910390fd5b8473ffffffffffffffffffffffffffffffffffffffff16826000015173ffffffffffffffffffffffffffffffffffffffff1614610dbb576040517fa114810000000000000000000000000000000000000000000000000000000000815260040160405180910390fd5b600073ffffffffffffffffffffffffffffffffffffffff168473ffffffffffffffffffffffffffffffffffffffff161415610e22576040517fea553b3400000000000000000000000000000000000000000000000000000000815260040160405180910390fd5b610e2f8585856001611754565b610e3f6000848460000151610bb8565b6001600560008773ffffffffffffffffffffffffffffffffffffffff1673ffffffffffffffffffffffffffffffffffffffff16815260200190815260200160002060000160008282829054906101000a900467ffffffffffffffff160392506101000a81548167ffffffffffffffff021916908367ffffffffffffffff1602179055506001600560008673ffffffffffffffffffffffffffffffffffffffff1673ffffffffffffffffffffffffffffffffffffffff16815260200190815260200160002060000160008282829054906101000a900467ffffffffffffffff160192506101000a81548167ffffffffffffffff021916908367ffffffffffffffff160217905550836004600085815260200190815260200160002060000160006101000a81548173ffffffffffffffffffffffffffffffffffffffff021916908373ffffffffffffffffffffffffffffffffffffffff160217905550426004600085815260200190815260200160002060000160146101000a81548167ffffffffffffffff021916908367ffffffffffffffff1602179055506000600184019050600073ffffffffffffffffffffffffffffffffffffffff166004600083815260200190815260200160002060000160009054906101000a900473ffffffffffffffffffffffffffffffffffffffff1673ffffffffffffffffffffffffffffffffffffffff1614156110f0576000548110156110ef5782600001516004600083815260200190815260200160002060000160006101000a81548173ffffffffffffffffffffffffffffffffffffffff021916908373ffffffffffffffffffffffffffffffffffffffff16021790555082602001516004600083815260200190815260200160002060000160146101000a81548167ffffffffffffffff021916908367ffffffffffffffff1602179055505b5b50828473ffffffffffffffffffffffffffffffffffffffff168673ffffffffffffffffffffffffffffffffffffffff167fddf252ad1be2c89b69c2b068fc378daa952ba7f163c4a11628f55a4df523b3ef60405160405180910390a4611159858585600161175a565b5050505050565b61117a828260405180602001604052806000815250611760565b5050565b611186611b40565b600082905080611194610c6a565b111580156111a3575060005481105b156113d6576000600460008381526020019081526020016000206040518060600160405290816000820160009054906101000a900473ffffffffffffffffffffffffffffffffffffffff1673ffffffffffffffffffffffffffffffffffffffff1673ffffffffffffffffffffffffffffffffffffffff1681526020016000820160149054906101000a900467ffffffffffffffff1667ffffffffffffffff1667ffffffffffffffff16815260200160008201601c9054906101000a900460ff161515151581525050905080604001516113d457600073ffffffffffffffffffffffffffffffffffffffff16816000015173ffffffffffffffffffffffffffffffffffffffff16146112b8578092505050611408565b5b6001156113d357818060019003925050600460008381526020019081526020016000206040518060600160405290816000820160009054906101000a900473ffffffffffffffffffffffffffffffffffffffff1673ffffffffffffffffffffffffffffffffffffffff1673ffffffffffffffffffffffffffffffffffffffff1681526020016000820160149054906101000a900467ffffffffffffffff1667ffffffffffffffff1667ffffffffffffffff16815260200160008201601c9054906101000a900460ff1615151515815250509050600073ffffffffffffffffffffffffffffffffffffffff16816000015173ffffffffffffffffffffffffffffffffffffffff16146113ce578092505050611408565b6112b9565b5b505b6040517fdf2d9b4200000000000000000000000000000000000000000000000000000000815260040160405180910390fd5b919050565b6000808273ffffffffffffffffffffffffffffffffffffffff163b119050919050565b60008373ffffffffffffffffffffffffffffffffffffffff1663150b7a02611456610bb0565b8786866040518563ffffffff1660e01b81526004016114789493929190611f85565b602060405180830381600087803b15801561149257600080fd5b505af19250505080156114c357506040513d601f19601f820116820180604052508101906114c09190611e24565b60015b61153d573d80600081146114f3576040519150601f19603f3d011682016040523d82523d6000602084013e6114f8565b606091505b50600081511415611535576040517fd1a57ed600000000000000000000000000000000000000000000000000000000815260040160405180910390fd5b805181602001fd5b63150b7a0260e01b7bffffffffffffffffffffffffffffffffffffffffffffffffffffffff1916817bffffffffffffffffffffffffffffffffffffffffffffffffffffffff191614915050949350505050565b606060405180602001604052806000815250905090565b606060008214156115ef576040518060400160405280600181526020017f3000000000000000000000000000000000000000000000000000000000000000815250905061174f565b600082905060005b6000821461162157808061160a90612296565b915050600a8261161a9190612118565b91506115f7565b60008167ffffffffffffffff811115611663577f4e487b7100000000000000000000000000000000000000000000000000000000600052604160045260246000fd5b6040519080825280601f01601f1916602001820160405280156116955781602001600182028036833780820191505090505b5090505b60008514611748576001826116ae9190612149565b9150600a856116bd91906122df565b60306116c991906120c2565b60f81b818381518110611705577f4e487b7100000000000000000000000000000000000000000000000000000000600052603260045260246000fd5b60200101907effffffffffffffffffffffffffffffffffffffffffffffffffffffffffffff1916908160001a905350600a856117419190612118565b9450611699565b8093505050505b919050565b50505050565b50505050565b61176d8383836001611772565b505050565b600080549050600073ffffffffffffffffffffffffffffffffffffffff168573ffffffffffffffffffffffffffffffffffffffff1614156117df576040517f2e07630000000000000000000000000000000000000000000000000000000000815260040160405180910390fd5b600084141561181a576040517fb562e8dd00000000000000000000000000000000000000000000000000000000815260040160405180910390fd5b6118276000868387611754565b83600560008773ffffffffffffffffffffffffffffffffffffffff1673ffffffffffffffffffffffffffffffffffffffff16815260200190815260200160002060000160008282829054906101000a900467ffffffffffffffff160192506101000a81548167ffffffffffffffff021916908367ffffffffffffffff16021790555083600560008773ffffffffffffffffffffffffffffffffffffffff1673ffffffffffffffffffffffffffffffffffffffff16815260200190815260200160002060000160088282829054906101000a900467ffffffffffffffff160192506101000a81548167ffffffffffffffff021916908367ffffffffffffffff160217905550846004600083815260200190815260200160002060000160006101000a81548173ffffffffffffffffffffffffffffffffffffffff021916908373ffffffffffffffffffffffffffffffffffffffff160217905550426004600083815260200190815260200160002060000160146101000a81548167ffffffffffffffff021916908367ffffffffffffffff1602179055506000819050600085820190508380156119f157506119f08773ffffffffffffffffffffffffffffffffffffffff1661140d565b5b15611ab7575b818773ffffffffffffffffffffffffffffffffffffffff16600073ffffffffffffffffffffffffffffffffffffffff167fddf252ad1be2c89b69c2b068fc378daa952ba7f163c4a11628f55a4df523b3ef60405160405180910390a4611a666000888480600101955088611430565b611a9c576040517fd1a57ed600000000000000000000000000000000000000000000000000000000815260040160405180910390fd5b808214156119f7578260005414611ab257600080fd5b611b23565b5b818060010192508773ffffffffffffffffffffffffffffffffffffffff16600073ffffffffffffffffffffffffffffffffffffffff167fddf252ad1be2c89b69c2b068fc378daa952ba7f163c4a11628f55a4df523b3ef60405160405180910390a480821415611ab8575b816000819055505050611b39600086838761175a565b5050505050565b6040518060600160405280600073ffffffffffffffffffffffffffffffffffffffff168152602001600067ffffffffffffffff1681526020016000151581525090565b6000611b96611b918461204e565b612029565b905082815260208101848484011115611bae57600080fd5b611bb98482856121f1565b509392505050565b600081359050611bd0816123dd565b92915050565b600081359050611be5816123f4565b92915050565b600081359050611bfa8161240b565b92915050565b600081519050611c0f8161240b565b92915050565b600082601f830112611c2657600080fd5b8135611c36848260208601611b83565b91505092915050565b600081359050611c4e81612422565b92915050565b600060208284031215611c6657600080fd5b6000611c7484828501611bc1565b91505092915050565b60008060408385031215611c9057600080fd5b6000611c9e85828601611bc1565b9250506020611caf85828601611bc1565b9150509250929050565b600080600060608486031215611cce57600080fd5b6000611cdc86828701611bc1565b9350506020611ced86828701611bc1565b9250506040611cfe86828701611c3f565b9150509250925092565b60008060008060808587031215611d1e57600080fd5b6000611d2c87828801611bc1565b9450506020611d3d87828801611bc1565b9350506040611d4e87828801611c3f565b925050606085013567ffffffffffffffff811115611d6b57600080fd5b611d7787828801611c15565b91505092959194509250565b60008060408385031215611d9657600080fd5b6000611da485828601611bc1565b9250506020611db585828601611bd6565b9150509250929050565b60008060408385031215611dd257600080fd5b6000611de085828601611bc1565b9250506020611df185828601611c3f565b9150509250929050565b600060208284031215611e0d57600080fd5b6000611e1b84828501611beb565b91505092915050565b600060208284031215611e3657600080fd5b6000611e4484828501611c00565b91505092915050565b600060208284031215611e5f57600080fd5b6000611e6d84828501611c3f565b91505092915050565b611e7f8161217d565b82525050565b611e8e8161218f565b82525050565b6000611e9f8261207f565b611ea98185612095565b9350611eb9818560208601612200565b611ec2816123cc565b840191505092915050565b6000611ed88261208a565b611ee281856120a6565b9350611ef2818560208601612200565b611efb816123cc565b840191505092915050565b6000611f118261208a565b611f1b81856120b7565b9350611f2b818560208601612200565b80840191505092915050565b611f40816121e7565b82525050565b6000611f528285611f06565b9150611f5e8284611f06565b91508190509392505050565b6000602082019050611f7f6000830184611e76565b92915050565b6000608082019050611f9a6000830187611e76565b611fa76020830186611e76565b611fb46040830185611f37565b8181036060830152611fc68184611e94565b905095945050505050565b6000602082019050611fe66000830184611e85565b92915050565b600060208201905081810360008301526120068184611ecd565b905092915050565b60006020820190506120236000830184611f37565b92915050565b6000612033612044565b905061203f8282612265565b919050565b6000604051905090565b600067ffffffffffffffff8211156120695761206861239d565b5b612072826123cc565b9050602081019050919050565b600081519050919050565b600081519050919050565b600082825260208201905092915050565b600082825260208201905092915050565b600081905092915050565b60006120cd826121e7565b91506120d8836121e7565b9250827fffffffffffffffffffffffffffffffffffffffffffffffffffffffffffffffff0382111561210d5761210c612310565b5b828201905092915050565b6000612123826121e7565b915061212e836121e7565b92508261213e5761213d61233f565b5b828204905092915050565b6000612154826121e7565b915061215f836121e7565b92508282101561217257612171612310565b5b828203905092915050565b6000612188826121c7565b9050919050565b60008115159050919050565b60007fffffffff0000000000000000000000000000000000000000000000000000000082169050919050565b600073ffffffffffffffffffffffffffffffffffffffff82169050919050565b6000819050919050565b82818337600083830152505050565b60005b8381101561221e578082015181840152602081019050612203565b8381111561222d576000848401525b50505050565b6000600282049050600182168061224b57607f821691505b6020821081141561225f5761225e61236e565b5b50919050565b61226e826123cc565b810181811067ffffffffffffffff8211171561228d5761228c61239d565b5b80604052505050565b60006122a1826121e7565b91507fffffffffffffffffffffffffffffffffffffffffffffffffffffffffffffffff8214156122d4576122d3612310565b5b600182019050919050565b60006122ea826121e7565b91506122f5836121e7565b9250826123055761230461233f565b5b828206905092915050565b7f4e487b7100000000000000000000000000000000000000000000000000000000600052601160045260246000fd5b7f4e487b7100000000000000000000000000000000000000000000000000000000600052601260045260246000fd5b7f4e487b7100000000000000000000000000000000000000000000000000000000600052602260045260246000fd5b7f4e487b7100000000000000000000000000000000000000000000000000000000600052604160045260246000fd5b6000601f19601f8301169050919050565b6123e68161217d565b81146123f157600080fd5b50565b6123fd8161218f565b811461240857600080fd5b50565b6124148161219b565b811461241f57600080fd5b50565b61242b816121e7565b811461243657600080fd5b5056fea2646970667358221220c6f577613cb364eae197e59607d1e8fa779da096d77200bd6f820903013ffe9464736f6c63430008040033",
  "linkReferences": {},
  "deployedLinkReferences": {}
}