{
  "_format": "hh-sol-artifact-1",
  "contractName": "MyToken",
  "sourceName": "contracts/RandomNFTs.sol",
  "abi": [
    {
      "inputs": [],
      "stateMutability": "nonpayable",
      "type": "constructor"
    },
    {
      "anonymous": false,
      "inputs": [
        {
          "indexed": true,
          "internalType": "address",
          "name": "account",
          "type": "address"
        },
        {
          "indexed": true,
          "internalType": "address",
          "name": "operator",
          "type": "address"
        },
        {
          "indexed": false,
          "internalType": "bool",
          "name": "approved",
          "type": "bool"
        }
      ],
      "name": "ApprovalForAll",
      "type": "event"
    },
    {
      "anonymous": false,
      "inputs": [
        {
          "indexed": true,
          "internalType": "address",
          "name": "previousOwner",
          "type": "address"
        },
        {
          "indexed": true,
          "internalType": "address",
          "name": "newOwner",
          "type": "address"
        }
      ],
      "name": "OwnershipTransferred",
      "type": "event"
    },
    {
      "anonymous": false,
      "inputs": [
        {
          "indexed": true,
          "internalType": "address",
          "name": "operator",
          "type": "address"
        },
        {
          "indexed": true,
          "internalType": "address",
          "name": "from",
          "type": "address"
        },
        {
          "indexed": true,
          "internalType": "address",
          "name": "to",
          "type": "address"
        },
        {
          "indexed": false,
          "internalType": "uint256[]",
          "name": "ids",
          "type": "uint256[]"
        },
        {
          "indexed": false,
          "internalType": "uint256[]",
          "name": "values",
          "type": "uint256[]"
        }
      ],
      "name": "TransferBatch",
      "type": "event"
    },
    {
      "anonymous": false,
      "inputs": [
        {
          "indexed": true,
          "internalType": "address",
          "name": "operator",
          "type": "address"
        },
        {
          "indexed": true,
          "internalType": "address",
          "name": "from",
          "type": "address"
        },
        {
          "indexed": true,
          "internalType": "address",
          "name": "to",
          "type": "address"
        },
        {
          "indexed": false,
          "internalType": "uint256",
          "name": "id",
          "type": "uint256"
        },
        {
          "indexed": false,
          "internalType": "uint256",
          "name": "value",
          "type": "uint256"
        }
      ],
      "name": "TransferSingle",
      "type": "event"
    },
    {
      "anonymous": false,
      "inputs": [
        {
          "indexed": false,
          "internalType": "string",
          "name": "value",
          "type": "string"
        },
        {
          "indexed": true,
          "internalType": "uint256",
          "name": "id",
          "type": "uint256"
        }
      ],
      "name": "URI",
      "type": "event"
    },
    {
      "inputs": [
        {
          "internalType": "address",
          "name": "account",
          "type": "address"
        },
        {
          "internalType": "uint256",
          "name": "id",
          "type": "uint256"
        }
      ],
      "name": "balanceOf",
      "outputs": [
        {
          "internalType": "uint256",
          "name": "",
          "type": "uint256"
        }
      ],
      "stateMutability": "view",
      "type": "function"
    },
    {
      "inputs": [
        {
          "internalType": "address[]",
          "name": "accounts",
          "type": "address[]"
        },
        {
          "internalType": "uint256[]",
          "name": "ids",
          "type": "uint256[]"
        }
      ],
      "name": "balanceOfBatch",
      "outputs": [
        {
          "internalType": "uint256[]",
          "name": "",
          "type": "uint256[]"
        }
      ],
      "stateMutability": "view",
      "type": "function"
    },
    {
      "inputs": [
        {
          "internalType": "address",
          "name": "account",
          "type": "address"
        },
        {
          "internalType": "uint256",
          "name": "id",
          "type": "uint256"
        },
        {
          "internalType": "uint256",
          "name": "value",
          "type": "uint256"
        }
      ],
      "name": "burn",
      "outputs": [],
      "stateMutability": "nonpayable",
      "type": "function"
    },
    {
      "inputs": [
        {
          "internalType": "address",
          "name": "account",
          "type": "address"
        },
        {
          "internalType": "uint256[]",
          "name": "ids",
          "type": "uint256[]"
        },
        {
          "internalType": "uint256[]",
          "name": "values",
          "type": "uint256[]"
        }
      ],
      "name": "burnBatch",
      "outputs": [],
      "stateMutability": "nonpayable",
      "type": "function"
    },
    {
      "inputs": [
        {
          "internalType": "address",
          "name": "account",
          "type": "address"
        },
        {
          "internalType": "address",
          "name": "operator",
          "type": "address"
        }
      ],
      "name": "isApprovedForAll",
      "outputs": [
        {
          "internalType": "bool",
          "name": "",
          "type": "bool"
        }
      ],
      "stateMutability": "view",
      "type": "function"
    },
    {
      "inputs": [
        {
          "internalType": "address",
          "name": "account",
          "type": "address"
        },
        {
          "internalType": "uint256",
          "name": "id",
          "type": "uint256"
        },
        {
          "internalType": "uint256",
          "name": "amount",
          "type": "uint256"
        },
        {
          "internalType": "bytes",
          "name": "data",
          "type": "bytes"
        }
      ],
      "name": "mint",
      "outputs": [],
      "stateMutability": "nonpayable",
      "type": "function"
    },
    {
      "inputs": [
        {
          "internalType": "address",
          "name": "to",
          "type": "address"
        },
        {
          "internalType": "uint256[]",
          "name": "ids",
          "type": "uint256[]"
        },
        {
          "internalType": "uint256[]",
          "name": "amounts",
          "type": "uint256[]"
        },
        {
          "internalType": "bytes",
          "name": "data",
          "type": "bytes"
        }
      ],
      "name": "mintBatch",
      "outputs": [],
      "stateMutability": "nonpayable",
      "type": "function"
    },
    {
      "inputs": [],
      "name": "owner",
      "outputs": [
        {
          "internalType": "address",
          "name": "",
          "type": "address"
        }
      ],
      "stateMutability": "view",
      "type": "function"
    },
    {
      "inputs": [],
      "name": "renounceOwnership",
      "outputs": [],
      "stateMutability": "nonpayable",
      "type": "function"
    },
    {
      "inputs": [
        {
          "internalType": "address",
          "name": "from",
          "type": "address"
        },
        {
          "internalType": "address",
          "name": "to",
          "type": "address"
        },
        {
          "internalType": "uint256[]",
          "name": "ids",
          "type": "uint256[]"
        },
        {
          "internalType": "uint256[]",
          "name": "amounts",
          "type": "uint256[]"
        },
        {
          "internalType": "bytes",
          "name": "data",
          "type": "bytes"
        }
      ],
      "name": "safeBatchTransferFrom",
      "outputs": [],
      "stateMutability": "nonpayable",
      "type": "function"
    },
    {
      "inputs": [
        {
          "internalType": "address",
          "name": "from",
          "type": "address"
        },
        {
          "internalType": "address",
          "name": "to",
          "type": "address"
        },
        {
          "internalType": "uint256",
          "name": "id",
          "type": "uint256"
        },
        {
          "internalType": "uint256",
          "name": "amount",
          "type": "uint256"
        },
        {
          "internalType": "bytes",
          "name": "data",
          "type": "bytes"
        }
      ],
      "name": "safeTransferFrom",
      "outputs": [],
      "stateMutability": "nonpayable",
      "type": "function"
    },
    {
      "inputs": [
        {
          "internalType": "address",
          "name": "operator",
          "type": "address"
        },
        {
          "internalType": "bool",
          "name": "approved",
          "type": "bool"
        }
      ],
      "name": "setApprovalForAll",
      "outputs": [],
      "stateMutability": "nonpayable",
      "type": "function"
    },
    {
      "inputs": [
        {
          "internalType": "string",
          "name": "newuri",
          "type": "string"
        }
      ],
      "name": "setURI",
      "outputs": [],
      "stateMutability": "nonpayable",
      "type": "function"
    },
    {
      "inputs": [
        {
          "internalType": "bytes4",
          "name": "interfaceId",
          "type": "bytes4"
        }
      ],
      "name": "supportsInterface",
      "outputs": [
        {
          "internalType": "bool",
          "name": "",
          "type": "bool"
        }
      ],
      "stateMutability": "view",
      "type": "function"
    },
    {
      "inputs": [
        {
          "internalType": "address",
          "name": "newOwner",
          "type": "address"
        }
      ],
      "name": "transferOwnership",
      "outputs": [],
      "stateMutability": "nonpayable",
      "type": "function"
    },
    {
      "inputs": [
        {
          "internalType": "uint256",
          "name": "",
          "type": "uint256"
        }
      ],
      "name": "uri",
      "outputs": [
        {
          "internalType": "string",
          "name": "",
          "type": "string"
        }
      ],
      "stateMutability": "view",
      "type": "function"
    }
  ],
  "bytecode": "0x60806040523480156200001157600080fd5b506040518060200160405280600081525062000033816200005a60201b60201c565b5062000054620000486200007660201b60201c565b6200007e60201b60201c565b62000259565b80600290805190602001906200007292919062000144565b5050565b600033905090565b6000600360009054906101000a900473ffffffffffffffffffffffffffffffffffffffff16905081600360006101000a81548173ffffffffffffffffffffffffffffffffffffffff021916908373ffffffffffffffffffffffffffffffffffffffff1602179055508173ffffffffffffffffffffffffffffffffffffffff168173ffffffffffffffffffffffffffffffffffffffff167f8be0079c531659141344cd1fd0a4f28419497f9722a3daafe3b4186f6b6457e060405160405180910390a35050565b8280546200015290620001f4565b90600052602060002090601f016020900481019282620001765760008555620001c2565b82601f106200019157805160ff1916838001178555620001c2565b82800160010185558215620001c2579182015b82811115620001c1578251825591602001919060010190620001a4565b5b509050620001d19190620001d5565b5090565b5b80821115620001f0576000816000905550600101620001d6565b5090565b600060028204905060018216806200020d57607f821691505b602082108114156200022457620002236200022a565b5b50919050565b7f4e487b7100000000000000000000000000000000000000000000000000000000600052602260045260246000fd5b613c8580620002696000396000f3fe608060405234801561001057600080fd5b50600436106100ff5760003560e01c8063715018a611610097578063e985e9c511610066578063e985e9c514610294578063f242432a146102c4578063f2fde38b146102e0578063f5298aca146102fc576100ff565b8063715018a614610234578063731133e91461023e5780638da5cb5b1461025a578063a22cb46514610278576100ff565b80631f7fdffa116100d35780631f7fdffa146101b05780632eb2c2d6146101cc5780634e1273f4146101e85780636b20c45414610218576100ff565b8062fdd58e1461010457806301ffc9a71461013457806302fe5305146101645780630e89341c14610180575b600080fd5b61011e60048036038101906101199190612a17565b610318565b60405161012b91906132c9565b60405180910390f35b61014e60048036038101906101499190612b89565b6103e1565b60405161015b91906130ac565b60405180910390f35b61017e60048036038101906101799190612bdb565b6104c3565b005b61019a60048036038101906101959190612c1c565b61054b565b6040516101a791906130c7565b60405180910390f35b6101ca60048036038101906101c59190612930565b6105df565b005b6101e660048036038101906101e19190612763565b61066d565b005b61020260048036038101906101fd9190612b1d565b61070e565b60405161020f9190613053565b60405180910390f35b610232600480360381019061022d91906128b1565b6108bf565b005b61023c61095c565b005b61025860048036038101906102539190612aa2565b6109e4565b005b610262610a72565b60405161026f9190612f76565b60405180910390f35b610292600480360381019061028d91906129db565b610a9c565b005b6102ae60048036038101906102a99190612727565b610ab2565b6040516102bb91906130ac565b60405180910390f35b6102de60048036038101906102d99190612822565b610b46565b005b6102fa60048036038101906102f591906126fe565b610be7565b005b61031660048036038101906103119190612a53565b610cdf565b005b60008073ffffffffffffffffffffffffffffffffffffffff168373ffffffffffffffffffffffffffffffffffffffff161415610389576040517f08c379a000000000000000000000000000000000000000000000000000000000815260040161038090613129565b60405180910390fd5b60008083815260200190815260200160002060008473ffffffffffffffffffffffffffffffffffffffff1673ffffffffffffffffffffffffffffffffffffffff16815260200190815260200160002054905092915050565b60007fd9b67a26000000000000000000000000000000000000000000000000000000007bffffffffffffffffffffffffffffffffffffffffffffffffffffffff1916827bffffffffffffffffffffffffffffffffffffffffffffffffffffffff191614806104ac57507f0e89341c000000000000000000000000000000000000000000000000000000007bffffffffffffffffffffffffffffffffffffffffffffffffffffffff1916827bffffffffffffffffffffffffffffffffffffffffffffffffffffffff1916145b806104bc57506104bb82610d7c565b5b9050919050565b6104cb610de6565b73ffffffffffffffffffffffffffffffffffffffff166104e9610a72565b73ffffffffffffffffffffffffffffffffffffffff161461053f576040517f08c379a000000000000000000000000000000000000000000000000000000000815260040161053690613229565b60405180910390fd5b61054881610dee565b50565b60606002805461055a90613569565b80601f016020809104026020016040519081016040528092919081815260200182805461058690613569565b80156105d35780601f106105a8576101008083540402835291602001916105d3565b820191906000526020600020905b8154815290600101906020018083116105b657829003601f168201915b50505050509050919050565b6105e7610de6565b73ffffffffffffffffffffffffffffffffffffffff16610605610a72565b73ffffffffffffffffffffffffffffffffffffffff161461065b576040517f08c379a000000000000000000000000000000000000000000000000000000000815260040161065290613229565b60405180910390fd5b61066784848484610e08565b50505050565b610675610de6565b73ffffffffffffffffffffffffffffffffffffffff168573ffffffffffffffffffffffffffffffffffffffff1614806106bb57506106ba856106b5610de6565b610ab2565b5b6106fa576040517f08c379a00000000000000000000000000000000000000000000000000000000081526004016106f1906131c9565b60405180910390fd5b6107078585858585611072565b5050505050565b60608151835114610754576040517f08c379a000000000000000000000000000000000000000000000000000000000815260040161074b90613269565b60405180910390fd5b6000835167ffffffffffffffff811115610797577f4e487b7100000000000000000000000000000000000000000000000000000000600052604160045260246000fd5b6040519080825280602002602001820160405280156107c55781602001602082028036833780820191505090505b50905060005b84518110156108b45761085e858281518110610810577f4e487b7100000000000000000000000000000000000000000000000000000000600052603260045260246000fd5b6020026020010151858381518110610851577f4e487b7100000000000000000000000000000000000000000000000000000000600052603260045260246000fd5b6020026020010151610318565b828281518110610897577f4e487b7100000000000000000000000000000000000000000000000000000000600052603260045260246000fd5b602002602001018181525050806108ad906135cc565b90506107cb565b508091505092915050565b6108c7610de6565b73ffffffffffffffffffffffffffffffffffffffff168373ffffffffffffffffffffffffffffffffffffffff16148061090d575061090c83610907610de6565b610ab2565b5b61094c576040517f08c379a000000000000000000000000000000000000000000000000000000000815260040161094390613189565b60405180910390fd5b6109578383836113d2565b505050565b610964610de6565b73ffffffffffffffffffffffffffffffffffffffff16610982610a72565b73ffffffffffffffffffffffffffffffffffffffff16146109d8576040517f08c379a00000000000000000000000000000000000000000000000000000000081526004016109cf90613229565b60405180910390fd5b6109e260006116cf565b565b6109ec610de6565b73ffffffffffffffffffffffffffffffffffffffff16610a0a610a72565b73ffffffffffffffffffffffffffffffffffffffff1614610a60576040517f08c379a0000000000000000000000000000000000000000000000000000000008152600401610a5790613229565b60405180910390fd5b610a6c84848484611795565b50505050565b6000600360009054906101000a900473ffffffffffffffffffffffffffffffffffffffff16905090565b610aae610aa7610de6565b838361192b565b5050565b6000600160008473ffffffffffffffffffffffffffffffffffffffff1673ffffffffffffffffffffffffffffffffffffffff16815260200190815260200160002060008373ffffffffffffffffffffffffffffffffffffffff1673ffffffffffffffffffffffffffffffffffffffff16815260200190815260200160002060009054906101000a900460ff16905092915050565b610b4e610de6565b73ffffffffffffffffffffffffffffffffffffffff168573ffffffffffffffffffffffffffffffffffffffff161480610b945750610b9385610b8e610de6565b610ab2565b5b610bd3576040517f08c379a0000000000000000000000000000000000000000000000000000000008152600401610bca90613189565b60405180910390fd5b610be08585858585611a98565b5050505050565b610bef610de6565b73ffffffffffffffffffffffffffffffffffffffff16610c0d610a72565b73ffffffffffffffffffffffffffffffffffffffff1614610c63576040517f08c379a0000000000000000000000000000000000000000000000000000000008152600401610c5a90613229565b60405180910390fd5b600073ffffffffffffffffffffffffffffffffffffffff168173ffffffffffffffffffffffffffffffffffffffff161415610cd3576040517f08c379a0000000000000000000000000000000000000000000000000000000008152600401610cca90613149565b60405180910390fd5b610cdc816116cf565b50565b610ce7610de6565b73ffffffffffffffffffffffffffffffffffffffff168373ffffffffffffffffffffffffffffffffffffffff161480610d2d5750610d2c83610d27610de6565b610ab2565b5b610d6c576040517f08c379a0000000000000000000000000000000000000000000000000000000008152600401610d6390613189565b60405180910390fd5b610d77838383611d1a565b505050565b60007f01ffc9a7000000000000000000000000000000000000000000000000000000007bffffffffffffffffffffffffffffffffffffffffffffffffffffffff1916827bffffffffffffffffffffffffffffffffffffffffffffffffffffffff1916149050919050565b600033905090565b8060029080519060200190610e049291906123f6565b5050565b600073ffffffffffffffffffffffffffffffffffffffff168473ffffffffffffffffffffffffffffffffffffffff161415610e78576040517f08c379a0000000000000000000000000000000000000000000000000000000008152600401610e6f906132a9565b60405180910390fd5b8151835114610ebc576040517f08c379a0000000000000000000000000000000000000000000000000000000008152600401610eb390613289565b60405180910390fd5b6000610ec6610de6565b9050610ed781600087878787611f37565b60005b8451811015610fdc57838181518110610f1c577f4e487b7100000000000000000000000000000000000000000000000000000000600052603260045260246000fd5b6020026020010151600080878481518110610f60577f4e487b7100000000000000000000000000000000000000000000000000000000600052603260045260246000fd5b6020026020010151815260200190815260200160002060008873ffffffffffffffffffffffffffffffffffffffff1673ffffffffffffffffffffffffffffffffffffffff1681526020019081526020016000206000828254610fc2919061345d565b925050819055508080610fd4906135cc565b915050610eda565b508473ffffffffffffffffffffffffffffffffffffffff16600073ffffffffffffffffffffffffffffffffffffffff168273ffffffffffffffffffffffffffffffffffffffff167f4a39dc06d4c0dbc64b70af90fd698a233a518aa5d07e595d983b8c0526c8f7fb8787604051611054929190613075565b60405180910390a461106b81600087878787611f3f565b5050505050565b81518351146110b6576040517f08c379a00000000000000000000000000000000000000000000000000000000081526004016110ad90613289565b60405180910390fd5b600073ffffffffffffffffffffffffffffffffffffffff168473ffffffffffffffffffffffffffffffffffffffff161415611126576040517f08c379a000000000000000000000000000000000000000000000000000000000815260040161111d906131a9565b60405180910390fd5b6000611130610de6565b9050611140818787878787611f37565b60005b845181101561133d576000858281518110611187577f4e487b7100000000000000000000000000000000000000000000000000000000600052603260045260246000fd5b6020026020010151905060008583815181106111cc577f4e487b7100000000000000000000000000000000000000000000000000000000600052603260045260246000fd5b60200260200101519050600080600084815260200190815260200160002060008b73ffffffffffffffffffffffffffffffffffffffff1673ffffffffffffffffffffffffffffffffffffffff1681526020019081526020016000205490508181101561126d576040517f08c379a000000000000000000000000000000000000000000000000000000000815260040161126490613209565b60405180910390fd5b81810360008085815260200190815260200160002060008c73ffffffffffffffffffffffffffffffffffffffff1673ffffffffffffffffffffffffffffffffffffffff168152602001908152602001600020819055508160008085815260200190815260200160002060008b73ffffffffffffffffffffffffffffffffffffffff1673ffffffffffffffffffffffffffffffffffffffff1681526020019081526020016000206000828254611322919061345d565b9250508190555050505080611336906135cc565b9050611143565b508473ffffffffffffffffffffffffffffffffffffffff168673ffffffffffffffffffffffffffffffffffffffff168273ffffffffffffffffffffffffffffffffffffffff167f4a39dc06d4c0dbc64b70af90fd698a233a518aa5d07e595d983b8c0526c8f7fb87876040516113b4929190613075565b60405180910390a46113ca818787878787611f3f565b505050505050565b600073ffffffffffffffffffffffffffffffffffffffff168373ffffffffffffffffffffffffffffffffffffffff161415611442576040517f08c379a0000000000000000000000000000000000000000000000000000000008152600401611439906131e9565b60405180910390fd5b8051825114611486576040517f08c379a000000000000000000000000000000000000000000000000000000000815260040161147d90613289565b60405180910390fd5b6000611490610de6565b90506114b081856000868660405180602001604052806000815250611f37565b60005b83518110156116495760008482815181106114f7577f4e487b7100000000000000000000000000000000000000000000000000000000600052603260045260246000fd5b60200260200101519050600084838151811061153c577f4e487b7100000000000000000000000000000000000000000000000000000000600052603260045260246000fd5b60200260200101519050600080600084815260200190815260200160002060008973ffffffffffffffffffffffffffffffffffffffff1673ffffffffffffffffffffffffffffffffffffffff168152602001908152602001600020549050818110156115dd576040517f08c379a00000000000000000000000000000000000000000000000000000000081526004016115d490613169565b60405180910390fd5b81810360008085815260200190815260200160002060008a73ffffffffffffffffffffffffffffffffffffffff1673ffffffffffffffffffffffffffffffffffffffff168152602001908152602001600020819055505050508080611641906135cc565b9150506114b3565b50600073ffffffffffffffffffffffffffffffffffffffff168473ffffffffffffffffffffffffffffffffffffffff168273ffffffffffffffffffffffffffffffffffffffff167f4a39dc06d4c0dbc64b70af90fd698a233a518aa5d07e595d983b8c0526c8f7fb86866040516116c1929190613075565b60405180910390a450505050565b6000600360009054906101000a900473ffffffffffffffffffffffffffffffffffffffff16905081600360006101000a81548173ffffffffffffffffffffffffffffffffffffffff021916908373ffffffffffffffffffffffffffffffffffffffff1602179055508173ffffffffffffffffffffffffffffffffffffffff168173ffffffffffffffffffffffffffffffffffffffff167f8be0079c531659141344cd1fd0a4f28419497f9722a3daafe3b4186f6b6457e060405160405180910390a35050565b600073ffffffffffffffffffffffffffffffffffffffff168473ffffffffffffffffffffffffffffffffffffffff161415611805576040517f08c379a00000000000000000000000000000000000000000000000000000000081526004016117fc906132a9565b60405180910390fd5b600061180f610de6565b90506118308160008761182188612126565b61182a88612126565b87611f37565b8260008086815260200190815260200160002060008773ffffffffffffffffffffffffffffffffffffffff1673ffffffffffffffffffffffffffffffffffffffff168152602001908152602001600020600082825461188f919061345d565b925050819055508473ffffffffffffffffffffffffffffffffffffffff16600073ffffffffffffffffffffffffffffffffffffffff168273ffffffffffffffffffffffffffffffffffffffff167fc3d58168c5ae7397731d063d5bbf3d657854427343f4c083240f7aacaa2d0f62878760405161190d9291906132e4565b60405180910390a4611924816000878787876121ec565b5050505050565b8173ffffffffffffffffffffffffffffffffffffffff168373ffffffffffffffffffffffffffffffffffffffff16141561199a576040517f08c379a000000000000000000000000000000000000000000000000000000000815260040161199190613249565b60405180910390fd5b80600160008573ffffffffffffffffffffffffffffffffffffffff1673ffffffffffffffffffffffffffffffffffffffff16815260200190815260200160002060008473ffffffffffffffffffffffffffffffffffffffff1673ffffffffffffffffffffffffffffffffffffffff16815260200190815260200160002060006101000a81548160ff0219169083151502179055508173ffffffffffffffffffffffffffffffffffffffff168373ffffffffffffffffffffffffffffffffffffffff167f17307eab39ab6107e8899845ad3d59bd9653f200f220920489ca2b5937696c3183604051611a8b91906130ac565b60405180910390a3505050565b600073ffffffffffffffffffffffffffffffffffffffff168473ffffffffffffffffffffffffffffffffffffffff161415611b08576040517f08c379a0000000000000000000000000000000000000000000000000000000008152600401611aff906131a9565b60405180910390fd5b6000611b12610de6565b9050611b32818787611b2388612126565b611b2c88612126565b87611f37565b600080600086815260200190815260200160002060008873ffffffffffffffffffffffffffffffffffffffff1673ffffffffffffffffffffffffffffffffffffffff16815260200190815260200160002054905083811015611bc9576040517f08c379a0000000000000000000000000000000000000000000000000000000008152600401611bc090613209565b60405180910390fd5b83810360008087815260200190815260200160002060008973ffffffffffffffffffffffffffffffffffffffff1673ffffffffffffffffffffffffffffffffffffffff168152602001908152602001600020819055508360008087815260200190815260200160002060008873ffffffffffffffffffffffffffffffffffffffff1673ffffffffffffffffffffffffffffffffffffffff1681526020019081526020016000206000828254611c7e919061345d565b925050819055508573ffffffffffffffffffffffffffffffffffffffff168773ffffffffffffffffffffffffffffffffffffffff168373ffffffffffffffffffffffffffffffffffffffff167fc3d58168c5ae7397731d063d5bbf3d657854427343f4c083240f7aacaa2d0f628888604051611cfb9291906132e4565b60405180910390a4611d118288888888886121ec565b50505050505050565b600073ffffffffffffffffffffffffffffffffffffffff168373ffffffffffffffffffffffffffffffffffffffff161415611d8a576040517f08c379a0000000000000000000000000000000000000000000000000000000008152600401611d81906131e9565b60405180910390fd5b6000611d94610de6565b9050611dc481856000611da687612126565b611daf87612126565b60405180602001604052806000815250611f37565b600080600085815260200190815260200160002060008673ffffffffffffffffffffffffffffffffffffffff1673ffffffffffffffffffffffffffffffffffffffff16815260200190815260200160002054905082811015611e5b576040517f08c379a0000000000000000000000000000000000000000000000000000000008152600401611e5290613169565b60405180910390fd5b82810360008086815260200190815260200160002060008773ffffffffffffffffffffffffffffffffffffffff1673ffffffffffffffffffffffffffffffffffffffff16815260200190815260200160002081905550600073ffffffffffffffffffffffffffffffffffffffff168573ffffffffffffffffffffffffffffffffffffffff168373ffffffffffffffffffffffffffffffffffffffff167fc3d58168c5ae7397731d063d5bbf3d657854427343f4c083240f7aacaa2d0f628787604051611f289291906132e4565b60405180910390a45050505050565b505050505050565b611f5e8473ffffffffffffffffffffffffffffffffffffffff166123d3565b1561211e578373ffffffffffffffffffffffffffffffffffffffff1663bc197c8187878686866040518663ffffffff1660e01b8152600401611fa4959493929190612f91565b602060405180830381600087803b158015611fbe57600080fd5b505af1925050508015611fef57506040513d601f19601f82011682018060405250810190611fec9190612bb2565b60015b61209557611ffb6136a2565b806308c379a014156120585750612010613b5d565b8061201b575061205a565b806040517f08c379a000000000000000000000000000000000000000000000000000000000815260040161204f91906130c7565b60405180910390fd5b505b6040517f08c379a000000000000000000000000000000000000000000000000000000000815260040161208c906130e9565b60405180910390fd5b63bc197c8160e01b7bffffffffffffffffffffffffffffffffffffffffffffffffffffffff1916817bffffffffffffffffffffffffffffffffffffffffffffffffffffffff19161461211c576040517f08c379a000000000000000000000000000000000000000000000000000000000815260040161211390613109565b60405180910390fd5b505b505050505050565b60606000600167ffffffffffffffff81111561216b577f4e487b7100000000000000000000000000000000000000000000000000000000600052604160045260246000fd5b6040519080825280602002602001820160405280156121995781602001602082028036833780820191505090505b50905082816000815181106121d7577f4e487b7100000000000000000000000000000000000000000000000000000000600052603260045260246000fd5b60200260200101818152505080915050919050565b61220b8473ffffffffffffffffffffffffffffffffffffffff166123d3565b156123cb578373ffffffffffffffffffffffffffffffffffffffff1663f23a6e6187878686866040518663ffffffff1660e01b8152600401612251959493929190612ff9565b602060405180830381600087803b15801561226b57600080fd5b505af192505050801561229c57506040513d601f19601f820116820180604052508101906122999190612bb2565b60015b612342576122a86136a2565b806308c379a0141561230557506122bd613b5d565b806122c85750612307565b806040517f08c379a00000000000000000000000000000000000000000000000000000000081526004016122fc91906130c7565b60405180910390fd5b505b6040517f08c379a0000000000000000000000000000000000000000000000000000000008152600401612339906130e9565b60405180910390fd5b63f23a6e6160e01b7bffffffffffffffffffffffffffffffffffffffffffffffffffffffff1916817bffffffffffffffffffffffffffffffffffffffffffffffffffffffff1916146123c9576040517f08c379a00000000000000000000000000000000000000000000000000000000081526004016123c090613109565b60405180910390fd5b505b505050505050565b6000808273ffffffffffffffffffffffffffffffffffffffff163b119050919050565b82805461240290613569565b90600052602060002090601f016020900481019282612424576000855561246b565b82601f1061243d57805160ff191683800117855561246b565b8280016001018555821561246b579182015b8281111561246a57825182559160200191906001019061244f565b5b509050612478919061247c565b5090565b5b8082111561249557600081600090555060010161247d565b5090565b60006124ac6124a784613332565b61330d565b905080838252602082019050828560208602820111156124cb57600080fd5b60005b858110156124fb57816124e188826125ed565b8452602084019350602083019250506001810190506124ce565b5050509392505050565b60006125186125138461335e565b61330d565b9050808382526020820190508285602086028201111561253757600080fd5b60005b85811015612567578161254d88826126e9565b84526020840193506020830192505060018101905061253a565b5050509392505050565b600061258461257f8461338a565b61330d565b90508281526020810184848401111561259c57600080fd5b6125a7848285613527565b509392505050565b60006125c26125bd846133bb565b61330d565b9050828152602081018484840111156125da57600080fd5b6125e5848285613527565b509392505050565b6000813590506125fc81613bf3565b92915050565b600082601f83011261261357600080fd5b8135612623848260208601612499565b91505092915050565b600082601f83011261263d57600080fd5b813561264d848260208601612505565b91505092915050565b60008135905061266581613c0a565b92915050565b60008135905061267a81613c21565b92915050565b60008151905061268f81613c21565b92915050565b600082601f8301126126a657600080fd5b81356126b6848260208601612571565b91505092915050565b600082601f8301126126d057600080fd5b81356126e08482602086016125af565b91505092915050565b6000813590506126f881613c38565b92915050565b60006020828403121561271057600080fd5b600061271e848285016125ed565b91505092915050565b6000806040838503121561273a57600080fd5b6000612748858286016125ed565b9250506020612759858286016125ed565b9150509250929050565b600080600080600060a0868803121561277b57600080fd5b6000612789888289016125ed565b955050602061279a888289016125ed565b945050604086013567ffffffffffffffff8111156127b757600080fd5b6127c38882890161262c565b935050606086013567ffffffffffffffff8111156127e057600080fd5b6127ec8882890161262c565b925050608086013567ffffffffffffffff81111561280957600080fd5b61281588828901612695565b9150509295509295909350565b600080600080600060a0868803121561283a57600080fd5b6000612848888289016125ed565b9550506020612859888289016125ed565b945050604061286a888289016126e9565b935050606061287b888289016126e9565b925050608086013567ffffffffffffffff81111561289857600080fd5b6128a488828901612695565b9150509295509295909350565b6000806000606084860312156128c657600080fd5b60006128d4868287016125ed565b935050602084013567ffffffffffffffff8111156128f157600080fd5b6128fd8682870161262c565b925050604084013567ffffffffffffffff81111561291a57600080fd5b6129268682870161262c565b9150509250925092565b6000806000806080858703121561294657600080fd5b6000612954878288016125ed565b945050602085013567ffffffffffffffff81111561297157600080fd5b61297d8782880161262c565b935050604085013567ffffffffffffffff81111561299a57600080fd5b6129a68782880161262c565b925050606085013567ffffffffffffffff8111156129c357600080fd5b6129cf87828801612695565b91505092959194509250565b600080604083850312156129ee57600080fd5b60006129fc858286016125ed565b9250506020612a0d85828601612656565b9150509250929050565b60008060408385031215612a2a57600080fd5b6000612a38858286016125ed565b9250506020612a49858286016126e9565b9150509250929050565b600080600060608486031215612a6857600080fd5b6000612a76868287016125ed565b9350506020612a87868287016126e9565b9250506040612a98868287016126e9565b9150509250925092565b60008060008060808587031215612ab857600080fd5b6000612ac6878288016125ed565b9450506020612ad7878288016126e9565b9350506040612ae8878288016126e9565b925050606085013567ffffffffffffffff811115612b0557600080fd5b612b1187828801612695565b91505092959194509250565b60008060408385031215612b3057600080fd5b600083013567ffffffffffffffff811115612b4a57600080fd5b612b5685828601612602565b925050602083013567ffffffffffffffff811115612b7357600080fd5b612b7f8582860161262c565b9150509250929050565b600060208284031215612b9b57600080fd5b6000612ba98482850161266b565b91505092915050565b600060208284031215612bc457600080fd5b6000612bd284828501612680565b91505092915050565b600060208284031215612bed57600080fd5b600082013567ffffffffffffffff811115612c0757600080fd5b612c13848285016126bf565b91505092915050565b600060208284031215612c2e57600080fd5b6000612c3c848285016126e9565b91505092915050565b6000612c518383612f58565b60208301905092915050565b612c66816134b3565b82525050565b6000612c77826133fc565b612c81818561342a565b9350612c8c836133ec565b8060005b83811015612cbd578151612ca48882612c45565b9750612caf8361341d565b925050600181019050612c90565b5085935050505092915050565b612cd3816134c5565b82525050565b6000612ce482613407565b612cee818561343b565b9350612cfe818560208601613536565b612d07816136c4565b840191505092915050565b6000612d1d82613412565b612d27818561344c565b9350612d37818560208601613536565b612d40816136c4565b840191505092915050565b6000612d5860348361344c565b9150612d63826136e2565b604082019050919050565b6000612d7b60288361344c565b9150612d8682613731565b604082019050919050565b6000612d9e602b8361344c565b9150612da982613780565b604082019050919050565b6000612dc160268361344c565b9150612dcc826137cf565b604082019050919050565b6000612de460248361344c565b9150612def8261381e565b604082019050919050565b6000612e0760298361344c565b9150612e128261386d565b604082019050919050565b6000612e2a60258361344c565b9150612e35826138bc565b604082019050919050565b6000612e4d60328361344c565b9150612e588261390b565b604082019050919050565b6000612e7060238361344c565b9150612e7b8261395a565b604082019050919050565b6000612e93602a8361344c565b9150612e9e826139a9565b604082019050919050565b6000612eb660208361344c565b9150612ec1826139f8565b602082019050919050565b6000612ed960298361344c565b9150612ee482613a21565b604082019050919050565b6000612efc60298361344c565b9150612f0782613a70565b604082019050919050565b6000612f1f60288361344c565b9150612f2a82613abf565b604082019050919050565b6000612f4260218361344c565b9150612f4d82613b0e565b604082019050919050565b612f618161351d565b82525050565b612f708161351d565b82525050565b6000602082019050612f8b6000830184612c5d565b92915050565b600060a082019050612fa66000830188612c5d565b612fb36020830187612c5d565b8181036040830152612fc58186612c6c565b90508181036060830152612fd98185612c6c565b90508181036080830152612fed8184612cd9565b90509695505050505050565b600060a08201905061300e6000830188612c5d565b61301b6020830187612c5d565b6130286040830186612f67565b6130356060830185612f67565b81810360808301526130478184612cd9565b90509695505050505050565b6000602082019050818103600083015261306d8184612c6c565b905092915050565b6000604082019050818103600083015261308f8185612c6c565b905081810360208301526130a38184612c6c565b90509392505050565b60006020820190506130c16000830184612cca565b92915050565b600060208201905081810360008301526130e18184612d12565b905092915050565b6000602082019050818103600083015261310281612d4b565b9050919050565b6000602082019050818103600083015261312281612d6e565b9050919050565b6000602082019050818103600083015261314281612d91565b9050919050565b6000602082019050818103600083015261316281612db4565b9050919050565b6000602082019050818103600083015261318281612dd7565b9050919050565b600060208201905081810360008301526131a281612dfa565b9050919050565b600060208201905081810360008301526131c281612e1d565b9050919050565b600060208201905081810360008301526131e281612e40565b9050919050565b6000602082019050818103600083015261320281612e63565b9050919050565b6000602082019050818103600083015261322281612e86565b9050919050565b6000602082019050818103600083015261324281612ea9565b9050919050565b6000602082019050818103600083015261326281612ecc565b9050919050565b6000602082019050818103600083015261328281612eef565b9050919050565b600060208201905081810360008301526132a281612f12565b9050919050565b600060208201905081810360008301526132c281612f35565b9050919050565b60006020820190506132de6000830184612f67565b92915050565b60006040820190506132f96000830185612f67565b6133066020830184612f67565b9392505050565b6000613317613328565b9050613323828261359b565b919050565b6000604051905090565b600067ffffffffffffffff82111561334d5761334c613673565b5b602082029050602081019050919050565b600067ffffffffffffffff82111561337957613378613673565b5b602082029050602081019050919050565b600067ffffffffffffffff8211156133a5576133a4613673565b5b6133ae826136c4565b9050602081019050919050565b600067ffffffffffffffff8211156133d6576133d5613673565b5b6133df826136c4565b9050602081019050919050565b6000819050602082019050919050565b600081519050919050565b600081519050919050565b600081519050919050565b6000602082019050919050565b600082825260208201905092915050565b600082825260208201905092915050565b600082825260208201905092915050565b60006134688261351d565b91506134738361351d565b9250827fffffffffffffffffffffffffffffffffffffffffffffffffffffffffffffffff038211156134a8576134a7613615565b5b828201905092915050565b60006134be826134fd565b9050919050565b60008115159050919050565b60007fffffffff0000000000000000000000000000000000000000000000000000000082169050919050565b600073ffffffffffffffffffffffffffffffffffffffff82169050919050565b6000819050919050565b82818337600083830152505050565b60005b83811015613554578082015181840152602081019050613539565b83811115613563576000848401525b50505050565b6000600282049050600182168061358157607f821691505b6020821081141561359557613594613644565b5b50919050565b6135a4826136c4565b810181811067ffffffffffffffff821117156135c3576135c2613673565b5b80604052505050565b60006135d78261351d565b91507fffffffffffffffffffffffffffffffffffffffffffffffffffffffffffffffff82141561360a57613609613615565b5b600182019050919050565b7f4e487b7100000000000000000000000000000000000000000000000000000000600052601160045260246000fd5b7f4e487b7100000000000000000000000000000000000000000000000000000000600052602260045260246000fd5b7f4e487b7100000000000000000000000000000000000000000000000000000000600052604160045260246000fd5b600060033d11156136c15760046000803e6136be6000516136d5565b90505b90565b6000601f19601f8301169050919050565b60008160e01c9050919050565b7f455243313135353a207472616e7366657220746f206e6f6e204552433131353560008201527f526563656976657220696d706c656d656e746572000000000000000000000000602082015250565b7f455243313135353a204552433131353552656365697665722072656a6563746560008201527f6420746f6b656e73000000000000000000000000000000000000000000000000602082015250565b7f455243313135353a2062616c616e636520717565727920666f7220746865207a60008201527f65726f2061646472657373000000000000000000000000000000000000000000602082015250565b7f4f776e61626c653a206e6577206f776e657220697320746865207a65726f206160008201527f6464726573730000000000000000000000000000000000000000000000000000602082015250565b7f455243313135353a206275726e20616d6f756e7420657863656564732062616c60008201527f616e636500000000000000000000000000000000000000000000000000000000602082015250565b7f455243313135353a2063616c6c6572206973206e6f74206f776e6572206e6f7260008201527f20617070726f7665640000000000000000000000000000000000000000000000602082015250565b7f455243313135353a207472616e7366657220746f20746865207a65726f20616460008201527f6472657373000000000000000000000000000000000000000000000000000000602082015250565b7f455243313135353a207472616e736665722063616c6c6572206973206e6f742060008201527f6f776e6572206e6f7220617070726f7665640000000000000000000000000000602082015250565b7f455243313135353a206275726e2066726f6d20746865207a65726f206164647260008201527f6573730000000000000000000000000000000000000000000000000000000000602082015250565b7f455243313135353a20696e73756666696369656e742062616c616e636520666f60008201527f72207472616e7366657200000000000000000000000000000000000000000000602082015250565b7f4f776e61626c653a2063616c6c6572206973206e6f7420746865206f776e6572600082015250565b7f455243313135353a2073657474696e6720617070726f76616c2073746174757360008201527f20666f722073656c660000000000000000000000000000000000000000000000602082015250565b7f455243313135353a206163636f756e747320616e6420696473206c656e67746860008201527f206d69736d617463680000000000000000000000000000000000000000000000602082015250565b7f455243313135353a2069647320616e6420616d6f756e7473206c656e6774682060008201527f6d69736d61746368000000000000000000000000000000000000000000000000602082015250565b7f455243313135353a206d696e7420746f20746865207a65726f2061646472657360008201527f7300000000000000000000000000000000000000000000000000000000000000602082015250565b600060443d1015613b6d57613bf0565b613b75613328565b60043d036004823e80513d602482011167ffffffffffffffff82111715613b9d575050613bf0565b808201805167ffffffffffffffff811115613bbb5750505050613bf0565b80602083010160043d038501811115613bd8575050505050613bf0565b613be78260200185018661359b565b82955050505050505b90565b613bfc816134b3565b8114613c0757600080fd5b50565b613c13816134c5565b8114613c1e57600080fd5b50565b613c2a816134d1565b8114613c3557600080fd5b50565b613c418161351d565b8114613c4c57600080fd5b5056fea26469706673582212201f515e2cf8f6ca459bd2b6a670e2e41251abe7f9311ff5b74a8010981b358a7164736f6c63430008040033",
  "linkReferences": {},
  "deployedLinkReferences": {}
}