{
  "_format": "hh-sol-artifact-1",
  "contractName": "LinkedListShuffle",
  "sourceName": "contracts/LinkedListShuffle.sol",
  "abi": [
    {
      "inputs": [
        {
          "internalType": "uint128",
          "name": "total",
          "type": "uint128"
        }
      ],
      "stateMutability": "nonpayable",
      "type": "constructor"
    },
    {
      "inputs": [
        {
          "internalType": "uint128",
          "name": "node",
          "type": "uint128"
        },
        {
          "internalType": "uint128",
          "name": "afterNode",
          "type": "uint128"
        }
      ],
      "name": "insertChain",
      "outputs": [],
      "stateMutability": "nonpayable",
      "type": "function"
    },
    {
      "inputs": [
        {
          "internalType": "uint256",
          "name": "",
          "type": "uint256"
        }
      ],
      "name": "list",
      "outputs": [
        {
          "internalType": "uint128",
          "name": "next",
          "type": "uint128"
        },
        {
          "internalType": "uint128",
          "name": "data",
          "type": "uint128"
        }
      ],
      "stateMutability": "view",
      "type": "function"
    },
    {
      "inputs": [],
      "name": "shuffle",
      "outputs": [],
      "stateMutability": "nonpayable",
      "type": "function"
    },
    {
      "inputs": [],
      "name": "traverse",
      "outputs": [
        {
          "components": [
            {
              "internalType": "uint128",
              "name": "next",
              "type": "uint128"
            },
            {
              "internalType": "uint128",
              "name": "data",
              "type": "uint128"
            }
          ],
          "internalType": "struct LinkedListShuffle.Node",
          "name": "",
          "type": "tuple"
        }
      ],
      "stateMutability": "nonpayable",
      "type": "function"
    }
  ],
  "bytecode": "0x608060405234801561001057600080fd5b50604051610ae1380380610ae183398181016040528101906100329190610260565b6001604051806040016040528060016fffffffffffffffffffffffffffffffff16815260200160006fffffffffffffffffffffffffffffffff168152509080600181540180825580915050600190039060005260206000200160009091909190915060008201518160000160006101000a8154816fffffffffffffffffffffffffffffffff02191690836fffffffffffffffffffffffffffffffff16021790555060208201518160000160106101000a8154816fffffffffffffffffffffffffffffffff02191690836fffffffffffffffffffffffffffffffff16021790555050506000600190505b816fffffffffffffffffffffffffffffffff16816fffffffffffffffffffffffffffffffff16101561024457600160405180604001604052806001846101619190610289565b6fffffffffffffffffffffffffffffffff168152602001836fffffffffffffffffffffffffffffffff168152509080600181540180825580915050600190039060005260206000200160009091909190915060008201518160000160006101000a8154816fffffffffffffffffffffffffffffffff02191690836fffffffffffffffffffffffffffffffff16021790555060208201518160000160106101000a8154816fffffffffffffffffffffffffffffffff02191690836fffffffffffffffffffffffffffffffff16021790555050508061023d906102eb565b905061011b565b505061036a565b60008151905061025a81610353565b92915050565b60006020828403121561027257600080fd5b60006102808482850161024b565b91505092915050565b6000610294826102cf565b915061029f836102cf565b9250826fffffffffffffffffffffffffffffffff038211156102c4576102c3610324565b5b828201905092915050565b60006fffffffffffffffffffffffffffffffff82169050919050565b60006102f6826102cf565b91506fffffffffffffffffffffffffffffffff82141561031957610318610324565b5b600182019050919050565b7f4e487b7100000000000000000000000000000000000000000000000000000000600052601160045260246000fd5b61035c816102cf565b811461036757600080fd5b50565b610768806103796000396000f3fe608060405234801561001057600080fd5b506004361061004c5760003560e01c80632520bf0414610051578063486547491461005b57806380c9419e1461007757806397a42763146100a8575b600080fd5b6100596100c6565b005b610075600480360381019061007091906105e8565b6100f8565b005b610091600480360381019061008c9190610624565b6103b5565b60405161009f9291906106b5565b60405180910390f35b6100b061041d565b6040516100bd919061069a565b60405180910390f35b6100d2600360066100f8565b6100de600460076100f8565b6100ea600260056100f8565b6100f6600160036100f8565b565b60006001836fffffffffffffffffffffffffffffffff1681548110610146577f4e487b7100000000000000000000000000000000000000000000000000000000600052603260045260246000fd5b9060005260206000200160000160009054906101000a90046fffffffffffffffffffffffffffffffff1690506001826fffffffffffffffffffffffffffffffff16815481106101be577f4e487b7100000000000000000000000000000000000000000000000000000000600052603260045260246000fd5b9060005260206000200160000160009054906101000a90046fffffffffffffffffffffffffffffffff166001846fffffffffffffffffffffffffffffffff1681548110610234577f4e487b7100000000000000000000000000000000000000000000000000000000600052603260045260246000fd5b9060005260206000200160000160006101000a8154816fffffffffffffffffffffffffffffffff02191690836fffffffffffffffffffffffffffffffff16021790555060008054906101000a90046fffffffffffffffffffffffffffffffff166001836fffffffffffffffffffffffffffffffff16815481106102e0577f4e487b7100000000000000000000000000000000000000000000000000000000600052603260045260246000fd5b9060005260206000200160000160006101000a8154816fffffffffffffffffffffffffffffffff02191690836fffffffffffffffffffffffffffffffff160217905550806000806101000a8154816fffffffffffffffffffffffffffffffff02191690836fffffffffffffffffffffffffffffffff16021790555060008054906101000a90046fffffffffffffffffffffffffffffffff16600060106101000a8154816fffffffffffffffffffffffffffffffff02191690836fffffffffffffffffffffffffffffffff160217905550505050565b600181815481106103c557600080fd5b906000526020600020016000915090508060000160009054906101000a90046fffffffffffffffffffffffffffffffff16908060000160109054906101000a90046fffffffffffffffffffffffffffffffff16905082565b610425610580565b60006001600060109054906101000a90046fffffffffffffffffffffffffffffffff166fffffffffffffffffffffffffffffffff1681548110610491577f4e487b7100000000000000000000000000000000000000000000000000000000600052603260045260246000fd5b906000526020600020016040518060400160405290816000820160009054906101000a90046fffffffffffffffffffffffffffffffff166fffffffffffffffffffffffffffffffff166fffffffffffffffffffffffffffffffff1681526020016000820160109054906101000a90046fffffffffffffffffffffffffffffffff166fffffffffffffffffffffffffffffffff166fffffffffffffffffffffffffffffffff168152505090508060000151600060106101000a8154816fffffffffffffffffffffffffffffffff02191690836fffffffffffffffffffffffffffffffff1602179055508091505090565b604051806040016040528060006fffffffffffffffffffffffffffffffff16815260200160006fffffffffffffffffffffffffffffffff1681525090565b6000813590506105cd81610704565b92915050565b6000813590506105e28161071b565b92915050565b600080604083850312156105fb57600080fd5b6000610609858286016105be565b925050602061061a858286016105be565b9150509250929050565b60006020828403121561063657600080fd5b6000610644848285016105d3565b91505092915050565b604082016000820151610663600085018261067c565b506020820151610676602085018261067c565b50505050565b610685816106de565b82525050565b610694816106de565b82525050565b60006040820190506106af600083018461064d565b92915050565b60006040820190506106ca600083018561068b565b6106d7602083018461068b565b9392505050565b60006fffffffffffffffffffffffffffffffff82169050919050565b6000819050919050565b61070d816106de565b811461071857600080fd5b50565b610724816106fa565b811461072f57600080fd5b5056fea264697066735822122093b6a0fb2b9a4078155f9ab354f9d0df039b99eb2525b6be5ba201078391152e64736f6c63430008040033",
  "linkReferences": {},
  "deployedLinkReferences": {}
}