{
  "_format": "hh-sol-artifact-1",
  "contractName": "TimeNFT",
  "sourceName": "contracts/reference/Decentralized.sol",
  "abi": [
    {
      "inputs": [
        {
          "internalType": "uint256",
          "name": "_price",
          "type": "uint256"
        }
      ],
      "stateMutability": "nonpayable",
      "type": "constructor"
    },
    {
      "anonymous": false,
      "inputs": [
        {
          "indexed": true,
          "internalType": "address",
          "name": "owner",
          "type": "address"
        },
        {
          "indexed": true,
          "internalType": "address",
          "name": "approved",
          "type": "address"
        },
        {
          "indexed": true,
          "internalType": "uint256",
          "name": "tokenId",
          "type": "uint256"
        }
      ],
      "name": "Approval",
      "type": "event"
    },
    {
      "anonymous": false,
      "inputs": [
        {
          "indexed": true,
          "internalType": "address",
          "name": "owner",
          "type": "address"
        },
        {
          "indexed": true,
          "internalType": "address",
          "name": "operator",
          "type": "address"
        },
        {
          "indexed": false,
          "internalType": "bool",
          "name": "approved",
          "type": "bool"
        }
      ],
      "name": "ApprovalForAll",
      "type": "event"
    },
    {
      "anonymous": false,
      "inputs": [
        {
          "indexed": true,
          "internalType": "address",
          "name": "previousOwner",
          "type": "address"
        },
        {
          "indexed": true,
          "internalType": "address",
          "name": "newOwner",
          "type": "address"
        }
      ],
      "name": "OwnershipTransferred",
      "type": "event"
    },
    {
      "anonymous": false,
      "inputs": [
        {
          "indexed": true,
          "internalType": "address",
          "name": "from",
          "type": "address"
        },
        {
          "indexed": true,
          "internalType": "address",
          "name": "to",
          "type": "address"
        },
        {
          "indexed": true,
          "internalType": "uint256",
          "name": "tokenId",
          "type": "uint256"
        }
      ],
      "name": "Transfer",
      "type": "event"
    },
    {
      "inputs": [
        {
          "internalType": "address",
          "name": "to",
          "type": "address"
        },
        {
          "internalType": "uint256",
          "name": "tokenId",
          "type": "uint256"
        }
      ],
      "name": "approve",
      "outputs": [],
      "stateMutability": "nonpayable",
      "type": "function"
    },
    {
      "inputs": [
        {
          "internalType": "address",
          "name": "owner",
          "type": "address"
        }
      ],
      "name": "balanceOf",
      "outputs": [
        {
          "internalType": "uint256",
          "name": "",
          "type": "uint256"
        }
      ],
      "stateMutability": "view",
      "type": "function"
    },
    {
      "inputs": [],
      "name": "claim",
      "outputs": [],
      "stateMutability": "payable",
      "type": "function"
    },
    {
      "inputs": [
        {
          "internalType": "uint256",
          "name": "tokenId",
          "type": "uint256"
        }
      ],
      "name": "getApproved",
      "outputs": [
        {
          "internalType": "address",
          "name": "",
          "type": "address"
        }
      ],
      "stateMutability": "view",
      "type": "function"
    },
    {
      "inputs": [
        {
          "internalType": "address",
          "name": "owner",
          "type": "address"
        },
        {
          "internalType": "address",
          "name": "operator",
          "type": "address"
        }
      ],
      "name": "isApprovedForAll",
      "outputs": [
        {
          "internalType": "bool",
          "name": "",
          "type": "bool"
        }
      ],
      "stateMutability": "view",
      "type": "function"
    },
    {
      "inputs": [],
      "name": "name",
      "outputs": [
        {
          "internalType": "string",
          "name": "",
          "type": "string"
        }
      ],
      "stateMutability": "view",
      "type": "function"
    },
    {
      "inputs": [],
      "name": "owner",
      "outputs": [
        {
          "internalType": "address",
          "name": "",
          "type": "address"
        }
      ],
      "stateMutability": "view",
      "type": "function"
    },
    {
      "inputs": [
        {
          "internalType": "uint256",
          "name": "tokenId",
          "type": "uint256"
        }
      ],
      "name": "ownerOf",
      "outputs": [
        {
          "internalType": "address",
          "name": "",
          "type": "address"
        }
      ],
      "stateMutability": "view",
      "type": "function"
    },
    {
      "inputs": [],
      "name": "renounceOwnership",
      "outputs": [],
      "stateMutability": "nonpayable",
      "type": "function"
    },
    {
      "inputs": [
        {
          "internalType": "address",
          "name": "from",
          "type": "address"
        },
        {
          "internalType": "address",
          "name": "to",
          "type": "address"
        },
        {
          "internalType": "uint256",
          "name": "tokenId",
          "type": "uint256"
        }
      ],
      "name": "safeTransferFrom",
      "outputs": [],
      "stateMutability": "nonpayable",
      "type": "function"
    },
    {
      "inputs": [
        {
          "internalType": "address",
          "name": "from",
          "type": "address"
        },
        {
          "internalType": "address",
          "name": "to",
          "type": "address"
        },
        {
          "internalType": "uint256",
          "name": "tokenId",
          "type": "uint256"
        },
        {
          "internalType": "bytes",
          "name": "_data",
          "type": "bytes"
        }
      ],
      "name": "safeTransferFrom",
      "outputs": [],
      "stateMutability": "nonpayable",
      "type": "function"
    },
    {
      "inputs": [
        {
          "internalType": "address",
          "name": "operator",
          "type": "address"
        },
        {
          "internalType": "bool",
          "name": "approved",
          "type": "bool"
        }
      ],
      "name": "setApprovalForAll",
      "outputs": [],
      "stateMutability": "nonpayable",
      "type": "function"
    },
    {
      "inputs": [
        {
          "internalType": "bytes4",
          "name": "interfaceId",
          "type": "bytes4"
        }
      ],
      "name": "supportsInterface",
      "outputs": [
        {
          "internalType": "bool",
          "name": "",
          "type": "bool"
        }
      ],
      "stateMutability": "view",
      "type": "function"
    },
    {
      "inputs": [],
      "name": "symbol",
      "outputs": [
        {
          "internalType": "string",
          "name": "",
          "type": "string"
        }
      ],
      "stateMutability": "view",
      "type": "function"
    },
    {
      "inputs": [
        {
          "internalType": "uint256",
          "name": "index",
          "type": "uint256"
        }
      ],
      "name": "tokenByIndex",
      "outputs": [
        {
          "internalType": "uint256",
          "name": "",
          "type": "uint256"
        }
      ],
      "stateMutability": "view",
      "type": "function"
    },
    {
      "inputs": [
        {
          "internalType": "address",
          "name": "owner",
          "type": "address"
        },
        {
          "internalType": "uint256",
          "name": "index",
          "type": "uint256"
        }
      ],
      "name": "tokenOfOwnerByIndex",
      "outputs": [
        {
          "internalType": "uint256",
          "name": "",
          "type": "uint256"
        }
      ],
      "stateMutability": "view",
      "type": "function"
    },
    {
      "inputs": [
        {
          "internalType": "uint256",
          "name": "tokenId",
          "type": "uint256"
        }
      ],
      "name": "tokenURI",
      "outputs": [
        {
          "internalType": "string",
          "name": "",
          "type": "string"
        }
      ],
      "stateMutability": "pure",
      "type": "function"
    },
    {
      "inputs": [],
      "name": "totalSupply",
      "outputs": [
        {
          "internalType": "uint256",
          "name": "",
          "type": "uint256"
        }
      ],
      "stateMutability": "view",
      "type": "function"
    },
    {
      "inputs": [
        {
          "internalType": "address",
          "name": "from",
          "type": "address"
        },
        {
          "internalType": "address",
          "name": "to",
          "type": "address"
        },
        {
          "internalType": "uint256",
          "name": "tokenId",
          "type": "uint256"
        }
      ],
      "name": "transferFrom",
      "outputs": [],
      "stateMutability": "nonpayable",
      "type": "function"
    },
    {
      "inputs": [
        {
          "internalType": "address",
          "name": "newOwner",
          "type": "address"
        }
      ],
      "name": "transferOwnership",
      "outputs": [],
      "stateMutability": "nonpayable",
      "type": "function"
    },
    {
      "inputs": [],
      "name": "withdrawAll",
      "outputs": [],
      "stateMutability": "payable",
      "type": "function"
    }
  ],
  "bytecode": "0x60a06040523480156200001157600080fd5b5060405162006832380380620068328339818101604052810190620000379190620002a3565b6040518060400160405280600881526020017f446179205a45524f0000000000000000000000000000000000000000000000008152506040518060400160405280600481526020017f54494d45000000000000000000000000000000000000000000000000000000008152508160009080519060200190620000bb929190620001dc565b508060019080519060200190620000d4929190620001dc565b5050506001600a81905550620000ff620000f36200010e60201b60201c565b6200011660201b60201c565b80608081815250505062000358565b600033905090565b6000600b60009054906101000a900473ffffffffffffffffffffffffffffffffffffffff16905081600b60006101000a81548173ffffffffffffffffffffffffffffffffffffffff021916908373ffffffffffffffffffffffffffffffffffffffff1602179055508173ffffffffffffffffffffffffffffffffffffffff168173ffffffffffffffffffffffffffffffffffffffff167f8be0079c531659141344cd1fd0a4f28419497f9722a3daafe3b4186f6b6457e060405160405180910390a35050565b828054620001ea90620002d9565b90600052602060002090601f0160209004810192826200020e57600085556200025a565b82601f106200022957805160ff19168380011785556200025a565b828001600101855582156200025a579182015b82811115620002595782518255916020019190600101906200023c565b5b5090506200026991906200026d565b5090565b5b80821115620002885760008160009055506001016200026e565b5090565b6000815190506200029d816200033e565b92915050565b600060208284031215620002b657600080fd5b6000620002c6848285016200028c565b91505092915050565b6000819050919050565b60006002820490506001821680620002f257607f821691505b602082108114156200030957620003086200030f565b5b50919050565b7f4e487b7100000000000000000000000000000000000000000000000000000000600052602260045260246000fd5b6200034981620002cf565b81146200035557600080fd5b50565b6080516164be62000374600039600061097201526164be6000f3fe60806040526004361061012a5760003560e01c80636352211e116100ab57806395d89b411161006f57806395d89b41146103c4578063a22cb465146103ef578063b88d4fde14610418578063c87b56dd14610441578063e985e9c51461047e578063f2fde38b146104bb5761012a565b80636352211e146102fe57806370a082311461033b578063715018a614610378578063853828b61461038f5780638da5cb5b146103995761012a565b806323b872dd116100f257806323b872dd146102285780632f745c591461025157806342842e0e1461028e5780634e71d92d146102b75780634f6ccce7146102c15761012a565b806301ffc9a71461012f57806306fdde031461016c578063081812fc14610197578063095ea7b3146101d457806318160ddd146101fd575b600080fd5b34801561013b57600080fd5b5061015660048036038101906101519190613dba565b6104e4565b6040516101639190614607565b60405180910390f35b34801561017857600080fd5b5061018161055e565b60405161018e9190614622565b60405180910390f35b3480156101a357600080fd5b506101be60048036038101906101b99190613e0c565b6105f0565b6040516101cb91906145a0565b60405180910390f35b3480156101e057600080fd5b506101fb60048036038101906101f69190613d7e565b610675565b005b34801561020957600080fd5b5061021261078d565b60405161021f91906148e4565b60405180910390f35b34801561023457600080fd5b5061024f600480360381019061024a9190613c78565b61079a565b005b34801561025d57600080fd5b5061027860048036038101906102739190613d7e565b6107fa565b60405161028591906148e4565b60405180910390f35b34801561029a57600080fd5b506102b560048036038101906102b09190613c78565b61089f565b005b6102bf6108bf565b005b3480156102cd57600080fd5b506102e860048036038101906102e39190613e0c565b610a01565b6040516102f591906148e4565b60405180910390f35b34801561030a57600080fd5b5061032560048036038101906103209190613e0c565b610a98565b60405161033291906145a0565b60405180910390f35b34801561034757600080fd5b50610362600480360381019061035d9190613c13565b610b4a565b60405161036f91906148e4565b60405180910390f35b34801561038457600080fd5b5061038d610c02565b005b610397610c8a565b005b3480156103a557600080fd5b506103ae610dbc565b6040516103bb91906145a0565b60405180910390f35b3480156103d057600080fd5b506103d9610de6565b6040516103e69190614622565b60405180910390f35b3480156103fb57600080fd5b5061041660048036038101906104119190613d42565b610e78565b005b34801561042457600080fd5b5061043f600480360381019061043a9190613cc7565b610ff9565b005b34801561044d57600080fd5b5061046860048036038101906104639190613e0c565b61105b565b6040516104759190614622565b60405180910390f35b34801561048a57600080fd5b506104a560048036038101906104a09190613c3c565b6110ca565b6040516104b29190614607565b60405180910390f35b3480156104c757600080fd5b506104e260048036038101906104dd9190613c13565b61115e565b005b60007f780e9d63000000000000000000000000000000000000000000000000000000007bffffffffffffffffffffffffffffffffffffffffffffffffffffffff1916827bffffffffffffffffffffffffffffffffffffffffffffffffffffffff19161480610557575061055682611256565b5b9050919050565b60606000805461056d90614bac565b80601f016020809104026020016040519081016040528092919081815260200182805461059990614bac565b80156105e65780601f106105bb576101008083540402835291602001916105e6565b820191906000526020600020905b8154815290600101906020018083116105c957829003601f168201915b5050505050905090565b60006105fb82611338565b61063a576040517f08c379a0000000000000000000000000000000000000000000000000000000008152600401610631906147c4565b60405180910390fd5b6004600083815260200190815260200160002060009054906101000a900473ffffffffffffffffffffffffffffffffffffffff169050919050565b600061068082610a98565b90508073ffffffffffffffffffffffffffffffffffffffff168373ffffffffffffffffffffffffffffffffffffffff1614156106f1576040517f08c379a00000000000000000000000000000000000000000000000000000000081526004016106e890614844565b60405180910390fd5b8073ffffffffffffffffffffffffffffffffffffffff166107106113a4565b73ffffffffffffffffffffffffffffffffffffffff16148061073f575061073e816107396113a4565b6110ca565b5b61077e576040517f08c379a000000000000000000000000000000000000000000000000000000000815260040161077590614744565b60405180910390fd5b61078883836113ac565b505050565b6000600880549050905090565b6107ab6107a56113a4565b82611465565b6107ea576040517f08c379a00000000000000000000000000000000000000000000000000000000081526004016107e190614864565b60405180910390fd5b6107f5838383611543565b505050565b600061080583610b4a565b8210610846576040517f08c379a000000000000000000000000000000000000000000000000000000000815260040161083d90614644565b60405180910390fd5b600660008473ffffffffffffffffffffffffffffffffffffffff1673ffffffffffffffffffffffffffffffffffffffff168152602001908152602001600020600083815260200190815260200160002054905092915050565b6108ba83838360405180602001604052806000815250610ff9565b505050565b6002600a541415610905576040517f08c379a00000000000000000000000000000000000000000000000000000000081526004016108fc906148c4565b60405180910390fd5b6002600a819055506000610919600c61179f565b1015801561093157506105a061092f600c61179f565b105b610970576040517f08c379a000000000000000000000000000000000000000000000000000000000815260040161096790614804565b60405180910390fd5b7f00000000000000000000000000000000000000000000000000000000000000003410156109d3576040517f08c379a00000000000000000000000000000000000000000000000000000000081526004016109ca906146e4565b60405180910390fd5b6109ed6109de6113a4565b6109e8600c61179f565b6117ad565b6109f7600c6117cb565b6001600a81905550565b6000610a0b61078d565b8210610a4c576040517f08c379a0000000000000000000000000000000000000000000000000000000008152600401610a4390614884565b60405180910390fd5b60088281548110610a86577f4e487b7100000000000000000000000000000000000000000000000000000000600052603260045260246000fd5b90600052602060002001549050919050565b6000806002600084815260200190815260200160002060009054906101000a900473ffffffffffffffffffffffffffffffffffffffff169050600073ffffffffffffffffffffffffffffffffffffffff168173ffffffffffffffffffffffffffffffffffffffff161415610b41576040517f08c379a0000000000000000000000000000000000000000000000000000000008152600401610b3890614784565b60405180910390fd5b80915050919050565b60008073ffffffffffffffffffffffffffffffffffffffff168273ffffffffffffffffffffffffffffffffffffffff161415610bbb576040517f08c379a0000000000000000000000000000000000000000000000000000000008152600401610bb290614764565b60405180910390fd5b600360008373ffffffffffffffffffffffffffffffffffffffff1673ffffffffffffffffffffffffffffffffffffffff168152602001908152602001600020549050919050565b610c0a6113a4565b73ffffffffffffffffffffffffffffffffffffffff16610c28610dbc565b73ffffffffffffffffffffffffffffffffffffffff1614610c7e576040517f08c379a0000000000000000000000000000000000000000000000000000000008152600401610c75906147e4565b60405180910390fd5b610c8860006117e1565b565b610c926113a4565b73ffffffffffffffffffffffffffffffffffffffff16610cb0610dbc565b73ffffffffffffffffffffffffffffffffffffffff1614610d06576040517f08c379a0000000000000000000000000000000000000000000000000000000008152600401610cfd906147e4565b60405180910390fd5b6000610d106113a4565b73ffffffffffffffffffffffffffffffffffffffff1647604051610d3390614553565b60006040518083038185875af1925050503d8060008114610d70576040519150601f19603f3d011682016040523d82523d6000602084013e610d75565b606091505b5050905080610db9576040517f08c379a0000000000000000000000000000000000000000000000000000000008152600401610db0906148a4565b60405180910390fd5b50565b6000600b60009054906101000a900473ffffffffffffffffffffffffffffffffffffffff16905090565b606060018054610df590614bac565b80601f0160208091040260200160405190810160405280929190818152602001828054610e2190614bac565b8015610e6e5780601f10610e4357610100808354040283529160200191610e6e565b820191906000526020600020905b815481529060010190602001808311610e5157829003601f168201915b5050505050905090565b610e806113a4565b73ffffffffffffffffffffffffffffffffffffffff168273ffffffffffffffffffffffffffffffffffffffff161415610eee576040517f08c379a0000000000000000000000000000000000000000000000000000000008152600401610ee590614704565b60405180910390fd5b8060056000610efb6113a4565b73ffffffffffffffffffffffffffffffffffffffff1673ffffffffffffffffffffffffffffffffffffffff16815260200190815260200160002060008473ffffffffffffffffffffffffffffffffffffffff1673ffffffffffffffffffffffffffffffffffffffff16815260200190815260200160002060006101000a81548160ff0219169083151502179055508173ffffffffffffffffffffffffffffffffffffffff16610fa86113a4565b73ffffffffffffffffffffffffffffffffffffffff167f17307eab39ab6107e8899845ad3d59bd9653f200f220920489ca2b5937696c3183604051610fed9190614607565b60405180910390a35050565b61100a6110046113a4565b83611465565b611049576040517f08c379a000000000000000000000000000000000000000000000000000000000815260040161104090614864565b60405180910390fd5b611055848484846118a7565b50505050565b6060600061106883611903565b9050600061109c61107883611b82565b6040516020016110889190614568565b604051602081830303815290604052611b82565b9050806040516020016110af9190614531565b60405160208183030381529060405291508192505050919050565b6000600560008473ffffffffffffffffffffffffffffffffffffffff1673ffffffffffffffffffffffffffffffffffffffff16815260200190815260200160002060008373ffffffffffffffffffffffffffffffffffffffff1673ffffffffffffffffffffffffffffffffffffffff16815260200190815260200160002060009054906101000a900460ff16905092915050565b6111666113a4565b73ffffffffffffffffffffffffffffffffffffffff16611184610dbc565b73ffffffffffffffffffffffffffffffffffffffff16146111da576040517f08c379a00000000000000000000000000000000000000000000000000000000081526004016111d1906147e4565b60405180910390fd5b600073ffffffffffffffffffffffffffffffffffffffff168173ffffffffffffffffffffffffffffffffffffffff16141561124a576040517f08c379a000000000000000000000000000000000000000000000000000000000815260040161124190614684565b60405180910390fd5b611253816117e1565b50565b60007f80ac58cd000000000000000000000000000000000000000000000000000000007bffffffffffffffffffffffffffffffffffffffffffffffffffffffff1916827bffffffffffffffffffffffffffffffffffffffffffffffffffffffff1916148061132157507f5b5e139f000000000000000000000000000000000000000000000000000000007bffffffffffffffffffffffffffffffffffffffffffffffffffffffff1916827bffffffffffffffffffffffffffffffffffffffffffffffffffffffff1916145b80611331575061133082611d40565b5b9050919050565b60008073ffffffffffffffffffffffffffffffffffffffff166002600084815260200190815260200160002060009054906101000a900473ffffffffffffffffffffffffffffffffffffffff1673ffffffffffffffffffffffffffffffffffffffff1614159050919050565b600033905090565b816004600083815260200190815260200160002060006101000a81548173ffffffffffffffffffffffffffffffffffffffff021916908373ffffffffffffffffffffffffffffffffffffffff160217905550808273ffffffffffffffffffffffffffffffffffffffff1661141f83610a98565b73ffffffffffffffffffffffffffffffffffffffff167f8c5be1e5ebec7d5bd14f71427d1e84f3dd0314c0f7b2291e5b200ac8c7c3b92560405160405180910390a45050565b600061147082611338565b6114af576040517f08c379a00000000000000000000000000000000000000000000000000000000081526004016114a690614724565b60405180910390fd5b60006114ba83610a98565b90508073ffffffffffffffffffffffffffffffffffffffff168473ffffffffffffffffffffffffffffffffffffffff16148061152957508373ffffffffffffffffffffffffffffffffffffffff16611511846105f0565b73ffffffffffffffffffffffffffffffffffffffff16145b8061153a575061153981856110ca565b5b91505092915050565b8273ffffffffffffffffffffffffffffffffffffffff1661156382610a98565b73ffffffffffffffffffffffffffffffffffffffff16146115b9576040517f08c379a00000000000000000000000000000000000000000000000000000000081526004016115b090614824565b60405180910390fd5b600073ffffffffffffffffffffffffffffffffffffffff168273ffffffffffffffffffffffffffffffffffffffff161415611629576040517f08c379a0000000000000000000000000000000000000000000000000000000008152600401611620906146c4565b60405180910390fd5b611634838383611daa565b61163f6000826113ac565b6001600360008573ffffffffffffffffffffffffffffffffffffffff1673ffffffffffffffffffffffffffffffffffffffff168152602001908152602001600020600082825461168f9190614ab5565b925050819055506001600360008473ffffffffffffffffffffffffffffffffffffffff1673ffffffffffffffffffffffffffffffffffffffff16815260200190815260200160002060008282546116e691906149a3565b92505081905550816002600083815260200190815260200160002060006101000a81548173ffffffffffffffffffffffffffffffffffffffff021916908373ffffffffffffffffffffffffffffffffffffffff160217905550808273ffffffffffffffffffffffffffffffffffffffff168473ffffffffffffffffffffffffffffffffffffffff167fddf252ad1be2c89b69c2b068fc378daa952ba7f163c4a11628f55a4df523b3ef60405160405180910390a4505050565b600081600001549050919050565b6117c7828260405180602001604052806000815250611ebe565b5050565b6001816000016000828254019250508190555050565b6000600b60009054906101000a900473ffffffffffffffffffffffffffffffffffffffff16905081600b60006101000a81548173ffffffffffffffffffffffffffffffffffffffff021916908373ffffffffffffffffffffffffffffffffffffffff1602179055508173ffffffffffffffffffffffffffffffffffffffff168173ffffffffffffffffffffffffffffffffffffffff167f8be0079c531659141344cd1fd0a4f28419497f9722a3daafe3b4186f6b6457e060405160405180910390a35050565b6118b2848484611543565b6118be84848484611f19565b6118fd576040517f08c379a00000000000000000000000000000000000000000000000000000000081526004016118f490614664565b60405180910390fd5b50505050565b606061190d613b20565b611916836120b0565b90506000604051806080016040528061196c84600060048110611962577f4e487b7100000000000000000000000000000000000000000000000000000000600052603260045260246000fd5b60200201516123a2565b81526020016119b8846001600481106119ae577f4e487b7100000000000000000000000000000000000000000000000000000000600052603260045260246000fd5b602002015161249b565b8152602001611a04846002600481106119fa577f4e487b7100000000000000000000000000000000000000000000000000000000600052603260045260246000fd5b6020020151612594565b8152602001611a5084600360048110611a46577f4e487b7100000000000000000000000000000000000000000000000000000000600052603260045260246000fd5b602002015161268d565b8152509050600081600360048110611a91577f4e487b7100000000000000000000000000000000000000000000000000000000600052603260045260246000fd5b602002015182600260048110611ad0577f4e487b7100000000000000000000000000000000000000000000000000000000600052603260045260246000fd5b602002015183600160048110611b0f577f4e487b7100000000000000000000000000000000000000000000000000000000600052603260045260246000fd5b602002015184600060048110611b4e577f4e487b7100000000000000000000000000000000000000000000000000000000600052603260045260246000fd5b6020020151604051602001611b6694939291906144bc565b6040516020818303038152906040529050809350505050919050565b60606000825190506000811415611bab5760405180602001604052806000815250915050611d3b565b60006003600283611bbc91906149a3565b611bc691906149f9565b6004611bd29190614a5b565b90506000602082611be391906149a3565b67ffffffffffffffff811115611c22577f4e487b7100000000000000000000000000000000000000000000000000000000600052604160045260246000fd5b6040519080825280601f01601f191660200182016040528015611c545781602001600182028036833780820191505090505b5090506000604051806060016040528060408152602001615d41604091399050600181016020830160005b86811015611cf85760038101905062ffffff818a015116603f8160121c168401518060081b905060ff603f83600c1c1686015116810190508060081b905060ff603f8360061c1686015116810190508060081b905060ff603f831686015116810190508060e01b90508084526004840193505050611c7f565b506003860660018114611d125760028114611d2257611d2d565b613d3d60f01b6002830352611d2d565b603d60f81b60018303525b508484525050819450505050505b919050565b60007f01ffc9a7000000000000000000000000000000000000000000000000000000007bffffffffffffffffffffffffffffffffffffffffffffffffffffffff1916827bffffffffffffffffffffffffffffffffffffffffffffffffffffffff1916149050919050565b611db5838383612786565b600073ffffffffffffffffffffffffffffffffffffffff168373ffffffffffffffffffffffffffffffffffffffff161415611df857611df38161278b565b611e37565b8173ffffffffffffffffffffffffffffffffffffffff168373ffffffffffffffffffffffffffffffffffffffff1614611e3657611e3583826127d4565b5b5b600073ffffffffffffffffffffffffffffffffffffffff168273ffffffffffffffffffffffffffffffffffffffff161415611e7a57611e7581612941565b611eb9565b8273ffffffffffffffffffffffffffffffffffffffff168273ffffffffffffffffffffffffffffffffffffffff1614611eb857611eb78282612a84565b5b5b505050565b611ec88383612b03565b611ed56000848484611f19565b611f14576040517f08c379a0000000000000000000000000000000000000000000000000000000008152600401611f0b90614664565b60405180910390fd5b505050565b6000611f3a8473ffffffffffffffffffffffffffffffffffffffff16612cd1565b156120a3578373ffffffffffffffffffffffffffffffffffffffff1663150b7a02611f636113a4565b8786866040518563ffffffff1660e01b8152600401611f8594939291906145bb565b602060405180830381600087803b158015611f9f57600080fd5b505af1925050508015611fd057506040513d601f19601f82011682018060405250810190611fcd9190613de3565b60015b612053573d8060008114612000576040519150601f19603f3d011682016040523d82523d6000602084013e612005565b606091505b5060008151141561204b576040517f08c379a000000000000000000000000000000000000000000000000000000000815260040161204290614664565b60405180910390fd5b805181602001fd5b63150b7a0260e01b7bffffffffffffffffffffffffffffffffffffffffffffffffffffffff1916817bffffffffffffffffffffffffffffffffffffffffffffffffffffffff1916149150506120a8565b600190505b949350505050565b6120b8613b20565b6000806120c3613b20565b603c856120d091906149f9565b9250600a8360ff16101561217c5760008160006004811061211a577f4e487b7100000000000000000000000000000000000000000000000000000000600052603260045260246000fd5b602002019060ff16908160ff16815250508281600160048110612166577f4e487b7100000000000000000000000000000000000000000000000000000000600052603260045260246000fd5b602002019060ff16908160ff168152505061222d565b600a836121899190614a2a565b816000600481106121c3577f4e487b7100000000000000000000000000000000000000000000000000000000600052603260045260246000fd5b602002019060ff16908160ff1681525050600a836121e19190614c40565b8160016004811061221b577f4e487b7100000000000000000000000000000000000000000000000000000000600052603260045260246000fd5b602002019060ff16908160ff16815250505b603c8561223a9190614c0f565b9150600a8260ff1610156122e657600081600260048110612284577f4e487b7100000000000000000000000000000000000000000000000000000000600052603260045260246000fd5b602002019060ff16908160ff168152505081816003600481106122d0577f4e487b7100000000000000000000000000000000000000000000000000000000600052603260045260246000fd5b602002019060ff16908160ff1681525050612397565b600a826122f39190614a2a565b8160026004811061232d577f4e487b7100000000000000000000000000000000000000000000000000000000600052603260045260246000fd5b602002019060ff16908160ff1681525050600a8261234b9190614c40565b81600360048110612385577f4e487b7100000000000000000000000000000000000000000000000000000000600052603260045260246000fd5b602002019060ff16908160ff16815250505b809350505050919050565b606060006040518060e001604052806040518060a00160405280607581526020016162aa6075913981526020016040518060a00160405280607681526020016164136076913981526020016040518060a00160405280607a81526020016157a6607a913981526020016040518060a00160405280606f815260200161590f606f913981526020016040518060a0016040528060768152602001615aeb6076913981526020016040518060a00160405280607a81526020016159f8607a913981526020016040518060a0016040528060758152602001615820607591398152509050606061248f8285612ce4565b90508092505050919050565b606060006040518060e001604052806040518060a0016040528060798152602001615df36079913981526020016040518060a00160405280607a815260200161572c607a913981526020016040518060a00160405280607a815260200161597e607a913981526020016040518060a0016040528060728152602001615d816072913981526020016040518060a00160405280607a8152602001616145607a913981526020016040518060a00160405280607a8152602001615895607a913981526020016040518060a0016040528060798152602001615ee660799139815250905060606125888285612ce4565b90508092505050919050565b606060006040518060e001604052806040518060a0016040528060798152602001615a726079913981526020016040518060a00160405280607a8152602001615c55607a913981526020016040518060a00160405280607a8152602001615b61607a913981526020016040518060a00160405280607281526020016162386072913981526020016040518060a00160405280607a8152602001615fd8607a913981526020016040518060a00160405280607a8152602001616052607a913981526020016040518060a00160405280607981526020016161bf60799139815250905060606126818285612ce4565b90508092505050919050565b606060006040518060e001604052806040518060a00160405280607981526020016160cc6079913981526020016040518060a00160405280607a8152602001616399607a913981526020016040518060a00160405280607a8152602001615e6c607a913981526020016040518060a0016040528060728152602001615ccf6072913981526020016040518060a00160405280607a8152602001615bdb607a913981526020016040518060a00160405280607a815260200161631f607a913981526020016040518060a0016040528060798152602001615f5f607991398152509050606061277a8285612ce4565b90508092505050919050565b505050565b6008805490506009600083815260200190815260200160002081905550600881908060018154018082558091505060019003906000526020600020016000909190919091505550565b600060016127e184610b4a565b6127eb9190614ab5565b90506000600760008481526020019081526020016000205490508181146128d0576000600660008673ffffffffffffffffffffffffffffffffffffffff1673ffffffffffffffffffffffffffffffffffffffff168152602001908152602001600020600084815260200190815260200160002054905080600660008773ffffffffffffffffffffffffffffffffffffffff1673ffffffffffffffffffffffffffffffffffffffff168152602001908152602001600020600084815260200190815260200160002081905550816007600083815260200190815260200160002081905550505b6007600084815260200190815260200160002060009055600660008573ffffffffffffffffffffffffffffffffffffffff1673ffffffffffffffffffffffffffffffffffffffff16815260200190815260200160002060008381526020019081526020016000206000905550505050565b600060016008805490506129559190614ab5565b90506000600960008481526020019081526020016000205490506000600883815481106129ab577f4e487b7100000000000000000000000000000000000000000000000000000000600052603260045260246000fd5b9060005260206000200154905080600883815481106129f3577f4e487b7100000000000000000000000000000000000000000000000000000000600052603260045260246000fd5b906000526020600020018190555081600960008381526020019081526020016000208190555060096000858152602001908152602001600020600090556008805480612a68577f4e487b7100000000000000000000000000000000000000000000000000000000600052603160045260246000fd5b6001900381819060005260206000200160009055905550505050565b6000612a8f83610b4a565b905081600660008573ffffffffffffffffffffffffffffffffffffffff1673ffffffffffffffffffffffffffffffffffffffff168152602001908152602001600020600083815260200190815260200160002081905550806007600084815260200190815260200160002081905550505050565b600073ffffffffffffffffffffffffffffffffffffffff168273ffffffffffffffffffffffffffffffffffffffff161415612b73576040517f08c379a0000000000000000000000000000000000000000000000000000000008152600401612b6a906147a4565b60405180910390fd5b612b7c81611338565b15612bbc576040517f08c379a0000000000000000000000000000000000000000000000000000000008152600401612bb3906146a4565b60405180910390fd5b612bc860008383611daa565b6001600360008473ffffffffffffffffffffffffffffffffffffffff1673ffffffffffffffffffffffffffffffffffffffff1681526020019081526020016000206000828254612c1891906149a3565b92505081905550816002600083815260200190815260200160002060006101000a81548173ffffffffffffffffffffffffffffffffffffffff021916908373ffffffffffffffffffffffffffffffffffffffff160217905550808273ffffffffffffffffffffffffffffffffffffffff16600073ffffffffffffffffffffffffffffffffffffffff167fddf252ad1be2c89b69c2b068fc378daa952ba7f163c4a11628f55a4df523b3ef60405160405180910390a45050565b600080823b905060008111915050919050565b60608060008360ff161415612e985783600060078110612d2d577f4e487b7100000000000000000000000000000000000000000000000000000000600052603260045260246000fd5b602002015184600160078110612d6c577f4e487b7100000000000000000000000000000000000000000000000000000000600052603260045260246000fd5b602002015185600260078110612dab577f4e487b7100000000000000000000000000000000000000000000000000000000600052603260045260246000fd5b602002015186600460078110612dea577f4e487b7100000000000000000000000000000000000000000000000000000000600052603260045260246000fd5b602002015187600560078110612e29577f4e487b7100000000000000000000000000000000000000000000000000000000600052603260045260246000fd5b602002015188600660078110612e68577f4e487b7100000000000000000000000000000000000000000000000000000000600052603260045260246000fd5b6020020151604051602001612e82969594939291906143ff565b6040516020818303038152906040529050613b16565b60018360ff161415612f495783600260078110612ede577f4e487b7100000000000000000000000000000000000000000000000000000000600052603260045260246000fd5b602002015184600560078110612f1d577f4e487b7100000000000000000000000000000000000000000000000000000000600052603260045260246000fd5b6020020151604051602001612f33929190614321565b6040516020818303038152906040529050613b15565b60028360ff1614156130ba5783600060078110612f8f577f4e487b7100000000000000000000000000000000000000000000000000000000600052603260045260246000fd5b602002015184600260078110612fce577f4e487b7100000000000000000000000000000000000000000000000000000000600052603260045260246000fd5b60200201518560036007811061300d577f4e487b7100000000000000000000000000000000000000000000000000000000600052603260045260246000fd5b60200201518660046007811061304c577f4e487b7100000000000000000000000000000000000000000000000000000000600052603260045260246000fd5b60200201518760066007811061308b577f4e487b7100000000000000000000000000000000000000000000000000000000600052603260045260246000fd5b60200201516040516020016130a49594939291906143b4565b6040516020818303038152906040529050613b14565b60038360ff16141561322b5783600060078110613100577f4e487b7100000000000000000000000000000000000000000000000000000000600052603260045260246000fd5b60200201518460026007811061313f577f4e487b7100000000000000000000000000000000000000000000000000000000600052603260045260246000fd5b60200201518560036007811061317e577f4e487b7100000000000000000000000000000000000000000000000000000000600052603260045260246000fd5b6020020151866005600781106131bd577f4e487b7100000000000000000000000000000000000000000000000000000000600052603260045260246000fd5b6020020151876006600781106131fc577f4e487b7100000000000000000000000000000000000000000000000000000000600052603260045260246000fd5b60200201516040516020016132159594939291906143b4565b6040516020818303038152906040529050613b13565b60048360ff16141561335c5783600160078110613271577f4e487b7100000000000000000000000000000000000000000000000000000000600052603260045260246000fd5b6020020151846002600781106132b0577f4e487b7100000000000000000000000000000000000000000000000000000000600052603260045260246000fd5b6020020151856003600781106132ef577f4e487b7100000000000000000000000000000000000000000000000000000000600052603260045260246000fd5b60200201518660056007811061332e577f4e487b7100000000000000000000000000000000000000000000000000000000600052603260045260246000fd5b60200201516040516020016133469493929190614376565b6040516020818303038152906040529050613b12565b60058360ff1614156134cd57836000600781106133a2577f4e487b7100000000000000000000000000000000000000000000000000000000600052603260045260246000fd5b6020020151846001600781106133e1577f4e487b7100000000000000000000000000000000000000000000000000000000600052603260045260246000fd5b602002015185600360078110613420577f4e487b7100000000000000000000000000000000000000000000000000000000600052603260045260246000fd5b60200201518660056007811061345f577f4e487b7100000000000000000000000000000000000000000000000000000000600052603260045260246000fd5b60200201518760066007811061349e577f4e487b7100000000000000000000000000000000000000000000000000000000600052603260045260246000fd5b60200201516040516020016134b79594939291906143b4565b6040516020818303038152906040529050613b11565b60068360ff16141561367e5783600060078110613513577f4e487b7100000000000000000000000000000000000000000000000000000000600052603260045260246000fd5b602002015184600160078110613552577f4e487b7100000000000000000000000000000000000000000000000000000000600052603260045260246000fd5b602002015185600360078110613591577f4e487b7100000000000000000000000000000000000000000000000000000000600052603260045260246000fd5b6020020151866004600781106135d0577f4e487b7100000000000000000000000000000000000000000000000000000000600052603260045260246000fd5b60200201518760056007811061360f577f4e487b7100000000000000000000000000000000000000000000000000000000600052603260045260246000fd5b60200201518860066007811061364e577f4e487b7100000000000000000000000000000000000000000000000000000000600052603260045260246000fd5b6020020151604051602001613668969594939291906143ff565b6040516020818303038152906040529050613b10565b60078360ff16141561376f57836000600781106136c4577f4e487b7100000000000000000000000000000000000000000000000000000000600052603260045260246000fd5b602002015184600260078110613703577f4e487b7100000000000000000000000000000000000000000000000000000000600052603260045260246000fd5b602002015185600560078110613742577f4e487b7100000000000000000000000000000000000000000000000000000000600052603260045260246000fd5b602002015160405160200161375993929190614345565b6040516020818303038152906040529050613b0f565b60088360ff16141561396057836000600781106137b5577f4e487b7100000000000000000000000000000000000000000000000000000000600052603260045260246000fd5b6020020151846001600781106137f4577f4e487b7100000000000000000000000000000000000000000000000000000000600052603260045260246000fd5b602002015185600260078110613833577f4e487b7100000000000000000000000000000000000000000000000000000000600052603260045260246000fd5b602002015186600360078110613872577f4e487b7100000000000000000000000000000000000000000000000000000000600052603260045260246000fd5b6020020151876004600781106138b1577f4e487b7100000000000000000000000000000000000000000000000000000000600052603260045260246000fd5b6020020151886005600781106138f0577f4e487b7100000000000000000000000000000000000000000000000000000000600052603260045260246000fd5b60200201518960066007811061392f577f4e487b7100000000000000000000000000000000000000000000000000000000600052603260045260246000fd5b602002015160405160200161394a9796959493929190614457565b6040516020818303038152906040529050613b0e565b60098360ff161415613b0d57836000600781106139a6577f4e487b7100000000000000000000000000000000000000000000000000000000600052603260045260246000fd5b6020020151846001600781106139e5577f4e487b7100000000000000000000000000000000000000000000000000000000600052603260045260246000fd5b602002015185600260078110613a24577f4e487b7100000000000000000000000000000000000000000000000000000000600052603260045260246000fd5b602002015186600360078110613a63577f4e487b7100000000000000000000000000000000000000000000000000000000600052603260045260246000fd5b602002015187600560078110613aa2577f4e487b7100000000000000000000000000000000000000000000000000000000600052603260045260246000fd5b602002015188600660078110613ae1577f4e487b7100000000000000000000000000000000000000000000000000000000600052603260045260246000fd5b6020020151604051602001613afb969594939291906143ff565b60405160208183030381529060405290505b5b5b5b5b5b5b5b5b5b8091505092915050565b6040518060800160405280600490602082028036833780820191505090505090565b6000613b55613b5084614924565b6148ff565b905082815260208101848484011115613b6d57600080fd5b613b78848285614b6a565b509392505050565b600081359050613b8f816156cf565b92915050565b600081359050613ba4816156e6565b92915050565b600081359050613bb9816156fd565b92915050565b600081519050613bce816156fd565b92915050565b600082601f830112613be557600080fd5b8135613bf5848260208601613b42565b91505092915050565b600081359050613c0d81615714565b92915050565b600060208284031215613c2557600080fd5b6000613c3384828501613b80565b91505092915050565b60008060408385031215613c4f57600080fd5b6000613c5d85828601613b80565b9250506020613c6e85828601613b80565b9150509250929050565b600080600060608486031215613c8d57600080fd5b6000613c9b86828701613b80565b9350506020613cac86828701613b80565b9250506040613cbd86828701613bfe565b9150509250925092565b60008060008060808587031215613cdd57600080fd5b6000613ceb87828801613b80565b9450506020613cfc87828801613b80565b9350506040613d0d87828801613bfe565b925050606085013567ffffffffffffffff811115613d2a57600080fd5b613d3687828801613bd4565b91505092959194509250565b60008060408385031215613d5557600080fd5b6000613d6385828601613b80565b9250506020613d7485828601613b95565b9150509250929050565b60008060408385031215613d9157600080fd5b6000613d9f85828601613b80565b9250506020613db085828601613bfe565b9150509250929050565b600060208284031215613dcc57600080fd5b6000613dda84828501613baa565b91505092915050565b600060208284031215613df557600080fd5b6000613e0384828501613bbf565b91505092915050565b600060208284031215613e1e57600080fd5b6000613e2c84828501613bfe565b91505092915050565b613e3e81614ae9565b82525050565b613e4d81614afb565b82525050565b6000613e5e82614955565b613e68818561496b565b9350613e78818560208601614b79565b613e8181614d2d565b840191505092915050565b6000613e9782614960565b613ea18185614987565b9350613eb1818560208601614b79565b613eba81614d2d565b840191505092915050565b6000613ed082614960565b613eda8185614998565b9350613eea818560208601614b79565b80840191505092915050565b6000613f0360d783614998565b9150613f0e82614d3e565b60d782019050919050565b6000613f26602b83614987565b9150613f3182614e4b565b604082019050919050565b6000613f49603283614987565b9150613f5482614e9a565b604082019050919050565b6000613f6c602683614987565b9150613f7782614ee9565b604082019050919050565b6000613f8f601c83614987565b9150613f9a82614f38565b602082019050919050565b6000613fb2602483614987565b9150613fbd82614f61565b604082019050919050565b6000613fd5600f83614987565b9150613fe082614fb0565b602082019050919050565b6000613ff8601983614987565b915061400382614fd9565b602082019050919050565b600061401b602c83614987565b915061402682615002565b604082019050919050565b600061403e603883614987565b915061404982615051565b604082019050919050565b6000614061602a83614987565b915061406c826150a0565b604082019050919050565b6000614084602983614987565b915061408f826150ef565b604082019050919050565b60006140a7600783614998565b91506140b28261513e565b600782019050919050565b60006140ca600283614998565b91506140d582615167565b600282019050919050565b60006140ed602083614987565b91506140f882615190565b602082019050919050565b6000614110602c83614987565b915061411b826151b9565b604082019050919050565b6000614133606283614998565b915061413e82615208565b606282019050919050565b6000614156602083614987565b9150614161826152a3565b602082019050919050565b6000614179601083614987565b9150614184826152cc565b602082019050919050565b600061419c602983614987565b91506141a7826152f5565b604082019050919050565b60006141bf602183614987565b91506141ca82615344565b604082019050919050565b60006141e2601d83614998565b91506141ed82615393565b601d82019050919050565b6000614205601b83614998565b9150614210826153bc565b601b82019050919050565b600061422860008361497c565b9150614233826153e5565b600082019050919050565b600061424b603183614987565b9150614256826153e8565b604082019050919050565b600061426e602c83614987565b915061427982615437565b604082019050919050565b6000614291601983614987565b915061429c82615486565b602082019050919050565b60006142b4603283614998565b91506142bf826154af565b603282019050919050565b60006142d7601f83614987565b91506142e2826154fe565b602082019050919050565b60006142fb61015383614998565b915061430682615527565b61015382019050919050565b61431b81614b53565b82525050565b600061432d8285613ec5565b91506143398284613ec5565b91508190509392505050565b60006143518286613ec5565b915061435d8285613ec5565b91506143698284613ec5565b9150819050949350505050565b60006143828287613ec5565b915061438e8286613ec5565b915061439a8285613ec5565b91506143a68284613ec5565b915081905095945050505050565b60006143c08288613ec5565b91506143cc8287613ec5565b91506143d88286613ec5565b91506143e48285613ec5565b91506143f08284613ec5565b91508190509695505050505050565b600061440b8289613ec5565b91506144178288613ec5565b91506144238287613ec5565b915061442f8286613ec5565b915061443b8285613ec5565b91506144478284613ec5565b9150819050979650505050505050565b6000614463828a613ec5565b915061446f8289613ec5565b915061447b8288613ec5565b91506144878287613ec5565b91506144938286613ec5565b915061449f8285613ec5565b91506144ab8284613ec5565b915081905098975050505050505050565b60006144c782613ef6565b91506144d38287613ec5565b91506144de8261409a565b91506144ea8286613ec5565b91506144f5826141f8565b91506145018285613ec5565b915061450c8261409a565b91506145188284613ec5565b9150614523826142ed565b915081905095945050505050565b600061453c826141d5565b91506145488284613ec5565b915081905092915050565b600061455e8261421b565b9150819050919050565b6000614573826142a7565b915061457e82614126565b915061458a8284613ec5565b9150614595826140bd565b915081905092915050565b60006020820190506145b56000830184613e35565b92915050565b60006080820190506145d06000830187613e35565b6145dd6020830186613e35565b6145ea6040830185614312565b81810360608301526145fc8184613e53565b905095945050505050565b600060208201905061461c6000830184613e44565b92915050565b6000602082019050818103600083015261463c8184613e8c565b905092915050565b6000602082019050818103600083015261465d81613f19565b9050919050565b6000602082019050818103600083015261467d81613f3c565b9050919050565b6000602082019050818103600083015261469d81613f5f565b9050919050565b600060208201905081810360008301526146bd81613f82565b9050919050565b600060208201905081810360008301526146dd81613fa5565b9050919050565b600060208201905081810360008301526146fd81613fc8565b9050919050565b6000602082019050818103600083015261471d81613feb565b9050919050565b6000602082019050818103600083015261473d8161400e565b9050919050565b6000602082019050818103600083015261475d81614031565b9050919050565b6000602082019050818103600083015261477d81614054565b9050919050565b6000602082019050818103600083015261479d81614077565b9050919050565b600060208201905081810360008301526147bd816140e0565b9050919050565b600060208201905081810360008301526147dd81614103565b9050919050565b600060208201905081810360008301526147fd81614149565b9050919050565b6000602082019050818103600083015261481d8161416c565b9050919050565b6000602082019050818103600083015261483d8161418f565b9050919050565b6000602082019050818103600083015261485d816141b2565b9050919050565b6000602082019050818103600083015261487d8161423e565b9050919050565b6000602082019050818103600083015261489d81614261565b9050919050565b600060208201905081810360008301526148bd81614284565b9050919050565b600060208201905081810360008301526148dd816142ca565b9050919050565b60006020820190506148f96000830184614312565b92915050565b600061490961491a565b90506149158282614bde565b919050565b6000604051905090565b600067ffffffffffffffff82111561493f5761493e614cfe565b5b61494882614d2d565b9050602081019050919050565b600081519050919050565b600081519050919050565b600082825260208201905092915050565b600081905092915050565b600082825260208201905092915050565b600081905092915050565b60006149ae82614b53565b91506149b983614b53565b9250827fffffffffffffffffffffffffffffffffffffffffffffffffffffffffffffffff038211156149ee576149ed614c71565b5b828201905092915050565b6000614a0482614b53565b9150614a0f83614b53565b925082614a1f57614a1e614ca0565b5b828204905092915050565b6000614a3582614b5d565b9150614a4083614b5d565b925082614a5057614a4f614ca0565b5b828204905092915050565b6000614a6682614b53565b9150614a7183614b53565b9250817fffffffffffffffffffffffffffffffffffffffffffffffffffffffffffffffff0483118215151615614aaa57614aa9614c71565b5b828202905092915050565b6000614ac082614b53565b9150614acb83614b53565b925082821015614ade57614add614c71565b5b828203905092915050565b6000614af482614b33565b9050919050565b60008115159050919050565b60007fffffffff0000000000000000000000000000000000000000000000000000000082169050919050565b600073ffffffffffffffffffffffffffffffffffffffff82169050919050565b6000819050919050565b600060ff82169050919050565b82818337600083830152505050565b60005b83811015614b97578082015181840152602081019050614b7c565b83811115614ba6576000848401525b50505050565b60006002820490506001821680614bc457607f821691505b60208210811415614bd857614bd7614ccf565b5b50919050565b614be782614d2d565b810181811067ffffffffffffffff82111715614c0657614c05614cfe565b5b80604052505050565b6000614c1a82614b53565b9150614c2583614b53565b925082614c3557614c34614ca0565b5b828206905092915050565b6000614c4b82614b5d565b9150614c5683614b5d565b925082614c6657614c65614ca0565b5b828206905092915050565b7f4e487b7100000000000000000000000000000000000000000000000000000000600052601160045260246000fd5b7f4e487b7100000000000000000000000000000000000000000000000000000000600052601260045260246000fd5b7f4e487b7100000000000000000000000000000000000000000000000000000000600052602260045260246000fd5b7f4e487b7100000000000000000000000000000000000000000000000000000000600052604160045260246000fd5b6000601f19601f8301169050919050565b7f3c7376672076696577426f783d2730203020353030203530302720786d6c6e7360008201527f3d27687474703a2f2f7777772e77332e6f72672f323030302f7376672720786d60208201527f6c6e733a62783d2768747470733a2f2f626f78792d7376672e636f6d273e3c6760408201527f207374726f6b653d2723666666666666272066696c6c3d27236666666666272060608201527f7472616e73666f726d3d276d617472697828342e3833373038322c20302c203060808201527f2c20352e3331303937322c2035392e3231393436372c202d34352e343737313560a08201527f2927203e3c672069643d276d696e75746573273e3c673e00000000000000000060c082015250565b7f455243373231456e756d657261626c653a206f776e657220696e646578206f7560008201527f74206f6620626f756e6473000000000000000000000000000000000000000000602082015250565b7f4552433732313a207472616e7366657220746f206e6f6e20455243373231526560008201527f63656976657220696d706c656d656e7465720000000000000000000000000000602082015250565b7f4f776e61626c653a206e6577206f776e657220697320746865207a65726f206160008201527f6464726573730000000000000000000000000000000000000000000000000000602082015250565b7f4552433732313a20746f6b656e20616c7265616479206d696e74656400000000600082015250565b7f4552433732313a207472616e7366657220746f20746865207a65726f2061646460008201527f7265737300000000000000000000000000000000000000000000000000000000602082015250565b7f4e6f7420656e6f7567682066756e640000000000000000000000000000000000600082015250565b7f4552433732313a20617070726f766520746f2063616c6c657200000000000000600082015250565b7f4552433732313a206f70657261746f7220717565727920666f72206e6f6e657860008201527f697374656e7420746f6b656e0000000000000000000000000000000000000000602082015250565b7f4552433732313a20617070726f76652063616c6c6572206973206e6f74206f7760008201527f6e6572206e6f7220617070726f76656420666f7220616c6c0000000000000000602082015250565b7f4552433732313a2062616c616e636520717565727920666f7220746865207a6560008201527f726f206164647265737300000000000000000000000000000000000000000000602082015250565b7f4552433732313a206f776e657220717565727920666f72206e6f6e657869737460008201527f656e7420746f6b656e0000000000000000000000000000000000000000000000602082015250565b7f3c2f673e3c673e00000000000000000000000000000000000000000000000000600082015250565b7f227d000000000000000000000000000000000000000000000000000000000000600082015250565b7f4552433732313a206d696e7420746f20746865207a65726f2061646472657373600082015250565b7f4552433732313a20617070726f76656420717565727920666f72206e6f6e657860008201527f697374656e7420746f6b656e0000000000000000000000000000000000000000602082015250565b7f226465736372697074696f6e223a2022546865206d6f73742076616c7561626c60008201527f65207468696e6720696e2074686520656e7469726520776f726c64222c20226960208201527f6d616765223a2022646174613a696d6167652f7376672b786d6c3b626173653660408201527f342c000000000000000000000000000000000000000000000000000000000000606082015250565b7f4f776e61626c653a2063616c6c6572206973206e6f7420746865206f776e6572600082015250565b7f546f6b656e20494420696e76616c696400000000000000000000000000000000600082015250565b7f4552433732313a207472616e73666572206f6620746f6b656e2074686174206960008201527f73206e6f74206f776e0000000000000000000000000000000000000000000000602082015250565b7f4552433732313a20617070726f76616c20746f2063757272656e74206f776e6560008201527f7200000000000000000000000000000000000000000000000000000000000000602082015250565b7f646174613a6170706c69636174696f6e2f6a736f6e3b6261736536342c000000600082015250565b7f203c2f673e3c2f673e3c672069643d27686f75727327203e3c673e0000000000600082015250565b50565b7f4552433732313a207472616e736665722063616c6c6572206973206e6f74206f60008201527f776e6572206e6f7220617070726f766564000000000000000000000000000000602082015250565b7f455243373231456e756d657261626c653a20676c6f62616c20696e646578206f60008201527f7574206f6620626f756e64730000000000000000000000000000000000000000602082015250565b7f436f756c64206e6f74207472616e7366657220616d6f756e7400000000000000600082015250565b7f7b226e616d65223a202254696d652023222c207469636b546f636b2e6375727260008201527f656e7428292e746f537472696e672829202c0000000000000000000000000000602082015250565b7f5265656e7472616e637947756172643a207265656e7472616e742063616c6c00600082015250565b7f203c2f673e3c2f673e3c672069643d27646f7473273e3c673e3c636972636c6560008201527f2063783d273430272063793d2735302720723d273227207374796c653d27706160208201527f696e742d6f726465723a207374726f6b653b207374726f6b653a20726762283060408201527f2c20302c2030293b272f3e203c636972636c652063783d273430272063793d2760608201527f35382720723d273227207374796c653d277061696e742d6f726465723a20737460808201527f726f6b653b207374726f6b653a2072676228302c20302c2030293b272f3e3c2f60a08201527f673e3c2f673e3c2f673e3c74657874207374796c653d2766696c6c3a2072676260c08201527f2835312c2035312c203531293b20666f6e742d66616d696c793a20496d70616360e08201527f743b20666f6e742d73697a653a2033322e3270783b2077686974652d737061636101008201527f653a207072653b2720783d273431392e3439312720793d273439312e313533276101208201527f3e44415920303c2f746578743e3c2f7376673e0000000000000000000000000061014082015250565b6156d881614ae9565b81146156e357600080fd5b50565b6156ef81614afb565b81146156fa57600080fd5b50565b61570681614b07565b811461571157600080fd5b50565b61571d81614b53565b811461572857600080fd5b5056fe3c706174682069643d2762322720643d274d32312c34306c332c3376386c2d332c3263302c302d312d312d312d33762d374332302c34312c32312c34302c32312c34307a27207374796c653d277061696e742d6f726465723a207374726f6b653b207374726f6b653a2072676228302c20302c2030293b272f3e3c706174682069643d2761332720643d274d31372c34306c2d332c3376386c332c3263302c302c312d312c312d33762d374331382c34312c31372c34302c31372c34307a27207374796c653d277061696e742d6f726465723a207374726f6b653b207374726f6b653a2072676228302c20302c2030293b272f3e3c706174682069643d2761372720643d274d342c36396c332d3368366c332c3363302c302d312c312d332c31682d3643352c37302c342c36392c342c36397a27207374796c653d277061696e742d6f726465723a207374726f6b653b207374726f6b653a2072676228302c20302c2030293b272f3e3c706174682069643d2762362720643d274d33352c35356c2d332c3276386c332c3363302c302c312d312c312d33762d374333362c35362c33352c35352c33352c35357a27207374796c653d277061696e742d6f726465723a207374726f6b653b207374726f6b653a2072676228302c20302c2030293b272f3e3c706f6c79676f6e2069643d2761342720706f696e74733d27372c35322031332c35322031362c35342031332c353620372c353620342c353427207374796c653d277061696e742d6f726465723a207374726f6b653b207374726f6b653a2072676228302c20302c2030293b272f3e3c706174682069643d2762332720643d274d33352c34306c2d332c3376386c332c3263302c302c312d312c312d33762d374333362c34312c33352c34302c33352c34307a27207374796c653d277061696e742d6f726465723a207374726f6b653b207374726f6b653a2072676228302c20302c2030293b272f3e3c706174682069643d2761362720643d274d31372c35356c2d332c3276386c332c3363302c302c312d312c312d33762d374331382c35362c31372c35352c31372c35357a27207374796c653d277061696e742d6f726465723a207374726f6b653b207374726f6b653a2072676228302c20302c2030293b272f3e3c706174682069643d2763312720643d274d34362c33396c332c3368366c332d3363302c302d312d312d332d31682d364334372c33382c34362c33392c34362c33397a27207374796c653d277061696e742d6f726465723a207374726f6b653b207374726f6b653a2072676228302c20302c2030293b272f3e3c706174682069643d2761352720643d274d332c35356c332c3276386c2d332c3363302c302d312d312d312d33762d3743322c35362c332c35352c332c35357a27207374796c653d277061696e742d6f726465723a207374726f6b653b207374726f6b653a2072676228302c20302c2030293b272f3e3c706174682069643d2763332720643d274d35392c34306c2d332c3376386c332c3263302c302c312d312c312d33762d374336302c34312c35392c34302c35392c34307a27207374796c653d277061696e742d6f726465723a207374726f6b653b207374726f6b653a2072676228302c20302c2030293b272f3e3c706174682069643d2764352720643d274d36332c35356c332c3276386c2d332c3363302c302d312d312d312d33762d374336322c35362c36332c35352c36332c35357a27207374796c653d277061696e742d6f726465723a207374726f6b653b207374726f6b653a2072676228302c20302c2030293b272f3e3c706174682069643d2763322720643d274d34352c34306c332c3376386c2d332c3263302c302d312d312d312d33762d374334342c34312c34352c34302c34352c34307a27207374796c653d277061696e742d6f726465723a207374726f6b653b207374726f6b653a2072676228302c20302c2030293b272f3e3c706f6c79676f6e2069643d2764342720706f696e74733d2736372c35322037332c35322037362c35342037332c35362036372c35362036342c353427207374796c653d277061696e742d6f726465723a207374726f6b653b207374726f6b653a2072676228302c20302c2030293b272f3e4142434445464748494a4b4c4d4e4f505152535455565758595a6162636465666768696a6b6c6d6e6f707172737475767778797a303132333435363738392b2f3c706f6c79676f6e2069643d2762342720706f696e74733d2732352c35322033312c35322033342c35342033312c35362032352c35362032322c353427207374796c653d277061696e742d6f726465723a207374726f6b653b207374726f6b653a2072676228302c20302c2030293b272f3e3c706174682069643d2762312720643d274d32322c33396c332c3368366c332d3363302c302d312d312d332d31682d364332332c33382c32322c33392c32322c33397a27207374796c653d277061696e742d6f726465723a207374726f6b653b207374726f6b653a2072676228302c20302c2030293b272f3e3c706174682069643d2764332720643d274d37372c34306c2d332c3376386c332c3263302c302c312d312c312d33762d374337382c34312c37372c34302c37372c34307a27207374796c653d277061696e742d6f726465723a207374726f6b653b207374726f6b653a2072676228302c20302c2030293b272f3e3c706174682069643d2762372720643d274d32322c36396c332d3368366c332c3363302c302d312c312d332c31682d364332332c37302c32322c36392c32322c36397a27207374796c653d277061696e742d6f726465723a207374726f6b653b207374726f6b653a2072676228302c20302c2030293b272f3e3c706174682069643d2764372720643d274d36342c36396c332d3368366c332c3363302c302d312c312d332c31682d364336352c37302c36342c36392c36342c36397a27207374796c653d277061696e742d6f726465723a207374726f6b653b207374726f6b653a2072676228302c20302c2030293b272f3e3c706174682069643d2763352720643d274d34352c35356c332c3276386c2d332c3363302c302d312d312d312d33762d374334342c35362c34352c35352c34352c35357a27207374796c653d277061696e742d6f726465723a207374726f6b653b207374726f6b653a2072676228302c20302c2030293b272f3e3c706174682069643d2763362720643d274d35392c35356c2d332c3276386c332c3363302c302c312d312c312d33762d374336302c35362c35392c35352c35392c35357a27207374796c653d277061696e742d6f726465723a207374726f6b653b207374726f6b653a2072676228302c20302c2030293b272f3e3c706174682069643d2764312720643d274d36342c33396c332c3368366c332d3363302c302d312d312d332d31682d364336352c33382c36342c33392c36342c33397a27207374796c653d277061696e742d6f726465723a207374726f6b653b207374726f6b653a2072676228302c20302c2030293b272f3e3c706174682069643d2762352720643d274d32312c35356c332c3276386c2d332c3363302c302d312d312d312d33762d374332302c35362c32312c35352c32312c35357a27207374796c653d277061696e742d6f726465723a207374726f6b653b207374726f6b653a2072676228302c20302c2030293b272f3e3c706174682069643d2763372720643d274d34362c36396c332d3368366c332c3363302c302d312c312d332c31682d364334372c37302c34362c36392c34362c36397a27207374796c653d277061696e742d6f726465723a207374726f6b653b207374726f6b653a2072676228302c20302c2030293b272f3e3c706f6c79676f6e2069643d2763342720706f696e74733d2734392c35322035352c35322035382c35342035352c35362034392c35362034362c353427207374796c653d277061696e742d6f726465723a207374726f6b653b207374726f6b653a2072676228302c20302c2030293b272f3e3c706174682069643d2761312720643d274d342c33396c332c3368366c332d3363302c302d312d312d332d31682d3643352c33382c342c33392c342c33397a27207374796c653d277061696e742d6f726465723a207374726f6b653b207374726f6b653a2072676228302c20302c2030293b272f3e3c706174682069643d2764362720643d274d37372c35356c2d332c3276386c332c3363302c302c312d312c312d33762d374337382c35362c37372c35352c37372c35357a27207374796c653d277061696e742d6f726465723a207374726f6b653b207374726f6b653a2072676228302c20302c2030293b272f3e3c706174682069643d2764322720643d274d36332c34306c332c3376386c2d332c3263302c302d312d312d312d33762d374336322c34312c36332c34302c36332c34307a27207374796c653d277061696e742d6f726465723a207374726f6b653b207374726f6b653a2072676228302c20302c2030293b272f3e3c706174682069643d2761322720643d274d332c34306c332c3376386c2d332c3263302c302d312d312d312d33762d3743322c34312c332c34302c332c34307a27207374796c653d277061696e742d6f726465723a207374726f6b653b207374726f6b653a2072676228302c20302c2030293b272f3ea2646970667358221220be3d943ccfc74487f9b1b6640d0ad6c379d9fe3ff0053e1ec62e8b948bf1c62c64736f6c63430008040033",
  "linkReferences": {},
  "deployedLinkReferences": {}
}